:100000000C9442020C942D230C9402230C94D722BE
:100010000C94AC220C9481220C9456220C942B222A
:100020000C9400220C94AE240C94AE240C94AE24B8
:100030000C9473020C9473020C9473020C9473026C
:100040000C9473020C94B5270C9473020C947302F5
:100050000C9473020C9473020C9473020C94C62AD1
:100060000C9473020C94FB230C94D1230C94730214
:100070000C9473020C9473020C9473020C9473022C
:100080000C9473020C9473020C9473020C9473021C
:100090000C9473020C9473020C9473020C9473020C
:1000A0000C9473020C9473020C9473020C947302FC
:1000B0000C9473020C9473020C9473020C947302EC
:1000C0000C9473020C9473020C9473020C947302DC
:1000D0000C9473020C9473020C94A7230C947D234C
:1000E0000C947302B32EA92EAB2EAD2EAF2EB52ECF
:1000F000B72EEA12C212CA12D212DA12F212FA128F
:1001000040294329322936293C297A2947294B2974
:100110005129552959295F29632967297A296D2988
:1001200071297529E029E529EA29F429FE29772A88
:10013000082A102A182A222A2C2A362A452A4F2A27
:10014000772A592A632A6D2A0C9463030C9475024A
:100150000C94AB2E0C9462270C948C070C94772A89
:100160000C94AA340C946D290C9413050C94471F1D
:100170000C9452100C949D270C9459290C94D21273
:100180000C94AD2E0C94CD030C94C01F0C94550C04
:100190000C94E0290C940F200C94910A0C94591F94
:1001A0000C94DA020C9474270C944B290C94B6032B
:1001B0000C9436290C94E5290C94EA120C943C29F1
:1001C0000C940E040C9463290C94D6030C94D9035C
:1001D0000C94CA030C94F4290C9473050C942E0C03
:1001E0000C94C4020C94DD040C94A92E0C945F2989
:1001F0000C94222A0C9432210C9417060C94E10AD8
:100200000C9467290C942C2A0C94C2120C94170994
:100210000C9447290C9462060C947E030C94CA1229
:100220000C9453270C94452A0C9453210C947F1062
:100230000C9440290C94592A0C94C5200C945129F3
:100240000C949B050C94F2120C94A8070C94E70BE9
:100250000C9443290C94A5240C949D1F0C943F04EA
:100260000C94362A0C946D2A0C94AC1F0C94182A0A
:100270000C94D0030C9456200C9484070C94FE2903
:100280000C949B0A0C944F2A0C94082A0C94EA298B
:100290000C9475290C9432290C94B72E0C94C6201A
:1002A0000C9411030C946C270C9455290C946F2713
:1002B0000C94DC050C94FA120C94CB320C94DC03F5
:1002C0000C94B5030C94E9020C94EE080C94D3033F
:1002D0000C9471290C94DA120C94AF2E0C944603F2
:1002E0000C94E5020C9472270C94581F0C94AD20CA
:1002F0000C949F030C94B52E0C94B32E0C941A21DD
:100300000C94C5060C947A290C94632A0C94102A38
:100310000C94CE1F4E414E494E495459494E46CD3C
:10032000CCCC3D0AD7233C17B7D13877CC2B3295AC
:1003300095E6241FB14F0A000020410000C842008A
:10034000401C4620BCBE4CCA1B0E5AAEC59D740054
:10035000000A0B02090C0D0E08070304010000003F
:10036000000000000000000000000000000000008D
:10037000000000000000000000000012111000004A
:10038000000000000000000000000000000000006D
:10039000000000000000002200250028002B002E95
:1003A000003100340002010000050108010B0100CA
:1003B0000020002300260029002C002F003200001E
:1003C00001000003010601090105050505070508EF
:1003D000080808020202020A0A08080404040401C8
:1003E00001010101010101030303030303030304EA
:1003F0000707070C0C0C0C0C0C0C0C02020202067A
:10040000060606060606060B0B0B0B0B0B0B0B0169
:100410000210202008081020401020408002010215
:1004200001080402010102040810204080804020DD
:100430001008040201800402018040201008040218
:100440000108040201010204081020408001020496
:1004500008102040807C3C3E5E2B3D3F2F5B5D3B87
:100460002C2A225C0000002100240027002A002DF5
:10047000003000330001010000040107010A0100FF
:10048000CB32AA3411241FBECFEFD1E2DEBFCDBFE5
:1004900000E00CBF29E0A8EDB4E001C01D92A63930
:1004A000B207E1F714E0A0E0B2E0EEE3FDE700E020
:1004B0000BBF02C007900D92A83DB107D9F712E01B
:1004C000C1E4D2E000E006C021970109802FFE01BF
:1004D0000E944338C034D10780E00807A9F70E9482
:1004E000102B0C948D3E0C940000CF93DF93EC0105
:1004F000E881F9810190F081E02DCE01199518165F
:10050000190644F4E881F9810684F785E02DCE01CF
:100510001995EECFDF91CF910895DC011496ED91FE
:10052000FC9115971C968C911C97882361F01A9664
:100530002D913C911B97621773072CF01896ED9143
:10054000FC9119970AC020E030E007C03097C9F04D
:100550000280F381E02D2F5F3F4F26173707B4F35A
:100560002617370771F481E01C968C931C971B9615
:100570003C932E931A971996FC93EE931897CF01FC
:10058000089580E090E00895CF93DF9377FD0EC04B
:10059000FC01228133816217730744F4EA010E944F
:1005A0008D02FC01D183C08381E001C080E0DF9136
:1005B000CF9108950E948D02009721F0FC01808167
:1005C0009181089580E090E00895FC0182819381FB
:1005D0000895CF93DF93EC018F819885019797FD64
:1005E00003C098878F8302C018861F8289859A85E9
:1005F0002F8138852817390744F401979A8789870E
:100600008B859C8501979C878B87E881F981068083
:10061000F781E02DCE01199581E08E83DF91CF9196
:100620000895DC0117968D919C911897019685305D
:10063000910514F084E090E018969C938E931797A0
:100640001B968D919C911C9717962D913C91189714
:10065000821793077CF419962D913C911A972F5F7E
:100660003F4F1A963C932E93199701961C969C9394
:100670008E931B9781E016968C931697ED91FC91C3
:1006800011970680F781E02DCD011994DC011796B2
:100690008D919C911897019797FD05C018969C9392
:1006A0008E93179704C018961C921E92179781E09C
:1006B00016968C931697ED91FC9111970680F78111
:1006C000E02DCD011994DC0117968D919C9118971E
:1006D00001968430910514F083E090E018969C9385
:1006E0008E93179781E016968C931697ED91FC9157
:1006F00011970680F781E02DCD011994DC01599600
:10070000ED91FC915A973097B9F083899489A58926
:10071000B6894285538564857585841B950BA60B28
:10072000B70B811520E89207A105B10538F08FEFCE
:100730009FE7A0E0B0E0089580E090E00895CF93B7
:10074000DF931F92CDB7DEB76983DC01ED91FC9199
:100750000280F381E02D41E050E0BE016F5F7F4FEA
:1007600019950F90DF91CF910895089580E090E062
:100770000895E82FF0E0EE0FFF1FE852FB4F0190C5
:10078000F081E02D309729F081859285019692873E
:100790008187089585E00C94B90384E00C94B90333
:1007A00083E00C94B90382E00C94B90381E00C94CB
:1007B000B90380E00C94B903DC011D968D919C91E6
:1007C0001E97019797FD05C01E969C938E931D97CB
:1007D00004C01E961C921E921D9719968D919C9195
:1007E0001A971D962D913C911E972817390774F47E
:1007F00001971A969C938E9319971B968D919C91B5
:100800001C9701971C969C938E931B97ED91FC91DE
:1008100011970680F781E02DCD011994DC011D961A
:100820008D919C911E9701968530910514F084E07E
:1008300090E01E969C938E931D971B968D919C9194
:100840001C971D962D913C911E97821793077CF45F
:1008500019962D913C911A972F5F3F4F1A963C9312
:100860002E93199701961C969C938E931B97ED914E
:10087000FC9111970680F781E02DCD0119944F92DC
:100880005F926F927F928F929F92AF92BF92CF9220
:10089000DF92EF92FF920F931F93CF93DF93DC01D0
:1008A00012962D913C911397223031050CF474C0AF
:1008B0005B016C012C01B4E04B0E511C7201D7019D
:1008C000CD91DC912097D1F3B501CE010E948F121A
:1008D0004C01FC01028113810115110559F4E41446
:1008E000F50461F7D60117969C938E9316971C9684
:1008F0001C9252C0B501C8010E948F12FC01628097
:100900007380D40113961C921E9212971382128246
:10091000B801CE01F5011995181619068CF0D7010A
:10092000CD93DC937E01B2E0EB0EF11C0A80DB81FB
:10093000C02D209769F7F801D7010D931C931FC0B4
:10094000F701118300837801F2E0EF0EF11CD8016A
:1009500012960D911C91139701151105C9F6F70117
:10096000D183C0838A819B81009711F0EC01FACF7B
:100970007B826A827E01F2E0EF0EF11CA0CF8281C1
:100980009381009711F0FC01FACF738262827F019C
:1009900082E0E80EF11C93CFDF91CF911F910F9170
:1009A000FF90EF90DF90CF90BF90AF909F908F908F
:1009B0007F906F905F904F900895EF92FF920F930A
:1009C0001F93CF93DF93DC0112960D911C91139727
:1009D0000115110561F4ED91FC910480F581E02D84
:1009E000DF91CF911F910F91FF90EF9019947B01B0
:1009F000EC0184E090E00E942E392C813D81FC01C5
:100A000033832283F182E0829D838C830F5F1F4FAB
:100A10001B830A831C8681E0DF91CF911F910F9188
:100A2000FF90EF900895CF92DF92EF92FF920F9395
:100A30001F93CF93DF939B01BA01DC0112964D9176
:100A40005C9113972417350734F0ED91FC910480E5
:100A5000F581E02D09C02115310579F4DC01ED9116
:100A6000FC910680F781E02DDF91CF911F910F91CE
:100A7000FF90EF90DF90CF9019947B01E9018C01FA
:100A800084E090E00E942E396C01FC0111821082FA
:100A900013821282BE0161507109C8010E948D0249
:100AA000D6011196FC92EE92FC01228133811396BD
:100AB0003C932E931297D382C282D80112968D91C5
:100AC0009C911397019613969C938E9312971C9664
:100AD0001C9281E0DF91CF911F910F91FF90EF90D9
:100AE000DF90CF9008950F931F93CF93DF93EC0186
:100AF0008B0184E090E00E942E39FC011382128267
:100B0000118300832C813D81232B29F0EE81FF810D
:100B10009383828302C09D838C839F838E838A818B
:100B20009B8101969B838A831C8681E0DF91CF9114
:100B30001F910F910895EF92FF920F931F93CF9300
:100B4000DF93FC01628173811616170664F5EC01D0
:100B5000148661307105C1F0625071090E948D02E6
:100B60007C01FC0182819381FC01008111810E9442
:100B7000C339F70113821282FF82EE828A819B8140
:100B800001979B838A830DC084819581FC0100813C
:100B900011810E94C3391D821C821F821E821B820A
:100BA0001A82C80102C080E090E0DF91CF911F91CE
:100BB0000F91FF90EF900895EF92FF920F931F9384
:100BC000CF93DF93DC0112962D913C91139712166F
:100BD000130624F521303105A1F0EC01EC81FD81F3
:100BE000E280F38000811181CF010E94C339FD8230
:100BF000EC828A819B8101979B838A831C86C80132
:100C00000FC0DC01ED91FC910484F585E02DDF91AE
:100C1000CF911F910F91FF90EF90199480E090E099
:100C2000DF91CF911F910F91FF90EF9008950F9357
:100C30001F93CF93DF9377FD3EC0DC0112962D9179
:100C40003C91139762177307B4F56115710531F480
:100C5000ED91FC910684F785E02D0BC02150310900
:100C60006217730759F4DC01ED91FC910484F5855A
:100C7000E02DDF91CF911F910F911994EC016150FC
:100C800071090E948D02DC011296ED91FC9113977F
:100C9000008111812281338113963C932E93129708
:100CA000CF010E94C3398A819B8101979B838A83EC
:100CB0001C86C80102C080E090E0DF91CF911F91B7
:100CC0000F910895EF92FF920F931F93CF93DF93AD
:100CD00000D000D0CDB7DEB7DC0116962C912223D0
:100CE00009F446C08C010E944810F80167817085A4
:100CF00081859285681B790B80E090E00E946110ED
:100D000065E573E0CE0101960E94EB21CE010196CC
:100D10000E947610CE0101960E94E621E12CF12C72
:100D2000B70181E090E00E946110D8011996ED9121
:100D3000FC911A97EE0DFF1DEE0FFF1FE00FF11F44
:100D400065857685CE0101960E94EB21CE01019644
:100D50000E947610CE0101960E94E621BFEFEB1AA9
:100D6000FB0AE4E0EE16F104D9F6D80116961C92BF
:100D700026960FB6F894DEBF0FBECDBFDF91CF91A0
:100D80001F910F91FF90EF900895CF92DF92EF9215
:100D9000FF920F931F93CF93DF93CDB7DEB72C97BE
:100DA0000FB6F894DEBF0FBECDBFDC011696DC9007
:100DB000DD2009F49AC08C010E944810F801678177
:100DC000708581859285681B790B80E090E00E9498
:100DD000611065E573E0CE0101960E94EB21CE0122
:100DE00001960E947610CE0101960E94E621E12C28
:100DF000F12CB70181E090E00E946110D8011996B2
:100E0000ED91FC911A97EE0DFF1DEE0FFF1FE00F05
:100E1000F11F65857685CE0107960E94EB21CE01F4
:100E200007960E947610D8011496ED91FC911597C3
:100E30000588F689E02DEE0FFF1FE758FD4F608112
:100E40007181CE0101960E94EB212B853C858D811D
:100E50009E812817390731F58F81988569817A81BC
:100E6000009719F061157105B9F46115710559F014
:100E70002115310541F0FB01208130E088279927B9
:100E8000821B930B0BC0009779F0232B69F0DC01D8
:100E90009C91892F90E002C00E947D3BCC24C3949A
:100EA000892B19F0C12C01C0CD2CCE0101960E94D6
:100EB000E621CC2071F067E573E0CE0101960E9437
:100EC000EB21CE0101960E947610CE0101960E9480
:100ED000E621CE0107960E94E621BFEFEB1AFB0A3E
:100EE000E4E0EE16F10409F084CF2C960FB6F894E6
:100EF000DEBF0FBECDBFDF91CF911F910F91FF904D
:100F0000EF90DF90CF900895FC01818D928D009736
:100F100011F00C9451180895CF93DF93EC01898D53
:100F20009A8D009739F481E090E09B838A8380E07A
:100F300090E00BC0FC01138212820E94B71DE98D64
:100F4000FA8D22813381232B71F7DF91CF910895A0
:100F50008F929F92AF92BF92EF92FF920F931F9347
:100F6000CF93DF93CDB7DEB72C970FB6F894DEBFE3
:100F70000FBECDBF7C010E944810D7011D966D9118
:100F80007C911E9719968D919C911A97681B790BED
:100F900080E090E00E94611065E573E0CE0101966B
:100FA0000E94EB21CE0101960E947610CE0101969F
:100FB0000E94E62100E010E0B80181E090E00E948C
:100FC0006110D7011996ED91FC911A97E00FF11F6E
:100FD000EE0FFF1FEE0DFF1D67857089CE01019694
:100FE0000E94EB21CE0101960E94761089819A81A0
:100FF000009719F00E94B83403C060E070E0CB01A4
:10100000D7011496ED91FC91159781A092A0A3A011
:10101000B4A0681579058A059B0571F467E573E04E
:10102000CE0107960E94EB21CE0107960E94761012
:10103000CE0107960E94E621CE0101960E94E6218C
:101040000F5F1F4F0430110509F0B6CF2C960FB675
:10105000F894DEBF0FBECDBFDF91CF911F910F91EE
:10106000FF90EF90BF90AF909F908F9008950F9357
:101070001F93CF93DF93EC018B01E881F9810190FD
:10108000F081E02D19950A974CF0E881F9810284EE
:10109000F385E02D60E070E0CE011995E881F981DB
:1010A0000480F581E02DB801CE01DF91CF911F9131
:1010B0000F911994AF92BF92CF92DF92EF92FF926D
:1010C0000F931F93CF93DF938B01DB01ED91FC9185
:1010D0000190F081E02DCB0119955C01892B29F15C
:1010E000C0E0D0E0C12CD12C7601CA15DB059CF400
:1010F000D801ED91FC910088F189E02DBE01C80175
:101100001995092E000CAA0BBB0BC80ED91EEA1E9E
:10111000FB1E2196EACF9501BB0C440B550BC70172
:10112000B6010E942438C90102C08FEF9FEFDF9102
:10113000CF911F910F91FF90EF90DF90CF90BF90D4
:10114000AF9008956230710594F06230710591F0AE
:101150006330710591F06430710591F0673071056D
:1011600094F06930710594F086E090E0089580E095
:1011700090E0089581E090E0089582E090E0089585
:1011800083E090E0089584E090E0089585E090E0A9
:101190000895DC0113961C921E92129781E0169618
:1011A0008C93169718961C921E9217971A961C925B
:1011B0001E92199783E090E01C969C938E931B9748
:1011C00089E592E011969C938E9388E0E9E3F2E042
:1011D0001D9601900D928A95E1F70895CF93DF93C4
:1011E000FC01278130852230310589F024F421303B
:1011F000310569F011C02330310549F02430310543
:1012000059F40480F581E02D168A158A05C0048002
:10121000F581E02D368B258B85E190E00E942E39FB
:10122000EC010E94C908CE01DF91CF910895CF93C0
:10123000DF93DC011496ED91FC91159721E025A335
:101240001D968D919C911E978230910591F03CF4F2
:101250000197E1F480E895E2A0E0B0E013C08330AC
:10126000910561F0049791F480E990EDA3E0B0E07E
:1012700009C080E091EEA0E0B0E004C080E092EC14
:10128000A1E0B0E081A392A3A3A3B4A385E190E081
:101290000E942E39EC010E94C908CE01DF91CF9146
:1012A0000895EF92FF920F931F93CF93DF93EC017A
:1012B0007B018A011B821A8288EE93E0A0E0B0E0F5
:1012C0008C839D83AE83BF8385EB92E09983888373
:1012D0008DE190E00E942E399A8F898F009779F0E6
:1012E0002DE1F701DC0101900D922A95E1F74CE028
:1012F00050E0B801CE010C960E948D3B188EDF9114
:10130000CF911F910F91FF90EF9008952F923F92F0
:101310004F925F926F927F928F929F92AF92BF9205
:10132000CF92DF92EF92FF920F931F93CF93DF93B1
:101330001F921F92CDB7DEB7FC018581882309F487
:10134000D9C0848180FFD6C021E02A834389548993
:101350006589768982859385A485B585481759075F
:101360006A077B0709F41A826F013A81832F90E0A4
:10137000DE0111964D013F01B6E06B0E711C892B09
:1013800009F47DC0D6011A964D915D916D917C91C5
:101390001D975A01B1E0BB22F60125811A012B01EC
:1013A00089E056944794379427948A95D1F7838D92
:1013B000948D223061F4FC01828D938DA48DB58DC6
:1013C000BC01CD01620D731D841D951D45C0DC015E
:1013D00014961C9111501221A114B104D1F41111D1
:1013E00018C0452B462B472B51F4F6018789908D69
:1013F000A18DB28D86839783A087B1870AC046816D
:1014000057816085718593010E946626882309F4BF
:1014100071C0F601238D348D86819781A085B185B9
:101420000297A109B109AC01BD01F901058404C00D
:10143000440F551F661F771F0A94D2F7868597853C
:10144000A089B189840F951FA61FB71FBC01CD01CC
:10145000610F711D811D911DD60114962C9126FFDF
:1014600014C00091150210911602209117023091BC
:101470001802601771078207930751F506C0FA81B9
:10148000FF23C1F1898190E037C040E00E947D25B3
:10149000882381F1F501E450FB4FD401CF0101967F
:1014A000E817F90719F021912D93FACFEFEF8E1A73
:1014B0009E0AF60182859385A485B5850196A11DB6
:1014C000B11D82879387A487B58780E090E057CFCE
:1014D000740101E010E09501AB01BC018091FC06B4
:1014E0009091FD060E94B81C882321F0BFEF8B1A53
:1014F0009B0ADFCF8FEF9FEF0F900F90DF91CF917F
:101500001F910F91FF90EF90DF90CF90BF90AF9021
:101510009F908F907F906F905F904F903F902F9013
:101520000895FC01818D928D009711F00C9486092D
:101530008FEF9FEF08950F931F93CF93DF93FC01DD
:10154000818D928D0097B9F0EF010E9486098C0180
:101550000F3F8FEF180791F0898D9A8DFC0142851E
:1015600053856485758541505109610971090E944F
:101570008F18C80105C080E090E002C08FEF9FEF98
:10158000DF91CF911F910F9108950F931F93CF93E8
:10159000DF931F92CDB7DEB78C0169830E94E037DD
:1015A0006981861741F0C8010F90DF91CF911F919B
:1015B0000F910C94E8370F90DF91CF911F910F910D
:1015C0000895CF93DF93DC0117962D913C911897E6
:1015D0002130310561F024F4232B09F48CC096C02E
:1015E00022303105F9F023303105F1F18FC087E168
:1015F00090E00E942E39EC011B821A8281E08E83DA
:1016000018861F821A86198683E090E09C878B8754
:1016100085E692E0998388838AE0E1E4F2E0DE01E6
:101620001D961CC089E190E00E942E39EC011B82BE
:101630001A8281E08E8318861F821A86198683E0BB
:1016400090E09C878B8781E792E0998388831E8650
:101650001D868AE0EBE4F2E0DE011F9601900D9218
:101660008A95E1F7CE0154C0DC011496ED91FC910E
:10167000159781A192A1A3A1B4A1803825E2920778
:10168000A105B105A1F0811521EE9207A105B105D3
:1016900081F0811522EC920721E0A207B10559F0F3
:1016A0008039904DA340B10541F4C4E007C0C1E0CA
:1016B00005C0C2E003C0C3E001C0C0E085899689CF
:1016C0008130910571F08230910539F083309105B8
:1016D00031F0892B31F463E005C061E003C062E0C2
:1016E00001C060E085E090E00E94C50A6C2F84E0B4
:1016F00090E00E94C50A8DE090E00E942E39D82F1C
:10170000C92F0E947C128D2F9C2F02C080E090E098
:10171000DF91CF910895CF93DF9360E080E090E078
:101720000E94C50A60E081E090E00E94C50A63E083
:1017300082E090E00E94C50AC3E0D0E060E0CE0104
:101740000E94C50A2196C11580E1D807B9F7DF913B
:10175000CF910895CF93DC0117968D919C911897A6
:101760008617970758F115968D919C91169720E052
:1017700030E040E050E02817390701F1211531052C
:1017800081F01396ED91FC911497E20FF31FC08145
:10179000C11117C03197E081EE2369F04F5F5F4FB1
:1017A0000AC04617570739F41396ED91FC91149728
:1017B000C081C11109C02F5F3F4FDDCFE0E0F0E0F5
:1017C00003C046175707B9F7CF01CF910895CF92BD
:1017D000DF92EF92FF920F931F93CF93DF93EC0171
:1017E0006B0160E070E0C6010E94AA0B7C01892BAE
:1017F00059F100E010E0E881F9810480F581E02DE5
:10180000B801CE0119958823F9F0E881F9810680A5
:10181000F781E02DA701B801CE011995882389F041
:10182000E881F9810084F185E02DA601B801CE019F
:10183000DF91CF911F910F91FF90EF90DF90CF90AC
:1018400019940F5F1F4FD7CF80E0DF91CF911F9189
:101850000F91FF90EF90DF90CF900895DC011496E8
:10186000ED91FC9115972589368921503109233056
:101870003105D0F0278530892A50310937FD04C061
:10188000308B278721E003C0108A178620E048ECC0
:1018900050E0548B438B222339F0DC01ED91FC9115
:1018A0000680F781E02D19940895DC011496ED91DE
:1018B000FC9115972589368921503109233031054E
:1018C000E8F027853089265F3F4F2536310524F41F
:1018D000308B278721E005C024E630E0308B278756
:1018E00020E048EC50E0548B438B222339F0DC019C
:1018F000ED91FC910680F781E02D199408958F9267
:101900009F92AF92BF92CF92DF92EF92FF920F938E
:101910001F93CF93DF93CDB7DEB7C85FD1090FB662
:10192000F894DEBF0FBECDBF6C010091DD081091B1
:10193000DE08D8011A96ED90FC901B9796966D9153
:101940007D918D919C9199970E94F3387F936F932D
:10195000F601EE0FFF1FE553FD4F81818F938081CC
:101960008F93F80181858F9380858F9380898F93E2
:1019700087858F93D7019A968C919A978F93999692
:101980008C9199978F9398968C9198978F9397961F
:101990008C9197978F9396968C9196978F93959617
:1019A0008C918F930588F689E02DEE0FFF1FED5384
:1019B000FD4F81818F9380818F93F801808D8F936C
:1019C00087898F93828D8F93818D8F93848D8F9351
:1019D000838D8F93868D8F93858D8F938CEA93E083
:1019E0009F938F938E010F5F1F4F1F930F930E9442
:1019F000B63BB801CE018D509F4F0E94EB2181E391
:101A00000E9451160FB6F894DEBF0FBECDBFE09115
:101A1000DD08F091DE08892B09F012C1848581115F
:101A200034C181E30E945116019709F415C18091D8
:101A30002609882321F081E299E00E94E41B10929C
:101A40000209109200091092FD081092FC0885E32B
:101A50008093FB080E94BA2A6B017C0161E08091AF
:101A6000FB080E947B2961E08091FB080E947A16A6
:101A70001FB7F8948091F704811127C0EEEFF3E0CF
:101A80008491E4E4F4E09491E82FF0E0EE0FFF1F7E
:101A9000EB59FB4FA591B491EC91E92321F461E05E
:101AA00085E30E947A1661E085E30E947B298CB56C
:101AB00080618CBD8CB580648CBD61E084E30E9444
:101AC0007B2961E083E30E947B298091F7048F5F8B
:101AD0008093F7041FBF82E580933808109239087D
:101AE00080913808909139080E94A4271AE08FEF5E
:101AF0000E94171C1150D9F787EF98E00E94F61B3F
:101B000020E030E0A90160E087EF98E00E94561CD9
:101B1000182F80930109813049F00E94BA2A6C196C
:101B20007D09613D774060F381E054C02AEA31E0ED
:101B300040E050E068E087EF98E00E94561C82FF8A
:101B400003C0109302090EC014E00E941E1C809373
:101B500001091150D1F78A3A11F082E03BC082E0CE
:101B60008093020980910209823021F0812C912C0E
:101B7000540105C0812C912CA12C80E4B82E20E0CA
:101B800030E0A90167E387EF98E00E94561CA501A9
:101B9000940169E287EF98E00E94561C8093010946
:101BA000882349F00E94BA2A6C197D09613D77406B
:101BB00030F388E00FC080910209823001F520E007
:101BC00030E0A9016AE387EF98E00E94561C882361
:101BD00041F086E08093FC0887EF98E00E940C1C9F
:101BE0003BC00E941E1C807C803C19F483E08093E3
:101BF00002090E941E1C0E941E1C0E941E1C87EFD0
:101C000098E00E940C1C80E58093380810923908F7
:101C100081E00E94DC13882369F081E299E00E9450
:101C20000B158823C9F0E091DD08F091DE0881E012
:101C300084872BC080E00E94DC13882369F0EDCFFD
:101C40008485882349F081E299E00E94E41BE091B9
:101C5000DD08F091DE081486CE018D509F4F0E9462
:101C6000E621C850DF4F0FB6F894DEBF0FBECDBFE0
:101C7000DF91CF911F910F91FF90EF90DF90CF9068
:101C8000BF90AF909F908F900895CD57DF4F1982EE
:101C90001882C358D04009E313E0CF57DF4F1983B0
:101CA0000883C158D040CA57DF4F1882C658D04069
:101CB000CE018F579F4F0E940B15CD57DF4F888164
:101CC0009981C358D040C354DF4F99838883CD5B3B
:101CD000D040C554DF4F19830883CB5BD040CB572E
:101CE000DF4F8881C558D040C154DF4F8883CF5B18
:101CF000D040CA57DF4F8881C658D040C054DF4F0C
:101D00008883C05CD040C957DF4F488159816A81C0
:101D10007B81C758D040CF53DF4F488359836A83B4
:101D20007B83C15CD040C557DF4F488159816A81B0
:101D30007B81CB58D040CB53DF4F488359836A8394
:101D40007B83C55CD040C157DF4F488159816A8190
:101D50007B81CF58D040C753DF4F488359836A8374
:101D60007B83C95CD040CD56DF4F9881C359D040AA
:101D7000C353DF4F9883CD5CD040CC56DF4F4881B2
:101D800059816A817B81C459D040C253DF4F488357
:101D900059836A837B83CE5CD040C856DF4F48812D
:101DA00059816A817B81C859D040CE52DF4F488328
:101DB00059836A837B83C25DD040C456DF4F28813C
:101DC0003981CC59D040CA52DF4F39832883C65D50
:101DD000D040C056DF4F19821882C05AD040C25638
:101DE000DF4F19830883CE59D040CD55DF4F18827D
:101DF000C35AD040811126C0C652DF4F19821882C3
:101E0000CA5DD04088EE93E0A0E0B0E0C452DF4F5E
:101E100088839983AA83BB83CC5DD04085EB92E015
:101E2000C852DF4F99838883C85DD040CF50DF4FC1
:101E300019821882C15FD040CC51DF4F1882C45E36
:101E4000D040B5C027E141E154E0BE0165547F4F69
:101E5000CE0182569F4F0E942D1A882369F2CE012F
:101E600085549F4F0E94E41BCF54DF4F4881598116
:101E70006A817B81C15BD040CE0182569F4F0E9418
:101E80008F18C056DF4F88819981C05AD040CD57F6
:101E9000DF4F99838883C358D040CF57DF4F1983D2
:101EA0000883C158D040CE55DF4F8881C25AD040F8
:101EB000CB57DF4F8883C558D040CD55DF4F888141
:101EC000C35AD040CA57DF4F8883C658D040CC553C
:101ED000DF4F88819981AA81BB81C45AD040C957FC
:101EE000DF4F88839983AA83BB83C758D040C855E6
:101EF000DF4F88819981AA81BB81C85AD040C557DC
:101F0000DF4F88839983AA83BB83CB58D040C455C5
:101F1000DF4F88819981AA81BB81CC5AD040C157BB
:101F2000DF4F88839983AA83BB83CF58D040C055A5
:101F3000DF4F8881C05BD040CD56DF4F8883C359C7
:101F4000D040CF54DF4F88819981AA81BB81C15B8A
:101F5000D040CC56DF4F88839983AA83BB83C45972
:101F6000D040CB54DF4F88819981AA81BB81C55B6A
:101F7000D040C856DF4F88839983AA83BB83C85952
:101F8000D040C754DF4F88819981C95BD040C45687
:101F9000DF4F99838883CC59D04041E154E0BE01A2
:101FA0006F577F4FCE0188529F4F0E945109CF50EB
:101FB000DF4FE881F981C15FD040309709F44CCE02
:101FC0008581882309F448CEBE016D507F4FCE0134
:101FD00088529F4F0E945823CF50DF4F88819981AC
:101FE000C15FD040009709F437CE0E94E41BCF5068
:101FF000DF4F88819981C15FD0400E94C3392CCEC8
:10200000BF92CF92DF92EF92FF920F931F93CF93E5
:10201000DF937C016B018A01DB011496CD91DC9189
:102020001597C417D50720F4812F8E01C42FD82F00
:1020300066ED74E0C7010E94EB21F6018481958171
:1020400008171907D0F48C179D0708F4EC01D60186
:10205000ED91FC911197EC0FFD1FB08010824D9116
:102060005C91BA01600F711FC7010E94C521D601A2
:10207000ED91FC91EC0FFD1FB082C701DF91CF9174
:102080001F910F91FF90EF90DF90CF90BF90089538
:1020900061E08FED98E00E94AB248BE39FE1019714
:1020A000F1F70895CF93DF930E94481085E190E007
:1020B0000E942E39EC010E94C908CE01DF91CF9118
:1020C0000895643008F063E09091F208691710F009
:1020D0006FEF690FE62FF0E0E152F74F9489682F18
:1020E000690F60688FED98E00C94AB24FC0144818B
:1020F0005581608171818FED98E00C94591F8F920A
:102100009F92AF92BF92CF92DF92EF92FF920F9386
:102110001F93CF93DF93CDB7DEB76A970FB6F894CE
:10212000DEBF0FBECDBF7C0161E070E080E090E0DB
:102130000E946110D7011496ED91FC91159786814C
:1021400097818E010F5F1F4F892B09F07AC182851D
:102150009385BC01625C7F4F0E945A086C016DE15F
:1021600074E0C8010E94EB21C8010E947610C801EA
:102170000E94E62161E070E08EE090E00E94611034
:102180006DE274E0C8010E94EB21C8010E94761044
:10219000C8010E94E621D7011496ED91FC91159794
:1021A000B601828593850E94A2081E8A1D8A188E18
:1021B0001F8A1A8E198E4AE0B80127E030E0F90133
:1021C000E81BF90BCF010E94DF34B801CE01459620
:1021D0000E94C521CE0145960E947610CE014596FB
:1021E0000E94E62160E374E0C8010E94EB21C8016F
:1021F0000E947610C8010E94E62162E070E080E053
:1022000090E00E946110D7011496ED91FC91159712
:10221000B601828593850E94A208880F991FFC0150
:10222000EF55FD4F81818F9380818F9384E394E0FC
:102230009F938F931F930F930E94B63BB801CE01DB
:1022400045960E94EB21CE0145960E947610CE0164
:1022500045960E94E62162E070E08FE090E00E94E7
:102260006110F701C480D580D60196968D909D901F
:10227000AD90BC9099970F900F900F900F900F908A
:102280000F9020E030E040E85FEBC501B4010E9410
:10229000293918164CF4C501B4010E94F3387F9314
:1022A0006F938AE394E021C0F601858996890297AD
:1022B00091F486A5882379F060E474E0CE01459618
:1022C0000E94EB21CE0145960E947610CE014596E4
:1022D0000E94E62123C0D60119968C9119978F93FD
:1022E00018968C918F9386E494E09F938F931F931D
:1022F0000F930E94B63BB801CE0145960E94EB2198
:10230000CE0145960E947610CE0145960E94E621A8
:102310000F900F900F900F900F900F9063E070E070
:1023200080E090E00E946110F701C480D580D60162
:102330001F962D913C915097EAE0F0E0C901BF0152
:102340000E94103890E3980F9093F5042A303105DD
:10235000CCF0CB01BF010E941038805D8093F40463
:102360002436310594F0C90164E670E00E9410380B
:10237000CB01BF010E941038805D8093F30483EF8E
:1023800094E005C085EF94E002C084EF94E09F9351
:102390008F93D6015596ED91FC915697EE0FFF1F46
:1023A000E756FD4F81818F9380818F938AE494E07B
:1023B0009F938F931F930F930E94B63BB801CE015A
:1023C00045960E94EB21CE0145960E947610CE01E3
:1023D00045960E94E62160E070E080E090E00E9477
:1023E0006110D7011496ED91FC911597808D8F9314
:1023F00087898F93828D8F93818D8F93848D8F9317
:10240000838D8F93868D8F93858D8F938EE594E04A
:102410009F938F931F930F930E94B63BB801CE01F9
:1024200045960E94EB21CE0145960E947610CE0182
:1024300045960E94E6210FB6F894DEBF0FBECDBFD1
:1024400048C061E070E080E090E00E94611068E7C1
:1024500074E0C8010E94EB21C8010E947610C801F7
:102460000E94E62162E070E080E090E00E9461104E
:10247000D7011496ED91FC91159764817581868141
:1024800097819B01281B390B44E6429FC001439F63
:10249000900D11240E9410387F936F9387E894E089
:1024A0009F938F931F930F930E94B63BB801CE0169
:1024B00045960E94EB21CE0145960E947610CE01F2
:1024C00045960E94E6210F900F900F900F900F906D
:1024D0000F906A960FB6F894DEBF0FBECDBFDF91A6
:1024E000CF911F910F91FF90EF90DF90CF90BF9011
:1024F000AF909F908F900895FC011382128281E02B
:102500008683108617821286118683E090E0948776
:10251000838781E992E0918380830C9448100F9324
:102520001F93CF93DF93EC018B016A817B8161154F
:10253000710551F0CE01F80119951816190624F00D
:102540000A80DB81C02DF1CFCE01DF91CF911F91A9
:102550000F910895883008F054C0A82FB0E0AA0F5A
:10256000BB1FAB5FBD4F11967C936E9390E0FC0157
:102570003197E730F10530F58827E758FF4F8F4F47
:102580000C944338809169008C7F8260809369004D
:10259000E89A089580916900837F8860809369003C
:1025A000E99A0895809169008F7C80628093690028
:1025B000EA9A0895809169008F738068809369001A
:1025C000EB9A089580916A008C7F826080936A0004
:1025D000EC9A089580916A00837F886080936A00F6
:1025E000ED9A089580916A008F7C806280936A00E2
:1025F000EE9A089580916A008F73806880936A00D4
:10260000EF9A089580914008823091F028F4882351
:1026100049F0813051F00895843081F060F08530C8
:1026200081F0089569ED73E00EC066ED73E00BC0B4
:1026300063ED73E008C060ED73E005C06DEC73E01E
:1026400002C06AEC73E080913B080C94AA120F93CD
:102650001F930E94BA2A609306077093070780931E
:10266000080790930907E091FE06F091FF060284A7
:10267000F385E02D8EEF96E0199597FF1FC00E941D
:10268000BA2A009106071091070720910807309198
:102690000907DC01CB01801B910BA20BB30B00914E
:1026A0000207109103072091040730910507801756
:1026B0009107A207B307B8F28FEF9FEF1F910F9119
:1026C00008959F92AF92BF92CF92DF92EF92FF92C6
:1026D0000F931F93CF93DF93FC01C081D181188E9C
:1026E0001F8A1A8E198E1C8E1B8E1E8E1D8E8AE0DE
:1026F00090E00E94E037182F8BE090E00E94E037D6
:10270000282F30E0C901FFEF1F9F800D911D11247C
:102710009E8F8D8F8CE0A82EB12C912C0CE010E0B8
:102720009CE3E92EF12C28E1C22ED12CC8010E9495
:10273000E037282F882391F1482F50E0911003C0F3
:102740005A8F498F09C0898D9A8D480F591F5A8F0A
:10275000498F291508F45801898D9A8D8C3391057C
:10276000ACF0B7010E941038FC018B8D9C8D860F58
:10277000971FB6010E9410384D8D5E8D640F751F36
:102780007E8F6D8F9C8F8B8FFA8FE98F0F5F1F4F1E
:10279000922E011540E1140749F601C05801C50108
:1027A000DF91CF911F910F91FF90EF90DF90CF902D
:1027B000BF90AF909F9008958F929F92AF92BF92DB
:1027C000CF92DF92EF92FF92CF93DF93C82F87EFE4
:1027D00098E09093FD068093FC06CC2369F1C53008
:1027E00010F080E00DC140E060E070E0CB010E949D
:1027F0007D258823B1F320E1C29FC00111248451BB
:102800009B4FFC01E254FE4F20812F7751F73C96FD
:1028100040815181628173814436510561057105A2
:1028200000F33497C080D180E280F380C114D104DA
:10283000E104F10421F4D5CFC12CD12C760140E084
:10284000C701B6010E947D25882359F280910705B2
:10285000909108058115924021F6A0910C05AA23BC
:1028600009F4BFCF60910A0570910B0561157105E0
:1028700009F4B7CF20910905222309F4B2CFA09320
:1028800015092093070980E030E0E1E0F0E0C82F6F
:10289000AF01082E02C0440F551F0A94E2F7241717
:1028A000350741F0982F8F5F983089F789E0809342
:1028B000100997CF809310092091120530911305CC
:1028C0002115310519F040E050E008C020912005A5
:1028D000309121054091220550912305209308094C
:1028E0003093090940930A0950930B094601570197
:1028F000860E971EA11CB11C809216099092170992
:10290000A0921809B0921909E0910D05F0910E05F9
:10291000F0931C09E0931B09B0E00E94F637860E85
:10292000971EA81EB91E80921D0990921E09A092A2
:102930001F09B092200985E0EE0FFF1F8A95E1F78D
:10294000E150FE4FEF2FFF27E6958E0E9F1EA11C34
:10295000B11C8092110990921209A0921309B092B1
:10296000140920910F05309110052115310521F032
:10297000A90160E070E008C040911C0550911D0560
:1029800060911E0570911F05D701C601881999092C
:10299000AA09BB09840F951FA61FB71F04C0B695CF
:1029A000A79597958795CA95D2F780930C09909330
:1029B0000D09A0930E09B0930F09853F2FE09207F0
:1029C000A105B10510F48CE018C0853F9F4FA1050B
:1029D000B10510F480E111C080912805909129057E
:1029E000A0912A05B0912B0580931D0990931E0993
:1029F000A0931F09B093200980E280931A0981E017
:102A0000DF91CF91FF90EF90DF90CF90BF90AF908C
:102A10009F908F900895CF93DF93FC01258122230F
:102A200011F080E049C0EC0180911A098031C1F4B5
:102A300082E08583178A108E118E128E80911B0979
:102A400090911C09A0E0B0E025E0880F991FAA1F13
:102A5000BB1F2A95D1F7838B948BA58BB68B19C09E
:102A60008032F9F683E0858340911D0950911E095B
:102A700060911F0970912009478B508F618F728F71
:102A80009F012D5E3F4F83E099E00E94EA26882354
:102A900041F283E099E09C8F8B8F81E08C831E82D2
:102AA0001F82188619861A861B861C861D861E861E
:102AB0001F86188A198A1A8ADF91CF910895CF93B9
:102AC0009B01AC011092CF081092CE081092CD0855
:102AD0001092CC081092CB081092CA0860E079E0FE
:102AE0008DE390E00E942438F9012430310518F07C
:102AF000C901039702C081E090E09093D1088093D0
:102B0000D0088091C008C6EFC80FC43048F09EECD2
:102B1000980F943028F092EC980F983008F08CC001
:102B2000B901769567956431710518F063517109A3
:102B300002C061E070E07093CB086093CA083697DA
:102B400020F0B9016550710902C061E070E0709336
:102B5000CD086093CC08B901660F771F260F371F89
:102B600036952795369527952D30310518F02C5040
:102B7000310902C021E030E03093CF082093CE0825
:102B8000C43060F09EEC980F943040F092EC980FB7
:102B9000983008F47CC0A0E0B0E07BC0A8E6B0E0CC
:102BA000E8E6F0E09081C43018F08E53883010F0E1
:102BB00081E001C084E0892B8C938091C00896EF5E
:102BC000980F943058F02EEC280F243038F022EC77
:102BD000280F283030F020E030E005C02BE630E050
:102BE00002C02DE630E03093C8082093C708943027
:102BF00010F49AEF0BC0823381F0833381F0843379
:102C000081F092EC980F983070F492EC980F81E07C
:102C100001C0880F9A95EAF707C088E005C084E0F4
:102C200003C082E001C081E08093C9088091D00890
:102C30009091D1080197F1F78091CE089091CF083B
:102C4000892B69F18091FA049091FB0428E0843B80
:102C5000920729F1009711F00E942C258091D2084B
:102C60008E7F8093D2081092F9041092F80484EBBE
:102C700098E09093FB048093FA04E091C708F091E8
:102C8000C80890818091C908892B808308C0A8E674
:102C9000B0E0983008F484CFE0E0F0E083CFCF914B
:102CA0000895CF93DF93282F30E0F901E15BFC4FCB
:102CB0008491F901E15FFB4FD491F901E753FC4F97
:102CC000C491CC2391F081110E942529EC2FF0E0D2
:102CD000EE0FFF1FE155FC4FA591B491EC91ED2350
:102CE00081E090E021F480E002C080E090E0DF919C
:102CF000CF9108951F93CF93DF93282F30E0F901F0
:102D0000E15BFC4F8491F901E15FFB4FD491F90144
:102D1000E753FC4FC491CC23C9F0162F81110E94B8
:102D20002529EC2FF0E0EE0FFF1FEB56FC4FA5918D
:102D3000B4918FB7F894111105C09C91ED2FE095D7
:102D4000E92302C0EC91ED2BEC938FBFDF91CF9183
:102D50001F910895EF92FF920F931F93CF93DF93EC
:102D6000EC01423018F08F8588608F874B8B1C8A6E
:102D700080E48D8B6E8B70E0605C7F4F6F8B61E0C9
:102D80008C810E947B298D818F3F19F061E00E9428
:102D90007B2961E08E810E947B297E0187E0E80E1D
:102DA000F11C00E010E08F8584FD03C084E090E01A
:102DB00002C088E090E0081719074CF461E0F701C1
:102DC00081917F010E947B290F5F1F4FECCF8BE326
:102DD0009DE00197F1F760E08C810E947A1660E037
:102DE0008E810E947A168D818F3F19F060E00E94DB
:102DF0007A166F8564FD1DC063E0CE010E94252414
:102E00000BE416E4C8010197F1F763E0CE010E94DC
:102E10002524C8010197F1F763E0CE010E94252423
:102E200083E592E00197F1F762E0CE010E9425244C
:102E300016C06062CE010E94AB248BE496E4019739
:102E4000F1F76F856062CE010E94AB2483E592E0CA
:102E50000197F1F76F856062CE010E94AB246F8508
:102E60006062CE010E94AB2484E0888B6CE0CE01CE
:102E70000E94AB2461E0CE010E94AB248BE39FE172
:102E80000197F1F782E0898B66E0CE01DF91CF9167
:102E90001F910F91FF90EF900C94AB243F924F92B3
:102EA0005F926F927F928F929F92AF92BF92CF92DA
:102EB000DF92EF92FF920F931F93CF93DF93CDB7E3
:102EC000DEB72C970FB6F894DEBF0FBECDBF5C0106
:102ED000DC015B968D909C905C971696CD90DD9072
:102EE000ED90FC901997C114D104E104F10439F07C
:102EF000BFEFCB1ADB0AEB0AFB0A312C07C0F40147
:102F0000C080D180E280F38033243394F401818542
:102F10009285A385B4859C01AD012F5F3F4F4F4F34
:102F20005F4F29873A874B875C87260137011D82CF
:102F30001E821F821886F40181859285A385B4853F
:102F40002D813E814F815885281739074A075B0735
:102F500008F063C089859A85AB85BC858C159D0575
:102F6000AE05BF0550F482E0C82ED12CE12CF12C27
:102F700092E0492E512C612C712C9E012F5F3F4F06
:102F8000B701A601C4010E946626882309F445C042
:102F900089819A81AB81BC81892B8A2B8B2B41F053
:102FA000260137019FEF491A590A690A790A05C0B3
:102FB000C414D504E604F70491F02D813E814F81BD
:102FC00058852F5F3F4F4F4F5F4F2D833E834F8379
:102FD00058873FEFC31AD30AE30AF30AACCF0FEFC7
:102FE0001FEF2FEF3FE0B301A201C4010E94C625ED
:102FF000882399F0D50116964D915D916D917C9144
:103000001997411551056105710549F09301820138
:10301000C4010E94C625811102C080E02AC0D501EA
:1030200016964D925D926D927C921997332051F0D5
:10303000D301C2010196A11DB11DF40180839183CA
:10304000A283B383F5018789908DA18DB28D892BE1
:103050008A2B8B2B69F4D50157964D925D926D9218
:103060007C925A9714968C911497806814968C933E
:1030700081E02C960FB6F894DEBF0FBECDBFDF9176
:10308000CF911F910F91FF90EF90DF90CF90BF9065
:10309000AF909F908F907F906F905F904F903F90F8
:1030A0000895CF93DF93EC018D818823A1F18C816A
:1030B00087FF2DC06E857F858889998941E00E94B0
:1030C0007D25882341F1EA8980E2E89FF0011124FF
:1030D000DF01A450BB4F1097F1F08D81823050F486
:1030E0004B895C896D897E895C964D935D936D9368
:1030F0007C935F978F89988DA98DBA8DE450FB4F93
:10310000938F828FB58BA48B8C818F778C83DF918B
:10311000CF910C94422580E0DF91CF9108958F925A
:103120009F92AF92BF92CF92DF92EF92FF920F9356
:103130001F93CF93DF93EC018D81811102C080E05A
:1031400077C00B891C892D893E890417150726072E
:103150003707A8F36A017B01823029F4CA86DB862F
:10316000EC86FD860DC0C114D104E104F10451F4D4
:103170001E821F82188619861A861B861C861D864B
:1031800081E056C08A849B84AC84BD84EB8DFC8D29
:10319000258530E0275F3F4FB501A401415051091B
:1031A00061097109022E04C0769567955795479578
:1031B0000A94D2F7D701C6010197A109B10904C049
:1031C000B695A795979587952A95D2F78417950771
:1031D000A607B70720F089288A288B2849F44F8949
:1031E000588D698D7A8D4E835F836887798704C097
:1031F000841B950BA60BB70B4C015D018E010A5F7A
:103200001F4F81149104A104B10409F4A7CF4E818A
:103210005F816885798598018B8D9C8D0E946626DB
:1032200091E0891A9108A108B1088111EACF87CFEE
:10323000DF91CF911F910F91FF90EF90DF90CF9092
:10324000BF90AF909F908F9008958F929F92AF9272
:10325000BF92CF92DF92EF92FF920F931F93CF9383
:10326000DF9300D01F92CDB7DEB77C0180E2689F6C
:1032700060011124960124503B4FD9011B969C916B
:10328000917121F0842F827409F097C0142FF701F7
:10329000628B8091150290911602A0911702B09155
:1032A000180286879787A08BB18BF601E450FB4FFD
:1032B0004489558960E070E0BA0155274427D70159
:1032C00057964D935D936D937C935A97828D938D12
:1032D000A0E0B0E0482B592B6A2B7B2BD7015796E7
:1032E0004D935D936D937C935A97D9011B968C9166
:1032F000887159F4848D958DA68DB78DF701838BD8
:10330000948BA58BB68B81E012C0803109F055C03B
:1033100097012D5E3F4FD7015B968D919C915C97F5
:103320000E94EA26882309F448C084E0F7018583D7
:10333000812F8F70D70114968C931497F701168202
:103340001782108611861A961D921D921D921C924C
:103350001D9716FF34C015968C91813071F511FFC1
:103360002CC0F7014389548965897689452B462B02
:10337000472B09F461C040E050E0BA01C7010E9448
:103380008F188823D1F0F7018788908CA18CB28C9C
:10339000C38CD48C82E090E0A0E0B0E0F6018083A2
:1033A0009183A283B3839E012F5F3F4FB501A40198
:1033B000C6010E946626811104C080E03DC081E004
:1033C0003BC000E010E09801B501A401C6010E94D5
:1033D000C625882391F389809A80AB80BC80D60172
:1033E00057968C91803129F088EF9FEFAFEFBFE0C7
:1033F00004C088EF9FEFA0E0B0E088169906AA0607
:10340000BB0688F2D70157961D921D921D921C9201
:103410005A97F701138A148A158A168A848180685C
:103420008483C7010E945118882339F240E050E09C
:10343000BA01C7010E948F180F900F900F900F9044
:10344000DF91CF911F910F91FF90EF90DF90CF9080
:10345000BF90AF909F908F9008954F925F926F9220
:103460007F92AF92BF92CF92DF92EF92FF920F9333
:103470001F93CF93DF93CDB7DEB72B970FB6F8949A
:10348000DEBF0FBECDBF7C01CE0101966C01FC01F9
:1034900090E28BE08C0D91938E13FDCFDA0130E03A
:1034A00047E09D91992339F19E3219F0E5E5F4E06A
:1034B0000AC04A3009F472C138E04AE0F2CF3196CE
:1034C000891709F46BC184918111F9CF431708F46E
:1034D00065C18FED890F8E3508F060C181E0830FE3
:1034E000F601E30FF11D3FE9390F3A3108F490522C
:1034F0009083382FD6CF8981803209F44FC1B22E04
:103500008B01DB015B968D919C915C97F701948F09
:10351000838F16961D921D921D921C921997FB0186
:103520001286138614861586712CF8018285938580
:10353000A485B5854389548965897689841795075B
:10354000A607B70708F061C025E0B695A79597953F
:1035500087952A95D1F7F82FFF706F2ED801159611
:103560008C91823008F41AC1C8010E94860997FD27
:1035700015C1F80182859385A485B5854F96A11D57
:10358000B11D82879387A487B587F0E26F9EC00143
:103590001124BC0164507B4F6115710509F4FEC014
:1035A000DB012C91222319F0253EC1F427C07110B4
:1035B0000EC0F701628A4091150250911602609187
:1035C00017027091180246875787608B718BFC0138
:1035D000E450FB4F8081811113C015C04BE050E0D7
:1035E000C6010E94493B892B09F09FCF8B2D807328
:1035F000803309F4D3C04B2D662DCCC07720C9F29F
:103600007724739492CF772473948B2D82718231B7
:1036100009F0C4C07720D1F0D7011E966D917D913D
:103620008D919C91519741E00E947D25882309F45A
:10363000B5C0F7016289F0E26F9FB00111246450B8
:103640007B4F6115710509F079C0A8C0D8011596A6
:103650008C91823009F4A2C0C8010E944E178823C1
:1036600009F49CC0D8015B96ED91FC915C9716968D
:103670004D905D906D907C901997B2E04B1A510877
:1036800061087108058404C0440C551C661C771C35
:103690000A94D2F786859785A089B189480E591E6C
:1036A0006A1E7B1EA480E1E04E1A51086108710871
:1036B000AA2009F10E944225882309F46FC0ECEF8B
:1036C000F4E0119226E0EC3FF207D9F7D301C201F2
:1036D0008A0D911DA11DB11D8093150290931602B4
:1036E000A0931702B09318028091420981608093E1
:1036F0004209AA94DDCFD8015B96ED91FC915C97CD
:1037000080E092E0A0E0B0E0058404C0880F991F3B
:10371000AA1FBB1F0A94D2F7F8014389548965890F
:103720007689840F951FA61FB71F838B948BA58B5B
:10373000B68BD70152961C926CEF74E080E2FB01CD
:1037400011928A95E9F78BE0F601DB0101900D9269
:103750008A95E1F781E298E2DB0151969C938E9382
:10376000509720E038E01F963C932E931E97539677
:103770009C938E93529759969C938E9358975796F5
:103780003C932E9356970E944225882339F04B2D67
:10379000F7016289C7010E94251901C080E02B96BC
:1037A0000FB6F894DEBF0FBECDBFDF91CF911F9152
:1037B0000F91FF90EF90DF90CF90BF90AF907F90F0
:1037C0006F905F904F900895CF93DF93EC010E942C
:1037D0005118882311F01D8281E0DF91CF91089567
:1037E0008FB7F894809140098FBF0895CF93DF93EE
:1037F000EC0180914109811109C081E08093410968
:1038000080913808909139080E94A42760E08C814B
:10381000DF91CF910C947A1661E0FC0184810E94C3
:103820007A168091410981111092410908958EBD47
:1038300000000DB407FEFDCF8EB508958FEF0C94F8
:10384000171C0F931F93CF93DF93EB010E94BA2AAB
:103850008B010E941E1C8F3F49F00E94BA2A601BF8
:10386000710B6C177D07A8F380E001C081E0DF9148
:10387000CF911F910F910895CF93DF93EC018E812B
:10388000882389F08F8198859C012F5F3F4F38876F
:103890002F838230924018F40E941E1CF3CFCE0179
:1038A0000E940C1C1E82DF91CF910895CF92DF926F
:1038B000FF920F931F93CF93DF9300D01F92CDB74A
:1038C000DEB76C01F62E29833A834B835C830E941A
:1038D0003C1CC6010E94F61B6CE271E0C6010E940E
:1038E000211C8F2D80640E94171C08E110E05C8170
:1038F0004B813A812981DA01C901002E04C0B695B5
:10390000A795979587950A94D2F729833A834B8395
:103910005C830E94171C0850110929813A814B8150
:103920005C81083F8FEF180731F7FF2029F0E8E0AE
:10393000FE1204C087E803C085E901C08FEF0E9432
:10394000171C10E00E941E1CF601828787FF04C02E
:103950001F3F11F01F5FF6CF0F900F900F900F9049
:10396000DF91CF911F910F91FF90DF90CF9008953D
:10397000AF92BF92CF92DF92EF92FF920F931F937D
:10398000CF93DF93EC016901C801820F931F81304F
:10399000924008F070C08E81882371F088819981EF
:1039A000AA81BB81481759076A077B0729F48F81D1
:1039B0009885C816D906B0F5488359836A837B83F6
:1039C0008B85833039F089E0440F551F661F771FC0
:1039D0008A95D1F79A01AB0161E1CE010E94561C94
:1039E000882319F083E08D8346C00E94BA2A5B01C8
:1039F0000E941E1C8A878F3F49F40E94BA2A6A19C6
:103A00007B096D327140A0F38FE003C08E3F31F02F
:103A10008DE08D83CE010E940C1C2DC018861F8264
:103A200081E08E838F8198858C159D0540F40E94DE
:103A30001E1C8F819885019698878F83F3CF67012D
:103A4000E00EF11ECE14DF0431F00E941E1CF601C0
:103A500081936F01F7CF8F819885080F191F188701
:103A60000F838985882319F00115124048F0CE0193
:103A70000E943C1C05C0CE010E940C1C80E001C0CD
:103A800081E0DF91CF911F910F91FF90EF90DF9038
:103A9000CF90BF90AF900895EF92FF920F931F9336
:103AA000CF93DF93EC017901411551056105710553
:103AB00011F482E13CC08B85833039F089E0440FFA
:103AC000551F661F771F8A95D1F79A01AB0168E1F0
:103AD000CE010E94561C882311F084E028C08EEF8E
:103AE0000E94171C87018EEFF81AF80181918F014F
:103AF0000E94171C0E151F05C1F78FEF0E94171C9F
:103B00008FEF0E94171C0E941E1C8A878F718530C0
:103B100031F081E18D83CE010E940C1C09C068E563
:103B200072E0CE010E94211C811107C085E18D83C6
:103B3000CE010E940C1C80E013C020E030E0A901FF
:103B40006DE0CE010E94561C811104C00E941E1C13
:103B5000882311F084E1EBCFCE010E940C1C81E0A0
:103B6000DF91CF911F910F91FF90EF9008952F92C9
:103B70003F924F925F926F927F928F929F92AF92FD
:103B8000BF92CF92DF92EF92FF920F931F93CF934A
:103B9000DF9300D01F92CDB7DEB78C015B011A0115
:103BA000DC0115968C9115978130C9F414968C918F
:103BB00081FF15C082FF1BC0F801438954896589C4
:103BC000768982859385A485B58584179507A60790
:103BD000B70769F0C8010E948F18811108C081E001
:103BE00090E0F8019383828380E090E039C1610125
:103BF00083C0D8015B968D919C915C97FC012481D8
:103C000021502A013B0139E07694679457944794F8
:103C10003A95D1F7722E74207A01F1E0FF227720D5
:103C200009F476C080E092E08E199F0946018C1558
:103C30009D0508F44C01D8015B962D913C915C9751
:103C400016968D919D910D90BC91A02D0297A10982
:103C5000B109F901058404C0880F991FAA1FBB1F71
:103C60000A94D2F74685578560897189840F951F1C
:103C7000A61FB71F9C01AD01270D311D411D511D10
:103C800029013A01811432E0930609F088C080913D
:103C9000150290911602A0911702B0911802841596
:103CA0009505A605B70559F48FEF9FEFDC018093CA
:103CB000150290931602A0931702B0931802950173
:103CC000B301A2018091FC069091FD060E944C1D5B
:103CD000882309F484CF9EEFB91AC818D908F801CF
:103CE00082859385A485B585880D991DA11DB11D7B
:103CF00082879387A487B587D8011A964D915D91E5
:103D00006D917C911D97C114D10409F072CF87C0C9
:103D1000E114F10409F086CF16964D915D916D91F5
:103D20007C911997411551056105710559F4579614
:103D30008D919D910D90BC91A02D0097A105B1058D
:103D400041F521C09E012F5F3F4F0E9466268823C8
:103D500009F44BCF89819A81AB81BC81F801238D15
:103D6000348DF9012789203129F048EF5FEF6FEF9B
:103D70007FE004C048EF5FEF60E070E084179507D4
:103D8000A607B70730F0C8010E944E1781114ACF2D
:103D900026CFF80186839783A087B18743CFE114AC
:103DA000F10429F5D8011A964D915D916D917C91A0
:103DB0001D9753968D919D910D90BC91A02D481704
:103DC00059076A077B0798F00E944225882309F467
:103DD00006CF40921502509216026092170270921E
:103DE00018028091420981608093420908C041E035
:103DF000C301B2010E947D25882309F4F0CED501CC
:103E0000F701E450FB4FCF01880D991DE817F90722
:103E100019F02D912193FACFA80CB91C5ECF5396BF
:103E20008D919D910D90BC91A02D84179507A607AB
:103E3000B70740F4F801438B548B658B768B8481F4
:103E400080688483D80114968C9183FD02C0C101DF
:103E500007C0C8010E945118882309F4C0CEF7CFCB
:103E60000F900F900F900F90DF91CF911F910F91B6
:103E7000FF90EF90DF90CF90BF90AF909F908F908A
:103E80007F906F905F904F903F902F900895CF93C9
:103E9000DF931F92CDB7DEB7698341E050E0BE01EA
:103EA0006F5F7F4F0E94B71D0F90DF91CF910895F4
:103EB0000895CF92DF92EF92FF920F931F93CF93CB
:103EC000DF936C017A018B01C0E0D0E0CE15DF05F5
:103ED00089F0D8016D918D01D601ED91FC91019091
:103EE000F081E02DC6011995892B11F47E0102C0E5
:103EF0002196ECCFC701DF91CF911F910F91FF90D9
:103F0000EF90DF90CF900895FC01A089B1898C914A
:103F1000A689B78982FD0FC09C91818D8F5F8F73B9
:103F2000228D821749F0218DDF01A20FB11D5D9610
:103F30009C93818F08958C910895FC01538D448D3D
:103F4000252F30E0842F90E0821B930B541710F044
:103F5000CF96089501970895FC01918D828D981751
:103F600061F0828DDF01A80FB11D5D968C91928D5D
:103F70009F5F9F73928F90E008958FEF9FEF08955A
:103F8000FC01918D828D981731F0828DE80FF11D23
:103F9000858D90E008958FEF9FEF0895FC01918D3E
:103FA000228D892F90E0805C9F4F821B91098F7337
:103FB000992708958EEF96E00E94CE1F21E0892B6D
:103FC00009F420E0822F08958BE997E00E94CE1F2C
:103FD00021E0892B09F420E0822F0895FC01848DD3
:103FE000DF01A80FB11DA35ABF4F2C91848D90E023
:103FF00001968F739927848FA689B7892C93A089FE
:10400000B1898C9180648C93938D848D981306C0B4
:104010000288F389E02D80818F7D80830895EF925F
:10402000FF920F931F93CF93DF93EC0181E0888F72
:104030009B8D8C8D981305C0E889F989808185FD59
:1040400024C0F62E0B8D10E00F5F1F4F0F7311274A
:10405000E02E8C8DE8120CC00FB607FCFACFE88971
:10406000F989808185FFF5CFCE010E94EE1FF1CF47
:104070008B8DFE01E80FF11DE35AFF4FF0820B8F8D
:10408000EA89FB898081806207C0EE89FF896083AD
:10409000E889F98980818064808381E090E0DF9104
:1040A000CF911F910F91FF90EF900895CF93DF93E1
:1040B000EC01888D8823C9F0EA89FB89808185FD20
:1040C00005C0A889B9898C9186FD0FC00FB607FC81
:1040D000F5CF808185FFF2CFA889B9898C9185FFC2
:1040E000EDCFCE010E94EE1FE7CFDF91CF91089573
:1040F00080E090E0892B21F00E94E41F811121C013
:1041000080E090E0892B41F080E090E0892B21F065
:104110000E940000811118C080E090E0892B41F0DE
:1041200080E090E0892B21F00E94000081110FC0F7
:1041300080E090E0892B81F00E94DA1F81110AC093
:1041400008950E940000DCCF0E940000E5CF0E948D
:104150000000EECF0C94000008952091FA043091F5
:10416000FB042817390771F49091F8048091F90441
:10417000981741F0E091F804F0E0E95BF64F808198
:1041800090E008958FEF9FEF089508951F93CF93C8
:10419000DF93DC015C962D913C915D9721153105F3
:1041A00039F481E090E013969C938E9312973DC072
:1041B0005196ED91FC91529750969C915097892F72
:1041C00080951FB75E964C915E9741FB772770F9FB
:1041D00041FD6095F8944081772311F0492B01C08F
:1041E00048234083E9012197F1F748E0508160FFBF
:1041F00002C0592B01C058235083E9012197F1F7E0
:104200006695415099F7772321F090818923808327
:1042100003C08081982B90831FBF5C968D919C91E9
:104220005D970197F1F721E030E0C901DF91CF916F
:104230001F9108952091FA043091FB042817390743
:1042400071F48091F9042091F80490E0805C9F4F14
:10425000821B910960E470E00E941038089580E0AC
:1042600090E008952091FA043091FB042817390753
:10427000B9F49091F8048091F904981789F0E091CD
:10428000F804F0E0E95BF64F80812091F80430E01B
:104290002F5F3F4F2F7333272093F80490E008954A
:1042A0008FEF9FEF08950E94443BEF92FF920F9390
:1042B0001F93CF93DF93EC017B018A018881998161
:1042C000009729F02A813B8124173507F8F4B801BB
:1042D0006F5F7F4F0E945B3A009759F09983888304
:1042E0001B830A832C813D81232B81F4FC011082E6
:1042F0000DC088819981009711F00E94C3391982FD
:1043000018821D821C821B821A8207C01D830C83A7
:10431000B701888199810E94863BCE01DF91CF91C0
:104320001F910F91FF90EF900895CF93DF93EC01D1
:1043300060E08E810E947A1661E08E810E947A167A
:1043400060E08E810E947A168BE891E00197F1F788
:10435000DF91CF910895CF93DF93FC0124813581C4
:10436000232B71F0FB01DC01CD91DC916081718127
:10437000CE010E949C3B009719F08C1B9D0B02C044
:104380008FEF9FEFDF91CF910895CF93DF93EC01F3
:104390006115710559F0FB0101900020E9F7319793
:1043A000AF01461B570B0E9455210CC08881998193
:1043B000009711F00E94C339198218821D821C8255
:1043C0001B821A82CE01DF91CF910895FC0180817A
:1043D00091810C94C339FC011182108213821282E4
:1043E000158214826115710551F0FB0101900020C6
:1043F000E9F73197AF01461B570B0C9455210895EF
:104400001F920F920FB60F9211240BB60F922F939B
:104410003F934F935F936F937F938F939F93AF934C
:10442000BF93EF93FF93E0911302F091140219955B
:10443000FF91EF91BF91AF919F918F917F916F917C
:104440005F914F913F912F910F900BBE0F900FBE38
:104450000F901F9018951F920F920FB60F92112474
:104460000BB60F922F933F934F935F936F937F936E
:104470008F939F93AF93BF93EF93FF93E0911102BC
:10448000F09112021995FF91EF91BF91AF919F9119
:104490008F917F916F915F914F913F912F910F90ED
:1044A0000BBE0F900FBE0F901F9018951F920F928A
:1044B0000FB60F9211240BB60F922F933F934F9389
:1044C0005F936F937F938F939F93AF93BF93EF937C
:1044D000FF93E0910702F09108021995FF91EF9187
:1044E000BF91AF919F918F917F916F915F914F910C
:1044F0003F912F910F900BBE0F900FBE0F901F900A
:1045000018951F920F920FB60F9211240BB60F92AF
:104510002F933F934F935F936F937F938F939F93CB
:10452000AF93BF93EF93FF93E0910502F0910602E2
:104530001995FF91EF91BF91AF919F918F917F91CD
:104540006F915F914F913F912F910F900BBE0F9004
:104550000FBE0F901F9018951F920F920FB60F92DB
:1045600011240BB60F922F933F934F935F936F934A
:104570007F938F939F93AF93BF93EF93FF93E091BC
:104580000F02F09110021995FF91EF91BF91AF9139
:104590009F918F917F916F915F914F913F912F915B
:1045A0000F900BBE0F900FBE0F901F9018951F928B
:1045B0000F920FB60F9211240BB60F922F933F93C9
:1045C0004F935F936F937F938F939F93AF93BF931B
:1045D000EF93FF93E0910D02F0910E021995FF9178
:1045E000EF91BF91AF919F918F917F916F915F916B
:1045F0004F913F912F910F900BBE0F900FBE0F90D8
:104600001F9018951F920F920FB60F9211240BB6A0
:104610000F922F933F934F935F936F937F938F935B
:104620009F93AF93BF93EF93FF93E0910B02F091B1
:104630000C021995FF91EF91BF91AF919F918F91CE
:104640007F916F915F914F913F912F910F900BBE92
:104650000F900FBE0F901F9018951F920F920FB6DC
:104660000F9211240BB60F922F933F934F935F93AA
:104670006F937F938F939F93AF93BF93EF93FF932A
:10468000E0910902F0910A021995FF91EF91BF9113
:10469000AF919F918F917F916F915F914F913F91DA
:1046A0002F910F900BBE0F900FBE0F901F9018957B
:1046B0000F931F93CF93DF93EC01E881F981DB0126
:1046C00014964D915C9115976D917C910280F381C8
:1046D000E02D19958C01E881F9810280F381E02DAC
:1046E00042E050E064ED74E0CE011995800F911F17
:1046F000DF91CF911F910F9108951F920F920FB6E6
:104700000F9211240BB60F922F933F934F935F9309
:104710006F937F938F939F93AF93BF93EF93FF9389
:104720008EEF96E00E94EE1FFF91EF91BF91AF9147
:104730009F918F917F916F915F914F913F912F91B9
:104740000F900BBE0F900FBE0F901F9018951F92E9
:104750000F920FB60F9211240BB60F922F933F9327
:104760004F935F936F937F938F939F93AF93BF9379
:10477000EF93FF938EEF96E00E94841FFF91EF91DD
:10478000BF91AF919F918F917F916F915F914F9169
:104790003F912F910F900BBE0F900FBE0F901F9067
:1047A00018951F920F920FB60F9211240BB60F920D
:1047B0002F933F934F935F936F937F938F939F9329
:1047C000AF93BF93EF93FF938BE997E00E94EE1FA7
:1047D000FF91EF91BF91AF919F918F917F916F91D9
:1047E0005F914F913F912F910F900BBE0F900FBE95
:1047F0000F901F9018951F920F920FB60F921124D1
:104800000BB60F922F933F934F935F936F937F93CA
:104810008F939F93AF93BF93EF93FF938BE997E0B1
:104820000E94841FFF91EF91BF91AF919F918F9153
:104830007F916F915F914F913F912F910F900BBEA0
:104840000F900FBE0F901F901895CF92DF92EF92AE
:10485000FF920F931F93CF93DF937C016C0187E04E
:10486000C80ED11CC0E0D0E0062F10E0B8010C2E1D
:1048700002C0759567950A94E2F76170F60181911F
:104880006F010E947A162196C430D10579F7C701CD
:10489000DF91CF911F910F91FF90EF90DF90CF901C
:1048A0000C949521CF92DF92EF92FF920F931F937A
:1048B000CF93DF93EC01F62E642F8C810E947A1641
:1048C0008D818F3F19F060E00E947A168F850F2D41
:1048D00010E084FF25C06E0187E0C80ED11CE12CDA
:1048E000F12CB8010E2C02C0759567950A94E2F779
:1048F0006170F60181916F010E947A16FFEFEF1A45
:10490000FF0A88E0E816F10461F7CE01DF91CF914C
:104910001F910F91FF90EF90DF90CF900C94952115
:10492000B80184E0759567958A95E1F7CE010E94FC
:1049300025246F2DCE01DF91CF911F910F91FF9014
:10494000EF90DF90CF900C94252441E00E945224F8
:1049500081E090E0089540E00C9452241F920F9261
:104960000FB60F9211240BB60F922F933F934F93D4
:104970005F936F937F938F939F93AF93BF93EF93C7
:10498000FF93E091FA04F091FB04309709F451C0D1
:10499000968DA685B785858591FF04C09C91892356
:1049A00029F447C09C91892309F043C0A389B489A5
:1049B0009C918589809589238C9386899789019715
:1049C000F1F7608D718DA685B785558538E020E0BB
:1049D000CB010197F1F7822F90E095958795282FCD
:1049E0004C91452309F02068315091F7868D81FD67
:1049F00020958091F90490E001968F73992730916A
:104A0000F804381749F0A091F904B0E0A95BB64F5B
:104A10002C938093F90403C0868D8160868F828DEC
:104A2000938D0197F1F7A389B4899C918589892B8E
:104A30008C93FF91EF91BF91AF919F918F917F9157
:104A40006F915F914F913F912F910F900BBE0F90FF
:104A50000FBE0F901F901895E091FA04F091FB049F
:104A6000E817F90769F4A389B4899C918589809531
:104A700089238C931092FB041092FA0481E008952C
:104A800080E00895809142098823A9F140911502A0
:104A90005091160260911702709118022CEF34E0C9
:104AA0008091FC069091FD060E944C1D811102C070
:104AB00080E008954091430950914409609145096F
:104AC00070914609411551056105710591F02CEF72
:104AD00034E08091FC069091FD060E944C1D8823D5
:104AE00039F310924309109244091092450910922B
:104AF00046091092420981E008958F929F92AF92E9
:104B0000BF92EF92FF920F931F93CF934B015C01E3
:104B1000C42F8091150290911602A0911702B091B6
:104B2000180288159905AA05BB0501F10E944225C6
:104B3000811102C080E020C08CEFE82E84E0F82EC6
:104B400000E012E020E030E0B501A4018091FC0615
:104B50009091FD060E94B81C882361F38092150293
:104B600090921602A0921702B09218028091420908
:104B7000C82BC093420981E0CF911F910F91FF9004
:104B8000EF90BF90AF909F908F9008954F925F925B
:104B90006F927F928F929F92AF92BF92CF92DF924D
:104BA000EF92FF920F931F93CF93DF93EC016A0173
:104BB0007B0128013901423051056105710510F46E
:104BC00080E073C089859A85AB85BC850196A11D5F
:104BD000B11D84179507A607B70790F38B889C88AB
:104BE000AD88BE888F89803129F4BB27AF2D9E2DDB
:104BF0008D2D09C0DB01CA0147E0B695A7959795B1
:104C000087954A95D1F7880E991EAA1EBB1E8091E2
:104C1000150290911602A0911702B0911802881601
:104C20009906AA06BB0679F48F898031A1F4DD24A8
:104C3000EE24FF24C601880F991FFC01E450FB4FAE
:104C40005182408219C040E0C501B4010E947D2517
:104C50008111EACFB5CFE894C7F8DD24EE24FF2414
:104C6000C601880F991F880F991FFC01E450FB4F64
:104C70004082518262827382809142098160809376
:104C800042098A89823080F08D819E81AF81B8850A
:104C9000880E991EAA1EBB1E809243099092440959
:104CA000A0924509B092460981E0DF91CF911F9112
:104CB0000F91FF90EF90DF90CF90BF90AF909F90BB
:104CC0008F907F906F905F904F9008958F929F92FA
:104CD000AF92BF92CF92DF92EF92FF920F931F930A
:104CE000CF93DF93FC0181859285A385B4850196DE
:104CF000A11DB11D84179507A607B70710F480E022
:104D00005CC083899489A589B689C789C03129F493
:104D1000852E962EA72EBB2409C04A015B01C7E051
:104D2000B694A79497948794CA95D1F7E9016A013C
:104D30007B018F01BC01CD01680D791D8A1D9B1D72
:104D40008090150290901602A0901702B090180261
:104D5000681579058A059B0599F4F80187898031E2
:104D6000A9F4B701A601552766277727440F551FD9
:104D7000FA01E450FB4F80819181A0E0B0E018C0BF
:104D800040E00E947D258111E8CFB9CFB701A6018F
:104D90004F77552766277727440F551F440F551F18
:104DA000FA01E450FB4F80819181A281B381BF70F1
:104DB00088839983AA83BB8381E0DF91CF911F9180
:104DC0000F91FF90EF90DF90CF90BF90AF909F90AA
:104DD0008F9008954F925F926F927F92AF92BF92A1
:104DE000CF92DF92EF92FF920F931F93CF93DF93B7
:104DF00000D01F92CDB7DEB78C0149835A836B83F5
:104E00007C835901C12CD12C7601412C82E0582E93
:104E1000612C712C49815A816B817C819E012F5FAD
:104E20003F4FC8010E946626882351F1D301C20179
:104E3000F801058404C0880F991FAA1FBB1F0A949C
:104E4000D2F7C80ED91EEA1EFB1E49815A816B811A
:104E50007C818789803129F088EF9FEFAFEFBFE039
:104E600004C088EF9FEFA0E0B0E0481759076A0739
:104E70007B0780F2F501C082D182E282F38281E079
:104E80000F900F900F900F90DF91CF911F910F9186
:104E9000FF90EF90DF90CF90BF90AF907F906F909A
:104EA0005F904F900895672B59F4DC011496ED91B3
:104EB000FC911597309721F0CA01199581E008956A
:104EC00080E00895FC01672B29F481E02281338181
:104ED000232B09F480E0089581E090E008958CE5AB
:104EE00090E0089505960895EF92FF920F931F9317
:104EF000CF93DF938C01EB017A01DC01ED91FC9102
:104F00000480F581E02D1995282F882371F02196D2
:104F1000CC0FDD1FC00FD11FB701888199810E947E
:104F20005F3B21E0892B09F020E0822FDF91CF91B8
:104F30001F910F91FF90EF90089505962DE5FC01CC
:104F400011922A95E9F708958CBD9DBD089561E001
:104F500085E20E947A1662E370E080E090E00E94B1
:104F6000802A60E085E20C947A161F920F920FB6A9
:104F70000F9211240BB60F92CF92DF92EF92FF9215
:104F80000F931F932F933F934F935F936F937F9351
:104F90008F939F93AF93BF93CF93DF93EF93FF9341
:104FA000E091DD08F091DE081082118212821382F6
:104FB000C285D3858EEF96E00E94CE1F892B09F41F
:104FC00072C00E94271397FD06C082349105C9F76D
:104FD00080E090E002C08FEF9FEF892B09F063C063
:104FE0008E010A5F1F4F6E0125E2C20ED11C7801AF
:104FF0000E94271397FF0AC08E818D3409F053C099
:105000009E012D5D3F4F80E090E007C0F701819346
:105010007F01EC15FD0561F7EFCFF80141918F019C
:10502000840F911DE217F307C1F79C012E5B3F4FE0
:105030008BA190E0982F88274CA1840F911D2817F1
:10504000390789F5698570E0762F66278A85680FAC
:10505000711D7EA36DA38B8590E0982F88272C85EA
:10506000820F911D98A78FA38D8590E0982F882798
:105070002E85820F911D9AA789A7CE01C19631F086
:105080006F3FFFEF7F0711F00E9437086FA178A5EF
:10509000CE01CE9609F052C069A57AA5CE01855BF6
:1050A0009F4F09F053C0E091DD08F091DE08868142
:1050B0009781009719F00197978386838785908958
:1050C000181619060CF04AC0E091DB08F091DC08D4
:1050D0000190F081E02D8789908D9C012F5F3F4FDB
:1050E0002C3331051CF4308F278B08C0CB97908F61
:1050F000878B818D928D0196928F818F818D928D7C
:105100008C33910544F0CC97928F818F838D948D51
:105110000196948F838F838D948D8831910544F00F
:105120004897948F838F858D968D0196968F858F66
:10513000878D90A1019690A3878F10C06F3F2FEFAE
:10514000720709F4A9CF0E943708A6CF6F3FEFEF8F
:105150007E0709F4A8CF0E943708A5CFFF91EF91F1
:10516000DF91CF91BF91AF919F918F917F916F917F
:105170005F914F913F912F911F910F91FF90EF9071
:10518000DF90CF900F900BBE0F900FBE0F901F902F
:105190001895CF93DF93EC01009731F0682F853697
:1051A000910518F064E601C060E0653608F064E639
:1051B00060933F0870E080E090E00E94C03623E3F7
:1051C00033E343E250E40E941F370E94F33880919A
:1051D0003E080E94B72960E089E00E947A16CD2B34
:1051E00061F061E070E080E090E00E94802A61E080
:1051F00089E0DF91CF910C947A16DF91CF910895D9
:105200003FB7F89480918C0990918D09A0918E09F7
:10521000B0918F0926B5A89B05C02F3F19F00196C4
:10522000A11DB11D3FBFBA2FA92F982F8827820F2C
:10523000911DA11DB11DBC01CD0142E0660F771F7C
:10524000881F991F4A95D1F7089590E0FC01319786
:10525000E231F10508F04EC08827E058FF4F8F4F2C
:105260000C944338809180008F7703C08091800038
:105270008F7D80938000089580918000877FF9CF93
:1052800084B58F7702C084B58F7D84BD08958091E9
:10529000B0008F7703C08091B0008F7D8093B00005
:1052A0000895809190008F7707C0809190008F7D46
:1052B00003C080919000877F809390000895809133
:1052C000A0008F7707C08091A0008F7D03C08091E0
:1052D000A000877F8093A0000895809120018F77A0
:1052E00007C0809120018F7D03C080912001877FBE
:1052F000809320010895CF93DF9390E0FC01E15F5C
:10530000FB4F2491FC01E753FC4F8491882361F10A
:1053100090E0880F991FFC01EB59FB4FC591D49188
:10532000FC01EB56FC4FA591B491611109C09FB7E8
:10533000F8948881209582238883EC912E230BC0DA
:10534000623061F49FB7F8943881822F809583236F
:105350008883EC912E2B2C939FBF06C08FB7F894B7
:10536000E8812E2B28838FBFDF91CF9108951F9363
:10537000CF93DF93182FEB0161E00E947B292097E8
:1053800011F460E004C0CF3FD10539F461E0812F12
:10539000DF91CF911F910C947A16E12FF0E0E15B41
:1053A000FC4FE4914E2F50E0FA013197E231F105C4
:1053B00008F09DC08827EE56FF4F8F4F0C9443385E
:1053C00084B5806884BDC7BD97C084B5806284BD44
:1053D000C8BD92C080918000806880938000D09387
:1053E0008900C093880088C080918000806280938B
:1053F0008000D0938B00C0938A007EC08091800093
:10540000886080938000D0938D00C0938C0074C01E
:105410008091B00080688093B000C093B3006CC0EE
:105420008091B00080628093B000C093B40064C0EB
:1054300080919000806880939000D0939900C093F1
:1054400098005AC080919000806280939000D09321
:105450009B00C0939A0050C0809190008860809318
:105460009000D0939D00C0939C0046C08091A00006
:1054700080688093A0008091A0008F7B8093A00023
:10548000D093A900C093A80037C08091A00080628B
:105490008093A000D093AB00C093AA002DC0809150
:1054A000A00088608093A000D093AD00C093AC00B2
:1054B00023C080912001806880932001D09329012E
:1054C000C093280119C0809120018062809320013F
:1054D000D0932B01C0932A010FC0809120018860D6
:1054E00080932001D0932D01C0932C0105C0C038BA
:1054F000D1050CF04BCF45CFDF91CF911F9108958F
:105500008F929F92AF92BF92CF92DF92EF92FF92D3
:105510006B017C010E9400294B015C01C114D10484
:10552000E104F104F1F00E940029DC01CB018819AB
:105530009909AA09BB09883E9340A105B10570F3FA
:1055400021E0C21AD108E108F10888EE880E83E054
:10555000981EA11CB11CC114D104E104F10419F777
:10556000DDCFFF90EF90DF90CF90BF90AF909F90F6
:105570008F9008952FB7F8946091880970918909E8
:1055800080918A0990918B092FBF08951F920F92E5
:105590000FB60F9211242F933F938F939F93AF9346
:1055A000BF938091880990918909A0918A09B0914F
:1055B0008B093091870923E0230F2D3720F40196C2
:1055C000A11DB11D05C026E8230F0296A11DB11D26
:1055D000209387098093880990938909A0938A0969
:1055E000B0938B0980918C0990918D09A0918E09BF
:1055F000B0918F090196A11DB11D80938C099093E4
:105600008D09A0938E09B0938F09BF91AF919F919F
:105610008F913F912F910F900FBE0F901F90189573
:10562000CF93DF93CDB7DEB7A4970FB6F894DEBF64
:105630000FBECDBF789484B5826084BD84B581608F
:1056400084BD85B5826085BD85B5816085BD80914D
:105650006E00816080936E001092810080918100C5
:1056600082608093810080918100816080938100BD
:10567000809180008160809380008091B10084607F
:105680008093B1008091B00081608093B0008091E0
:10569000910082608093910080919100816080935D
:1056A0009100809190008160809390008091A10092
:1056B00082608093A1008091A10081608093A1000D
:1056C0008091A00081608093A00080912101826080
:1056D000809321018091210181608093210180913B
:1056E000200181608093200180917A008460809302
:1056F0007A0080917A00826080937A0080917A00AB
:10570000816080937A0080917A00806880937A002B
:105710001092C10088E590E00E942E398C018FEF35
:105720009FEFD80196969C938E93959798969C930D
:105730008E9397979A969C938E9399979C969C9309
:105740008E939B979E969C938E939D97D0969C93B9
:105750008E939F9783E292E0D2969C938E93D197FB
:10576000D6961C921E92D597D8961C921E92D797C9
:10577000D4961C921E92D397DA961C921E92D997B9
:10578000DC961C921E92DB97DD961C92DD97DF96CD
:105790009C938E93DE97F801EE5BFF4F118210828F
:1057A00032961182108234971182108236961182BD
:1057B0001082329611821082329610823196918335
:1057C00080831582148217821682138212821186B8
:1057D000108613861286148680E490E0F801918387
:1057E00080838CE290E093838283E0910E07F091B6
:1057F0000F0782E08083E0910A07F0910B07108287
:10580000E0910C07F0910D078FEC80831092160742
:10581000E0911207F091130786E08083E091100772
:10582000F0911107808180618083E0911007F091F1
:105830001107808188608083E0911007F091110743
:10584000808180688083E0911007F091110780814A
:105850008F7D80838CED95E0A0E0B0E0809302071F
:1058600090930307A0930407B093050761E0D80164
:105870008C910E947B2961E0F80182810E947B2942
:1058800061E0D8018C910E947A1661E0F801828172
:105890000E947A16E091DD08F091DE0813870287F6
:1058A0008DE090E00E942E398C010E947C121093B2
:1058B000EE040093ED048091DD089091DE08D8019C
:1058C00015969C938E93149762E08FE10E947B293A
:1058D00062E081E20E947B2962E083E20E947B29F0
:1058E00061E089E00E947B2961E084E00E947B29DD
:1058F00062E081E30E947B2961E085E30E947B29CD
:1059000061E08AE20E947B2960E08AE20E947A16C6
:1059100087B187B960E089E00E947A160E9448103A
:1059200044E064E18FED98E00E94AA166091EF08D0
:105930006E7F6093EF0868608FED98E00E94AB2463
:1059400086B182FB882780F98093E70486B186FBC5
:10595000882780F98093E60486B1829581708093D0
:10596000E504E091DD08F091DE0861A172A183A158
:1059700094A10E945F1561E08AE20E947A1600916C
:10598000DB081091DC0880E090E00E94E037E82E10
:1059900081E090E00E94E037F82E82E090E00E94E3
:1059A000E037E11004C0F11002C0833011F00E9412
:1059B0008B0BC8010E946113F8019383828385E0F9
:1059C00090E00E94E037182F84E090E00E94E037DA
:1059D000111107C0E091DD08F091DE0821E030E010
:1059E00008C0113049F4E091DD08F091DE0822E0B2
:1059F00030E0368B258B11C0123039F4E091DD0890
:105A0000F091DE0823E030E0F4CF133031F4E09180
:105A1000DD08F091DE08168A158A813049F4E0919C
:105A2000DD08F091DE0880E895E2A0E0B0E020C05B
:105A3000823049F4E091DD08F091DE0880E091EEDB
:105A4000A0E0B0E015C0833049F4E091DD08F091AA
:105A5000DE0880E092ECA1E0B0E00AC0843061F49E
:105A6000E091DD08F091DE0880E990EDA3E0B0E080
:105A700081A392A3A3A3B4A3F8948CB582658CBD33
:105A80008DB581608DBD10928000109281001092C2
:105A900085001092840088E09DE3909389008093B4
:105AA00088008091810088608093810080918100CE
:105AB00085608093810080916F00826080936F0089
:105AC0008091690083608093690080916B008160A0
:105AD00080936B0078941091E40410934008E12FB8
