:100000000C947B1B0C94E2600C94B7600C948C6095
:100010000C9461600C9436600C940B600C94E05F5F
:100020000C94B55F0C9485D00C945ED00C9437D0B2
:100030000C94AC1B0C944E5D0C94AC1B0C94AC1B40
:100040000C94AC1B0D94100A0C94AC1B0C94AC1BC0
:100050000C94AC1B0C94AC1B0D94D0130C946B5FE4
:100060000C94AC1B0C94D0460C94AC1B0C94AC1BA5
:100070000C94AC1B0C94AC1B0C94AC1B0C94AC1BE4
:100080000D94290C0C94AC1B0C94AC1B0C94AC1B65
:100090000C94AC1B0C94AC1B0C94AC1B0C94AC1BC4
:1000A0000C94AC1B0C94AC1B0D94FC0B0C94AC1B73
:1000B0000C94AC1B0C94AC1B0C94AC1B0D94CF0B90
:1000C0000C94AC1B0C94AC1B0C94AC1B0C94AC1B94
:1000D0000C94AC1B0C94AC1B0C94AC1B0C94AC1B84
:1000E0000C94AC1B034709471A4725472D47424745
:1000F000314742473547394742473F47E15CE45C77
:10010000D35CD75CDD5C1B5DE85CEC5CF25CF65CB0
:10011000FA5C005D045D085D1B5D0E5D125D165DA1
:10012000625E675E6C5E765E805EF95E8A5E925E9F
:100130009A5EA45EAE5EB85EC75ED15EF95EDB5EBF
:10014000E55EEF5E1F8F058F088F0B8F0E8F1A8F66
:10015000118F2B8F148F178F084AD73B3BCE016E20
:1001600084BCBFFDC12F3D6C74319ABD56833DDA0E
:100170003D00C77F11BED9E4BB4C3E916BAAAABE1D
:10018000000000803F05A84CCDB2D44EB93836A946
:10019000020C50B9918688083CA6AAAA2ABE000083
:1001A00000803F000D94BD210D9478190D94982185
:1001B0000D94EF0F0D947A190D941C320D94E931C2
:1001C0000D9494210D94FD210D9408140D94A021FB
:1001D0000D947D190D9468230D945A1F0D940A17E0
:1001E0000D94F61E0D94B8210D9407140D94C221A0
:1001F0000D949C210D9470230D946C234E414E4917
:100200004E495459494E46CDCCCC3D0AD7233C17D4
:10021000B7D13877CC2B329595E6241FB14F0A0021
:100220000020410000C84200401C4620BCBE4CCA11
:100230001B0E5AAEC59D7400407A10F35A00A0728E
:100240004E18090010A5D4E80000E8764817000011
:10025000E40B54020000CA9A3B000000E1F50500DF
:100260000080969800000040420F000000A0860128
:10027000000000102700000000E8030000000064F8
:1002800000000000000A0000000000010000000063
:10029000002C76D888DC674F0823DFC1DFAE59E138
:1002A000B1B796E5E3E453C63AE651997696E8E6A7
:1002B000C28426EB898C9B62ED407C6FFCEFBC9C7A
:1002C0009F40F2BAA56FA5F490055A2AF75C936B8C
:1002D0006CF9676DC11BFCE0E40D47FEF520E6B547
:1002E00000D0ED902E0300943577050080841E0821
:1002F0000000204E0A000000C80C333333330F983F
:100300006E12831141EF8D2114893BE65516CFFE05
:10031000E6DB18D1844B381BF77C1D901DA4BBE491
:1003200024203284725E228100C9F124ECA1E53DD3
:100330002747322F47332062616420706172616DFC
:1003400065746572730A004F726967696E6520583B
:1003500059205072656D6965720A004F726967694C
:100360006E65205859205072656D69657200205A7B
:100370003A200020593A200042656420583A200073
:10038000456E642066696C65206C6973740A00426E
:100390006567696E2066696C65206C6973740A0014
:1003A0004D3132350043616E6E6F74206F70656E33
:1003B0002073756264697220005072696E742074D3
:1003C000696D653A20002F2F200066696C616D65AC
:1003D0006E743A20007A5F6D696E3A2000795F6D25
:1003E000696E3A2000785F6D696E3A200052657040
:1003F0006F7274696E6720656E6473746F702073BA
:1004000074617475730A004D31343520533C696E44
:100410006465783E206F7574206F662072616E6728
:10042000652028302D31290A002054002052004137
:100430006363656C65726174696F6E3A2050003F4A
:100440004A206F7574206F662072616E6765202880
:10045000302E303120746F20302E33290A0044654D
:1004600063616C61676573206170706C697175653B
:1004700073004572723A20546F6F206661722100DA
:10048000546F6F206661722066726F6D20726566B0
:100490006572656E636520706F696E740A00205A1C
:1004A00000205900580020204D61783A2000205A41
:1004B00000205900580020204D696E3A20004D61FF
:1004C0007263686500417272657400536F667420D0
:1004D000656E6473746F70733A200020466C6F779A
:1004E0003A2000000136372603FFFFFF353C3D3838
:1004F0000EFFFFFF312E303E12FFFFFFFF28FF0CE3
:100500000809FFFFFF1A1C18FFFF2A08440AFF43CF
:10051000206F7574206F662072616E67650A0053E4
:100520006572766F20003A200020536572766F2046
:100530000020643A0020693A0020703A00496E7643
:10054000616C69642065787472756465720A004B29
:1005500064200023646566696E6520444546415504
:100560004C545F004B69200023646566696E65200A
:1005700044454641554C545F004B70200023646550
:1005800066696E652044454641554C545F005049AC
:1005900044204175746F74756E652066696E697369
:1005A000686564212050757420746865206C6173DF
:1005B00074204B702C204B6920616E64204B6420AA
:1005C000636F6E7374616E74732066726F6D2062F8
:1005D000656C6F7720696E746F20436F6E66696714
:1005E00075726174696F6E2E680A0050494420412B
:1005F00075746F74756E65206661696C6564212021
:1006000074696D656F75740A00453120454D42412E
:100610004C4C454D454E5420544845524D2E0042B9
:10062000454420544845524D414C2052554E415767
:10063000415900546865726D616C2052756E617726
:1006400061790045312045727265757220646520BC
:1006500063686175666665004265642068656174FB
:10066000696E67206661696C6564004865617469DC
:100670006E67206661696C6564005049442041756D
:10068000746F74756E65206661696C6564212054B1
:10069000656D706572617475726520746F6F206826
:1006A0006967680A00204B643A2000204B693A20B1
:1006B00000204B703A20000A20436C617373696319
:1006C00020504944200A002054753A2000204B75E0
:1006D0003A2000206D61783A2000206D696E3A2042
:1006E0000020643A200020626961733A200050497A
:1006F00044204175746F74756E65206661696C6520
:10070000642120426164206578747275646572208A
:100710006E756D6265720A00504944204175746FB0
:1007200074756E652073746172740A0020643A00F7
:1007300020693A0020703A0043617365206C696754
:1007400068743A200043617365206C696768743A85
:10075000206F66660A004163746976652045787487
:1007600072756465723A2000496E76616C69642026
:1007700065787472756465720A002569730025696D
:100780006D20256973002569682025696D2025691C
:100790007300256964202569682025696D20256915
:1007A00073002569792025696420256968202569F9
:1007B0006D20256973004E6F20436865636B737508
:1007C0006D2077697468206C696E65206E756D6246
:1007D00065722C204C617374204C696E653A200060
:1007E00053544F5050452E005072696E74657220FC
:1007F00073746F707065642064756520746F206514
:1008000072726F72732E2046697820746865206555
:1008100072726F7220616E6420757365204D393974
:100820003920746F20726573746172742E2028549D
:10083000656D70657261747572652069732072658B
:100840007365742E20536574206974206166746525
:10085000722072657374617274696E67290A004E42
:100860006F20436865636B73756D207769746820CA
:100870006C696E65206E756D6265722C204C6173BB
:1008800074204C696E653A2000636865636B73750C
:100890006D206D69736D617463682C204C61737495
:1008A000204C696E653A20004C696E65204E756D6E
:1008B000626572206973206E6F74204C61737420BE
:1008C0004C696E65204E756D6265722B312C204C23
:1008D000617374204C696E653A20004D31313000EF
:1008E0004D33310053442072656164206572726F2C
:1008F000720A004D30205331383030005465726D2B
:10090000696E65657300446F6E65207072696E7400
:10091000696E672066696C650A0020496E76616CB5
:10092000696420657874727564657220004D4F5259
:10093000542E00202D20496E76616C696420657804
:10094000747275646572206E756D62657220210A1D
:10095000002020506C616E6E65724275666665722D
:1009600042797465733A20002046726565204D65B2
:100970006D6F72793A2000436F6D70696C65643AEF
:100980002041756720313420323031380A00207C14
:1009900020417574686F723A20286E6F6E652C2046
:1009A0005343414C415220584C50205636290A009E
:1009B000323031382D30372D333100204C61737493
:1009C00020557064617465643A2000312E312E39EF
:1009D0000A004D61726C696E0020536F6674776116
:1009E00072652052657365740A00205761746368EC
:1009F000646F672052657365740A002042726F77D6
:100A00006E206F75742052657365740A00204578F6
:100A10007465726E616C2052657365740A00506F64
:100A200077657255700A0073746172740A0061759B
:100A3000746F25692E67006572726F722077726914
:100A400074696E6720746F2066696C650A00427570
:100A50007465657320256320256320256320256345
:100A600000205A3A0020593A0020583A00656E6436
:100A700073746F7073206869743A2000446F6E65F8
:100A800020736176696E672066696C652E0A004D79
:100A900032390024F4D43050C38E20C2A2401782D1
:100AA0008B7011127A910D816CD90AA861E108C787
:100AB000586607615143061E4B5D05C145A7041AE0
:100AC000411104093D9803713931034036DB026559
:100AD000339102D4305402802E1D02632CEE017536
:100AE0002AC501B028A001102781018F2564012BA0
:100AF000244B01E0223401AC211F018D200D018027
:100B00001FFC00841EED00971DDF00B81CD200E61C
:100B10001BC600201BBC00641AB200B219A8000A50
:100B200019A0006A189900D117910040178B00B5E1
:100B300016840031167E00B31579003A157300C78C
:100B4000146F0058146A00EE1366008813630025C2
:100B5000135E00C7125B006C12570015125400C1DF
:100B600011510070114F0021114B00D61049008D1A
:100B70001047004610440002104200C00F400080A1
:100B80000F3E00420F3C00060F3B00CB0E38009397
:100B90000E37005C0E3500270E3400F30D3200C115
:100BA0000D3100900D3000600D2E00320D2D00052E
:100BB0000D2C00D90C2B00AE0C2900850C29005CF3
:100BC0000C2700350C27000E0C2600E80B2400C46F
:100BD0000B2400A00B23007D0B23005A0B210039AE
:100BE0000B2100180B2000F80A1F00D90A1E00BBB9
:100BF0000A1E009D0A1D00800A1D00630A1C004792
:100C00000A1B002C0A1B00110A1A00F7091A00DD42
:100C1000091900C4091900AB091900920917007BD2
:100C2000091800630917004C091600360916002040
:100C30000916000A091500F5081500E0081400CC93
:100C4000081400B8081400A4081400900813007DCC
:100C50000812006B081300580812004608120034EE
:100C6000081100230811001208110001081100F0FA
:100C7000071000E0071000D0071000C0071000B0F8
:100C8000070F00A107100091070E0083070F0074E3
:100C9000070F0065070E0057070E0049070E003BBF
:100CA000070D002E070E0020070D0013070D00068C
:100CB000070D00F9060C00ED060D00E0060C00D44F
:100CC000060C00C8060C00BC060C00B0060C00A404
:100CD000060B0099060C008D060B0082060B0077B0
:100CE000060B006C060B0061060A0057060B004C51
:100CF000060A0042060A0038060A002E060A0024E8
:100D0000060A001A060A001006090007060A00FD76
:100D1000050900F4050900EB050900E2050900D901
:100D2000050900D0050900C7050900BE050900B581
:100D3000050800AD050800A50509009C05080094FC
:100D40000508008C050800840508007C050800746F
:100D50000508006C050700650508005D05070056DD
:100D60000508004E05070047050700400508003844
:100D7000050700310507002A050700230507001CA9
:100D8000050600160507000F050700080506000206
:100D9000050700FB040600F5040700EE040600E862
:100DA000040600E2040700DB040600D5040600CFB9
:100DB000040600C9040600C3040600BD040600B70B
:100DC000040600B1040500AC040600A6040600A059
:100DD0000405009B04060095040500900406008AA3
:100DE00004050085040500800406007A04050075EA
:100DF000040500700405006B04050066040500612D
:100E00000405005C04050057040500520405004D6C
:100E100004050048040500430405003E0404003AAC
:100E200004050035040500300404002C04050027E7
:100E3000040400230405001E0404001A0404001620
:100E4000040500110404000D040400090405000455
:100E500004040000040400FC030400F8030400F48C
:100E6000030400F0030400EC030400E8030400E4BE
:100E7000030400E0030400DC030400D8030400D4EE
:100E8000030400D0030400CC030400C8030300C51E
:100E900003030024F404D9201BC40C5C0E9804C482
:100EA000095F0265077101F405F900FB04B300480E
:100EB000048700C10369005803550003034500BEC1
:100EC000023A008402310053022A0029022500045C
:100ED000022000E4011C00C8011900AF01170098AE
:100EE0000114008401130071011000610110005110
:100EF000010E0043010D0036010B002B010B0020F9
:100F0000010B00150109000C01090003010800FB99
:100F1000000800F3000800EB000700E4000600DE14
:100F2000000600D8000600D2000600CC000500C76D
:100F3000000500C2000500BD000400B9000400B5B2
:100F4000000400B1000400AD000400A9000400A5E5
:100F5000000300A20003009F0004009B0003009810
:100F60000003009500020093000300900003008D31
:100F70000002008B0003008800020086000200844B
:100F8000000300810002007F0002007D0002007B60
:100F90000002007900020077000100760002007470
:100FA00000020072000100710002006F0002006D7B
:100FB0000001006C0002006A000100690002006785
:100FC000000100660001006500010064000200628B
:100FD00000010061000100600001005F0002005D8F
:100FE0000001005C0001005B0001005A0001005993
:100FF0000001005800010057000100560001005593
:101000000001005400010053000000530001005291
:1010100000010051000100500001004F0001004E8E
:101020000000004E0001004D0001004C0001004B8B
:101030000000004B0001004A000100490001004887
:101040000000004800010047000100460000004683
:10105000000100450000004500010044000100437C
:101060000000004300010042000000420001004176
:1010700000000041000100400001003F0000003F6F
:101080000001003E0000003E0001003D0000003D68
:101090000001003C0000003C0000003C0001003B5F
:1010A0000000003B0001003A0000003A0001003956
:1010B000000000390001003800000038000000384E
:1010C0000001003700000037000100360000003644
:1010D000000000360001003500000035000000353A
:1010E000000100340000003400000034000100332F
:1010F0000000003300000033000100320000003225
:101100000000003200010031000000310000003119
:101110000001003000000030000000300001002F0E
:101120000000002F0000002F0000002F0001002E03
:101130000000002E0000002E0001002D0000002DF8
:101140000000002D0000002D0001002C0000002CEC
:101150000000002C0000002C0001002B0000002BE0
:101160000000002B0000002B0001002A0000002AD4
:101170000000002A0000002A0001002900000029C8
:1011800000000029000000290000002900010028BB
:1011900000000028000000280000002800000028AF
:1011A00000010027000000270000002700000027A2
:1011B0000000002700010026000000260000002695
:1011C0000000002600000026000100250000002588
:1011D000000000250000002500000025000000257B
:1011E000000100240000002400000024000000246E
:1011F0000000002400010023000000230000002361
:101200000000002300000023000000230000002352
:101210000001002200000022000000220000002245
:101220000000002200000022000100210000002137
:10123000000000210000002100000021000000212A
:10124000000000210001002000000020000000201C
:10125000000000200000002000000020000000200E
:10126000000000200001001F0000001F0000001F00
:101270000000001F0000001F0000001F0000001FF2
:101280000001001E0000001E0000001E0000001EE5
:10129000000000122B000014220000091800001C9E
:1012A0000F0000AE080000AF040000710200003E15
:1012B000010000434F4D4D554E49434154494F4E57
:1012C0000044525952554E004552524F5253004914
:1012D0004E464F004543484F0020573A00452043B3
:1012E0006F6F6C696E672E2E2E004520456E206351
:1012F0006861756666652E2E2E0020573A0042659D
:101300006420636F6F6C696E672E2E2E004C6974BB
:1013100020656E20636861756666652E2E2E00D48A
:1013200012CF12C812C112B3126F66660044454252
:1013300055473A004D31313320530050533A310A6A
:101340000050533A300A005363616C617220584C6C
:10135000502041727265742E00205A3A0020593A8A
:101360000020436F756E7420583A0020453A0020E3
:101370005A3A0020593A00583A0044696666657244
:101380003A200046726F6D5374703A005374657062
:101390007065723A00556E4C6576656C3A004C6526
:1013A00076656C65643A005261773A20202020000F
:1013B0000A4C6F676963616C3A003A004361703AA6
:1013C00000544845524D414C5F50524F5445435490
:1013D000494F4E004155544F5245504F52545F5360
:1013E000445F53544154555300454D455247454E73
:1013F00043595F50415253455200434153455F4C5E
:10140000494748545F4252494748544E4553530058
:10141000544F47474C455F4C494748545300534F3E
:101420004654574152455F504F5745520042554927
:101430004C445F50455243454E54004C4556454C34
:10144000494E475F44415441005A5F50524F424514
:10145000004155544F4C4556454C005052494E544E
:101460005F4A4F420050524F475245535300415537
:10147000544F5245504F52545F54454D5000564FB3
:101480004C554D455452494300454550524F4D002F
:1014900053455249414C5F584F4E5F584F464600A6
:1014A0004649524D574152455F4E414D453A4D6177
:1014B000726C696E20312E312E392028476974688C
:1014C00075622920534F555243455F434F44455F52
:1014D00055524C3A68747470733A2F2F6769746868
:1014E00075622E636F6D2F4D61726C696E46697205
:1014F0006D776172652F4D61726C696E2050524F2D
:10150000544F434F4C5F56455253494F4E3A312E3C
:1015100030204D414348494E455F545950453A5358
:1015200063616C617220584C5020455854525544A8
:1015300045525F434F554E543A3120555549443A30
:1015400033396365666634342D383863612D313143
:1015500065362D616532322D353662366236343964
:10156000393631310A0000002100240027002A000A
:101570002D003000330001010000040107010A01C1
:10158000000020002300260029002C002F0032003C
:101590000001000003010601090100000A0B020915
:1015A0000C0D0E08070304010000000000000000FD
:1015B000000000000000000000000000000000002B
:1015C00000000000000012111000000000000000E8
:1015D000000000000000000000000000000000000B
:1015E000024F726967696E65202573257325732024
:1015F0005072656D69657200205072656D69657223
:101600000A005A00590058004F726967696E6520D8
:101610000053442063617264206F6B0A006F706531
:101620006E526F6F74206661696C65640A00766F34
:101630006C756D652E696E6974206661696C656490
:101640000A00534420696E6974206661696C0A005F
:1016500057726974696E6720746F2066696C653AA9
:1016600020006F70656E206661696C65642C204691
:10167000696C653A20006F70656E206661696C6503
:10168000642C2046696C653A200046696C652073BD
:10169000656C65637465640A002053697A653A2055
:1016A0000046696C65206F70656E65643A200020A5
:1016B00066696C653A2000646F696E6700667265E2
:1016C0007368004E6F772000454E442053554252B8
:1016D0004F5554494E450A002220706F7300222056
:1016E000706172656E743A2200535542524F5554E0
:1016F000494E452043414C4C207461726765743AF1
:1017000022004D4F52542E00747279696E67207416
:101710006F2063616C6C207375622D67636F646505
:101720002066696C6573207769746820746F6F2018
:101730006D616E79206C6576656C732E204D415815
:10174000206C6576656C2069733A004572726F7221
:101750003A006F70656E206661696C65642C204686
:10176000696C653A20007C3C3E5E2B3D3F2F5B5D03
:101770003B2C2A225C004572726F7220777269746A
:10178000696E6720746F20454550524F4D210A0005
:10179000202844525952554E29004732392041756C
:1017A000746F20426564204C6576656C696E6700D5
:1017B0003F20284C2C522C462C4229206F75742037
:1017C0006F6620626F756E64732E0A003F2856297B
:1017D0006572626F7365206C6576656C2069732035
:1017E000696D706C61757369626C652028302D3489
:1017F000292E0A00426164205A2076616C75650AC0
:10180000004E6F2062696C696E6561722067726953
:10181000640A004D65736820706F696E742063619F
:101820006E6E6F74206265207265736F6C7665648E
:101830000A00417474656E2E206465206C277574EF
:10184000696C2E004D6F746575727320626C6F71D8
:101850007565732E00286E6F2066696C65290043DC
:10186000757272656E742066696C653A200046690F
:101870006C652064656C657465643A0044656C65EC
:1018800074696F6E206661696C65642C2046696CB2
:10189000653A200050726F74656374656420506906
:1018A0006E0A002020427573653A200063686172F9
:1018B00067656D656E742066696C616D656E740038
:1018C000417474656E7465206465002020427573F0
:1018D000653A20005075726765722066696C616DAB
:1018E000656E7400417474656E746500706F757216
:1018F0002072657072656E64726500417474656E05
:10190000746520696D7072657373696F6E004361F1
:1019100072746520726574697265650043617274E2
:101920006520696E736572656500526573746175D3
:101930007265722064656661757473004C697265C6
:1019400020636F6E66696700496E697469616C69CE
:1019500073657220454550524F4D00536175766551
:101960007220636F6E66696700424C546F756368DE
:101970000046696C616D656E74004D6F7576656DBE
:10198000656E740054656D70657261747572650082
:101990004D656E75207072696E636970616C004D83
:1019A00033303320553120452569205325690052B5
:1019B00065676C2E2070726563682E20414253006B
:1019C0005265676C2E2070726563682E20504C4102
:1019D00000504944204175746F74756E650050491C
:1019E00044204175746F74756E65005049442D44F0
:1019F000005049442D44005049442D490050494469
:101A00002D49005049442D50005049442D500002AA
:101A100020466163746575720002204661637465D7
:101A200075720002204D61780002204D617800023D
:101A3000204D61780002204D696E0002204D696ED4
:101A40000002204D696E004172726574004D617232
:101A50006368650054656D702E204175746F2E00AB
:101A6000566974657373652076656E74696C2E00B3
:101A7000566974657373652076656E74696C2E00A3
:101A80004C6974004C69740042757365004275734B
:101A90006500436F6E74726F6C657200536175768A
:101AA000657220636F6E666967004C6974004C69EB
:101AB00074004275736500427573650056697465FC
:101AC0007373652076656E74696C2E005669746553
:101AD0007373652076656E74696C2E0054656D7045
:101AE0006572617475726500454550524F4D2064B2
:101AF00061746173697A65206572726F722E0A0073
:101B0000290A002062797465733B206372632000A8
:101B100053657474696E67732053746F72656420C3
:101B20002800290A002062797465733B2063726380
:101B300020002073746F7265642073657474696E1D
:101B40006773207265747269657665642028002069
:101B50002863616C63756C6174656429210A0020D7
:101B6000213D2000454550524F4D20435243206DAA
:101B700069736D61746368202D202873746F7265BA
:101B8000642920002053697A653A2000496E646513
:101B9000783A2000204D61726C696E3D56353529CA
:101BA0000A0028454550524F4D3D00454550524F83
:101BB0004D2076657273696F6E206D69736D617407
:101BC000636820004739322045300A4731204636C5
:101BD000303020453130300A4739322045300A4D07
:101BE00031313720557365722053637269707420E8
:101BF000446F6E65004739322045300A4731204630
:101C000036303020452D3130300A473932204530CA
:101C10000A4D3131372055736572205363726970F4
:101C20007420446F6E65004D3130362053300A4DBC
:101C30003131372055736572205363726970742097
:101C4000446F6E65004D31303620533132370A4DC6
:101C50003131372055736572205363726970742077
:101C6000446F6E65004D31303620533235350A4DA4
:101C70003131372055736572205363726970742057
:101C8000446F6E650046616E20353020506572638A
:101C9000656E740046616E204F6666005265747210
:101CA000616374203130306D6D0046616E203130DB
:101CB000302050657263656E740045787472756487
:101CC0006572203130306D6D004D656E752070721B
:101CD000696E636970616C004D313235004D32348C
:101CE00000496D70722E20416E6E756C65650050F6
:101CF000617320646520636172746500496D707260
:101D00002E206465707569732053440041727265BA
:101D100074657220696D70722E0052657072656E06
:101D200064726520696D70722E00496E666F732053
:101D3000696D7072696D616E746500496E7465726B
:101D4000726F6D70726520696D70722E00436F6ED8
:101D500074726F6C657200507265706172657200AA
:101D60005265676C6572004C756D696572652063BC
:101D7000616973736F6E00436F6D6D616E6465733F
:101D800020706572736F005375727665696C6C654F
:101D900072004261627973746570205A0043686111
:101DA0006E6765722066696C616D656E7400426174
:101DB000627973746570205A00466C757800466CC1
:101DC000757800566974657373652076656E7469FD
:101DD0006C2E00566974657373652076656E746940
:101DE0006C2E004C6974004C697400427573650078
:101DF000427573650048617574657572206C69730E
:101E00007365650048617574657572206C697373DC
:101E1000656500566974657373650056697465730A
:101E20007365004D656E75207072696E63697061CF
:101E30006C0025753A2530327500253032753A250B
:101E4000303275002D2D2D005344002020202020FD
:101E5000200020202020005363616C617220584CC8
:101E6000502070726574652E005072696E74696ED0
:101E7000672E2E2E00496D70722E20656E207061C7
:101E8000757365004172726574004D6172636865B7
:101E9000004C756D696572652063616973736F6E5F
:101EA000004C756D696E6F73697465004C756D6972
:101EB0006E6F73697465004D656E75207072696E22
:101EC000636970616C0052616E67657220424C54A8
:101ED0006F756368004D32383020503020533930F0
:101EE000004465706C6F79657220424C546F756365
:101EF00068004D3238302050302053313000417569
:101F0000746F7465737420424C546F756368004D30
:101F100032383020503020533132300052615A2054
:101F2000424C546F756368004D3238302050302079
:101F300053313630004D656E75207072696E63697D
:101F400070616C004A756E6374696F6E20446576CB
:101F5000004A756E6374696F6E20446576004D6F3C
:101F60007576656D656E740045207061732F6D6DBB
:101F70000045207061732F6D6D005A207061732FC2
:101F80006D6D005A207061732F6D6D005920706166
:101F9000732F6D6D0059207061732F6D6D00582087
:101FA0007061732F6D6D0058207061732F6D6D001F
:101FB0004D6F7576656D656E74005061732F6D6D34
:101FC000004A65726B00416363656C657261746998
:101FD0006F6E0056656C6F6369746500446563617C
:101FE0006C616765205A00446563616C61676520B8
:101FF0005A00436F6E74726F6C6572004368617251
:10200000676572206D6D0043686172676572206D4F
:102010006D0043686172676572206D6D0044656391
:10202000686172676572206D6D00446563686172F6
:10203000676572206D6D00446563686172676572E3
:10204000206D6D004469616D2E2046696C2E004440
:1020500069616D2E2046696C2E00417272657400B4
:102060004D6172636865004520656E206D6D3300BB
:102070004176616E6365204B004176616E63652039
:102080004B00436F6E74726F6C65720043616E6ECD
:102090006F7420656E746572207375626469723A3C
:1020A0002000052E2E004D656E75207072696E63DE
:1020B0006970616C0043616E6E6F74206F70656E45
:1020C0002073756264697220006563686F3A004529
:1020D0003120454D42414C4C454D454E54205448CD
:1020E00045524D2E0042454420544845524D414CE6
:1020F0002052554E4157415900546865726D616CCC
:102100002052756E61776179005344207072696E58
:1021100074696E67206279746520004E6F74205375
:1021200044207072696E74696E670A0001021020A3
:1021300020080810204010204080020102010804FD
:102140000201010204081020408080402010080491
:1021500002018004020180402010080402010804EA
:10216000020101020408102040800102040810202E
:10217000408000002200250028002B002E003100A6
:10218000340002010000050108010B0105050505E9
:10219000070508080808020202020A0A08080404DF
:1021A000040401010101010101010303030303030D
:1021B0000303040707070C0C0C0C0C0C0C0C02029C
:1021C000020206060606060606060B0B0B0B0B0B99
:1021D0000B0B00546F74616C2066696C616D656EE9
:1021E000743A2000256C642E25696D0000496D70DD
:1021F000722E206C61202B206C6F6E6775653A2003
:10220000000054707320696D70722E20746F7461B9
:102210006C3A20005465726D696E6565733A2000F2
:102220004E62726520696D7072657373696F6E734B
:102230003A200054656D70204D61783A2031343079
:102240000054656D70204D696E3A2035005442652A
:10225000643A312520626574612033393530005489
:10226000656D70204D61783A203237350054656DC8
:1022700070204D696E3A20350054303A2041544365
:102280002031303447542D3200416C696D656E74D5
:102290006174696F6E3A204154580050726F746FC8
:1022A000636F6C653A20312E3000426175643A20CC
:1022B0003131353230300052414D505320312E34BF
:1022C000004E69766561752062696C696E65616949
:1022D000726500457874727564657572733A203161
:1022E00000687474703A2F2F6D61726C696E667736
:1022F0002E6F7267005363616C617220584C5000FE
:10230000323031382D30372D333100312E312E39E6
:10231000004D61726C696E0053746174732E206994
:102320006D7072696D616E746500546865726D6977
:1023300073746F727300496E666F73206361727499
:102340006500496E666F7320696D7072696D616EAC
:102350007465004D656E75207072696E6369706199
:102360006C004465636861726765722066696C2EF3
:10237000004D3730320043686172676572206669CC
:102380006C2E004D373031004368616E67657220F6
:1023900066696C616D656E74004D36303020423078
:1023A00000507265706172657200494D50522E2066
:1023B00050415553450044454348415247455220FA
:1023C00046494C00434841524745522046494C003B
:1023D00050757267657220656E636F726500526535
:1023E0007072656E64726520696D70722E004F5058
:1023F00054494F4E5320524550524953453A0020BC
:1024000020427573653A20006368616E67657200EB
:1024100064752066696C616D656E740041747465E5
:102420006E74652044656D6172726167650020207D
:10243000427573653A20006465636861726765720E
:102440002066696C616D656E7400417474656E74AC
:1024500065206465002020427573653A2000506154
:102460007469656E74657A205356502E2E2E004284
:1024700075736520656E206368617566666500200A
:1024800020427573653A200050722063686175665A
:10249000666572206C6120627573650050726573A9
:1024A000736572206C6520626F75746F6E2E2E2EB0
:1024B000002020427573653A2000706F75722063AA
:1024C0006F6E74696E7565722E2E2E0065742061B4
:1024D00070702E20626F75746F6E00496E73657236
:1024E00065722066696C616D656E74005374616E0F
:1024F0006461726420446576696174696F6E3A2024
:10250000002052616E67653A2000204D61783A20C4
:1025100000204D696E3A20004D65616E3A200046FC
:10252000696E6973686564210A002072616E67656F
:102530003A2000206D61783A2000206D696E3A20C3
:1025400000207369676D613A2000206D65616E3A05
:1025500020003A207A3A2000206F662000205A009E
:10256000205900205800476F696E6720746F3A0049
:10257000436C6F636B776973650A00436F756E74A4
:1025800065722D0020446972656374696F6E3A202C
:1025900000202020616E676C653A200053746172E0
:1025A00074696E67207261646975733A2000506FB8
:1025B000736974696F6E696E6720746865207072E4
:1025C0006F62652E2E2E0A003F4E756D6265722079
:1025D0006F66206C65677320696E206D6F76656D20
:1025E000656E74206E6F7420706C61757369626CB7
:1025F000652028302D3135292E0A003F2028582CFF
:102600005929206F7574206F6620626F756E647330
:102610002E0A003F53616D706C652073697A6520E6
:102620006E6F7420706C61757369626C65202834FC
:102630002D3530292E0A004D3438205A2D50726F16
:102640006265205265706561746162696C69747954
:1026500020546573740A003F2856296572626F73AF
:1026600065206C6576656C20697320696D706C619E
:10267000757369626C652028302D34292E0A004656
:10268000696C616D656E7420757365643A200053E2
:10269000746174733A20002C204C6F6E67657374FC
:1026A000206A6F623A2000546F74616C2074696D07
:1026B000653A200053746174733A20002C204661FF
:1026C000696C65643A20002C2046696E6973686500
:1026D000643A20005072696E74733A20005374613A
:1026E00074733A20006F6B0048617264636F6465B5
:1026F000642044656661756C742053657474696EFA
:102700006773204C6F616465640A00F4010000F493
:1027100001000003000000DC05000000001643007B
:10272000001643000040400000C8410000C84200BD
:1027300000C8420000C84400001A4345636865634E
:10274000206F726967696E6500FFFDFCFAF8F6F4A8
:10275000F2F0EEECEAE9E7E5E3E1E0DEDCDAD9D736
:10276000D5D4D2D0CFCDCBCAC8C7C5C3C2C0BFBDD8
:10277000BCBAB9B7B6B4B3B2B0AFADACAAA9A8A64B
:10278000A5A4A2A1A09E9D9C9A9998979594939296
:10279000908F8E8D8B8A8988878684838281807FC3
:1027A0007E7D7B7A797877767574737271706F6ECF
:1027B0006D6C6B6A696867666564636261605F5EC1
:1027C0005D5C5B5A595858575655545352515050A6
:1027D0004F4E4D4C4B4A4A49484746464544434272
:1027E0004241403F3E3E3D3C3B3B3A39383837362C
:1027F0003535343332323130302F2E2E2D2C2B2BD9
:102800002A29292827272625252423232221212078
:10281000201F1E1E1D1C1C1B1B1A19191818171609
:1028200016151514131312121111100F0F0E0E0D91
:102830000D0C0C0B0A0A090908080707060605050E
:102840000404030302020100000000000100000074
:10285000010000800055555500000040003333331F
:1028600000AAAA2A004992240000002000C7711C77
:102870000099991900D1451700555515003BB11322
:10288000002449120011111100000010000F0F0F59
:1028900000E3380E0043790D00CCCC0C00C3300CA3
:1028A00000E8A20B0064210B00AAAA0A00703D0AEE
:1028B000009DD80900427B090092240900DCD3085E
:1028C00000888808001042080000000800F0C107D6
:1028D000008787070075500700711C07003EEB0654
:1028E00000A1BC06006990060066660600703E0600
:1028F000006118060017F4050074D105005BB005EF
:1029000000B2900500627205005555050078390542
:1029100000B81E0500050505004EEC040087D40430
:1029200000A1BD040090A7040049920400C17D04E9
:1029300000EE690400C7560400444404005C3204FD
:10294000000821040041100400000004003FF003CF
:1029500000F8E0030026D20300C3C30300CCB50394
:10296000003AA803000A9B0300388E0300C08103CD
:10297000009F750300D0690300505E03001D5303E0
:102980000034480300913D0300333303001629034C
:1029900000381F030097150300300C0300030303E6
:1029A000000BFA020049F10200BAE802005CE00202
:1029B000002DD802002DD0020059C80200B0C0027C
:1029C0000031B90200DAB10200AAAA0200A0A302F3
:1029D00000BC9C0200FA9502005C8F0200DF8802B6
:1029E0000082820200457C020027760200277002E6
:1029F00000436A02007C640200D05E02003F59027C
:102A000000C853020020746F6F206C6F6E672065E2
:102A10007874727573696F6E2070726576656E7406
:102A200065640A0050726563686175666661676512
:102A300020504C412066696E690050726563682EB3
:102A400020504C41206C6974005072656368617558
:102A5000666661676520504C410050726570617216
:102A600065720050726563686175666661676520AE
:102A70004142532066696E690050726563682E207A
:102A8000414253206C6974005072656368617566D9
:102A900066616765204142530050726570617265DE
:102AA00072004D343238004D383000457465696E1F
:102AB00064726520616C696D2E004D383100526181
:102AC0005A20424C546F756368004D3238302050A4
:102AD000302053313630004175746F746573742043
:102AE000424C546F756368004D32383020503020AE
:102AF0005331323000507265636861756666616794
:102B00006520414253005072656368617566666175
:102B1000676520504C4100526566726F6964697246
:102B200000416C6C756D657220616C696D2E00439F
:102B300068616E6765722066696C616D656E7400B0
:102B400041727265746572206D6F74657572730081
:102B50004D3834005265676C2E20646563616C2EBD
:102B6000206F726967696E6500486175746575727A
:102B7000206C6973736565004861757465757220B2
:102B80006C6973736565004172726574004D6172A2
:102B9000636865005265676C2E204E69762E206C46
:102BA0006974005265676C2E204E69762E206C6920
:102BB00074004732380A473239004F726967696ECC
:102BC00065205A204175746F2E00473238205A0014
:102BD0004F726967696E652059204175746F2E00C8
:102BE0004732382059004F726967696E6520582056
:102BF0004175746F2E004732382058004F72696754
:102C0000696E65206175746F2E0047323800446527
:102C1000706C6163657220756E20617865004D652A
:102C20006E75207072696E636970616C00417272BA
:102C300065740A00466164652048656967687420A8
:102C400000426564204C6576656C696E67200046BD
:102C500061696C656420746F20656E61626C6520CB
:102C6000426564204C6576656C696E670A004D6547
:102C7000736820706F696E742063616E6E6F74206C
:102C80006265207265736F6C7665640A004D34323C
:102C90003120696E636F7272656374207061726156
:102CA0006D657465722075736167650A00454550EE
:102CB000524F4D204F4B0A003A200050726F626510
:102CC000205A204F6666736574003F5A206F7574F2
:102CD000206F662072616E676520282D3130207468
:102CE0006F203130290A00496E736572742066695D
:102CF0006C616D656E7420616E64207072657373B3
:102D000020627574746F6E20286F72204D313038D8
:102D1000290A00507265737320627574746F6E2097
:102D2000286F72204D3130382920746F206865611A
:102D300074206E6F7A7A6C650A00496E73657274DE
:102D40002066696C616D656E7420616E64207072BE
:102D500065737320627574746F6E20286F72204DD6
:102D6000313038290A003F4B2076616C7565206F41
:102D70007574206F662072616E67652028302D3172
:102D800030292E0A00416476616E6365204B3D0058
:102D900020746F6F206C6F6E672065787472757326
:102DA000696F6E2070726576656E7465640A006284
:102DB0007573793A2070617573656420666F72204F
:102DC000696E7075740A00627573793A2070617566
:102DD00073656420666F7220757365720A00627590
:102DE00073793A2070726F63657373696E670A0056
:102DF0004D4F52542E004B494C4C20636175736506
:102E000064206279204B494C4C20627574746F6E5B
:102E10002F70696E0A004D4F52542E004B494C4C96
:102E20002063617573656420627920746F6F206D13
:102E300075636820696E6163746976652074696D75
:102E400065202D2063757272656E7420636F6D6DE1
:102E5000616E643A20004D3630300052615A2E20A7
:102E600053565000494D50522E2053544F50504508
:102E700045002F2F616374696F6E3A706F776572CA
:102E80006F66660A005072696E7465722068616CC4
:102E90007465642E206B696C6C28292063616C6CEE
:102EA0006564210A0000000000000000000000002E
:102EB000000000D7430000A0430000964353544F46
:102EC0005050452E005072696E7465722073746F95
:102ED000707065642064756520746F206572726F10
:102EE00072732E2046697820746865206572726F4F
:102EF0007220616E6420757365204D3939392074F4
:102F00006F20726573746172742E202854656D7021
:102F1000657261747572652069732072657365747A
:102F20002E20536574206974206166746572207266
:102F3000657374617274696E67290A0053544F5047
:102F40002063616C6C6564206265636175736520E4
:102F50006F6620424C546F756368206572726F72A1
:102F6000202D2072657374617274207769746820F3
:102F70004D3939390A0042696C696E656172204CBD
:102F80006576656C696E6720477269643A0A00521B
:102F900065706F732E2E2E004D3234004D3233206B
:102FA000257300556E6B6E6F776E20636F6D6D616C
:102FB0006E643A2022002F2F616374696F6E3A723B
:102FC0006573756D650A00496E7365727420666974
:102FD0006C616D656E7420616E64207072657373D0
:102FE00020627574746F6E20286F72204D313038F6
:102FF000290A00456368656320736F6E64650A0083
:10300000456368656320736F6E646500205A3A20DB
:103010000020593A200042656420583A20001000F0
:10302000C90210012C014001220170011801B001F8
:103030000E01F00104015002FA00B002F00030036A
:10304000E600D003DC009004D2007005C800A006A2
:10305000BE000008B400B009AA00D00BA000600EAA
:10306000960060118C000015820020197800C01DA8
:103070006E00A0226400B0275A00902C500000314E
:103080004600E0343C0010383200903A2800603CA2
:103090001E00A03D1400803E0A00203F0000453184
:1030A000204572723A2054454D502E204D41580013
:1030B0004572723A2054454D502E204D4158204CB7
:1030C0004954004D415854454D502074726967670A
:1030D00065726564004531204572723A2054454D51
:1030E000502E204D494E004572723A2054454D50A5
:1030F0002E204D494E204C4954004D494E54454DCB
:103100005020747269676765726564004D383420B9
:10311000582059205A204500202F002042403A00D4
:1031200020403A00001C1F11111F00000006191852
:1031300003130C00040E1F041C000000000E1315E6
:10314000110E00001C10181705060500040A0A0AD3
:103150000A11110E0C12120C00000000001F1511B4
:10316000151F000056206465706C2E206D696E007E
:1031700056206465706C2E206D696E005620646563
:10318000706C2E206D696E00566D696E2000566D54
:10319000696E2000566D696E2000566D617820457D
:1031A00000566D6178204500566D617820450056C7
:1031B0006D6178205A00566D6178205A00566D6115
:1031C00078205A00566D6178205900566D6178203C
:1031D0005900566D6178205900566D61782058006D
:1031E000566D6178205800566D61782058004D6FFB
:1031F0007576656D656E7400416D6178204500419E
:103200006D6178204500416D6178205A00416D6103
:1032100078205A00416D6178205900416D61782015
:103220005900416D6178205800416D617820580047
:1032300041204465706C2E0041204465706C2E0066
:103240004120726574726169740041207265747204
:1032500061697400416363656C65726174696F6E66
:1032600000416363656C65726174696F6E004D6FD8
:103270007576656D656E7400656E717565756569E9
:103280006E67202200000000000000000000000027
:10329000000000484200004842000080400000005A
:1032A000005761726E696E673A20486F6D696E678C
:1032B0002042756D702044697669736F72203C20DE
:1032C000310A000202040000A0400000A0400000FB
:1032D00000400000D7430000A04300009643FFFFDA
:1032E000FF2F2F616374696F6E3A70617573650AA1
:1032F0000000002110422063308440A550C660E7E2
:1033000070088129914AA16BB18CC1ADD1CEE1EF9A
:10331000F13112100273325222B5529442F772D632
:1033200062399318837BB35AA3BDD39CC3FFF3DEEA
:10333000E36224433420040114E664C774A4448582
:10334000546AA54BB528850995EEE5CFF5ACC58D3A
:10335000D55336722611163006D776F6669556B4D2
:10336000465BB77AA719973887DFF7FEE79DD7BC8A
:10337000C7C448E5588668A7784008611802282322
:1033800038CCC9EDD98EE9AFF9488969990AA92BDA
:10339000B9F55AD44AB77A966A711A500A333A1272
:1033A0002AFDDBDCCBBFFB9EEB799B588B3BBB1A2A
:1033B000ABA66C877CE44CC55C222C033C600C41C2
:1033C0001CAEED8FFDECCDCDDD2AAD0BBD688D497A
:1033D0009D977EB66ED55EF44E133E322E511E7012
:1033E0000E9FFFBEEFDDDFFCCF1BBF3AAF599F78CA
:1033F0008F8891A981CAB1EBA10CD12DC14EF16F7B
:10340000E18010A100C230E32004502540467067DF
:1034100060B9839893FBA3DAB33DC31CD37FE35E0B
:10342000F3B1029012F322D232354214527762562F
:1034300072EAB5CBA5A89589856EF54FE52CD50D1B
:10344000C5E234C324A0148104667447642454057F
:1034500044DBA7FAB79987B8975FE77EF71DC73CAB
:10346000D7D326F2369106B01657667676154634CF
:10347000564CD96DC90EF92FE9C899E9898AB9ABBB
:10348000A94458654806782768C018E1088238A31F
:10349000287DCB5CDB3FEB1EFBF98BD89BBBAB9A4B
:1034A000BB754A545A376A167AF10AD01AB32A926F
:1034B0003A2EFD0FED6CDD4DCDAABD8BADE89DC95B
:1034C0008D267C076C645C454CA23C832CE01CC1BF
:1034D0000C1FEF3EFF5DCF7CDF9BAFBABFD98FF8EB
:1034E0009F176E367E554E745E932EB23ED10EF00F
:1034F0001E4465706C2E2058004465706C2E205957
:10350000004465706C2E205A0045787472756465AD
:103510007572004465706C2E20302E316D6D004444
:1035200065706C2E20316D6D004465706C2E2031FD
:10353000306D6D004465706C6163657220756E203E
:1035400061786500457874727564657572004465CC
:10355000706C2E205A004465706C2E205900446512
:10356000706C2E2058004578747275646575720011
:103570004465706C2E205A004465706C2E205900F2
:103580004465706C2E2058005072657061726572CF
:1035900000496E697469616C6973657220454550B4
:1035A000524F4D00436F6E74726F6C6572006265AE
:1035B000640A002C2073797374656D2073746F70C6
:1035C00070656421204865617465725F49443A20E2
:1035D000004265642068656174696E672066616990
:1035E0006C65640048656174696E67206661696C2A
:1035F00065640045312045727265757220646520EE
:10360000636861756666650048656174696E672008
:103610006661696C6564004D4F52542E001000AA1B
:1036200003F0013A019002220130031001D003029D
:10363000017004F7001005ED00B005E5005006DD4F
:1036400000F006D7009007D1003008CC00D008C7A2
:10365000007009C300100ABE00B00ABB00500BB7CF
:1036600000F00BB300900CB000D00DAA00100FA515
:10367000005010A00090119B00D0129600B0149042
:103680000090168B0070188500501A8000301C7B4B
:1036900000B01E750030216F00B023690030266431
:1036A0000010285F00902A5A00702C5500F02E4F11
:1036B0000070314800B0324500F0334100703639B7
:1036C00000103737005038330090392D00D03A279A
:1036D00000B03C1C00503D1700F03D1100903E0929
:1036E00000D03FE5FF526573656E643A20006F6B52
:1036F0000000DC00DE0011241FBECFEFD1E2DEBFF0
:10370000CDBF00E00CBF13E0A0E0B2E0E4EEFFE8C4
:1037100002E00BBF02C007900D92A238B107D9F7A3
:1037200026E1A2E8B3E001C01D92AE39B207E1F78D
:103730001BE1CAE7DBE100E006C021970109802F09
:10374000FE010F945F47C937D10780E00807A9F74A
:103750000F94FD2B0D94E1470C9400002F923F92A3
:103760004F925F926F927F928F929F92AF92BF9291
:10377000CF92DF92EF92FF920F931F93CF93DF933D
:10378000CDB7DEB7CF5AD1090FB6F894DEBF0FBE62
:10379000CDBF21E020936C0E809115168D3411F46D
:1037A0000C94A828843511F40C94223A873411F033
:1037B0000C94663A80911316909114168B319105F2
:1037C00011F40C9408259CF4843091053CF482306B
:1037D0009105DCF597FF32C00C94A4288430910544
:1037E00009F44FC60C9709F450C60C94A4288A32E9
:1037F000910511F40C94262874F48D31910511F47F
:103800000C944A2714F40C9438254E9711F40C9418
:103810004E270C94A4288B35910511F40C942A287A
:103820008C35910511F40C942E288A35910511F0F0
:103830000C94A428109294030C94683A809170021E
:1038400081110C946D3A0C94683A209170022223F5
:1038500011F40C94683A11E0029709F010E00E940C
:10386000D3FB82E50E940042882309F45CC10E94D8
:1038700082416B017C0140907F0E5090800E6090E1
:10388000810E7090820E2091830E3091840E4091B3
:10389000850E5091860E2F962CAF3DAF4EAF5FAF89
:1038A0002F978091460E9091470EA091480EB091AF
:1038B000490E63968CAF9DAFAEAFBFAF63972091BB
:1038C0004A0E30914B0E40914C0E50914D0E679622
:1038D0002CAF3DAF4EAF5FAF679720E030E0A9015E
:1038E000C701B6010F94823D882309F4B0C5A30136
:1038F000920163966CAD7DAD8EAD9FAD63970F94D5
:10390000823D811111C02F962CAD3DAD4EAD5FAD06
:103910002F9767966CAD7DAD8EAD9FAD67970F9479
:10392000823D882309F493C520E030E0A901C70156
:10393000B6010F94823D881F8827881F18130BC07B
:1039400080E090E0A0E8BFE3A7968CAF9DAFAEAF5C
:10395000BFAFA7970AC020E030E040E85FEBA79632
:103960002CAF3DAF4EAF5FAFA797A3019201639617
:103970006CAD7DAD8EAD9FAD63970F9450446F9647
:103980006CAF7DAF8EAF9FAF6F972F962CAD3DADD7
:103990004EAD5FAD2F9767966CAD7DAD8EAD9FAD93
:1039A00067970F945044A3966CAF7DAF8EAF9FAFD7
:1039B000A3976F962CAD3DAD4EAD5FAD6F97CA012D
:1039C000B9010F94E73D4B015C01A3962CAD3DADD1
:1039D0004EAD5FADA397CA01B9010F94E73D9B01BE
:1039E000AC01C501B4010F9451440F94BE466B96CF
:1039F0006CAF7DAF8EAF9FAF6B9720E030E040E0C3
:103A00005FE30F94E73D4B015C01A7019601C701FD
:103A1000B6010F94E73D6B017C01A5019401C5013E
:103A2000B4010F94E73D9B01AC01C701B6010F94AF
:103A300050440F94BE469B01AC01A7966CAD7DAD82
:103A40008EAD9FADA7970F94E73D4B015C01639648
:103A50002CAD3DAD4EAD5FAD6397C301B2010F9488
:103A6000514420E030E040E05FE30F94E73D6B011C
:103A70007C01A3966CAD7DAD8EAD9FADA3979058A4
:103A80006B962CAD3DAD4EAD5FAD6B970F942D4554
:103A90009B01AC01C501B4010F94E73D9B01AC0152
:103AA000C701B6010F945144A30192010F945044F1
:103AB0006B017C0167962CAD3DAD4EAD5FAD679758
:103AC0002F966CAD7DAD8EAD9FAD2F970F94514469
:103AD00020E030E040E05FE30F94E73D2B013C0144
:103AE0006B962CAD3DAD4EAD5FAD6B976F966CADEB
:103AF0007DAD8EAD9FAD6F970F942D459B01AC01B1
:103B0000C501B4010F94E73D9B01AC01C301B201B3
:103B10000F9451442F962CAD3DAD4EAD5FAD2F9718
:103B20000F94504414C089E40E940042882329F075
:103B30000E9482416B017C0103C0C12CD12C760113
:103B40008AE40E9400428823F9F00E94824167962D
:103B50006CAF7DAF8EAF9FAF679720E030E0A901DB
:103B6000C701B6010F94823D81111EC020E030E0F4
:103B7000A90167966CAD7DAD8EAD9FAD67970F9433
:103B8000823D811111C063C420E030E0A901C7016A
:103B9000B6010F94823D882309F459C467961CAE80
:103BA0001DAE1EAE1FAE6797D701C601B0582F9647
:103BB0008CAF9DAFAEAFBFAF2F9767962CAD3DAD2D
:103BC0004EAD5FAD6797505863962CAF3DAF4EAF8B
:103BD0005FAF63979C01AD01BC01CD010F94E73D40
:103BE0004B015C0163962CAD3DAD4EAD5FAD63976F
:103BF000CA01B9010F94E73D9B01AC01C501B401B5
:103C00000F9451440F94BE46EB966CAF7DAF8EAFD0
:103C10009FAFEB9780917F0E9091800EA091810EC7
:103C2000B091820E6B968CAF9DAFAEAFBFAF6B976E
:103C3000A7019601BC01CD010F945144A7966CAF2A
:103C40007DAF8EAF9FAFA7972091830E3091840EEA
:103C50004091850E5091860E6F962CAF3DAF4EAFC2
:103C60005FAF6F9767962CAD3DAD4EAD5FAD67977B
:103C70006F966CAD7DAD8EAD9FAD6F970F94514437
:103C8000C158DF4F688379838A839B83CF57D040A5
:103C90008091460E9091470EA091480EB091490E2A
:103CA000A3968CAF9DAFAEAFBFAFA397A7962CAD39
:103CB0003DAD4EAD5FADA797BC01CD010F94504413
:103CC0006B017C0120914A0E30914B0E40914C0EBD
:103CD00050914D0EAB962CAF3DAF4EAF5FAFAB9753
:103CE000C158DF4F288139814A815B81CF57D0404D
:103CF000AB966CAD7DAD8EAD9FADAB970F94504440
:103D00004B015C018091870E9091880EA091890EE5
:103D1000B0918A0EAF968CAF9DAFAEAFBFAFAF97ED
:103D20009C01AD0160914E0E70914F0E8091500E2E
:103D30009091510E0F9450442B013C012091520E52
:103D40003091530E4091540E5091550EEF962CAF7A
:103D50003DAF4EAF5FAFEF9780918B0E90918C0E81
:103D6000A0918D0EB0918E0EE7968CAF9DAFAEAF49
:103D7000BFAFE797A70196012F966CAD7DAD8EADD5
:103D80009FAD2F970F94E73DE3966CAF7DAF8EAF5D
:103D90009FAFE397A501940163966CAD7DAD8EADA9
:103DA0009FAD63970F94E73D9B01AC01E3966CAD2B
:103DB0007DAD8EAD9FADE3970F945144E3966CAF0C
:103DC0007DAF8EAF9FAFE397A50194012F966CADA9
:103DD0007DAD8EAD9FAD2F970F94E73D4B015C01FC
:103DE000A701960163966CAD7DAD8EAD9FAD6397D7
:103DF0000F94E73D9B01AC01C501B4010F94504401
:103E0000E3962CAD3DAD4EAD5FADE3970F94C4444A
:103E10006B017C0120E030E0A9010F94823D87FF17
:103E20000AC02BED3FE049EC50E4C701B6010F9406
:103E300051446B017C01112351F02BED3FE049EC23
:103E400050E4C701B6010F9450446B017C0120E09F
:103E500030E0A901C701B6010F94823D811128C04D
:103E6000A3962CAD3DAD4EAD5FADA3976B966CADFB
:103E70007DAD8EAD9FAD6B970F94823D811118C0C3
:103E8000AB962CAD3DAD4EAD5FADAB976F966CADC7
:103E90007DAD8EAD9FAD6F970F94823D811108C0AF
:103EA000EBEDCE2EEFE0DE2EE9ECEE2EE0E4FE2E82
:103EB000A7019601EB966CAD7DAD8EAD9FADEB97F6
:103EC0000F94E73D4B015C0120E030E0A901C30104
:103ED000B2010F94823D8823C9F0A5019401C50168
:103EE000B4010F94E73D4B015C01A3019201C301B2
:103EF000B2010F94E73D9B01AC01C501B4010F94E1
:103F000051440F94BE464B015C010DC020E030E0EF
:103F1000A901C501B4010F94784687FF04C0B7FA20
:103F2000B094B7F8B0942FE632E143E85AE3C50104
:103F3000B4010F94823D87FF02C00C94683AC5011A
:103F4000B4010F94C6450F949A451B01672B19F4D1
:103F500022242394312CB10180E090E00F94863D1F
:103F60004B015C019B01AC01C701B6010F942D45CB
:103F70006B966CAF7DAF8EAF9FAF6B97A501940131
:103F8000C301B2010F942D45EB966CAF7DAF8EAFA0
:103F90009FAFEB97E7962CAD3DAD4EAD5FADE7978C
:103FA000EF966CAD7DAD8EAD9FADEF970F94504405
:103FB000A50194010F942D45EF966CAF7DAF8EAFA8
:103FC0009FAFEF976B962CAD3DAD4EAD5FAD6B9750
:103FD000CA01B9010F94E73D20E030E040E05FE323
:103FE0000F94E73D9B01AC0160E070E080E89FE347
:103FF0000F945044AB966CAF7DAF8EAF9FAFAB9735
:10400000AF962CAD3DAD4EAD5FADAF9729873A87EA
:104010004B875C87E7968CAD9DADAEADBFADE797A6
:104020008D879E87AF87B88B8E01095B1F4F60918C
:104030003C0270913D02072E000C880B990B0F94E7
:10404000883D20915C0230915D0240915E0250916A
:104050005F020F94E73D2AE037ED43E25CE30F9403
:10406000E73DD8016D937D938D939C9313970E94A8
:104070005F5F9B01AC0128533F4F4F4F5F4FAF969F
:104080002CAF3DAF4EAF5FAFAF972C964FAC2C9798
:104090002D965FAC2D972E966FAC2E972F967FACFA
:1040A0002F9741E050E0A1965FAF4EAFA19759E145
:1040B0006C965FAF6C97E4960FAFE497E0961FAFF6
:1040C000E097A1962EAD3FADA1972215330509F4D7
:1040D00060C10F94EF270E945F5FDC01CB01AF96B8
:1040E0002CAD3DAD4EAD5FADAF97821B930BA40BD6
:1040F000B50BB7FD11C00E945F5F9B01AC01285357
:104100003F4F4F4F5F4FAF962CAF3DAF4EAF5FAFBE
:10411000AF9780E00E9430F16C963FAD6C973150C4
:104120006C963FAF6C97332309F44BC0AB962CAD24
:104130003DAD4EAD5FADAB9763966CAD7DAD8EADD5
:104140009FAD63970F94E73D6B017C016B962CAD9F
:104150003DAD4EAD5FAD6B97B201C3010F94E73D2E
:10416000A70196010F9451447B018C01AB962CADB5
:104170003DAD4EAD5FADAB97B201C3010F94E73DCE
:104180004B015C016B962CAD3DAD4EAD5FAD6B97B9
:1041900063966CAD7DAD8EAD9FAD63970F94E73D9B
:1041A0009B01AC01C501B4010F9450442B013C01AB
:1041B000C701D80163968CAF9DAFAEAFBFAF639719
:1041C00061C0A1964EAD5FADA197BA0180E090E0CD
:1041D0000F94863D6B962CAD3DAD4EAD5FAD6B97AC
:1041E0000F94E73D4B015C010F942A456B017C0164
:1041F000C501B4010F94B4464B015C01A7019601BF
:104200002F966CAD7DAD8EAD9FAD2F970F94E73D92
:104210002B013C01A501940167966CAD7DAD8EAD7F
:104220009FAD67970F94E73D9B01AC01C301B201BD
:104230000F9451442B013C01A50194012F966CADC4
:104240007DAD8EAD9FAD2F970F94E73D4B015C0187
:10425000A701960167966CAD7DAD8EAD9FAD67975A
:104260000F94E73D9B01AC01C501B4010F9450448C
:1042700063966CAF7DAF8EAF9FAF639759E16C963D
:104280005FAF6C979201A301A7966CAD7DAD8EAD2B
:104290009FADA7970F94514469837A838B839C8346
:1042A00063962CAD3DAD4EAD5FAD6397C158DF4F0A
:1042B000688179818A819B81CF57D0400F94514486
:1042C0006D837E838F839887EB962CAD3DAD4EAD8D
:1042D0005FADEB9769857A858B859C850F945144FA
:1042E00069877A878B879C87EF962CAD3DAD4EAD65
:1042F0005FADEF976D857E858F8598890F945144CA
:104300006D877E878F87988BCE0101960F94D92970
:10431000E0906D0E23961CAE1DAE1EAE1FAE239711
:1043200089819A81AB81BC8188A399A3AAA3BBA3ED
:104330008D819E81AF81B8858CA39DA3AEA3BFA3C1
:1043400089859A85AB85BC8588A799A7AAA7BBA7AD
:10435000AE01485D5F4FBE016C5D7F4FCE01809620
:104360000E94AECBCE01CF966C01E4960FADE497E0
:10437000E0961FADE0979E01235F3F4FAE01485D81
:104380005F4FBE016C5D7F4F4F970E9405D2811138
:1043900054C0E0906D0E27961CAE1DAE1EAE1FAE33
:1043A00027978091460E9091470EA091480EB091AC
:1043B000490E88A399A3AAA3BBA380914A0E90910A
:1043C0004B0EA0914C0EB0914D0E8CA39DA3AEA3AD
:1043D000BFA380914E0E90914F0EA091500EB091C0
:1043E000510E88A799A7AAA7BBA7AE01485D5F4F4A
:1043F000BE016C5D7F4FCE0180960E94AECBDE0188
:10440000AD5BBF4F6D018E01095B1F4F22E53EE0A2
:10441000AE01485D5F4FBE016C5D7F4FCE0180965F
:104420000E9405D280E1E6E4FEE0AFE7BEE0019045
:104430000D928A95E1F70C94683AA196EEADFFAD26
:10444000A1973196A196FFAFEEAFA1973ACEEBE4DC
:10445000F7E184918F010F5F1F4F882321F00E94A5
:10446000E642F801F6CFE1E3F3E084918F010F5FBC
:104470001F4F882311F40C94683A0E94E642F80119
:10448000F4CF0E948DFB0C94683A0E94BA6D8111A2
:104490000C94683A80E50E940042882321F00E9433
:1044A0005241162F01C010E083E50E94004288238C
:1044B00021F00E9452411B0103C06CE0262E312CDA
:1044C0002C962FAE2C9784E50E940042882321F081
:1044D0000E945241762E02C053E0752E82E50E9462
:1044E0000042882329F00E9482414B015C0106C0F2
:1044F000812C912C40EDA42E40E4B42E113021F0FB
:10450000123009F420C1EFC180E090E0A8ECB2E4E1
:1045100088A399A3AAA3BBA380E090E0A0E7B2E49C
:104520008CA39DA3AEA3BFA380E090E0A0E8BFE36F
:1045300088A799A7AAA7BBA740E050E060EF71E465
:1045400049835A836B837C834D835E836F83788733
:1045500089879A87AB87BC8780917F0E9091800E68
:10456000A091810EB091820E6B968CAF9DAFAEAFD5
:10457000BFAF6B978090830E9090840EA090850EB5
:10458000B090860E2091870E3091880E4091890E52
:1045900050918A0E6F962CAF3DAF4EAF5FAF6F97C5
:1045A0002E013FE3430E511CD2011D921D921D921C
:1045B0001C9213976201E12CF12C00E81FE320E02C
:1045C00030E040EF51E4CA01B9010F946800770C64
:1045D00060967FAE6097E72DF0E06596FFAFEEAF97
:1045E0006597BF01FF0F880B990B0F94883D9B01C6
:1045F000AC0160E070E08CE892E40F942D456B0113
:104600007C0100E012012C96BFAD2C970B1708F02F
:104610007FC010E0812F012E000C990B6596EEAD46
:10462000FFAD65978E179F07B4F510FD05C09E017D
:104630002F5F3F4F390104C0AE01405E5F4F3A012A
:1046400027961CAE1DAE1EAE1FAE2797612F012E02
:10465000000C770B880B990B0F94883DA7019601EE
:104660000F94E73D9B01AC0169817A818B819C812C
:104670000F945144D1016D937D938D939C93139727
:10468000B3016C5F7F4FAE014D5B5F4FC2010F9472
:1046900045011F5FBFCF60961FAD609717FD36C005
:1046A00010FD05C09E012F5F3F4F390104C0AE01D0
:1046B000405E5F4F3A0127961CAE1DAE1EAE1FAE88
:1046C0002797612F012E000C770B880B990B0F9405
:1046D000883DA70196010F94E73D9B01AC016981DC
:1046E0007A818B819C810F945144D1016D937D938C
:1046F0008D939C931397B3016C5F7F4FAE014D5B1D
:104700005F4FC2010F9445011150C8CF0F5F7BCF9F
:1047100023961CAE1DAE1EAE1FAE2397FE01FF9664
:104720006F016F96ECACFDAC0EAD1FAD6F97A501A0
:1047300094016B966CAD7DAD8EAD9FAD6B970F9474
:1047400068000C94683A80E090E0A0EFB1E48983BF
:104750009A83AB83BC838D839E83AF83B88780E0CD
:1047600090E0A0E8BFE389879A87AB87BC872C9647
:10477000FFAD2C97FF2311F40C94683A20917F0E23
:104780003091800E4091810E5091820E63962CAF35
:104790003DAF4EAF5FAF63978091830E9091840ED3
:1047A000A091850EB091860E67968CAF9DAFAEAF8F
:1047B000BFAF67974090870E5090880E6090890E2B
:1047C00070908A0E18A219A21AA21BA2DE0190965E
:1047D0006D01E12CF12C00E81FE320E030E040EF18
:1047E00051E4CA01B9010F94680010E0212C312C6A
:1047F00018A219A21AA21BA2B101032C000C880B4B
:10480000990B0F94883D2CE739ED40E25FE30F945C
:10481000E73D6B017C010F942A45A50194010F949B
:10482000E73D20E030E040EF51E40F9451442396FF
:104830006CAF7DAF8EAF9FAF2397C701B6010F94CA
:10484000B446A50194010F94E73D20E030E040EF2D
:1048500051E40F94514427966CAF7DAF8EAF9FAF5C
:104860002797AE01405E5F4FBE01615C7F4FCE0176
:104870008D5B9F4F0F944501BFEF2B1A3B0AEAE077
:104880002E16310409F0B4CF1F5F2C96FFAD2C9784
:104890001F1708F4ABCF18A219A21AA21BA2AE01CF
:1048A000405E5F4FBE016B5F7F4FCE0101960F945C
:1048B000450118A219A21AA21BA29E01205E3F4F19
:1048C00069018301720167962CAD3DAD4EAD5FADC0
:1048D000679763966CAD7DAD8EAD9FAD63970F947A
:1048E00068000C94683A80E090E0A8ECB2E4898318
:1048F0009A83AB83BC8380E090E0A0E7B2E48D8331
:104900009E83AF83B88780E090E0A0E8BFE389870B
:104910009A87AB87BC8740E050E060EF71E448A322
:1049200059A36AA37BA34CA35DA36EA37FA388A70F
:1049300099A7AAA7BBA780917F0E9091800EA09106
:10494000810EB091820E2F968CAF9DAFAEAFBFAFF0
:104950002F978090830E9090840EA090850EB0903B
:10496000860E4090870E5090880E6090890E709051
:104970008A0E23961CAE1DAE1EAE1FAE2397DE011F
:10498000DF966D01E12CF12C00E81FE39A01AB01E9
:10499000CA01B9010F94680033243594279410E0BC
:1049A000812F90E023961CAE1DAE1EAE1FAE239746
:1049B00082159305E4F4AE01415C5F4FBE016B5F6D
:1049C0007F4FCE0101960F94450123961CAE1DAE7C
:1049D0001EAE1FAE2397AE01415C5F4FBE016C5D02
:1049E0007F4FCE0180960F9445011F5FD9CFFE0106
:1049F000FF966F0183017201A50194012F966CADA2
:104A00007DAD8EAD9FAD2F970F9468000C94683AE2
:104A10000E94BA6D81110C94683A80E090E0A0E2A7
:104A2000B1E489839A83AB83BC8380E090E0ABE9F7
:104A3000B3E48D839E83AF83B88780E090E0A0EAE3
:104A4000B1E489879A87AB87BC8780E50E940042E2
:104A5000882319F00E94524101C060E068A3BE01A2
:104A60006F5F7F4FCE0180960E94B4CE0C94683A5F
:104A700080916E0E8770873071F48FE40E9400423F
:104A8000882319F00E94734103C08FE40E94B9414A
:104A900081110C94683A0E9414CB80E00E945DFE64
:104AA00080EA90E00E94A9FF80E00E94B4FF0F948A
:104AB000490011E0109353040E94C4CF88E50E947E
:104AC000B941282E89E50E94B941382E8AE50E9415
:104AD000B94164968FAF6497211004C0311004C0AF
:104AE000182707C0311002C010E003C064961FAD44
:104AF00064970E94D24282E50E940042882361F0BE
:104B00000E9482416B017C0120E030E0A9010F94FA
:104B1000823D882379F106C0C12CD12CB0ECEB2E5C
:104B2000B0E4FB2E111105C0211003C0332009F49D
:104B30003CC1C0924E0ED0924F0EE092500EF092B9
:104B4000510E2091870E3091880E4091890E509120
:104B50008A0EC701B6010F94784618165CF41982C4
:104B60001A821B821C82BE016F5F7F4F8EE49EE023
:104B70000F94660111110DC0211003C0311010C136
:104B800014C1311006C080E00F94071D1123B1F34A
:104B900007C11092830E1092840E1092850E10920F
:104BA000860E10927F0E1092800E1092810E10923F
:104BB000820E0E94FB40EEEDF2E32491A0962FAF0F
:104BC000A097E2EDF2E34590559065907490E6ED84
:104BD000F2E385909590A590B490A5019401C3014E
:104BE000B2010F94784618162CF4A3019201C50166
:104BF000B40104C0A5019401C301B2010F942D4575
:104C00006B017C01E5E9F2E385919591A591B49161
:104C10002F968CAF9DAFAEAFBFAF2F97E1E9F2E318
:104C2000259135914591549163962CAF3DAF4EAF90
:104C30005FAF63979C01AD0163966CAD7DAD8EADAA
:104C40009FAD63970F94823D87FD16C02C960FADE4
:104C50002C972D963FAD2D9768963FAF68972E966F
:104C60004FAD2E976C964FAF6C972F965FAD2F97E9
:104C70002C965FAF2C9715C060960FAD609761962C
:104C80008FAD619768968FAF689762969FAD629778
:104C90006C969FAF6C976396AFAD63972C96AFAF52
:104CA0002C97A7019601C701B6010F94E73D20E0BC
:104CB00030E040E85FE30F9451440F94BE469B01FF
:104CC000AC01602F68967FAD68976C968FAD6C973E
:104CD0002C969FAD2C970F94E73D23966CAF7DAF3C
:104CE0008EAF9FAF2397EFEDF2E3049120E030E029
:104CF00040EC5FE3C501B4010F94E73D6B017C011B
:104D0000602F000F770B880B990B0F94883D9B0148
:104D1000AC01C701B6010F94E73D69837A838B83A9
:104D20009C8320E030E040EC5FE3C301B2010F94CC
:104D3000E73D6B017C01A096BFADA0976B2FBB0F29
:104D4000770B880B990B0F94883D9B01AC01C70131
:104D5000B6010F94E73D68A379A38AA39BA3AE0194
:104D6000415C5F4FBE016F5F7F4FCE0180960F9415
:104D700045010E942CD01092830E1092840E109246
:104D8000850E1092860E10927F0E1092800E109259
:104D9000810E1092820E1111F6CE2110F4CEEECEBD
:104DA00081E00F94071D111106C06496EFAD649762
:104DB000EE2309F45EC080916E0E83708330E9F0BB
:104DC00060E08BE593E00E945466E9ECF0E28491A8
:104DD0008F010F5F1F4F882321F00E94E642F801E8
:104DE000F6CFE7E4F3E084918F010F5F1F4F882334
:104DF000F1F10E94E642F801F6CF0E94FB4080E00C
:104E000090E0A0E2B3E480934A0E90934B0EA093FF
:104E10004C0EB0934D0E8091870E9091880EA0910C
:104E2000890EB0918A0E80934E0E90934F0EA093F0
:104E3000500EB093510E80E090E0AAE7B3E4809367
:104E4000460E9093470EA093480EB093490E1982D8
:104E50001A821B821C82AE014F5F5F4F6AE47EE0C4
:104E600086E49EE00F94450182E00F94071D0E94A6
:104E70006E7F0E94FB4080915204809353040E94F5
:104E8000C4CF0F94300083E0809326020E942C54FC
:104E90000C94683A0E94B67F0C94683AC0907F0EDA
:104EA000D090800EE090810EF090820E88E50E94F6
:104EB0000042811109C020E030E04CE052E4C7011B
:104EC000B6010F94504402C00E94824168A379A3A6
:104ED0008AA39BA3C090830ED090840EE090850E91
:104EE000F090860E89E50E940042811108C020E002
:104EF00030E0A901C701B6010F94514402C00E94DD
:104F000082419B01AC0169837A838B839C8368A176
:104F100079A18AA19BA10F94751E882311F40C948A
:104F2000683A80E00E945DFE0F94490085E40E948B
:104F30000042882321F00E947341182F04C085E4A9
:104F40000E94B94111E086E50E940042882321F0C9
:104F50000E945241262F01C021E0412FBE016F5F08
:104F60007F4FCE0180960F9412036B017C019B0151
:104F7000AC010F94004781115FC088A099A0AAA03E
:104F8000BBA020E030E0A901C501B4010F94823D2F
:104F900087FD05C027E137EB41E558E304C027E171
:104FA00037EB41E558EBC501B4010F945144AB0117
:104FB000BC0188E793E00F94730C89809A80AB80E2
:104FC000BC8020E030E0A901C501B4010F94823D0E
:104FD00087FD05C027E137EB41E558E304C027E131
:104FE00037EB41E558EBC501B4010F945144AB01D7
:104FF000BC0183E793E00F94730C20E030E0A9013B
:10500000C701B6010F94823D87FD05C027E137EB4C
:1050100041E558E304C027E137EB41E558EBC70110
:10502000B6010F945144AB01BC018EE693E00F949E
:10503000730C8AE00E94E6420F943000113011F4A4
:105040000E946E7F0E942C540C94683A0E94967EB7
:105050000C94683A209394030C94683AF1E52F2E4F
:10506000F3E03F2EADE7CA2EA5E1DA2EE12CF12CBC
:1050700000E010E0D1018D911D010E9400428823C3
:1050800009F44EC00E9482412B013C01133059F0BB
:10509000F701E159F14F20813181428153810F9411
:1050A00050442B013C01F701E158F14F208131813F
:1050B00042815381C301B2010F9450444B015C0102
:1050C0002DEB37E346E855EB0F94784687FD0AC091
:1050D0002DEB37E346E855E3C501B4010F94823D5B
:1050E0001816F4F4133051F440928B0E50928C0E3B
:1050F00060928D0E70928E0E01E012C0A501940197
:10510000F60160817181828193810F945144D601AF
:105110006D937D938D939C931397812F0F947E02B3
:105120001F5FB4E0CB0ED11CE4E0EE0EF11C143096
:1051300009F0A0CF002321F08BE89EE00E94DF6EF3
:105140000E942C540C94683A0F94BA060C94683A56
:1051500080911316909114168737910509F4BFC4F6
:105160000CF003C18C34910509F474C30CF089C0B0
:105170008A31910509F45EC20CF040C0843191057A
:1051800009F416C294F48131910509F40DC244F476
:10519000029710F00C941F3A0E94EB7D0C94683A31
:1051A000429709F4BEC30C941F3A8731910509F464
:1051B00039C274F48531910509F430C2469711F073
:1051C0000C941F3A10929D0A10929E0A0C94683A11
:1051D0008831910509F42AC2499711F00C941F3ABD
:1051E00010929D0A0F94692980EA93E090933C0EF7
:1051F00080933B0E0E949C400C94683A8F3191053D
:1052000009F4F6C29CF48C31910509F41BC20CF42C
:1052100015C28D31910511F40C94683A4E9711F036
:105220000C941F3A0E94357A0C94683A8A329105A0
:1052300009F408C3CCF48032910509F40DC28197BA
:1052400011F00C941F3AE0901116F090121682E0C3
:105250008093410DF70101900020E9F731975F013C
:10526000AE18BF08F70101C28033910509F4EEC200
:105270008B34910511F00C941F3A0F94410D0C944E
:10528000683A8936910509F4F9C2A4F58235910589
:1052900009F43EC39CF48E34910509F4E3C20CF486
:1052A000DDC28035910509F42FC38135910511F0D8
:1052B0000C941F3A0E9436570C94683A8535910534
:1052C00009F433C354F48335910509F425C38435B7
:1052D000910509F426C30C941F3A8C35910509F405
:1052E00028C38836910511F00C941F3A0E94E3C13F
:1052F0000C94683A8F36910509F4B8C29CF48B3649
:10530000910509F4EBC20CF4E5C28D36910509F460
:10531000BBC28E36910511F00C941F3A0E941E58A4
:105320000C94683A8337910509F479C36CF481379A
:10533000910509F49FC28237910511F00C941F3A30
:105340000E9419550C94683A8537910509F46BC38E
:105350008637910511F00C941F3A009111161091A7
:10536000121683E0D12C40E075C38D32F1E09F0727
:1053700011F40C94E6330CF077C08B3C910509F4E2
:1053800086C5D4F58139910509F43EC484F4893782
:10539000910509F431C40CF426C48D37910509F444
:1053A000AFC28C38910509F473C20C941F3A8E3B3E
:1053B000910509F48BC26CF48639910509F49EC4F9
:1053C0008B39910511F00C941F3A0E9498C10C94EE
:1053D000683A883C910509F4F9C4893C910511F0BB
:1053E0000C941F3A95E6E92E95E1F92E01E513E0BC
:1053F00024E0D22ED00E32C58C3D910511F40C94D0
:10540000643294F48D3C910509F4D7C50CF45DC564
:105410008E3C910509F469C6833D910511F00C9409
:105420001F3AE9ECF0E271C7883131E0930711F4DB
:105430000C94083364F48D3D910511F40C94713291
:10544000823E910511F40C94DF320C941F3A8232A3
:1054500051E0950711F40C94B2338C32914011F461
:105460000C94BD330C941F3A853FB1E09B0711F4B7
:105470000C940D3A0CF048C08139F1E09F0711F40B
:105480000C94FC39ECF4803331E0930711F40C9464
:1054900040393CF48F32914011F40C9487340C94D1
:1054A0001F3A8336A1E09A0711F40C94BD39803974
:1054B000914011F00C941F3A0E9414CB0C94683A5E
:1054C000853AE1E09E0711F40C940A3A7CF48239A3
:1054D00021E0920711F40C94023A843A914011F0C1
:1054E0000C941F3A0E949DEE0C94683A8C3A41E06D
:1054F000940709F41BC6843F914011F00C941F3AA5
:105500000E94A19C0C94683A8E3BA2E09A0711F489
:105510000C94193A2CF58835E2E09E0711F40C94AE
:10552000133A7CF4863F21E0920711F40C94103A70
:10553000883F914011F00C941F3A0E94E2ED0C94C8
:10554000683A8B3542E0940711F40C94163A8D3B7F
:10555000924011F00C941F3A0E94BCE90C94683AF6
:105560008B38A3E09A0711F40C94683A7CF48335E5
:10557000E3E09E0711F40C941C3A8438934011F038
:105580000C941F3A0E946BE80C94683A803A23E02E
:10559000920709F420C1873E934011F00C941F3A02
:1055A0000E9456E80C94683A0E94DD7D0C94683A9B
:1055B000EFE8F3E084918F010F5F1F4F882321F004
:1055C0000E94E642F801F6CF1092410D40E050E013
:1055D000BA0184EF9AE00E94EA7260EF7AE0CE01AD
:1055E00001960E94867040E050E0BE016F5F7F4FE1
:1055F00080E090E00E9498B9CE0101960F94EE1ED3
:10560000E0E8F3E084918F010F5F1F4F882311F4CE
:105610000C94683A0E94E642F801F4CF0E94116CA3
:105620000C94683A0E94CD7B0C94683A0E94927B5D
:105630000C94683A0E94787B0C94683A0E94E37A52
:105640000C94683A40E060E0809111169091121637
:105650000E9410690C94683A0E94F5790C94683A9B
:1056600080818F3209F410823196CF018E199F0903
:105670008A159B05ACF360EF7AE0CE0180960E941C
:10568000867000E010E0EBE17E2E0A151B050CF0A1
:1056900099C0F701E00FF11F8081811102C00F5FF7
:1056A0001F4F6701C00ED11ED6018C91882309F4CB
:1056B00089C00F5F1F4FF701E00FF11F808181113B
:1056C000F8CF40E050E0BA01CE0184960E94EA7221
:1056D000BE01605E7F4FCE0101960E948670A601DA
:1056E000BE016F5F7F4F80E090E00E9498B9CE01CD
:1056F00001960F94EE1E8FE20E94E6428091AD0A61
:10570000882319F08DEA9AE002C085E593E04C0108
:10571000F40181914F01882319F00E94E642F8CFED
:1057200080919F0A882309F44DC0CE0101960E9402
:10573000B07021E0A601BE016C5D7F4FCE010596E1
:105740000E94EB78811128C08AE00E94E642E9ECD1
:10575000F0E284918F010F5F1F4F882321F00E9498
:10576000E642F801F6CFE5EAF3E084918F010F5F9E
:105770001F4F882321F00E94E642F801F6CFD601A0
:105780008D916D01882319F00E94E642F8CFCE0179
:1057900001960F94EE1E16C0CE0184960F94D01978
:1057A000FE013596DE019496872D01900D928A9523
:1057B000E1F78B819C819BA38AA3CE0101960F9474
:1057C000EE1E63CF8AE00E94E642CE0180960F94DF
:1057D000EE1E0C94683A809111169091121621E0F9
:1057E00020939C0A40E060E00E9410690C94683AA3
:1057F0000F94352968A379A38AA39BA3BE016F5F89
:105800007F4FCE0180960E940C4260E0CE0101964F
:105810000E949066E9ECF0E284918F010F5F1F4FC8
:10582000882321F00E94E642F801F6CFBE016F5FA7
:105830007F4F89EB93E00F94A90C8AE00E94E64227
:105840000C94683A0E947FC80C94683A0E9427C35F
:105850000C94683A0F9469290C94683A0F94D10C0F
:105860000C94683A0E940EC20C94683A0E94A757A2
:105870000C94683A0E947D570C94683A0E94C6C105
:1058800010926C0E0C94883C0E944E5A0C94683A0C
:105890008091770D83FF02C00C94683A83E50E94E3
:1058A0000042882311F40C94683A0E9482410F94BC
:1058B00095456C38710514F06CE870E070932E0E0D
:1058C00060932D0E0F940D260C94683A0E942E586A
:1058D0000C94683A0E947F5C0C94683A80E50E94C0
:1058E0000042811106C01092320E1092310E0C94BB
:1058F000683A0E945241672B11F00C94683AF3CF3A
:105900000E9439530C94683A0E9453570C94683A99
:10591000109293030C94683A81E0809393030C9463
:10592000683A0E94D8560C94683A0E94C0560C946B
:10593000683A61E5C62E63E0D62E7DE6E72E76E076
:10594000F72E10E0F60181916F010E94B941882382
:1059500009F45AC0133009F04FC00E9482414B0134
:105960005C0120E030E040EA51E40F94823D87FF83
:105970003AC0A50194016091790670917A068091F0
:105980007B0690917C060F942D452B013C019B01D9
:10599000AC016091611570916215809163159091D1
:1059A00064150F94E73D60936115709362158093C1
:1059B0006315909364156091A00E7091A10E809173
:1059C000A20E9091A30E0F94863DA30192010F9415
:1059D000E73D0F949A456093A00E7093A10E8093BB
:1059E000A20E9093A30E8092790690927A06A092CE
:1059F0007B06B0927C0608C00E948241D7016D935D
:105A00007D938D939C9313971F5FB4E0EB0EF11C75
:105A1000143009F097CF0F947E0F0C94683A0E94CF
:105A2000DD530C94683A8091111690911216FC0186
:105A30002081222329F060E00E9490660C94683A4D
:105A40000E946CA70C94683AD8019C91292F2B7F57
:105A5000213419F08150C1F717C011962C912133D0
:105A6000C9F7913421F0953421F441E002C0DD24DE
:105A7000D39498012E5F3F4F89012F5F3F4FF8016C
:105A800090819032C9F3E6CF442369F0E9ECF0E26B
:105A900084917F012FEFE21AF20A882321F00E94FD
:105AA000E642F701F5CFDD2069F0E6ECF3E0849102
:105AB0007F013FEFE31AF30A882321F00E94E642B8
:105AC000F701F5CFD8018D918D01882319F00E943F
:105AD000E642F8CF8AE00E94E6420C94683AEDEE86
