:100000000C94B31A0C94D5900C94AA900C947F90F5
:100010000C9454900C9429900C94FE8F0C94D38FD4
:100020000C94A88F0D9424230D94FD220D94D622B8
:100030000C94E41A0C94418D0C94E41A0C94E41A78
:100040000C94E41A0D94E90F0C94E41A0C94E41A3D
:100050000C94E41A0C94E41A0D94AC030C945E8F87
:100060000C94E41A0C9442550C94E41A0C94E41A7F
:100070000C94E41A0C94E41A0C94E41A0C94E41A08
:100080000C94E41A0C94E41A0C94E41A0C94E41AF8
:100090000C94E41A0C94E41A0C94E41A0C94E41AE8
:1000A0000C94E41A0C94E41A0C94E41A0C94E41AD8
:1000B0000C94E41A0C94E41A0C94E41A0C94E41AC8
:1000C0000C94E41A0C94E41A0C94E41A0C94E41AB8
:1000D0000C94E41A0C94E41A0C94E41A0C94E41AA8
:1000E0000C94E41A75557B558C5597559F55B4550E
:1000F000A355B455A755AB55B455B155AC8CAF8C81
:100100009E8CA28CA88CE68CB38CB78CBD8CC18CD9
:10011000C58CCB8CCF8CD38CE68CD98CDD8CE18CD0
:10012000558E5A8E5F8E698E738EEC8E7D8E858E87
:100130008D8E978EA18EAB8EBA8EC48EEC8ECE8EA7
:10014000D88EE28E63A949A94CA94FA952A95EA9EC
:1001500055A96FA958A95BA9084AD73B3BCE016EA8
:1001600084BCBFFDC12F3D6C74319ABD56833DDA0E
:100170003D00C77F11BED9E4BB4C3E916BAAAABE1D
:10018000000000803F05A84CCDB2D44EB93836A946
:10019000020C50B9918688083CA6AAAA2ABE000083
:1001A00000803F000D94D6160D94DE160D949C141D
:1001B0000D94EB070D9445090D944D220D94382CA8
:1001C0000D9491080D94AE180D94052C0D94C10654
:1001D0000D943E080D94E2160D94AA180D94E805AE
:1001E0000D94FF160D943F170D94FA160D94B21846
:1001F0000D94DA160D9458050D94E4080D948A07B1
:100200000D9404174E414E494E495459494E46CD1E
:10021000CCCC3D0AD7233C17B7D13877CC2B3295BD
:1002200095E6241FB14F0A000020410000C842009B
:10023000401C4620BCBE4CCA1B0E5AAEC59D740065
:10024000407A10F35A00A0724E18090010A5D4E8A5
:100250000000E87648170000E40B54020000CA9A38
:100260003B000000E1F5050000809698000000408A
:10027000420F000000A086010000001027000000CF
:1002800000E803000000006400000000000A000015
:100290000000000100000000002C76D888DC674FC9
:1002A0000823DFC1DFAE59E1B1B796E5E3E453C6F9
:1002B0003AE651997696E8E6C28426EB898C9B62F1
:1002C000ED407C6FFCEFBC9C9F40F2BAA56FA5F49B
:1002D00090055A2AF75C936B6CF9676DC11BFCE0C3
:1002E000E40D47FEF520E6B500D0ED902E03009416
:1002F0003577050080841E080000204E0A000000AB
:10030000C80C333333330F986E12831141EF8D21B4
:1003100014893BE65516CFFEE6DB18D1844B381B1B
:10032000F77C1D901DA4BBE424203284725E2281E0
:1003300000C9F124ECA1E53D27434F4D4D554E49F1
:10034000434154494F4E0044525952554E00455274
:10035000524F525300494E464F004543484F0047C5
:10036000322F47332062616420706172616D657461
:100370006572730A004F726967696E65205859206B
:100380005072656D6965720A004F726967696E65C2
:10039000205859205072656D69657200205A3A20C4
:1003A0000020593A200042656420583A20004D65EB
:1003B000736820706F696E742063616E6E6F742055
:1003C0006265207265736F6C7665640A00417474AF
:1003D000656E2E206465206C277574696C2E00454F
:1003E0006E642066696C65206C6973740A004265EE
:1003F00067696E2066696C65206C6973740A004DCC
:1004000031323500286E6F2066696C6529004375AE
:100410007272656E742066696C653A20005072696C
:100420006E742074696D653A20000001363726032A
:10043000FFFFFF353C3D380EFFFFFF312E303E12EF
:10044000FFFFFFFF28FF0C0809FFFFFF1A1C18FF22
:10045000FF2A08440AFF435A0355034E0347033952
:10046000036F66660044454255473A0020643A00EF
:1004700020693A0020703A00496E76616C69642008
:1004800065787472756465720A004B642000236499
:100490006566696E652044454641554C545F004B86
:1004A00069200023646566696E65204445464155B0
:1004B0004C545F004B70200023646566696E6520B4
:1004C00044454641554C545F0050494420417574A1
:1004D0006F74756E652066696E6973686564212046
:1004E00050757420746865206C617374204B702C97
:1004F000204B6920616E64204B6420636F6E7374BF
:10050000616E74732066726F6D2062656C6F772008
:10051000696E746F20436F6E666967757261746986
:100520006F6E2E680A00504944204175746F7475CF
:100530006E65206661696C6564212074696D656F04
:1005400075740A00453120454D42414C4C454D459E
:100550004E5420544845524D2E00424544205448A4
:1005600045524D414C2052554E4157415900546817
:1005700065726D616C2052756E61776179004531ED
:1005800020457272657572206465206368617566C6
:100590006665004265642068656174696E672066FF
:1005A00061696C65640048656174696E67206661A5
:1005B000696C656400504944204175746F74756EB0
:1005C00065206661696C6564212054656D70657293
:1005D000617475726520746F6F20686967680A00BE
:1005E000204B643A2000204B693A2000204B703A9F
:1005F00020000A20436C61737369632050494420D2
:100600000A002054753A2000204B753A2000206DD6
:1006100061783A2000206D696E3A200020643A200B
:100620000020626961733A2000504944204175748A
:100630006F74756E65206661696C65642120426126
:1006400064206578747275646572206E756D62657C
:10065000720A00504944204175746F74756E6520AC
:1006600073746172740A0020643A0020693A0020B1
:10067000703A0043617365206C696768743A2000C2
:1006800043617365206C696768743A206F66660A17
:100690000041727265740A004661646520486569AC
:1006A0006768742000426564204C6576656C696EED
:1006B0006720004661696C656420746F20656E6117
:1006C000626C6520426564204C6576656C696E6776
:1006D0000A004D65736820706F696E742063616EE7
:1006E0006E6F74206265207265736F6C7665640A44
:1006F000004D34323120696E636F7272656374200D
:10070000706172616D657465722075736167650AE9
:1007100000454550524F4D204F4B0A00496E7365BE
:1007200072742066696C616D656E7420616E642000
:10073000707265737320627574746F6E20286F72A7
:10074000204D313038290A0050726573732062756C
:1007500074746F6E20286F72204D313038292074E8
:100760006F2068656174206E6F7A7A6C650A004943
:100770006E736572742066696C616D656E7420615C
:100780006E6420707265737320627574746F6E206E
:10079000286F72204D313038290A003A20005072FB
:1007A0006F6265205A204F6666736574003F5A2059
:1007B0006F7574206F662072616E676520282D3119
:1007C0003020746F203130290A003F4B2076616C55
:1007D0007565206F7574206F662072616E67652085
:1007E00028302D3130292E0A00416476616E636510
:1007F000204B3D00416374697665204578747275BD
:100800006465723A2000496E76616C69642065788F
:100810007472756465720A0042696C696E65617212
:10082000204C6576656C696E6720477269643A0A88
:10083000005265706F732E2E2E002028445259529C
:10084000554E2900473239204175746F2042656446
:10085000204C6576656C696E67003F20284C2C52F1
:100860002C462C4229206F7574206F6620626F75AC
:100870006E64732E0A003F2856296572626F736595
:10088000206C6576656C20697320696D706C61758C
:100890007369626C652028302D34292E0A0042616C
:1008A00064205A2076616C75650A004E6F2062697B
:1008B0006C696E65617220677269640A004D6F74BD
:1008C0006575727320626C6F717565732E00256992
:1008D000730025696D2025697300256968202569E5
:1008E0006D202569730025696420256968202569C4
:1008F0006D202569730025697920256964202569A3
:10090000682025696D20256973004E6F2043686556
:10091000636B73756D2077697468206C696E6520F0
:100920006E756D6265722C204C617374204C696E1B
:10093000653A200053544F5050452E005072696E56
:100940007465722073746F707065642064756520BF
:10095000746F206572726F72732E204669782074EE
:100960006865206572726F7220616E6420757365B0
:10097000204D39393920746F207265737461727437
:100980002E202854656D70657261747572652069DA
:10099000732072657365742E20536574206974200A
:1009A00061667465722072657374617274696E67D2
:1009B000290A004E6F20436865636B73756D20775D
:1009C000697468206C696E65206E756D6265722C45
:1009D000204C617374204C696E653A200063686531
:1009E000636B73756D206D69736D617463682C2022
:1009F0004C617374204C696E653A20004C696E65D9
:100A0000204E756D626572206973206E6F74204C84
:100A1000617374204C696E65204E756D6265722B32
:100A2000312C204C617374204C696E653A20004D66
:100A3000313130004D333100534420726561642000
:100A40006572726F720A004D3020533138303000B9
:100A50005465726D696E65657300446F6E652070D4
:100A600072696E74696E672066696C650A00204958
:100A70006E76616C69642065787472756465722045
:100A8000000000000000000000000000000000D78F
:100A9000430000A043000096434572726F722077B6
:100AA000726974696E6720746F20454550524F4DCE
:100AB000210A00454550524F4D20646174617369AD
:100AC0007A65206572726F722E0A00290A00206210
:100AD000797465733B206372632000536574746995
:100AE0006E67732053746F726564202800290A00B2
:100AF0002062797465733B206372632000207374F5
:100B00006F7265642073657474696E6773207265B3
:100B100074726965766564202800202863616C63BF
:100B2000756C6174656429210A0020213D2000450F
:100B30004550524F4D20435243206D69736D61748F
:100B40006368202D202873746F726564292000204B
:100B500053697A653A2000496E6465783A2000202E
:100B60004D61726C696E3D563535290A0028454540
:100B700050524F4D3D00454550524F4D20766572C5
:100B800073696F6E206D69736D61746368200020F6
:100B9000746F6F206C6F6E672065787472757369FF
:100BA0006F6E2070726576656E7465640A0062759A
:100BB00073793A2070617573656420666F7220697D
:100BC0006E7075740A00627573793A20706175737E
:100BD000656420666F7220757365720A00627573B2
:100BE000793A2070726F63657373696E670A004D9E
:100BF0004F52542E004B494C4C2063617573656411
:100C0000206279204B494C4C20627574746F6E2FB2
:100C100070696E0A004D4F52542E004B494C4C20C7
:100C200063617573656420627920746F6F206D75E0
:100C3000636820696E6163746976652074696D65A7
:100C4000202D2063757272656E7420636F6D6D6107
:100C50006E643A20004D3630300052615A2E2053D7
:100C6000565000494D50522E2053544F5050454538
:100C7000002F2F616374696F6E3A706F7765726FC2
:100C800066660A005072696E7465722068616C74E1
:100C900065642E206B696C6C28292063616C6C651F
:100CA00064210A00656E7175657565696E6720223D
:100CB00000000000000000000000000000000048EC
:100CC000420000484200008040000000005761726E
:100CD0006E696E673A20486F6D696E672042756D68
:100CE000702044697669736F72203C20310A0002DB
:100CF00002040000A0400000A040000000400000EE
:100D0000D7430000A04300009643FFFFFF2F2F6151
:100D10006374696F6E3A70617573650A0000002133
:100D200010422063308440A550C660E770088129D6
:100D3000914AA16BB18CC1ADD1CEE1EFF13112106E
:100D40000273325222B5529442F772D66239931826
:100D5000837BB35AA3BDD39CC3FFF3DEE36224437A
:100D60003420040114E664C774A44485546AA54B76
:100D7000B528850995EEE5CFF5ACC58DD55336720E
:100D80002611163006D776F6669556B4465BB77AC6
:100D9000A719973887DFF7FEE79DD7BCC7C448E59A
:100DA000588668A7784008611802282338CCC9ED16
:100DB000D98EE9AFF9488969990AA92BB9F55AD4AE
:100DC0004AB77A966A711A500A333A122AFDDBDC66
:100DD000CBBFFB9EEB799B588B3BBB1AABA66C87BA
:100DE0007CE44CC55C222C033C600C411CAEED8FB6
:100DF000FDECCDCDDD2AAD0BBD688D499D977EB64E
:100E00006ED55EF44E133E322E511E700E9FFFBE05
:100E1000EFDDDFFCCF1BBF3AAF599F788F8891A9D8
:100E200081CAB1EBA10CD12DC14EF16FE18010A1AF
:100E300000C230E3200450254046706760B98398B3
:100E400093FBA3DAB33DC31CD37FE35EF3B10290FF
:100E500012F322D2323542145277625672EAB5CB7F
:100E6000A5A89589856EF54FE52CD50DC5E234C34F
:100E700024A01481046674476424540544DBA7FA53
:100E8000B79987B8975FE77EF71DC73CD7D326F29F
:100E9000369106B01657667676154634564CD96D9F
:100EA000C90EF92FE9C899E9898AB9ABA9445865EF
:100EB0004806782768C018E1088238A3287DCB5CF3
:100EC000DB3FEB1EFBF98BD89BBBAB9ABB754A543F
:100ED0005A376A167AF10AD01AB32A923A2EFD0FBF
:100EE000ED6CDD4DCDAABD8BADE89DC98D267C078F
:100EF0006C645C454CA23C832CE01CC10C1FEF3E93
:100F0000FF5DCF7CDF9BAFBABFD98FF89F176E36DE
:100F10007E554E745E932EB23ED10EF01E24F4D454
:100F20003050C38E20C2A24017828B7011127A916A
:100F30000D816CD90AA861E108C758660761514361
:100F4000061E4B5D05C145A7041A411104093D98D1
:100F500003713931034036DB0265339102D43054DA
:100F600002802E1D02632CEE01752AC501B028A057
:100F700001102781018F2564012B244B01E02234CD
:100F800001AC211F018D200D01801FFC00841EED8E
:100F900000971DDF00B81CD200E61BC600201BBC5A
:100FA00000641AB200B219A8000A19A0006A1899C0
:100FB00000D117910040178B00B516840031167EC2
:100FC00000B31579003A157300C7146F0058146AFE
:100FD00000EE1366008813630025135E00C7125BE2
:100FE000006C12570015125400C111510070114FBE
:100FF0000021114B00D61049008D104700461044C7
:101000000002104200C00F4000800F3E00420F3C23
:1010100000060F3B00CB0E3800930E37005C0E35F8
:1010200000270E3400F30D3200C10D3100900D3059
:1010300000600D2E00320D2D00050D2C00D90C2B5B
:1010400000AE0C2900850C29005C0C2700350C270C
:10105000000E0C2600E80B2400C40B2400A00B2378
:10106000007D0B23005A0B2100390B2100180B20A7
:1010700000F80A1F00D90A1E00BB0A1E009D0A1DA7
:1010800000800A1D00630A1C00470A1B002C0A1B73
:1010900000110A1A00F7091A00DD091900C409191C
:1010A00000AB091900920917007B091800630917A2
:1010B000004C09160036091600200916000A091509
:1010C00000F5081500E0081400CC081400B8081456
:1010D00000A4081400900813007D0812006B081388
:1010E00000580812004608120034081100230811A5
:1010F000001208110001081100F0071000E00710AD
:1011000000D0071000C0071000B0070F00A10710A3
:101110000091070E0083070F0074070F0065070E8C
:101120000057070E0049070E003B070D002E070E63
:101130000020070D0013070D0006070D00F9060C2F
:1011400000ED060D00E0060C00D4060C00C8060CED
:1011500000BC060C00B0060C00A4060B0099060C9F
:10116000008D060B0082060B0077060B006C060B49
:101170000061060A0057060B004C060A0042060AE8
:101180000038060A002E060A0024060A001A060A7B
:10119000001006090007060A00FD050900F405090C
:1011A00000EB050900E2050900D9050900D0050991
:1011B00000C7050900BE050900B5050800AD050812
:1011C00000A50509009C050800940508008C050889
:1011D00000840508007C050800740508006C0507FC
:1011E00000650508005D050700560508004E050767
:1011F00000470507004005080038050700310507CE
:10120000002A050700230507001C05060016050730
:10121000000F0507000805060002050700FB04068D
:1012200000F5040700EE040600E8040600E20407E7
:1012300000DB040600D5040600CF040600C904063E
:1012400000C3040600BD040600B7040600B104058F
:1012500000AC040600A6040600A00405009B0406DA
:101260000095040500900406008A04050085040525
:1012700000800406007A040500750405007004056A
:10128000006B04050066040500610405005C0405AC
:101290000057040500520405004D040500480405EC
:1012A00000430405003E0404003A0405003504052B
:1012B00000300404002C0405002704040023040566
:1012C000001E0404001A040400160405001104049E
:1012D000000D0404000904050004040400000404D3
:1012E00000FC030400F8030400F4030400F003040A
:1012F00000EC030400E8030400E4030400E003043A
:1013000000DC030400D8030400D4030400D0030469
:1013100000CC030400C8030300C503030024F40445
:10132000D9201BC40C5C0E9804C4095F02650771C8
:1013300001F405F900FB04B30048048700C1036908
:10134000005803550003034500BE023A00840231F1
:101350000053022A002902250004022000E4011C97
:1013600000C8011900AF011700980114008401138F
:1013700000710110006101100051010E0043010DC8
:101380000036010B002B010B0020010B0015010999
:10139000000C01090003010800FB000800F300082D
:1013A00000EB000700E4000600DE000600D800069F
:1013B00000D2000600CC000500C7000500C20005F1
:1013C00000BD000400B9000400B5000400B1000431
:1013D00000AD000400A9000400A5000300A2000362
:1013E000009F0004009B000300980003009500028A
:1013F0000093000300900003008D0002008B0003A7
:1014000000880002008600020084000300810002C0
:10141000007F0002007D0002007B000200790002D4
:1014200000770001007600020074000200720001E3
:1014300000710002006F0002006D0001006C0002EC
:10144000006A0001006900020067000100660001F7
:1014500000650001006400020062000100610001FB
:1014600000600001005F0002005D0001005C0001FF
:10147000005B0001005A0001005900010058000102
:101480000057000100560001005500010054000102
:101490000053000000530001005200010051000100
:1014A00000500001004F0001004E0000004E0001FE
:1014B000004D0001004C0001004B0000004B0001FA
:1014C000004A0001004900010048000000480001F6
:1014D00000470001004600000046000100450000F2
:1014E00000450001004400010043000000430001EA
:1014F00000420000004200010041000000410001E4
:1015000000400001003F0000003F0001003E0000DD
:10151000003E0001003D0000003D0001003C0000D5
:10152000003C0000003C0001003B0000003B0001CB
:10153000003A0000003A00010039000000390001C3
:1015400000380000003800000038000100370000BB
:1015500000370001003600000036000000360001B0
:1015600000350000003500000035000100340000A7
:10157000003400000034000100330000003300009C
:101580000033000100320000003200000032000190
:101590000031000000310000003100010030000087
:1015A0000030000000300001002F0000002F00007C
:1015B000002F0000002F0001002E0000002E000070
:1015C000002E0001002D0000002D0000002D000065
:1015D000002D0001002C0000002C0000002C000059
:1015E000002C0001002B0000002B0000002B00004D
:1015F000002B0001002A0000002A0000002A000041
:10160000002A000100290000002900000029000034
:101610000029000000290001002800000028000027
:10162000002800000028000000280001002700001A
:10163000002700000027000000270000002700010D
:101640000026000000260000002600000026000002
:1016500000260001002500000025000000250000F4
:1016600000250000002500000025000100240000E6
:1016700000240000002400000024000000240001D9
:1016800000230000002300000023000000230000CE
:1016900000230000002300000023000100220000BE
:1016A00000220000002200000022000000220000B2
:1016B00000220001002100000021000000210000A4
:1016C0000021000000210000002100000021000195
:1016D000002000000020000000200000002000008A
:1016E0000020000000200000002000000020000179
:1016F000001F0000001F0000001F0000001F00006E
:10170000001F0000001F0000001F0001001E00005D
:10171000001E0000001E0000001E000000122B0032
:101720000014220000091800001C0F0000AE080081
:1017300000AF040000710200003E0100004D4F5256
:10174000542E00202D20496E76616C6964206578E6
:10175000747275646572206E756D62657220210AFF
:10176000002020506C616E6E65724275666665720F
:1017700042797465733A20002046726565204D6594
:101780006D6F72793A2000436F6D70696C65643AD1
:101790002041756720313420323031380A00207CF6
:1017A00020417574686F723A20286E6F6E652C2028
:1017B0005343414C415220584C50205636290A0080
:1017C000323031382D30372D333100204C61737475
:1017D00020557064617465643A2000312E312E39D1
:1017E0000A004D61726C696E0020536F66747761F8
:1017F00072652052657365740A00205761746368CE
:10180000646F672052657365740A002042726F77B7
:101810006E206F75742052657365740A00204578D8
:101820007465726E616C2052657365740A00506F46
:1018300077657255700A0073746172740A0061757D
:10184000746F25692E67006572726F7220777269F6
:1018500074696E6720746F2066696C650A00427552
:101860007465657320256320256320256320256327
:1018700000205A3A0020593A0020583A00656E6418
:1018800073746F7073206869743A2000446F6E65DA
:1018900020736176696E672066696C652E0A004D5B
:1018A00032390046696C652064656C657465643A1C
:1018B0000044656C6574696F6E206661696C65646F
:1018C0002C2046696C653A200043616E6E6F74206F
:1018D0006F70656E20737562646972200050726F5C
:1018E0007465637465642050696E0A005374616E98
:1018F0006461726420446576696174696F6E3A2030
:10190000002052616E67653A2000204D61783A20D0
:1019100000204D696E3A20004D65616E3A20004608
:10192000696E6973686564210A002072616E67657B
:101930003A2000206D61783A2000206D696E3A20CF
:1019400000207369676D613A2000206D65616E3A11
:1019500020003A207A3A2000206F662000205A00AA
:10196000205900205800476F696E6720746F3A0055
:10197000436C6F636B776973650A00436F756E74B0
:1019800065722D0020446972656374696F6E3A2038
:1019900000202020616E676C653A200053746172EC
:1019A00074696E67207261646975733A2000506FC4
:1019B000736974696F6E696E6720746865207072F0
:1019C0006F62652E2E2E0A003F4E756D6265722085
:1019D0006F66206C65677320696E206D6F76656D2C
:1019E000656E74206E6F7420706C61757369626CC3
:1019F000652028302D3135292E0A003F2028582C0B
:101A00005929206F7574206F6620626F756E64733C
:101A10002E0A003F53616D706C652073697A6520F2
:101A20006E6F7420706C61757369626C6520283408
:101A30002D3530292E0A004D3438205A2D50726F22
:101A40006265205265706561746162696C69747960
:101A500020546573740A003F2856296572626F73BB
:101A600065206C6576656C20697320696D706C61AA
:101A7000757369626C652028302D34292E0A004662
:101A8000696C616D656E7420757365643A200053EE
:101A9000746174733A20002C204C6F6E6765737408
:101AA000206A6F623A2000546F74616C2074696D13
:101AB000653A200053746174733A20002C2046610B
:101AC000696C65643A20002C2046696E697368650C
:101AD000643A20005072696E74733A200053746146
:101AE00074733A20006F6B00496E697469616C69A8
:101AF00073657220454550524F4D00436F6E7472AE
:101B00006F6C6572005265737461757265722064E2
:101B1000656661757473004C69726520636F6E66EB
:101B2000696700496E697469616C69736572204503
:101B30004550524F4D0053617576657220636F6E4C
:101B40006669670046696C616D656E74004D6F75FE
:101B500076656D656E740054656D7065726174753F
:101B60007265004D656E75207072696E6369706193
:101B70006C004D33303320553120452569205325E5
:101B800069005265676C2E2070726563682E204173
:101B90004253005265676C2E2070726563682E2078
:101BA000504C4100504944204175746F74756E6506
:101BB00000504944204175746F74756E650050493A
:101BC000442D44005049442D44005049442D4900BF
:101BD0005049442D49005049442D50005049442D4E
:101BE00050000220466163746575720002204661F0
:101BF00063746575720002204D61780002204D61AA
:101C0000780002204D61780002204D696E000220AC
:101C10004D696E0002204D696E004172726574005C
:101C20004D61726368650054656D702E2041757456
:101C30006F2E00566974657373652076656E7469DE
:101C40006C2E00566974657373652076656E7469D1
:101C50006C2E004C6974004C697400427573650009
:101C60004275736500436F6E74726F6C65720053DA
:101C7000617576657220636F6E666967004C697482
:101C8000004C6974004275736500427573650056B7
:101C90006974657373652076656E74696C2E005681
:101CA0006974657373652076656E74696C2E005473
:101CB000656D7065726174757265000000210024A5
:101CC0000027002A002D003000330001010000042D
:101CD0000107010A01000020002300260029002C32
:101CE000002F00320000010000030106010901007D
:101CF000000A0B02090C0D0E080703040100000086
:101D000000000000000000000000000000000000D3
:101D10000000000000000000000000121110000090
:101D200000000000000000000000000000000000B3
:101D30000000000000025061732F6D6D004A657253
:101D40006B00416363656C65726174696F6E005608
:101D5000656C6F6369746500446563616C61676598
:101D6000205A00446563616C616765205A00436FC7
:101D70006E74726F6C657200436861726765722081
:101D80006D6D0043686172676572206D6D00436818
:101D90006172676572206D6D00446563686172678A
:101DA0006572206D6D0044656368617267657220BD
:101DB0006D6D00446563686172676572206D6D00CA
:101DC0004469616D2E2046696C2E004469616D2E58
:101DD0002046696C2E004172726574004D61726319
:101DE0006865004520656E206D6D33004176616E3B
:101DF0006365204B004176616E6365204B00436F45
:101E00006E74726F6C65720043616E6E6F742065E4
:101E10006E746572207375626469723A2000052ED3
:101E20002E004D656E75207072696E636970616C0D
:101E30000000546F74616C2066696C616D656E742E
:101E40003A2000256C642E25696D0000496D707282
:101E50002E206C61202B206C6F6E6775653A200018
:101E60000054707320696D70722E20746F74616CF1
:101E70003A20005465726D696E6565733A20004EB4
:101E800062726520696D7072657373696F6E733A03
:101E9000200054656D70204D61783A203134300057
:101EA00054656D70204D696E3A203500544265646A
:101EB0003A3125206265746120333935300054652C
:101EC0006D70204D61783A203237350054656D7061
:101ED000204D696E3A20350054303A204154432059
:101EE00031303447542D3200416C696D656E746138
:101EF00074696F6E3A204154580050726F746F636A
:101F00006F6C653A20312E3000426175643A2031A1
:101F100031353230300052414D505320312E340093
:101F20004E69766561752062696C696E656169727A
:101F30006500457874727564657572733A20310076
:101F4000687474703A2F2F6D61726C696E66772EAB
:101F50006F7267005363616C617220584C5000329D
:101F60003031382D30372D333100312E312E3900BC
:101F70004D61726C696E002020427573653A2000D5
:101F80006368617267656D656E742066696C616D0A
:101F9000656E7400417474656E746520646500201C
:101FA00020427573653A200050757267657220662D
:101FB000696C616D656E7400417474656E74650062
:101FC000706F75722072657072656E647265004123
:101FD0007474656E746520696D7072657373696F72
:101FE0006E00436172746520726574697265650084
:101FF000436172746520696E736572656500205770
:102000003A004520436F6F6C696E672E2E2E004597
:1020100020456E20636861756666652E2E2E002051
:10202000573A0042656420636F6F6C696E672E2EAD
:102030002E004C697420656E206368617566666564
:102040002E2E2E004D3131332053004D31343520AA
:10205000533C696E6465783E206F7574206F66200E
:1020600072616E67652028302D31290A0050533A7D
:10207000310A0050533A300A005363616C61722098
:10208000584C502041727265742E00205A3A00203C
:10209000593A0020436F756E7420583A0020453A33
:1020A00000205A3A0020593A00583A0044696666BE
:1020B00065723A200046726F6D5374703A00537423
:1020C00065707065723A00556E4C6576656C3A00C5
:1020D0004C6576656C65643A005261773A20202041
:1020E00020000A4C6F676963616C3A003A004361F3
:1020F000703A004739322045300A473120463630A1
:102100003020453130300A4739322045300A4D31D0
:10211000313720557365722053637269707420449F
:102120006F6E65004739322045300A473120463608
:10213000303020452D3130300A4739322045300AC1
:102140004D31313720557365722053637269707455
:1021500020446F6E65004D3130362053300A4D31CA
:10216000313720557365722053637269707420444F
:102170006F6E65004D31303620533132370A4D31A4
:10218000313720557365722053637269707420442F
:102190006F6E65004D31303620533235350A4D3182
:1021A000313720557365722053637269707420440F
:1021B0006F6E650046616E20353020506572636534
:1021C0006E740046616E204F66660046616E203177
:1021D00030302050657263656E74005265747261B0
:1021E0006374203130306D6D0045787472756465AC
:1021F00072203130306D6D004D656E7520707269E2
:102200006E636970616C004D313235004D323400BF
:10221000496D70722E20416E6E756C65650050615F
:102220007320646520636172746500496D70722E5D
:10223000206465707569732053440041727265743F
:10224000657220696D70722E0052657072656E64E1
:10225000726520696D70722E00496E666F73206919
:102260006D7072696D616E746500496E746572722D
:102270006F6D70726520696D70722E00436F6E74A1
:10228000726F6C6572005072657061726572005297
:1022900065676C6572004C756D6965726520636178
:1022A0006973736F6E00436F6D6D616E646573204B
:1022B000706572736F005375727665696C6C6572C8
:1022C000004261627973746570205A004368616EE0
:1022D0006765722066696C616D656E74004261624B
:1022E0007973746570205A00466C757800466C7579
:1022F0007800566974657373652076656E74696CD1
:102300002E00566974657373652076656E74696C0A
:102310002E004C6974004C6974004275736500426C
:102320007573650048617574657572206C697373A7
:1023300065650048617574657572206C69737365B5
:1023400065005669746573736500566974657373C7
:1023500065004D656E75207072696E636970616CA1
:102360000043616E6E6F74206F70656E20737562CE
:1023700064697220006563686F3A00453120454DFD
:1023800042414C4C454D454E5420544845524D2EEB
:102390000042454420544845524D414C2052554E30
:1023A0004157415900546865726D616C2052756ED9
:1023B00061776179005344207072696E74696E6749
:1023C000206279746520004E6F742053442070722F
:1023D000696E74696E670A000102102020080810F7
:1023E0002040102040800201020108040201010285
:1023F000040810204080804020100804020180045E
:1024000002018040201008040201080402010102B8
:1024100004081020408001020408102040800000C1
:102420002200250028002B002E003100340002017C
:102430000000050108010B01050505050705080851
:102440000808020202020A0A08080404040401013E
:102450000101010101010303030303030303040753
:1024600007070C0C0C0C0C0C0C0C020202020606EA
:102470000606060606060B0B0B0B0B0B0B0B257546
:102480003A2530327500253032753A2530327500E4
:102490002D2D2D005344002020202020200020201E
:1024A0002020005363616C617220584C5020707280
:1024B0006574652E005072696E74696E672E2E2EDB
:1024C00000496D70722E20656E2070617573650015
:1024D0004172726574004D6172636865004C756D80
:1024E000696572652063616973736F6E004C756D09
:1024F000696E6F73697465004C756D696E6F736991
:102500007465004D656E75207072696E63697061E7
:102510006C0020746F6F206C6F6E6720657874722A
:102520007573696F6E2070726576656E7465640A86
:102530000053442063617264206F6B0A006F706502
:102540006E526F6F74206661696C65640A00766F05
:102550006C756D652E696E6974206661696C656461
:102560000A00534420696E6974206661696C0A0030
:1025700057726974696E6720746F2066696C653A7A
:1025800020006F70656E206661696C65642C204662
:10259000696C653A20006F70656E206661696C65D4
:1025A000642C2046696C653A200046696C6520738E
:1025B000656C65637465640A002053697A653A2026
:1025C0000046696C65206F70656E65643A20002076
:1025D00066696C653A2000646F696E6700667265B3
:1025E0007368004E6F772000454E44205355425289
:1025F0004F5554494E450A002220706F7300222027
:10260000706172656E743A2200535542524F5554B0
:10261000494E452043414C4C207461726765743AC1
:1026200022004D4F52542E00747279696E672074E7
:102630006F2063616C6C207375622D67636F6465D6
:102640002066696C6573207769746820746F6F20E9
:102650006D616E79206C6576656C732E204D4158E6
:10266000206C6576656C2069733A004572726F72F2
:102670003A006F70656E206661696C65642C204657
:10268000696C653A200056206465706C2E206D6977
:102690006E0056206465706C2E206D696E005620A9
:1026A0006465706C2E206D696E00566D696E200039
:1026B000566D696E2000566D696E2000566D61780A
:1026C000204500566D6178204500566D61782045A3
:1026D00000566D6178205A00566D6178205A005678
:1026E0006D6178205A00566D6178205900566D61F1
:1026F00078205900566D6178205900566D61782018
:102700005800566D6178205800566D617820580049
:102710004D6F7576656D656E7400416D617820450D
:1027200000416D6178204500416D6178205A00417B
:102730006D6178205A00416D6178205900416D61CA
:1027400078205900416D6178205800416D617820F2
:10275000580041204465706C2E0041204465706C27
:102760002E004120726574726169740041207265A7
:10277000747261697400416363656C657261746948
:102780006F6E00416363656C65726174696F6E00A2
:102790004D6F7576656D656E74004A756E6374690C
:1027A0006F6E20446576004A756E6374696F6E20A3
:1027B000446576004D6F7576656D656E74004520D5
:1027C0007061732F6D6D0045207061732F6D6D000A
:1027D0005A207061732F6D6D005A207061732F6DD8
:1027E0006D0059207061732F6D6D005920706173F9
:1027F0002F6D6D0058207061732F6D6D0058207023
:1028000061732F6D6D004D6F7576656D656E74002B
:102810007C3C3E5E2B3D3F2F5B5D3B2C2A225C00C7
:1028200050726563686175666661676520504C41EA
:102830002066696E690050726563682E20504C41B5
:10284000206C6974005072656368617566666167C3
:102850006520504C41005072657061726572005085
:1028600072656368617566666167652041425320E1
:1028700066696E690050726563682E20414253207C
:102880006C6974005072656368617566666167653E
:1028900020414253005072657061726572004D3480
:1028A0003238004D383000457465696E64726520B9
:1028B000616C696D2E004D3831005072656368613E
:1028C00075666661676520414253005072656368B2
:1028D0006175666661676520504C4100526566729D
:1028E0006F6964697200416C6C756D657220616C12
:1028F000696D2E004368616E6765722066696C6160
:102900006D656E740041727265746572206D6F74CE
:1029100065757273004D3834005265676C2E206403
:102920006563616C2E206F726967696E650048612E
:102930007574657572206C6973736565004861759F
:1029400074657572206C6973736565004172726598
:1029500074004D6172636865005265676C2E204E8D
:1029600069762E206C6974005265676C2E204E6962
:10297000762E206C6974004732380A473239004F8E
:10298000726967696E65205A204175746F2E004721
:102990003238205A004F726967696E6520592041AC
:1029A00075746F2E004732382059004F726967697D
:1029B0006E652058204175746F2E004732382058BC
:1029C000004F726967696E65206175746F2E0047EC
:1029D0003238004465706C6163657220756E2061E9
:1029E0007865004D656E75207072696E63697061FF
:1029F0006C00544845524D414C5F50524F54454332
:102A000054494F4E004155544F5245504F52545F18
:102A100053445F53544154555300454D4552474527
:102A20004E43595F50415253455200434153455F15
:102A30004C494748545F4252494748544E455353C6
:102A400000544F47474C455F4C4947485453005347
:102A50004F4654574152455F504F574552004255DB
:102A6000494C445F50455243454E54004C455645F1
:102A70004C494E475F44415441005A5F50524F42C7
:102A800045004155544F4C4556454C005052494E17
:102A9000545F4A4F420050524F47524553530041F2
:102AA00055544F5245504F52545F54454D50005667
:102AB0004F4C554D455452494300454550524F4D9A
:102AC0000053455249414C5F584F4E5F584F464660
:102AD000004649524D574152455F4E414D453A4D92
:102AE00061726C696E20312E312E3920284769744D
:102AF0006875622920534F555243455F434F444503
:102B00005F55524C3A68747470733A2F2F6769742A
:102B10006875622E636F6D2F4D61726C696E4669C8
:102B2000726D776172652F4D61726C696E205052C3
:102B30004F544F434F4C5F56455253494F4E3A31D5
:102B40002E30204D414348494E455F545950453A37
:102B50005363616C617220584C5020455854525553
:102B60004445525F434F554E543A312055554944E0
:102B70003A33396365666634342D383863612D31F4
:102B80003165362D616532322D3536623662363426
:102B900039393631310A002F2F20002054002052BD
:102BA00000416363656C65726174696F6E3A2050B1
:102BB000003F4A206F7574206F662072616E6765F2
:102BC0002028302E303120746F20302E33290A0017
:102BD000205A00205900580020204D61783A2000EA
:102BE000205A00205900580020204D696E3A2000DC
:102BF0004D617263686500417272657400536F665F
:102C00007420656E6473746F70733A200020466C94
:102C10006F773A2000446563616C6167657320617A
:102C200070706C6971756573004572723A20546FEB
:102C30006F206661722100546F6F2066617220669A
:102C4000726F6D207265666572656E636520706F68
:102C5000696E740A004D3234004D32332025730002
:102C6000556E6B6E6F776E20636F6D6D616E643A3B
:102C70002022002F2F616374696F6E3A726573753D
:102C80006D650A00496E736572742066696C616DCA
:102C9000656E7420616E6420707265737320627556
:102CA00074746F6E20286F72204D313038290A00FD
:102CB000456368656320736F6E64650A00456368E9
:102CC000656320736F6E646500205A3A20002059B6
:102CD0003A200042656420583A20004F72696769C3
:102CE0006E6520257325732573205072656D6965A7
:102CF0007200205072656D6965720A005A005900B1
:102D000058004F726967696E6520001000C9021093
:102D1000012C014001220170011801B0010E01F0E7
:102D20000104015002FA00B002F0003003E600D0C6
:102D300003DC009004D2007005C800A006BE0000AD
:102D400008B400B009AA00D00BA000600E96006085
:102D5000118C000015820020197800C01D6E00A0A3
:102D6000226400B0275A00902C500000314600E049
:102D7000343C0010383200903A2800603C1E00A01D
:102D80003D1400803E0A00203F00001000AA03F01E
:102D9000013A019002220130031001D003020170B8
:102DA00004F7001005ED00B005E5005006DD00F069
:102DB00006D7009007D1003008CC00D008C70070BB
:102DC00009C300100ABE00B00ABB00500BB700F0E8
:102DD0000BB300900CB000D00DAA00100FA500504E
:102DE00010A00090119B00D0129600B0149000909B
:102DF000168B0070188500501A8000301C7B00B0C4
:102E00001E750030216F00B0236900302664001069
:102E1000285F00902A5A00702C5500F02E4F007049
:102E2000314800B0324500F03341007036390010AF
:102E30003737005038330090392D00D03A2700B092
:102E40003C1C00503D1700F03D1100903E0900D0A1
:102E50003FE5FF4531204572723A2054454D502ED2
:102E6000204D4158004572723A2054454D502E2055
:102E70004D4158204C4954004D415854454D502027
:102E800074726967676572656400453120457272C6
:102E90003A2054454D502E204D494E004572723A0D
:102EA0002054454D502E204D494E204C4954004D44
:102EB000494E54454D502074726967676572656468
:102EC000004D383420582059205A204500202F002A
:102ED0002042403A0020403A00001C1F11111F0000
:102EE000000006191803130C00040E1F041C000038
:102EF00000000E1315110E00001C10181705060512
:102F000000040A0A0A0A11110E0C12120C00000029
:102F100000001F1511151F000053746174732E20DB
:102F2000696D7072696D616E746500546865726D6B
:102F30006973746F727300496E666F732063617298
:102F4000746500496E666F7320696D7072696D619A
:102F50006E7465004D656E75207072696E63697080
:102F6000616C004465636861726765722066696CB4
:102F70002E004D37303200436861726765722066FB
:102F8000696C2E004D373031004368616E676572A1
:102F90002066696C616D656E74004D36303020427C
:102FA0003000507265706172657200494D50522E4A
:102FB00020504155534500444543484152474552EE
:102FC0002046494C00434841524745522046494C0F
:102FD0000050757267657220656E636F726500528E
:102FE000657072656E64726520696D70722E004F37
:102FF0005054494F4E5320524550524953453A0080
:103000002020427573653A20006368616E676572BF
:103010000064752066696C616D656E74004174743E
:10302000656E74652044656D61727261676500202C
:1030300020427573653A2000646563686172676554
:10304000722066696C616D656E7400417474656EA2
:103050007465206465002020427573653A20005035
:10306000617469656E74657A205356502E2E2E0059
:103070004275736520656E206368617566666500DC
:103080002020427573653A20005072206368617594
:1030900066666572206C61206275736500507265AA
:1030A00073736572206C6520626F75746F6E2E2E5F
:1030B0002E002020427573653A2000706F757220D3
:1030C000636F6E74696E7565722E2E2E00657420A6
:1030D0006170702E20626F75746F6E00496E73653B
:1030E0007265722066696C616D656E7400FFFDFC2F
:1030F000FAF8F6F4F2F0EEECEAE9E7E5E3E1E0DE17
:10310000DCDAD9D7D5D4D2D0CFCDCBCAC8C7C5C3C6
:10311000C2C0BFBDBCBAB9B7B6B4B3B2B0AFADAC44
:10312000AAA9A8A6A5A4A2A1A09E9D9C9A99989799
:1031300095949392908F8E8D8B8A898887868483CD
:103140008281807F7E7D7B7A7978777675747372E1
:1031500071706F6E6D6C6B6A6968676665646362D7
:1031600061605F5E5D5C5B5A5958585756555453C1
:10317000525150504F4E4D4C4B4A4A494847464693
:10318000454443424241403F3E3E3D3C3B3B3A3951
:10319000383837363535343332323130302F2E2E01
:1031A0002D2C2B2B2A2929282727262525242323A4
:1031B00022212120201F1E1E1D1C1C1B1B1A191939
:1031C0001818171616151514131312121111100FC3
:1031D0000F0E0E0D0D0C0C0B0A0A09090808070743
:1031E00006060505040403030202010000000000B6
:1031F000010000000100008000555555000000400E
:103200000033333300AAAA2A004992240000002088
:1032100000C7711C0099991900D145170055551523
:10322000003BB113002449120011111100000010DD
:10323000000F0F0F00E3380E0043790D00CCCC0CCB
:1032400000C3300C00E8A20B0064210B00AAAA0AFC
:1032500000703D0A009DD80900427B0900922409B4
:1032600000DCD3080088880800104208000000082D
:1032700000F0C107008787070075500700711C0721
:10328000003EEB0600A1BC060069900600666606DB
:1032900000703E06006118060017F4050074D105A1
:1032A000005BB00500B2900500627205005555053F
:1032B0000078390500B81E0500050505004EEC0430
:1032C0000087D40400A1BD040090A7040049920423
:1032D00000C17D0400EE690400C7560400444404A4
:1032E000005C3204000821040041100400000004C6
:1032F000003FF00300F8E0030026D20300C3C3033D
:1033000000CCB503003AA803000A9B0300388E03E3
:1033100000C08103009F750300D0690300505E0365
:10332000001D53030034480300913D030033330371
:103330000016290300381F030097150300300C0303
:1033400000030303000BFA020049F10200BAE8028D
:10335000005CE002002DD802002DD0020059C80206
:1033600000B0C0020031B90200DAB10200AAAA021C
:1033700000A0A30200BC9C0200FA9502005C8F0230
:1033800000DF88020082820200457C02002776026C
:103390000027700200436A02007C640200D05E02D3
:1033A000003F590200C85302004465706C2E20583B
:1033B000004465706C2E2059004465706C2E205AB4
:1033C00000457874727564657572004465706C2E82
:1033D00020302E316D6D004465706C2E20316D6D86
:1033E000004465706C2E2031306D6D004465706C4A
:1033F0006163657220756E2061786500457874722E
:103400007564657572004465706C2E205A004465C1
:10341000706C2E2059004465706C2E205800457841
:1034200074727564657572004465706C2E205A0064
:103430004465706C2E2059004465706C2E20580035
:10344000507265706172657200526573656E643AA0
:1034500020006F6B006265640A002C20737973741E
:10346000656D2073746F70706564212048656174A8
:1034700065725F49443A2000426564206865617462
:10348000696E67206661696C65640048656174698E
:103490006E67206661696C65640045312045727213
:1034A00065757220646520636861756666650048AD
:1034B000656174696E67206661696C6564004D4F73
:1034C00052542E0048617264636F646564204465E1
:1034D0006661756C742053657474696E6773204CF3
:1034E0006F616465640A00F4010000F401000003E8
:1034F000000000DC05000000001643000016430039
:103500000040400000C8410000C8420000C842001E
:1035100000C84400001A434563686563206F726900
:1035200067696E650066696C616D656E743A20004E
:103530007A5F6D696E3A2000795F6D696E3A20009E
:10354000785F6D696E3A20005265706F7274696EB3
:103550006720656E6473746F702073746174757323
:103560000A00DE00E40011241FBECFEFD1E2DEBF6F
:10357000CDBF00E00CBF13E0A0E0B2E0E4E4F1E86E
:1035800002E00BBF02C007900D92A238B107D9F735
:1035900026E1A2E8B3E001C01D92A732B207E1F72D
:1035A0001AE1C2EBDAE100E006C021970109802FA1
:1035B000FE010F940F40C13BD10780E00807A9F737
:1035C0000F9483260D9491400C9400002F923F920B
:1035D0004F925F926F927F928F929F92AF92BF9223
:1035E000CF92DF92EF92FF920F931F93CF93DF93CF
:1035F000CDB7DEB7C05AD1090FB6F894DEBF0FBE03
:10360000CDBF21E02093D70D809114158D3411F496
:103610000C948E25843511F40C94AE37873411F058
:103620000C94F23780911215909113158B319105FE
:1036300009F42FC6B4F4843091053CF4823091052E
:10364000ECF597FF34C00C948A258430910509F479
:103650001CC60C9711F00C948A250E94E7460C9426
:10366000F4378A32910511F40C944E246CF48D31A8
:10367000910511F40C9472230CF43BC64E9711F48F
:103680000C9476230C948A258B35910511F40C94B7
:1036900010258C35910511F40C9414258A3591056B
:1036A00011F00C948A25109287030C94F4378091C2
:1036B000700281110C94F9370C94F4372091700248
:1036C000222311F40C94F43711E0029709F010E072
:1036D0000E943D3D82E50E947150882309F452C149
:1036E0000E94F34F6B017C014090EA0D5090EB0D6E
:1036F0006090EC0D7090ED0D2091EE0D3091EF0D7E
:103700004091F00D5091F10D2CAF3DAF4EAF5FAF3A
:103710008091B10D9091B20DA091B30DB091B40D07
:1037200024968CAF9DAFAEAFBFAF24972091B50D5F
:103730003091B60D4091B70D5091B80D28962CAF31
:103740003DAF4EAF5FAF289720E030E0A901C70141
:10375000B6010F943236882309F47DC5A301920186
:1037600024966CAD7DAD8EAD9FAD24970F9432360F
:1037700081110FC02CAD3DAD4EAD5FAD28966CAD47
:103780007DAD8EAD9FAD28970F943236882309F416
:1037900062C520E030E0A901C701B6010F943236BE
:1037A000881F8827881F18130BC080E090E0A0E8CE
:1037B000BFE368968CAF9DAFAEAFBFAF68970AC04E
:1037C00020E030E040E85FEB68962CAF3DAF4EAFB5
:1037D0005FAF6897A301920124966CAD7DAD8EAD6D
:1037E0009FAD24970F94003D60966CAF7DAF8EAF78
:1037F0009FAF60972CAD3DAD4EAD5FAD28966CADE3
:103800007DAD8EAD9FAD28970F94003D64966CAF53
:103810007DAF8EAF9FAF649760962CAD3DAD4EAD42
:103820005FAD6097CA01B9010F9497364B015C01F7
:1038300064962CAD3DAD4EAD5FAD6497CA01B90144
:103840000F9497369B01AC01C501B4010F94013D63
:103850000F946E3F2C966CAF7DAF8EAF9FAF2C97C1
:1038600020E030E040E05FE30F9497364B015C01CD
:10387000A7019601C701B6010F9497366B017C0131
:10388000A5019401C501B4010F9497369B01AC01C9
:10389000C701B6010F94003D0F946E3F9B01AC0130
:1038A00068966CAD7DAD8EAD9FAD68970F949736E1
:1038B0004B015C0124962CAD3DAD4EAD5FAD249720
:1038C000C301B2010F94013D20E030E040E05FE32E
:1038D0000F9497366B017C0164966CAD7DAD8EAD17
:1038E0009FAD649790582C962CAD3DAD4EAD5FAD1D
:1038F0002C970F94DD3D9B01AC01C501B4010F94E1
:1039000097369B01AC01C701B6010F94013DA3019D
:1039100092010F94003D6B017C0128962CAD3DADCA
:103920004EAD5FAD28976CAD7DAD8EAD9FAD0F9464
:10393000013D20E030E040E05FE30F9497362B013B
:103940003C012C962CAD3DAD4EAD5FAD2C976096F5
:103950006CAD7DAD8EAD9FAD60970F94DD3D9B014D
:10396000AC01C501B4010F9497369B01AC01C301B2
:10397000B2010F94013D2CAD3DAD4EAD5FAD0F9446
:10398000003D14C089E40E947150882329F00E94F0
:10399000F34F6B017C0103C0C12CD12C76018AE46A
:1039A0000E9471508823F9F00E94F34F28966CAF63
:1039B0007DAF8EAF9FAF289720E030E0A901C7010F
:1039C000B6010F94323681111EC020E030E0A9010B
:1039D00028966CAD7DAD8EAD9FAD28970F94323695
:1039E000811111C038C420E030E0A901C701B6013F
:1039F0000F943236882309F42EC428961CAE1DAECF
:103A00001EAE1FAE2897D701C601B0588CAF9DAF30
:103A1000AEAFBFAF28962CAD3DAD4EAD5FAD289794
:103A2000505824962CAF3DAF4EAF5FAF24979C010A
:103A3000AD01BC01CD010F9497364B015C0124967A
:103A40002CAD3DAD4EAD5FAD2497CA01B9010F94C9
:103A500097369B01AC01C501B4010F94013D0F9451
:103A60006E3FA4966CAF7DAF8EAF9FAFA497809151
:103A7000EA0D9091EB0DA091EC0DB091ED0D2C960F
:103A80008CAF9DAFAEAFBFAF2C97A7019601BC0125
:103A9000CD010F94013D68966CAF7DAF8EAF9FAFA7
:103AA00068972091EE0D3091EF0D4091F00D5091FF
:103AB000F10D60962CAF3DAF4EAF5FAF609728968B
:103AC0002CAD3DAD4EAD5FAD289760966CAD7DAD34
:103AD0008EAD9FAD60970F94013DE0966CAF7DAFCA
:103AE0008EAF9FAFE0978091B10D9091B20DA091F4
:103AF000B30DB091B40D64968CAF9DAFAEAFBFAFB8
:103B0000649768962CAD3DAD4EAD5FAD6897BC0136
:103B1000CD010F94003D6B017C012091B50D3091DA
:103B2000B60D4091B70D5091B80D6C962CAF3DAFCE
:103B30004EAF5FAF6C97E0962CAD3DAD4EAD5FAD37
:103B4000E0976C966CAD7DAD8EAD9FAD6C970F948C
:103B5000003D4B015C018091F20D9091F30DA0911D
:103B6000F40DB091F50DA0968CAF9DAFAEAFBFAF89
:103B7000A0979C01AD016091B90D7091BA0D809133
:103B8000BB0D9091BC0D0F94003D2B013C01209189
:103B9000BD0D3091BE0D4091BF0D5091C00DA89646
:103BA0002CAF3DAF4EAF5FAFA8978091F60D9091CF
:103BB000F70DA091F80DB091F90DE4968CAF9DAF83
:103BC000AEAFBFAFE497A70196016CAD7DAD8EADF2
:103BD0009FAD0F949736AC966CAF7DAF8EAF9FAF15
:103BE000AC97A501940124966CAD7DAD8EAD9FADD3
:103BF00024970F9497369B01AC01AC966CAD7DADCC
:103C00008EAD9FADAC970F94013DAC966CAF7DAF80
:103C10008EAF9FAFAC97A50194016CAD7DAD8EAD1D
:103C20009FAD0F9497364B015C01A7019601249636
:103C30006CAD7DAD8EAD9FAD24970F9497369B01F3
:103C4000AC01C501B4010F94003DAC962CAD3DAD67
:103C50004EAD5FADAC970F94743D6B017C0120E0DD
:103C600030E0A9010F94323687FF0AC02BED3FE008
:103C700049EC50E4C701B6010F94013D6B017C0192
:103C8000112351F02BED3FE049EC50E4C701B601A0
:103C90000F94003D6B017C0120E030E0A901C701D9
:103CA000B6010F943236811128C064962CAD3DAD1B
:103CB0004EAD5FAD64972C966CAD7DAD8EAD9FAD76
:103CC0002C970F943236811118C06C962CAD3DADF7
:103CD0004EAD5FAD6C9760966CAD7DAD8EAD9FAD1A
:103CE00060970F943236811108C01BEDC12E1FE082
:103CF000D12E19ECE12E10E4F12EA7019601A49625
:103D00006CAD7DAD8EAD9FADA4970F9497364B01F2
:103D10005C0120E030E0A901C301B2010F9432360A
:103D20008823C9F0A5019401C501B4010F94973609
:103D30004B015C01A3019201C301B2010F949736BC
:103D40009B01AC01C501B4010F94013D0F946E3F7E
:103D50004B015C010DC020E030E0A901C501B401B8
:103D60000F94283F87FF04C0B7FAB094B7F8B09417
:103D70002FE632E143E85AE3C501B4010F9432362D
:103D800087FF02C00C94F437C501B4010F94763E4E
:103D90000F944A3E1B01672B19F422242394312CE3
:103DA000B10180E090E00F9436364B015C019B013D
:103DB000AC01C701B6010F94DD3D2C966CAF7DAF11
:103DC0008EAF9FAF2C97A5019401C301B2010F9450
:103DD000DD3DA4966CAF7DAF8EAF9FAFA497E49608
:103DE0002CAD3DAD4EAD5FADE497A8966CAD7DAD0D
:103DF0008EAD9FADA8970F94003DA50194010F943F
:103E0000DD3DA8966CAF7DAF8EAF9FAFA8972C9687
:103E10002CAD3DAD4EAD5FAD2C97CA01B9010F94ED
:103E2000973620E030E040E05FE30F9497369B0147
:103E3000AC0160E070E080E89FE30F94003D6C9679
:103E40006CAF7DAF8EAF9FAF6C97A0962CAD3DADA4
:103E50004EAD5FADA09729873A874B875C87E49684
:103E60008CAD9DADAEADBFADE4978D879E87AF871E
:103E7000B88B6091440270914502072E000C880BAC
:103E8000990B0F94383620914E0230914F02409199
:103E90005002509151020F9497362AE037ED43E2D9
:103EA0005CE30F9497366CAB7DAB8EAB9FAB0E94FF
:103EB000528F9B01AC0128533F4F4F4F5F4FA0964D
:103EC0002CAF3DAF4EAF5FAFA0974CAC5DAC6EACCE
:103ED0007FAC41E050E062965FAF4EAF629759E130
:103EE0002D965FAF2D9762962EAD3FAD629722154E
:103EF000330509F455C10F94FC1F0E94528FDC0159
:103F0000CB01A0962CAD3DAD4EAD5FADA097821B11
:103F1000930BA40BB50BB7FD11C00E94528F9B01F0
:103F2000AC0128533F4F4F4F5F4FA0962CAF3DAF92
:103F30004EAF5FAFA09780E00E94EB682D963FAD3B
:103F40002D9731502D963FAF2D97332309F44BC059
:103F50006C962CAD3DAD4EAD5FAD6C9724966CADBF
:103F60007DAD8EAD9FAD24970F9497366B017C018C
:103F70002C962CAD3DAD4EAD5FAD2C97B201C3017B
:103F80000F949736A70196010F94013D7B018C0198
:103F90006C962CAD3DAD4EAD5FAD6C97B201C301DB
:103FA0000F9497364B015C012C962CAD3DAD4EAD78
:103FB0005FAD2C9724966CAD7DAD8EAD9FAD2497F3
:103FC0000F9497369B01AC01C501B4010F94003DDD
:103FD0002B013C01C701D80124968CAF9DAFAEAF39
:103FE000BFAF24975DC062964EAD5FAD6297BA01D8
:103FF00080E090E00F9436362C962CAD3DAD4EAD62
:104000005FAD2C970F9497364B015C010F94DA3D0E
:104010006B017C01C501B4010F94643F4B015C014D
:10402000A70196016CAD7DAD8EAD9FAD0F94973617
:104030002B013C01A501940128966CAD7DAD8EADA0
:104040009FAD28970F9497369B01AC01C301B20135
:104050000F94013D2B013C01A50194016CAD7DAD98
:104060008EAD9FAD0F9497364B015C01A701960171
:1040700028966CAD7DAD8EAD9FAD28970F94973689
:104080009B01AC01C501B4010F94003D24966CAFB7
:104090007DAF8EAF9FAF249759E12D965FAF2D97DF
:1040A0009201A30168966CAD7DAD8EAD9FAD689712
:1040B0000F94013D69837A838B839C8324962CAD76
:1040C0003DAD4EAD5FAD2497E0966CAD7DAD8EAD50
:1040D0009FADE0970F94013D6D837E838F8398871A
:1040E000A4962CAD3DAD4EAD5FADA49769857A85A4
:1040F0008B859C850F94013D69877A878B879C8788
:10410000A8962CAD3DAD4EAD5FADA8976D857E8573
:104110008F8598890F94013D6D877E878F87988B57
:10412000CE0101960F94D21AE090D80D1CA61DA6C0
:104130001EA61FA689819A81AB81BC8188A399A301
:10414000AAA3BBA38D819E81AF81B8858CA39DA3BB
:10415000AEA3BFA389859A85AB85BC8588A799A79F
:10416000AAA7BBA7AE01485D5F4FBE016C5D7F4F44
:10417000CE0180960F94C60BCE018C966C018E01F9
:104180000C5C1F4F9E01235F3F4FAE01485D5F4FA8
:10419000BE016C5D7F4F0C970E94B3C4811151C06A
:1041A000E090D80D18AA19AA1AAA1BAA8091B10DDD
:1041B0009091B20DA091B30DB091B40D88A399A3C5
:1041C000AAA3BBA38091B50D9091B60DA091B70D98
:1041D000B091B80D8CA39DA3AEA3BFA38091B90DE0
:1041E0009091BA0DA091BB0DB091BC0D88A799A775
:1041F000AAA7BBA7AE01485D5F4FBE016C5D7F4FB4
:10420000CE0180960F94C60BDE01D0966D018E0113
:104210000C5C1F4F2DEB3DE0AE01485D5F4FBE01D2
:104220006C5D7F4FCE0180960E94B3C480E1E1EBCC
:10423000FDE0AAEEBDE001900D928A95E1F70C94A5
:10424000F4376296EEADFFAD629731966296FFAF9E
:10425000EEAF629748CEEBE6F6E284918F010F5FF6
:104260001F4F882321F00E945751F801F6CFEFE548
:10427000F3E084918F010F5F1F4F882311F40C949A
:10428000F4370E945751F801F4CF0E94F73C0C9488
:10429000F4370E94A5F881110C94F43780E090E087
:1042A000A0E2B1E489839A83AB83BC8380E090E091
:1042B000ABE9B3E48D839E83AF83B88780E090E061
:1042C000A0EAB1E489879A87AB87BC8780E50E9422
:1042D0007150882319F00E94C34F01C060E068A3A9
:1042E000BE016F5F7F4FCE0180960F94CC0E0C9471
:1042F000F4378091D90D8770873071F48FE40E9474
:104300007150882319F00E94E44F03C08FE40E948B
:104310002A5081110C94F4370E94F1D580E00E945C
:10432000C73F0E94214211E010932C050F94E92110
:1043300088E50E942A50282E89E50E942A50382EAE
:104340008AE50E942A5025968FAF2597211004C038
:10435000311004C0182707C0311002C010E003C09C
:1043600025961FAD25970E94435182E50E9471500A
:10437000882361F00E94F34F6B017C0120E030E064
:10438000A9010F943236882379F106C0C12CD12CB3
:10439000A0ECEA2EA0E4FA2E111105C0211003C0F2
:1043A000332009F42AC1C092B90DD092BA0DE0921F
:1043B000BB0DF092BC0D2091F20D3091F30D4091A8
:1043C000F40D5091F50DC701B6010F94283F181652
:1043D0005CF419821A821B821C82BE016F5F7F4FC0
:1043E00089EB9DE00E949B4E11110DC0211003C06E
:1043F0003110FEC002C1311006C080E00E949766F5
:104400001123B1F3F5C01092EE0D1092EF0D109242
:10441000F00D1092F10D1092EA0D1092EB0D10922A
:10442000EC0D1092ED0D0E946C4FEAE0FDE034912E
:1044300061963FAF6197EEEFFCE085909590A59077
:10444000B490E2E0FDE0C590D590E590F490A7012E
:104450009601C501B4010F94283F18162CF4A5014C
:104460009401C701B60104C0A7019601C501B401BA
:104470000F94DD3D2B013C01E1ECFCE08591959131
:10448000A591B4918CAF9DAFAEAFBFAFEDEBFCE0AB
:10449000259135914591549124962CAF3DAF4EAF67
:1044A0005FAF24979C01AD0124966CAD7DAD8EADC0
:1044B0009FAD24970F94323687FD0CC00CAD3DADF7
:1044C00029963FAF29974EAD2D964FAF2D975FADF3
:1044D0005CAF13C021960FAD219722968FAD229726
:1044E00029968FAF299723969FAD23972D969FAF3F
:1044F0002D972496AFAD2497ACAFA3019201C301D1
:10450000B2010F94973620E030E040E85FE30F946B
:10451000013D0F946E3F9B01AC01602F29967FAD4A
:1045200029972D968FAD2D979CAD0F9497366CA73C
:104530007DA78EA79FA7EBE0FDE0049120E030E08F
:1045400040EC5FE3C701B6010F9497366B017C0125
:10455000602F000F770B880B990B0F9438369B0157
:10456000AC01C701B6010F94973669837A838B83B8
:104570009C8320E030E040EC5FE3C501B4010F9480
:1045800097366B017C016196BFAD61976B2FBB0FB6
:10459000770B880B990B0F9438369B01AC01C70140
:1045A000B6010F94973668A379A38AA39BA3AE01A3
:1045B000445D5F4FBE016F5F7F4FCE0180960E94CA
:1045C000C6460F94CB221092EE0D1092EF0D109272
:1045D000F00D1092F10D1092EA0D1092EB0D109269
:1045E000EC0D1092ED0D111108CF211006CF00CF68
:1045F00081E00E949766111106C02596EFAD2597C0
:10460000EE2309F45EC08091D90D83708330E9F008
:1046100060E089E893E00E944996E5E7F3E284913F
:104620008F010F5F1F4F882321F00E945751F8011F
:10463000F6CFE5E7F3E084918F010F5F1F4F8823EA
:10464000F1F10E945751F801F6CF0E946C4F80E0C3
:1046500090E0A0E2B3E48093B50D9093B60DA093E3
:10466000B70DB093B80D8091F20D9091F30DA0911C
:10467000F40DB091F50D8093B90D9093BA0DA09300
:10468000BB0DB093BC0D80E090E0AAE7B3E480934B
:10469000B10D9093B20DA093B30DB093B40D1982E8
:1046A0001A821B821C82AE014F5F5F4F65EB7DE07B
:1046B00081EB9DE00E94C64682E00E9497660E94C0
:1046C000AF3C0E946C4F80912B0580932C050F947A
:1046D000E9210E94084283E0809346020E94B8A923
:1046E0000C94F4370E9440420C94F437C090EA0DC9
:1046F000D090EB0DE090EC0DF090ED0D88E50E9470
:104700007150811109C020E030E04CE052E4C70153
:10471000B6010F94003D02C00E94F34F68A379A335
:104720008AA39BA3C090EE0DD090EF0DE090F00D0A
:10473000F090F10D89E50E947150811108C020E0D0
:1047400030E0A901C701B6010F94013D02C00E94EB
:10475000F34F9B01AC0169837A838B839C8368A1AF
:1047600079A18AA19BA10E94F067882311F40C947F
:10477000F43780E00E94C73F0E94214285E40E94F6
:104780007150882321F00E94E44F182F04C085E463
:104790000E942A5011E086E50E947150882321F082
:1047A0000E94C34F262F01C021E0412FBE016F5F41
:1047B0007F4FCE0180960E94F8F96B017C019B012E
:1047C000AC010F94B03F81115FC088A099A0AAA04E
:1047D000BBA020E030E0A901C501B4010F9432363E
:1047E00087FD05C027E137EB41E558E304C027E129
:1047F00037EB41E558EBC501B4010F94013DAB0126
:10480000BC0186EA93E00F94201189809A80AB80E6
:10481000BC8020E030E0A901C501B4010F9432361C
:1048200087FD05C027E137EB41E558E304C027E1E8
:1048300037EB41E558EBC501B4010F94013DAB01E5
:10484000BC0181EA93E00F94201120E030E0A9013F
:10485000C701B6010F94323687FD05C027E137EB5B
:1048600041E558E304C027E137EB41E558EBC701C8
:10487000B6010F94013DAB01BC018CE993E00F94AC
:1048800020118AE00E9457510E940842113011F411
:104890000E94AF3C0E94B8A90C94F437809170023A
:1048A000882311F40C94F43789E40E947150182F76
:1048B000882321F00E94C34FE62E01C0E12C8AE438
:1048C0000E947150F82E882331F00E94C34F062FAA
:1048D000111104C00BC000E01123B9F0F2E0FE1585
:1048E00010F00C94663AEEEAF3E003C00330D8F718
:1048F0000CC084918F010F5F1F4F882311F40C941B
:10490000F4370E945751F801F4CF0E94435111230C
:10491000F1F020916C0D30916D0D4E2D4203B001E0
:10492000439F700D112420914F0430915004620F69
:10493000731F072E000C880B990B0F943836609369
:10494000B10D7093B20D8093B30D9093B40DFF2011
:10495000E9F020916E0D30916F0D0203B001039FBD
:10496000700D11248091510490915204680F791FA9
:10497000072E000C880B990B0F9438366093B50DF9
:104980007093B60D8093B70D9093B80D80E50E949B
:1049900071508823E9F00E94E44F8823E9F0112345
:1049A000D9F020E030E04CE052E46091B10D70911C
:1049B000B20D8091B30D9091B40D0F94013D6093B1
:1049C000B10D7093B20D8093B30D9093B40D04C0EC
:1049D00080E50E942A50E1CF86E40E94715088232E
:1049E000D9F00E94F34F6B017C0120E030E0A90177
:1049F0000F94283F181684F420E030E040E752E49A
:104A0000C701B6010F94DD3D60934E0270934F02D3
:104A100080935002909351020E940B6D0C94F437D6
:104A2000209387030C94F437E1E52E2EE3E03E2E2D
:104A3000F2E7CF2EF4E0DF2EE12CF12C00E010E0C5
:104A4000D1018D911D010E947150882309F44EC03F
:104A50000E94F34F2B013C01133059F0F701E6524D
:104A6000F24F20813181428153810F94003D2B010F
:104A70003C01F701E651F24F20813181428153819F
:104A8000C301B2010F94003D4B015C012DEB37E3F4
:104A900046E855EB0F94283F87FD0AC02DEB37E31E
:104AA00046E855E3C501B4010F9432361816F4F404
:104AB000133051F44092F60D5092F70D6092F80DBC
:104AC0007092F90D01E012C0A5019401F601608118
:104AD0007181828193810F94013DD6016D937D9305
:104AE0008D939C931397812F0E94B94E1F5FB4E062
:104AF000CB0ED11CE4E0EE0EF11C143009F0A0CF77
:104B0000002321F086EF9DE00E9447F90E94B8A99A
:104B10000C94F4370E94A7FD0C94F4378091121581
:104B2000909113158737910509F4FFC40CF0E8C084
:104B30008C34910509F410C40CF078C08A319105C9
:104B400009F4F3C2ECF58431910509F474C27CF4E4
:104B50008131910509F46BC22CF4029708F4DCC191
:104B60000C94AB37429709F4CCC40C94AB37873123
:104B7000910509F49AC274F48531910509F491C242
:104B8000469711F00C94AB371092CF071092D007D4
:104B90000C94F4378831910509F49DC2499711F0BE
:104BA0000C94AB371092CF070F9479218FEF93E0DD
:104BB0009093A70D8093A60D0E940D4F0C94F4378F
:104BC0008F31910509F475C39CF48C31910509F47A
:104BD00055C30CF4B8C28D31910511F40C94F4371F
:104BE0004E9711F00C94AB370E9418840C94F43754
:104BF0008A32910509F487C364F48032910509F47F
:104C000047C3819711F00C94AB370E94DA820C9461
:104C1000F4378033910509F49BC38B34910511F06F
:104C20000C94AB370F94EE110C94F4378936910540
:104C300009F432C48CF58235910509F459C49CF409
:104C40008E34910509F490C30CF48AC38035910524
:104C500009F44AC48135910511F00C94AB370E94D8
:104C60004CAD0C94F4378535910509F44EC454F4D9
:104C70008335910509F440C48435910509F441C494
:104C80000C94AB378C35910509F443C488369105F3
:104C900009F46EC30C94AB378F36910509F4AAC39F
:104CA00084F48B36910509F409C40CF403C48D36E1
:104CB000910509F4F7C38E36910509F488C30C9465
:104CC000AB378337910509F428C46CF4813791051B
:104CD00009F4DEC38237910511F00C94AB370E94C2
:104CE000A5AA0C94F4378537910509F41AC48637C0
:104CF000910511F00C94AB370E94E7F70C94F43750
:104D00008F32F1E09F0709F41EC50CF072C08B3C96
:104D1000910509F42BC4BCF58139910509F41AC435
:104D20009CF48937910509F40DC40CF402C48D3745
:104D3000910509F4D5C38C38910511F00C94AB376B
:104D40000E9457B00C94F4378E3B910509F4AEC322
:104D50006CF48639910509F401C48B39910511F081
:104D60000C94AB370E94BFB20C94F437883C910589
:104D700009F4F8C3893C910511F00C94AB370E94FB
:104D800058F60C94F4378C3D910509F403C49CF457
:104D90008D3C910509F4F2C30CF4ECC38E3C9105F3
:104DA00009F4F0C3833D910511F00C94AB370E94D8
:104DB00019F40C94F437823231E0930709F4F2C30A
:104DC0006CF48D3D910509F4E9C3823E910511F023
:104DD0000C94AB370E9431F30C94F4378C3251E0D1
:104DE000950709F4E3C38D32914009F409C40C948A
:104DF000AB37863FB1E09B0711F40C947E320CF088
:104E000049C08239F1E09F0711F40C94CB3004F5CE
:104E1000833631E0930711F40C9487303CF48033EF
:104E2000914011F40C940A300C94AB378039A1E016
:104E30009A0711F40C94C8308139914011F00C9408
:104E4000AB3781E00E9464410E94B8A90C94F4370A
:104E50008C3AE1E09E0709F499C36CF4843A21E0AE
:104E6000920711F40C94D330853A914011F40C94CC
:104E7000E8310C94AB37843F41E0940711F40C9473
:104E80007B32853F914011F00C94AB370F949724FF
:104E90000C94F4378E3BA2E09A0711F40C9411366F
:104EA000DCF48835E2E09E0711F40C94A4323CF463
:104EB000883F914011F40C9481320C94AB378B35C0
:104EC00032E0930711F40C9479348D3B924011F445
:104ED0000C9402350C94AB378B3853E0950711F4E2
:104EE0000C94F4376CF48335B3E09B0711F40C9405
:104EF000D9368438934011F40C943F370C94AB3777
:104F0000803AF3E09F0709F4C7C1873E934011F44C
:104F10000C9496370C94AB37A0901015B0901115E7
:104F200080E50E947150882359F00E94B34F6B01B5
:104F30007C0111E0672B682B692B31F410E004C071
:104F400010E0C12CD12C760183E50E94715088239A
:104F500011F40C94FD370E94F34F20E030E04AE753
:104F600054E40F9497360F944A3E6B017C01111163
:104F70000BC0672B682B692B39F4A114B10421F005
:104F8000D5018C91811102C010E001C011E00E9496
:104F9000F1D5112329F061E0C5010E94859605C075
:104FA00060E08DEC93E00E94499683E08093D70DFA
:104FB00081E08093D60DC114D104E104F10449F1DC
:104FC0000E94528FC60ED71EE81EF91E0E94528FF5
:104FD000DC01CB018C199D09AE09BF09B7FD11C0D9
:104FE000809182038823E9F019821A821B821C8235
:104FF0008FE78D83CE0101960E9408DB1092820319
:1050000010C08091D60D882359F380E00E94EB6890
:10501000DDCF8091D60D882319F380E00E94EB68E4
:10502000F8CF0E9481BD1092D60D0C94F4370E94E7
:10503000A13C0C94F437EEEEF3E084918F010F5F06
:105040001F4F882321F00E945751F801F6CF10928C
:10505000730A40E050E0BA0186E298E00E9444E51D
:1050600062E278E0CE0101960E94C96140E050E022
:10507000BE016F5F7F4F80E090E00E94A2BBCE0137
:1050800001960E946968EFEDF3E084918F010F5F54
:105090001F4F882311F40C94F4370E945751F801E4
:1050A000F4CF0E9463DB0C94F437E0911015F0917B
:1050B00011158081882329F0803209F410823196FD
:1050C000F8CF40E061E080911015909111150E9499
:1050D0005FD80C94F43780E090E0A0E2B1E48983DB
:1050E0009A83AB83BC8318A219A21AA21BA21CA686
:1050F0001DA61EA61FA68091370D882359F020E01B
:10510000AE014F5F5F4FBE01605E7F4FCE018C9658
:105110000E94E7FC8091D007882319F081E08093FA
:10512000CF070F94EE110C94F4378091D0078823A9
:1051300011F40C94F43783E50E94715081110C94A2
:1051400002380C94F43783E40E942A50882309F42F
:105150006CC0EEE0F4E084918F010F5F1F4F882355
:1051600021F00E945751F801F6CF8091C1098823A0
:1051700051F1BE016F5F7F4F8EEB99E00E944AEBC9
:105180008E010F5F1F4FF80181918F01882319F065
:105190000E945751F8CFBE016F5F7F4F80E090E0D3
:1051A0000E9462D78091DF078823D1F180E20E94BC
:1051B00057510FED17E0D8018D918D01882381F1B2
:1051C0000E945751F8CFE4E0F4E084918F010F5F23
:1051D0001F4F882329F10E945751F801F6CF809183
:1051E000CF0A882309F447C177E5C72E74E0D72E8C
:1051F000E12CF12C20E08091CF0A90E00E2C02C02F
:10520000959587950A94E2F780FD1DC1FFEFEF1A8F
:10521000FF0A32E0C30ED11C45E0E416F10459F751
:105220008AE00E9457510C94F43783E50E94715034
:10523000882301F10E94D34F182F8D3308F01CE30F
:1052400010936C040E94528F6B017C01212F30E07F
:10525000A8EEB3E00F94F13CC60ED71EE81EF91E6F
:10526000C0926804D0926904E0926A04F0926B04E0
:105270000C94F4370E941CB90C94F43740E060E0C1
:1052800080911015909111150E945FD80C94F437FD
:105290000E94D7830C94F4378091101590911115CA
:1052A00021E02093CE0740E060E00E945FD80C949C
:1052B000F4370F94452168A379A38AA39BA3BE0169
:1052C0006F5F7F4FCE0180960E947D5060E0CE01DF
:1052D00001960E948596E5E7F3E284918F010F5FC6
:1052E0001F4F882321F00E945751F801F6CFBE01CD
:1052F0006F5F7F4F8DE194E00F9456118AE00E941A
:1053000057510C94F43783E50E947150882311F4AF
:105310000C94F4370E94D34FE82E80E50E94715020
:10532000882339F00E94D34F182F87FF03C00C94B5
:10533000F4371DE0EAE2F4E08DE28E0F9491191744
:1053400011F40C94133831968E13F8CF0C94163850
:105350000E94677D0C94F4370F9479210C94F437F4
:105360000F947E110C94F4370E944E7C0C94F43709
:1053700088E690E00E947B5481110C94F437809170
:10538000CF0A83FF02C00C94F43783E50E9471506A
:105390008823C9F00E94F34F0F94453E70939B0DF4
:1053A00060939A0D80E00F942E040E94F34F20E04A
:1053B00030E04AEA52E40F943236181624F00F9483
:1053C0007E110E9481BD0F944F120C94F4378EE42D
:1053D0000E947150882311F40C94F4370E94C34F3B
:1053E0006093330D7093340D8093350D9093360D8B
:1053F0000C94F43783E50E942A50882359F083E502
:105400000E947150882319F00E94D34F01C080E0A0
:105410008093CF0AE5E7F3E284918F010F5F1F4F7E
:10542000882321F00E945751F801F6CFE5E6F4E019
:1054300084918F010F5F1F4F882309F4D0CE0E9403
:105440005751F801F5CFBB24B394B20E222319F0C3
:105450008CE20E945751F60125913491F901849113
:1054600089010F5F1F4F882321F00E945751980137
:10547000F5CF2B2DCBCEE1E6F4E084918F010F5FC9
:105480001F4F882309F4CCCE0E945751F801F5CF65
:105490000E940BAE0C94F4370E94317C1092D70D11
:1054A0000C946D3A0E9470B00C94F4370E9435AEA3
:1054B0000C94F4370E94A3B20C94F43780E50E9458
:1054C0007150811106C010929D0D10929C0D0C948C
:1054D000F4370E94C34F672B11F00C94F437F3CFCD
:1054E0000E9443F70C94F4370E9469AD0C94F43792
:1054F000109286030C94F43781E0809386030C9419
:10550000F4370E94EEAC0C94F4370E94D6AC0C94A5
:10551000F4370E944CAC0C94F4370E9446F80C947B
:10552000F4370E9439F80C94F4370F944E220C94FF
:10553000F43781E080932C0580932B050F94E921AB
:105540000C94F43710922C0510922B050F94E9213E
:105550000C94F4370E9494AD0C94F4370E94C6F674
:105560000C94F4370E947DF60C94F4370E9436F6C2
:105570000C94F4370E94BFF50C94F4370E9420F588
:105580000C94F4370E94F7F40C94F4370E94A5F1C0
:105590000C94F4370E940DF40C94F4370E9498F3A5
:1055A0000C94F4370E94E8F20C94F43783E50E94DF
:1055B0007150882319F00E94C34F02C064E071E06B
:1055C00079A368A380E50E947150882339F00E9476
:1055D000C34F693853E1750730F402C068EE73E0D9
:1055E0007A83698304C088E893E19A838983BE0142
:1055F000605E7F4FCE0101960E94A5DC0C94F437CB
:1056000085E40E947150811110C080E50E942A50EB
:10561000882391F00E94F34F6093C6067093C706EB
:105620008093C8069093C90607C00E94D34F882371
:1056300061F3EBE6F6E26FC089E40E942A5088230A
:1056400081F00E94F34F2CEA35EC47E25EE30F94C1
:1056500097366093CE067093CF068093D0069093D2
:10566000D10684E40E942A50882381F00E94F34FDF
:105670002CEA35EC47E25EE30F94DD3D6093CA0609
:105680007093CB068093CC069093CD06E5E7F3E2CA
:1056900084918F010F5F1F4F882321F00E94575183
:1056A000F801F6CF4091C6065091C7066091C80632
:1056B0007091C90684E794E00F9420112CEA35EC30
:1056C00047E25EE36091CE067091CF068091D006EE
:1056D0009091D1060F94DD3DAB01BC0180E794E0D1
:1056E0000F9420112CEA35EC47E25EE36091CA0684
:1056F0007091CB068091CC069091CD060F94973691
:10570000AB01BC018CE694E00F9420118AE00E946A
:1057100057510C94F43784918F010F5F1F4F8823EA
:1057200021F00E945751F801F6CFE8E7F4E08491A8
:105730008F010F5F1F4F882311F40C94F4370E94E0
:105740005751F801F4CF85E40E947150882321F06D
:105750000E94C34F7B0102C0E12CF12C83E40E9424
:105760007150882331F00E94C34FEB966FAFEB97D7
:1057700004C025E0EB962FAFEB9785E50E947150B2
:10578000882319F00E94E44F03C085E50E942A5047
:10579000CA57DF4F8883C658D040F7FC07C0812C1A
:1057A000912C66E1A62E63E4B62E06C0812C912CC6
:1057B0005CE8A52E52E4B52E83E50E947150882343
:1057C00021F00E94F34F4B015C01E114F10411F44C
:1057D00010922D0EECAE0E94528F2B013C010CADAD
:1057E000001F0027001F82E0801B082F61E06E0D64
:1057F000623070F0E9E2F6E084918F010F5F1F4F95
:10580000882311F40C94F4370E945751F801F4CF17
:10581000E3E5F6E084917F013FEFE31AF30A882382
:1058200021F00E945751F701F5CF0F9479044CAD48
:1058300047FF04C08FE780932C0E08C05CADE52FB6
:10584000550FFF0BE55DF14F8FE78083C501B40174
:105850000F94453E072E000C880B990B0F94383699
:1058600029966FAF29972D967FAF2D9761968FAFB1
:10587000619765969FAF6597802F90E0A301920195
:10588000205D3A484F4F5F4FC157DF4F2883398320
:105890004A835B83CF58D04021E020932902C2582D
:1058A000DF4F488259826A827B82CE57D040C957E7
:1058B000DF4F488259826A827B82C758D040EE9679
:1058C0001FAEEE97C557DF4F188219821A821B82CE
:1058D000CB58D040E1961FAEE19730E4A1963FAFA0
:1058E000A1974CE1A5964FAFA59756E4A9965FAF57
:1058F000A997E5961FAEE597E6961FAEE697E79661
:105900001FAEE797E8961FAEE897A0961CAE1DAEB7
:105910001EAE1FAEA0976C961CAE1DAE1EAE1FAE87
:105920006C97C12CD12C76012FE730E040E050E09D
:1059300028962CAF3DAF4EAF5FAF28973FE7832E41
:10594000912CA12CB12CCE57DF4F188219821A82CC
:105950001B82C258D04031E0ED963FAFED97AE9636
:105960001FAE1EAEAE9710E0212C312C00E04CADE6
:10597000242F440F330BD901A55DB14FCD56DF4F16
:10598000B983A883C359D040220F331F220F331F7E
:10599000F901E356F54FEA96FFAFEEAFEA979C01A7
:1059A000092E000C440B550BCB56DF4F288339834F
:1059B0004A835B83C559D0400B969C01990F440BD9
:1059C000550BC756DF4F288339834A835B83C959F8
:1059D000D040EB964FADEB97042E000C550BEC9698
:1059E0005FAF4EAFEC9780912902882309F438C14C
:1059F0000E94528F24966CAF7DAF8EAF9FAF2497DD
:105A00008091280E882309F407C10F9439055CADF5
:105A100057FF09C01091990A20909A0A30909B0A6A
:105A200000919C0A0DC0EA96AEADBFADEA971C91FD
:105A300011962C90119712963C90129713960C91F8
:105A4000212F322D432D502FE5966FADE597E69629
:105A50007FADE697E7968FADE797E8969FADE8971D
:105A60000F94323687FF0CC0E5961FAFE597E69698
:105A70002FAEE697E7963FAEE797E8960FAFE89729
:105A8000212F322D432D502FE1966FADE197A19636
:105A90007FADA197A5968FADA597A9969FADA99724
:105AA0000F94283F181664F4E1961FAFE197A19672
:105AB0002FAEA197A5963FAEA597A9960FAFA99730
:105AC000ED96BFADED9729962FAD29972D963FAD59
:105AD0002D9761964FAD619765965FAD6597612F84
