:100000000C94791B0C9499590C946E590C94435987
:100010000C9418590C94ED580C94C2580C949758A1
:100020000C946C580C9428BD0C9401BD0C94DABC53
:100030000C94AA1B0C9405560C94AA1B0C94AA1B96
:100040000C94AA1B0C94D1F60C94AA1B0C94AA1B1A
:100050000C94AA1B0C94AA1B0D948B1E0C94225872
:100060000C94AA1B0C9408490C94AA1B0C94AA1B70
:100070000C94AA1B0C94AA1B0C94AA1B0C94AA1BEC
:100080000C94EAF80C94AA1B0C94AA1B0C94AA1BBF
:100090000C94AA1B0C94AA1B0C94AA1B0C94AA1BCC
:1000A0000C94AA1B0C94AA1B0C94BDF80C94AA1BCC
:1000B0000C94AA1B0C94AA1B0C94AA1B0C9490F8E9
:1000C0000C94AA1B0C94AA1B0C94AA1B0C94AA1B9C
:1000D0000C94AA1B0C94AA1B0C94AA1B0C94AA1B8C
:1000E0000C94AA1B3B49414952495D4965497A49EB
:1000F00069497A496D4971497A497749705573550B
:10010000625566556C55AA5577557B558155855571
:1001100089558F5593559755AA559D55A155A55568
:1001200019571E5723572D573757B057415749571F
:1001300051575B5765576F577E578857B05792573F
:100140009C57A657D072B672B972BC72BF72CB728E
:10015000C272DC72C572C872084AD73B3BCE016ED0
:1001600084BCBFFDC12F3D6C74319ABD56833DDA0E
:100170003D00C77F11BED9E4BB4C3E916BAAAABE1D
:10018000000000803F05A84CCDB2D44EB93836A946
:10019000020C50B9918688083CA6AAAA2ABE000083
:1001A00000803F000D9409270D9456250D945B2582
:1001B0000D9451250D94F3220D94250F0D94280FC5
:1001C0000D9498150D9435250D942D250D94220F21
:1001D0000D94A9150D94A2320D9405270D94B00924
:1001E0000D9401270D94290F0D94AE090D94D5326D
:1001F0000D9431250D9439250D948F220D94B20C58
:100200000D9496250D94200F4E414E494E49545958
:10021000494E46CDCCCC3D0AD7233C17B7D13877D1
:10022000CC2B329595E6241FB14F0A0000204100E7
:1002300000C84200401C4620BCBE4CCA1B0E5AAE31
:10024000C59D7400407A10F35A00A0724E18090040
:1002500010A5D4E80000E87648170000E40B54022B
:100260000000CA9A3B000000E1F505000080969866
:1002700000000040420F000000A0860100000010B6
:100280002700000000E803000000006400000000F8
:10029000000A00000000000100000000002C76D8D9
:1002A00088DC674F0823DFC1DFAE59E1B1B796E5BF
:1002B000E3E453C63AE651997696E8E6C28426EB23
:1002C000898C9B62ED407C6FFCEFBC9C9F40F2BA36
:1002D000A56FA5F490055A2AF75C936B6CF9676DCE
:1002E000C11BFCE0E40D47FEF520E6B500D0ED9023
:1002F0002E0300943577050080841E080000204EF0
:100300000A000000C80C333333330F986E12831188
:1003100041EF8D2114893BE65516CFFEE6DB18D15F
:10032000844B381BF77C1D901DA4BBE42420328431
:10033000725E228100C9F124ECA1E53D27434F4DB7
:100340004D554E49434154494F4E00445259525520
:100350004E004552524F525300494E464F004543BE
:10036000484F0047322F473320626164207061722A
:10037000616D65746572730A005265706F732E2E1D
:100380002E004F726967696E65205859205072655A
:100390006D6965720A004F726967696E6520585908
:1003A000205072656D69657200205A3A200020590C
:1003B0003A200042656420583A20004D6573682059
:1003C000706F696E742063616E6E6F742062652059
:1003D0007265736F6C7665640A00417474656E2E85
:1003E000206465206C277574696C2E004D6F7465F0
:1003F00075727320626C6F717565732E00456E6443
:100400002066696C65206C6973740A0042656769CF
:100410006E2066696C65206C6973740A004D313218
:100420003500286E6F2066696C652900437572720D
:10043000656E742066696C653A200043616E6E6F6C
:1004400074206F70656E207375626469722000504D
:1004500072696E742074696D653A20000001363748
:100460002603FFFFFF353C3D380EFFFFFF312E30E6
:100470003E12FFFFFFFF28FF0C0809FFFFFF1A1CB9
:1004800018FFFF2A08440AFF4346696C616D656ED8
:100490007420757365643A200053746174733A2054
:1004A000002C204C6F6E67657374206A6F623A206F
:1004B00000546F74616C2074696D653A2000537448
:1004C0006174733A20002C204661696C65643A209F
:1004D000002C2046696E69736865643A200050728A
:1004E000696E74733A200053746174733A20005E2D
:1004F00003590352034B033D036F666600444542B4
:1005000055473A004D3131332053006F6B0020576F
:100510003A004520436F6F6C696E672E2E2E0045A2
:1005200020456E20636861756666652E2E2E00205C
:10053000573A0042656420636F6F6C696E672E2EB8
:100540002E004C697420656E20636861756666656F
:100550002E2E2E0020643A0020693A0020703A00C6
:10056000496E76616C696420657874727564657231
:100570000A0020643A0020693A0020703A00436182
:100580007365206C696768743A2000436173652065
:100590006C696768743A206F66660A004D65736817
:1005A00020706F696E742063616E6E6F7420626577
:1005B000207265736F6C7665640A004D34323120A9
:1005C000696E636F727265637420706172616D65CC
:1005D0007465722075736167650A00454550524F16
:1005E0004D204F4B0A003A200050726F6265205A2E
:1005F000204F6666736574003F5A206F7574206FD4
:10060000662072616E676520282D313020746F205E
:100610003130290A00416374697665204578747227
:10062000756465723A2000496E76616C6964206574
:10063000787472756465720A002569730025696DA6
:1006400020256973002569682025696D2025697357
:1006500000256964202569682025696D2025697356
:100660000025697920256964202569682025696D40
:1006700020256973004E6F20436865636B73756D49
:100680002077697468206C696E65206E756D62658F
:10069000722C204C617374204C696E653A200053B3
:1006A000544F5050452E005072696E74657220731D
:1006B000746F707065642064756520746F20657256
:1006C000726F72732E204669782074686520657297
:1006D000726F7220616E6420757365204D393939EF
:1006E00020746F20726573746172742E20285465B3
:1006F0006D706572617475726520697320726573BF
:1007000065742E2053657420697420616674657267
:100710002072657374617274696E67290A004E6F86
:1007200020436865636B73756D2077697468206C0E
:10073000696E65206E756D6265722C204C617374F4
:10074000204C696E653A2000636865636B73756D54
:10075000206D69736D617463682C204C6173742023
:100760004C696E653A20004C696E65204E756D626D
:100770006572206973206E6F74204C617374204C15
:10078000696E65204E756D6265722B312C204C614F
:100790007374204C696E653A20004D313130004D44
:1007A00033310053442072656164206572726F7248
:1007B0000A004D30205331383030005465726D6975
:1007C0006E65657300446F6E65207072696E746942
:1007D0006E672066696C650A0020496E76616C69F7
:1007E00064206578747275646572200000000000F2
:1007F00000000000000000000000D7430000A043FC
:100800000000964353544F5050452E005072696E6D
:100810007465722073746F707065642064756520F0
:10082000746F206572726F72732E2046697820741F
:100830006865206572726F7220616E6420757365E1
:10084000204D39393920746F207265737461727468
:100850002E202854656D706572617475726520690B
:10086000732072657365742E20536574206974203B
:1008700061667465722072657374617274696E6703
:10088000290A0053544F502063616C6C65642062E8
:10089000656361757365206F6620424C546F7563A4
:1008A00068206572726F72202D2072657374617298
:1008B000742077697468204D3939390A0024F4D4DA
:1008C0003050C38E20C2A24017828B7011127A91D1
:1008D0000D816CD90AA861E108C7586607615143C8
:1008E000061E4B5D05C145A7041A411104093D9838
:1008F00003713931034036DB0265339102D4305441
:1009000002802E1D02632CEE01752AC501B028A0BD
:1009100001102781018F2564012B244B01E0223433
:1009200001AC211F018D200D01801FFC00841EEDF4
:1009300000971DDF00B81CD200E61BC600201BBCC0
:1009400000641AB200B219A8000A19A0006A189926
:1009500000D117910040178B00B516840031167E28
:1009600000B31579003A157300C7146F0058146A64
:1009700000EE1366008813630025135E00C7125B48
:10098000006C12570015125400C111510070114F24
:100990000021114B00D61049008D1047004610442D
:1009A0000002104200C00F4000800F3E00420F3C8A
:1009B00000060F3B00CB0E3800930E37005C0E355F
:1009C00000270E3400F30D3200C10D3100900D30C0
:1009D00000600D2E00320D2D00050D2C00D90C2BC2
:1009E00000AE0C2900850C29005C0C2700350C2773
:1009F000000E0C2600E80B2400C40B2400A00B23DF
:100A0000007D0B23005A0B2100390B2100180B200D
:100A100000F80A1F00D90A1E00BB0A1E009D0A1D0D
:100A200000800A1D00630A1C00470A1B002C0A1BD9
:100A300000110A1A00F7091A00DD091900C4091982
:100A400000AB091900920917007B09180063091708
:100A5000004C09160036091600200916000A09156F
:100A600000F5081500E0081400CC081400B80814BC
:100A700000A4081400900813007D0812006B0813EE
:100A8000005808120046081200340811002308110B
:100A9000001208110001081100F0071000E0071013
:100AA00000D0071000C0071000B0070F00A107100A
:100AB0000091070E0083070F0074070F0065070EF3
:100AC0000057070E0049070E003B070D002E070ECA
:100AD0000020070D0013070D0006070D00F9060C96
:100AE00000ED060D00E0060C00D4060C00C8060C54
:100AF00000BC060C00B0060C00A4060B0099060C06
:100B0000008D060B0082060B0077060B006C060BAF
:100B10000061060A0057060B004C060A0042060A4E
:100B20000038060A002E060A0024060A001A060AE1
:100B3000001006090007060A00FD050900F4050972
:100B400000EB050900E2050900D9050900D00509F7
:100B500000C7050900BE050900B5050800AD050878
:100B600000A50509009C050800940508008C0508EF
:100B700000840508007C050800740508006C050762
:100B800000650508005D050700560508004E0507CD
:100B90000047050700400508003805070031050734
:100BA000002A050700230507001C05060016050797
:100BB000000F0507000805060002050700FB0406F4
:100BC00000F5040700EE040600E8040600E204074E
:100BD00000DB040600D5040600CF040600C90406A5
:100BE00000C3040600BD040600B7040600B10405F6
:100BF00000AC040600A6040600A00405009B040641
:100C00000095040500900406008A0405008504058B
:100C100000800406007A04050075040500700405D0
:100C2000006B04050066040500610405005C040512
:100C30000057040500520405004D04050048040552
:100C400000430405003E0404003A04050035040591
:100C500000300404002C04050027040400230405CC
:100C6000001E0404001A0404001604050011040404
:100C7000000D040400090405000404040000040439
:100C800000FC030400F8030400F4030400F0030470
:100C900000EC030400E8030400E4030400E00304A0
:100CA00000DC030400D8030400D4030400D00304D0
:100CB00000CC030400C8030300C503030024F404AC
:100CC000D9201BC40C5C0E9804C4095F026507712F
:100CD00001F405F900FB04B30048048700C103696F
:100CE000005803550003034500BE023A0084023158
:100CF0000053022A002902250004022000E4011CFE
:100D000000C8011900AF01170098011400840113F5
:100D100000710110006101100051010E0043010D2E
:100D20000036010B002B010B0020010B00150109FF
:100D3000000C01090003010800FB000800F3000893
:100D400000EB000700E4000600DE000600D8000605
:100D500000D2000600CC000500C7000500C2000557
:100D600000BD000400B9000400B5000400B1000497
:100D700000AD000400A9000400A5000300A20003C8
:100D8000009F0004009B00030098000300950002F0
:100D90000093000300900003008D0002008B00030D
:100DA0000088000200860002008400030081000227
:100DB000007F0002007D0002007B0002007900023B
:100DC000007700010076000200740002007200014A
:100DD00000710002006F0002006D0001006C000253
:100DE000006A00010069000200670001006600015E
:100DF0000065000100640002006200010061000162
:100E000000600001005F0002005D0001005C000165
:100E1000005B0001005A0001005900010058000168
:100E20000057000100560001005500010054000168
:100E30000053000000530001005200010051000166
:100E400000500001004F0001004E0000004E000164
:100E5000004D0001004C0001004B0000004B000160
:100E6000004A00010049000100480000004800015C
:100E70000047000100460000004600010045000058
:100E80000045000100440001004300000043000150
:100E9000004200000042000100410000004100014A
:100EA00000400001003F0000003F0001003E000044
:100EB000003E0001003D0000003D0001003C00003C
:100EC000003C0000003C0001003B0000003B000132
:100ED000003A0000003A000100390000003900012A
:100EE0000038000000380000003800010037000022
:100EF0000037000100360000003600000036000117
:100F0000003500000035000000350001003400000D
:100F10000034000000340001003300000033000002
:100F200000330001003200000032000000320001F6
:100F300000310000003100000031000100300000ED
:100F40000030000000300001002F0000002F0000E2
:100F5000002F0000002F0001002E0000002E0000D6
:100F6000002E0001002D0000002D0000002D0000CB
:100F7000002D0001002C0000002C0000002C0000BF
:100F8000002C0001002B0000002B0000002B0000B3
:100F9000002B0001002A0000002A0000002A0000A7
:100FA000002A00010029000000290000002900009B
:100FB000002900000029000100280000002800008E
:100FC0000028000000280000002800010027000081
:100FD0000027000000270000002700000027000174
:100FE0000026000000260000002600000026000069
:100FF000002600010025000000250000002500005B
:10100000002500000025000000250001002400004C
:10101000002400000024000000240000002400013F
:101020000023000000230000002300000023000034
:101030000023000000230000002300010022000024
:101040000022000000220000002200000022000018
:10105000002200010021000000210000002100000A
:1010600000210000002100000021000000210001FB
:1010700000200000002000000020000000200000F0
:1010800000200000002000000020000000200001DF
:10109000001F0000001F0000001F0000001F0000D4
:1010A000001F0000001F0000001F0001001E0000C4
:1010B000001E0000001E0000001E000000122B0099
:1010C0000014220000091800001C0F0000AE0800E8
:1010D00000AF040000710200003E0100004D4F52BD
:1010E000542E00202D20496E76616C69642065784D
:1010F000747275646572206E756D62657220210A66
:10110000002020506C616E6E657242756666657275
:1011100042797465733A20002046726565204D65FA
:101120006D6F72793A2000436F6D70696C65643A37
:101130002041756720313420323031380A00207C5C
:1011400020417574686F723A20286E6F6E652C208E
:101150005343414C415220584C50205636290A00E6
:10116000323031382D30372D333100204C617374DB
:1011700020557064617465643A2000312E312E3937
:101180000A004D61726C696E0020536F667477615E
:1011900072652052657365740A0020576174636834
:1011A000646F672052657365740A002042726F771E
:1011B0006E206F75742052657365740A002045783F
:1011C0007465726E616C2052657365740A00506FAD
:1011D00077657255700A0073746172740A006175E4
:1011E000746F25692E67006572726F72207772695D
:1011F00074696E6720746F2066696C650A004275B9
:10120000746565732025632025632025632025638D
:1012100000205A3A0020593A0020583A00656E647E
:1012200073746F7073206869743A2000446F6E6540
:1012300020736176696E672066696C652E0A004DC1
:1012400032390000002100240027002A002D003040
:1012500000330001010000040107010A0100002021
:10126000002300260029002C002F0032000001007E
:101270000003010601090100000A0B02090C0D0E12
:101280000807030401000000000000000000000047
:10129000000000000000000000000000000000004E
:1012A000000000121110000000000000000000000B
:1012B00000000000000000000000000000024F726B
:1012C0006967696E652025732573257320507265E3
:1012D0006D69657200205072656D6965720A005A09
:1012E00000590058004F726967696E6520005344C9
:1012F0002063617264206F6B0A006F70656E526FBD
:101300006F74206661696C65640A00766F6C756D38
:10131000652E696E6974206661696C65640A0053A4
:101320004420696E6974206661696C0A00577269AD
:1013300074696E6720746F2066696C653A20006F6F
:1013400070656E206661696C65642C2046696C6509
:101350003A20006F70656E206661696C65642C20B0
:1013600046696C653A200046696C652073656C655A
:10137000637465640A002053697A653A20004669FF
:101380006C65206F70656E65643A20002066696C3C
:10139000653A2000646F696E670066726573680065
:1013A0004E6F772000454E4420535542524F5554BE
:1013B000494E450A002220706F730022207061722E
:1013C000656E743A2200535542524F5554494E456A
:1013D0002043414C4C207461726765743A22004D81
:1013E0004F52542E00747279696E6720746F2063B7
:1013F000616C6C207375622D67636F64652066692C
:101400006C6573207769746820746F6F206D616EEE
:1014100079206C6576656C732E204D4158206C6583
:1014200076656C2069733A004572726F723A006F8C
:1014300070656E206661696C65642C2046696C6518
:101440003A20002020427573653A2000636861727B
:1014500067656D656E742066696C616D656E74009C
:10146000417474656E746520646500202042757354
:10147000653A20005075726765722066696C616D0F
:10148000656E7400417474656E746500706F75727A
:101490002072657072656E64726500417474656E69
:1014A000746520696D7072657373696F6E00436156
:1014B0007274652072657469726565004361727447
:1014C0006520696E73657265650052657374617538
:1014D0007265722064656661757473004C6972652B
:1014E00020636F6E66696700496E697469616C6933
:1014F00073657220454550524F4D005361757665B6
:101500007220636F6E66696700424C546F75636842
:101510000046696C616D656E74004D6F7576656D22
:10152000656E740054656D706572617475726500E6
:101530004D656E75207072696E636970616C004DE7
:101540003330332055312045256920532569005219
:1015500065676C2E2070726563682E2041425300CF
:101560005265676C2E2070726563682E20504C4166
:1015700000504944204175746F74756E6500504980
:1015800044204175746F74756E65005049442D4454
:10159000005049442D44005049442D4900504944CD
:1015A0002D49005049442D50005049442D5000020F
:1015B000204661637465757200022046616374653C
:1015C00075720002204D61780002204D61780002A2
:1015D000204D61780002204D696E0002204D696E39
:1015E0000002204D696E004172726574004D617297
:1015F0006368650054656D702E204175746F2E0010
:10160000566974657373652076656E74696C2E0017
:10161000566974657373652076656E74696C2E0007
:101620004C6974004C6974004275736500427573AF
:101630006500436F6E74726F6C65720053617576EE
:10164000657220636F6E666967004C6974004C694F
:101650007400427573650042757365005669746560
:101660007373652076656E74696C2E0056697465B7
:101670007373652076656E74696C2E0054656D70A9
:10168000657261747572650050533A310A005053A7
:101690003A300A005363616C617220584C5020410B
:1016A000727265742E00205A3A0020593A00204385
:1016B0006F756E7420583A0020453A00205A3A005F
:1016C00020593A00583A004469666665723A20002B
:1016D00046726F6D5374703A005374657070657222
:1016E0003A00556E4C6576656C3A004C6576656CD3
:1016F00065643A005261773A20202020000A4C6F3E
:10170000676963616C3A003A004361703A0054487B
:1017100045524D414C5F50524F54454354494F4EF2
:10172000004155544F5245504F52545F53445F53FC
:10173000544154555300454D455247454E43595F1A
:1017400050415253455200434153455F4C4947482D
:10175000545F4252494748544E45535300544F47F3
:10176000474C455F4C494748545300534F465457E4
:101770004152455F504F574552004255494C445FD6
:1017800050455243454E54004C4556454C494E47F2
:101790005F44415441005A5F50524F424500415509
:1017A000544F4C4556454C005052494E545F4A4F99
:1017B000420050524F4752455353004155544F52E7
:1017C00045504F52545F54454D5000564F4C554D67
:1017D000455452494300454550524F4D00534552E0
:1017E00049414C5F584F4E5F584F4646004649525C
:1017F0004D574152455F4E414D453A4D61726C69BE
:101800006E20312E312E392028476974687562297F
:1018100020534F555243455F434F44455F55524C0B
:101820003A68747470733A2F2F6769746875622E02
:10183000636F6D2F4D61726C696E4669726D776171
:1018400072652F4D61726C696E2050524F544F4338
:101850004F4C5F56455253494F4E3A312E30204D32
:10186000414348494E455F545950453A5363616C72
:10187000617220584C502045585452554445525F8F
:10188000434F554E543A3120555549443A33396304
:1018900065666634342D383863612D313165362DF7
:1018A000616532322D353662366236343939363139
:1018B000310A002F2F200020540020520041636382
:1018C000656C65726174696F6E3A2050003F4A2002
:1018D0006F7574206F662072616E67652028302EE8
:1018E000303120746F20302E33290A00205A002016
:1018F0005900580020204D61783A2000205A0020DD
:101900005900580020204D696E3A20004D617263E5
:10191000686500417272657400536F667420656E6D
:101920006473746F70733A200020466C6F773A20AE
:10193000004739322045300A4731204636303020C2
:10194000453130300A4739322045300A4D31313780
:1019500020557365722053637269707420446F6EF2
:1019600065004739322045300A473120463630304D
:1019700020452D3130300A4739322045300A4D316B
:101980003137205573657220536372697074204437
:101990006F6E65004D3130362053300A4D3131378E
:1019A00020557365722053637269707420446F6EA2
:1019B00065004D31303620533132370A4D313137E1
:1019C00020557365722053637269707420446F6E82
:1019D00065004D31303620533235350A4D313137BF
:1019E00020557365722053637269707420446F6E62
:1019F000650046616E2035302050657263656E74F7
:101A00000046616E204F66660052657472616374B1
:101A1000203130306D6D0046616E20313030205005
:101A2000657263656E7400457874727564657220C2
:101A30003130306D6D004D656E75207072696E636A
:101A40006970616C004D313235004D323400496DA2
:101A500070722E20416E6E756C656500506173204A
:101A6000646520636172746500496D70722E206434
:101A700065707569732053440041727265746572B4
:101A800020696D70722E0052657072656E647265A9
:101A900020696D70722E00496E666F7320696D70DB
:101AA00072696D616E746500496E746572726F6DF6
:101AB00070726520696D70722E00436F6E74726F64
:101AC0006C65720050726570617265720052656774
:101AD0006C6572004C756D69657265206361697330
:101AE000736F6E00436F6D6D616E6465732070651A
:101AF00072736F005375727665696C6C6572004223
:101B000061627973746570205A004368616E67651D
:101B1000722066696C616D656E74004261627973F2
:101B2000746570205A00466C757800466C757800B4
:101B3000566974657373652076656E74696C2E00E2
:101B4000566974657373652076656E74696C2E00D2
:101B50004C6974004C69740042757365004275737A
:101B6000650048617574657572206C69737365658D
:101B70000048617574657572206C697373656500E2
:101B8000566974657373650056697465737365008F
:101B90004D656E75207072696E636970616C00428C
:101BA000696C696E656172204C6576656C696E67FB
:101BB00020477269643A0A00202844525952554E0F
:101BC0002900473239204175746F20426564204CEA
:101BD0006576656C696E67003F20284C2C522C4658
:101BE0002C4229206F7574206F6620626F756E64B9
:101BF000732E0A003F2856296572626F7365206C48
:101C00006576656C20697320696D706C61757369A8
:101C1000626C652028302D34292E0A004261642030
:101C20005A2076616C75650A004E6F2062696C6996
:101C30006E65617220677269640A0046696C65208E
:101C400064656C657465643A0044656C6574696FBD
:101C50006E206661696C65642C2046696C653A206B
:101C600000454550524F4D206461746173697A6537
:101C7000206572726F722E0A00290A002062797440
:101C800065733B20637263200053657474696E67EB
:101C9000732053746F726564202800290A00206243
:101CA000797465733B2063726320002073746F72D4
:101CB00065642073657474696E67732072657472ED
:101CC0006965766564202800202863616C63756C03
:101CD0006174656429210A0020213D20004545509A
:101CE000524F4D20435243206D69736D6174636898
:101CF000202D202873746F72656429200020536999
:101D00007A653A2000496E6465783A2000204D617A
:101D1000726C696E3D563535290A0028454550528A
:101D20004F4D3D00454550524F4D207665727369C9
:101D30006F6E206D69736D6174636820004A756E03
:101D40006374696F6E20446576004A756E637469CA
:101D50006F6E20446576004D6F7576656D656E74A7
:101D60000045207061732F6D6D0045207061732FE9
:101D70006D6D005A207061732F6D6D005A20706177
:101D8000732F6D6D0059207061732F6D6D00592098
:101D90007061732F6D6D0058207061732F6D6D0031
:101DA00058207061732F6D6D004D6F7576656D6590
:101DB0006E74005061732F6D6D004A65726B004147
:101DC0006363656C65726174696F6E0056656C6FF4
:101DD0006369746500446563616C616765205A00DE
:101DE000446563616C616765205A00436F6E74726D
:101DF0006F6C65720043686172676572206D6D007B
:101E000043686172676572206D6D00436861726737
:101E10006572206D6D00446563686172676572204C
:101E20006D6D00446563686172676572206D6D0059
:101E3000446563686172676572206D6D0044696115
:101E40006D2E2046696C2E004469616D2E20466916
:101E50006C2E004172726574004D6172636865009A
:101E60004520656E206D6D33004176616E6365209F
:101E70004B004176616E6365204B00436F6E747258
:101E80006F6C65720043616E6E6F7420656E746571
:101E900072207375626469723A2000052E2E004D1F
:101EA000656E75207072696E636970616C00436164
:101EB0006E6E6F74206F70656E20737562646972E8
:101EC00020006563686F3A00453120454D42414C22
:101ED0004C454D454E5420544845524D2E004245E8
:101EE0004420544845524D414C2052554E41574193
:101EF0005900546865726D616C2052756E6177612E
:101F000079005344207072696E74696E672062793B
:101F1000746520004E6F74205344207072696E7493
:101F2000696E670A00010210202008081020401086
:101F3000204080020102010804020101020408108D
:101F400020408080402010080402018004020180AB
:101F500040201008040201080402010102040810D4
:101F6000204080010204081020408000002200254B
:101F70000028002B002E0031003400020100000573
:101F80000108010B010505050507050808080802F9
:101F90000202020A0A080804040404010101010102
:101FA0000101010303030303030303040707070CF1
:101FB0000C0C0C0C0C0C0C020202020606060606A7
:101FC0000606060B0B0B0B0B0B0B0B20746F6F2015
:101FD0006C6F6E6720657874727573696F6E2070B0
:101FE000726576656E7465640A00627573793A206D
:101FF00070617573656420666F7220696E707574A8
:102000000A00627573793A207061757365642066A1
:102010006F7220757365720A00627573793A207069
:10202000726F63657373696E670A004D4F52542E69
:10203000004B494C4C2063617573656420627920C4
:102040004B494C4C20627574746F6E2F70696E0A28
:10205000004D4F52542E004B494C4C206361757318
:10206000656420627920746F6F206D7563682069E4
:102070006E6163746976652074696D65202D2063D7
:10208000757272656E7420636F6D6D616E643A2057
:102090000052615A2E2053565000494D50522E2066
:1020A00053544F50504545002F2F616374696F6E34
:1020B0003A706F7765726F66660A005072696E7467
:1020C00065722068616C7465642E206B696C6C2885
:1020D000292063616C6C6564210A00656E71756509
:1020E0007565696E67202200000000000000000096
:1020F000000000000000484200004842000080400C
:10210000000000005761726E696E673A20486F6D7B
:10211000696E672042756D702044697669736F72CD
:10212000203C20310A000202040000A0400000A070
:1021300040000000400000D7430000A0430000968C
:1021400043FFFFFF2F2F616374696F6E3A706175F3
:1021500073650A0048617264636F64656420446556
:102160006661756C742053657474696E6773204C76
:102170006F616465640A00F4010000F4010000036B
:10218000000000DC050000000016430000164300BC
:102190000040400000C8410000C8420000C84200A2
:1021A00000C84400001A434563686563206F726984
:1021B00067696E65007A5F6D696E3A2000795F6DC0
:1021C000696E3A2000785F6D696E3A200052657042
:1021D0006F7274696E6720656E6473746F702073BC
:1021E00074617475730A00FFFDFCFAF8F6F4F2F0FE
:1021F000EEECEAE9E7E5E3E1E0DEDCDAD9D7D5D4D5
:10220000D2D0CFCDCBCAC8C7C5C3C2C0BFBDBCBA70
:10221000B9B7B6B4B3B2B0AFADACAAA9A8A6A5A4DD
:10222000A2A1A09E9D9C9A99989795949392908F25
:102230008E8D8B8A8988878684838281807F7E7D4C
:102240007B7A797877767574737271706F6E6D6C56
:102250006B6A696867666564636261605F5E5D5C46
:102260005B5A5958585756555453525150504F4E27
:102270004D4C4B4A4A4948474646454443424241F1
:10228000403F3E3E3D3C3B3B3A39383837363535AA
:10229000343332323130302F2E2E2D2C2B2B2A2955
:1022A0002928272726252524232322212120201FF2
:1022B0001E1E1D1C1C1B1B1A191918181716161583
:1022C0001514131312121111100F0F0E0E0D0D0C09
:1022D0000C0B0A0A09090808070706060505040485
:1022E00003030202010000000000010000000100E1
:1022F000008000555555000000400033333300AADC
:10230000AA2A004992240000002000C7711C0099ED
:10231000991900D1451700555515003BB1130024FC
:1023200049120011111100000010000F0F0F00E3FF
:10233000380E0043790D00CCCC0C00C3300C00E803
:10234000A20B0064210B00AAAA0A00703D0A009D9E
:10235000D80900427B090092240900DCD3080088D8
:102360008808001042080000000800F0C10700873C
:1023700087070075500700711C07003EEB0600A19F
:10238000BC06006990060066660600703E060061A5
:1023900018060017F4050074D105005BB00500B203
:1023A000900500627205005555050078390500B8A2
:1023B0001E0500050505004EEC040087D40400A1AD
:1023C000BD040090A7040049920400C17D0400EE02
:1023D000690400C7560400444404005C3204000849
:1023E00021040041100400000004003FF00300F845
:1023F000E0030026D20300C3C30300CCB503003AB8
:10240000A803000A9B0300388E0300C08103009FCD
:10241000750300D0690300505E03001D53030034B0
:10242000480300913D0300333303001629030038AD
:102430001F030097150300300C0300030303000B78
:10244000FA020049F10200BAE802005CE002002D45
:10245000D802002DD0020059C80200B0C0020031DD
:10246000B90200DAB10200AAAA0200A0A30200BCCD
:102470009C0200FA9502005C8F0200DF8802008255
:10248000820200457C02002776020027700200438A
:102490006A02007C640200D05E02003F590200C85C
:1024A00053020000546F74616C2066696C616D6545
:1024B0006E743A2000256C642E25696D0000496D0C
:1024C00070722E206C61202B206C6F6E6775653AE0
:1024D00020000054707320696D70722E20746F7428
:1024E000616C3A20005465726D696E6565733A20BF
:1024F000004E62726520696D7072657373696F6EEC
:10250000733A200054656D70204D61783A20313463
:10251000300054656D70204D696E3A20350054428C
:1025200065643A31252062657461203339353000A5
:1025300054656D70204D61783A203237350054650E
:102540006D70204D696E3A20350054303A20415468
:10255000432031303447542D3200416C696D656E33
:10256000746174696F6E3A204154580050726F74F0
:102570006F636F6C653A20312E3000426175643AAA
:10258000203131353230300052414D505320312E00
:1025900034004E69766561752062696C696E6561AB
:1025A00069726500457874727564657572733A2056
:1025B0003100687474703A2F2F6D61726C696E66A9
:1025C000772E6F7267005363616C617220584C50B4
:1025D00000323031382D30372D333100312E312E4D
:1025E00039004D61726C696E0053746174732E20F2
:1025F000696D7072696D616E746500546865726DA5
:102600006973746F727300496E666F7320636172D1
:10261000746500496E666F7320696D7072696D61D3
:102620006E7465004D656E75207072696E636970B9
:10263000616C004465636861726765722066696CED
:102640002E004D3730320043686172676572206634
:10265000696C2E004D373031004368616E676572DA
:102660002066696C616D656E74004D3630302042B5
:102670003000507265706172657200494D50522E83
:102680002050415553450044454348415247455227
:102690002046494C00434841524745522046494C48
:1026A0000050757267657220656E636F72650052C7
:1026B000657072656E64726520696D70722E004F70
:1026C0005054494F4E5320524550524953453A00B9
:1026D0002020427573653A20006368616E676572F9
:1026E0000064752066696C616D656E740041747478
:1026F000656E74652044656D617272616765002066
:1027000020427573653A200064656368617267658D
:10271000722066696C616D656E7400417474656EDB
:102720007465206465002020427573653A2000506E
:10273000617469656E74657A205356502E2E2E0092
:102740004275736520656E20636861756666650015
:102750002020427573653A200050722063686175CD
:1027600066666572206C61206275736500507265E3
:1027700073736572206C6520626F75746F6E2E2E98
:102780002E002020427573653A2000706F7572200C
:10279000636F6E74696E7565722E2E2E00657420DF
:1027A0006170702E20626F75746F6E00496E736574
:1027B0007265722066696C616D656E740025753A8C
:1027C0002530327500253032753A25303275002DAE
:1027D0002D2D0053440020202020202000202020E8
:1027E00020005363616C617220584C5020707265F8
:1027F00074652E005072696E74696E672E2E2E00FD
:10280000496D70722E20656E207061757365004190
:1028100072726574004D6172636865004C756D6914
:102820006572652063616973736F6E004C756D69C5
:102830006E6F73697465004C756D696E6F73697442
:1028400065004D656E75207072696E636970616CAC
:102850000052616E67657220424C546F7563680068
:102860004D32383020503020533930004465706C80
:102870006F79657220424C546F756368004D323831
:102880003020503020533130004175746F746573BF
:102890007420424C546F756368004D3238302050BC
:1028A0003020533132300052615A20424C546F75FF
:1028B0006368004D323830205030205331363000BC
:1028C0004D656E75207072696E636970616C002071
:1028D000746F6F206C6F6E672065787472757369A2
:1028E0006F6E2070726576656E7465640A00507252
:1028F0006563686175666661676520504C41206656
:10290000696E690050726563682E20504C41206CDE
:1029100069740050726563686175666661676520F9
:10292000504C410050726570617265720050726562
:102930006368617566666167652041425320666918
:102940006E690050726563682E20414253206C69A5
:1029500074005072656368617566666167652041E1
:102960004253005072657061726572004D343238A6
:10297000004D383000457465696E64726520616C85
:10298000696D2E004D38310052615A20424C546F0F
:10299000756368004D323830205030205331363066
:1029A000004175746F7465737420424C546F756385
:1029B00068004D32383020503020533132300050D2
:1029C00072656368617566666167652041425300A0
:1029D00050726563686175666661676520504C4139
:1029E00000526566726F6964697200416C6C756D46
:1029F000657220616C696D2E004368616E67657257
:102A00002066696C616D656E7400417272657465F3
:102A100072206D6F7465757273004D3834005265A5
:102A2000676C2E20646563616C2E206F7269676924
:102A30006E650048617574657572206C69737365A5
:102A4000650048617574657572206C69737365659E
:102A5000004172726574004D617263686500526571
:102A6000676C2E204E69762E206C69740052656763
:102A70006C2E204E69762E206C6974004732380A1D
:102A8000473239004F726967696E65205A20417577
:102A9000746F2E00473238205A004F726967696E92
:102AA000652059204175746F2E0047323820590037
:102AB0004F726967696E652058204175746F2E00EA
:102AC0004732382058004F726967696E652061751A
:102AD000746F2E00473238004465706C6163657214
:102AE00020756E20617865004D656E752070726985
:102AF0006E636970616C00000021104220633084B5
:102B000040A550C660E770088129914AA16BB18C3D
:102B1000C1ADD1CEE1EFF13112100273325222B5C4
:102B2000529442F772D662399318837BB35AA3BD8D
:102B3000D39CC3FFF3DEE36224433420040114E694
:102B400064C774A44485546AA54BB528850995EEDD
:102B5000E5CFF5ACC58DD55336722611163006D7A4
:102B600076F6669556B4465BB77AA719973887DF2D
:102B7000F7FEE79DD7BCC7C448E5588668A77840EC
:102B800008611802282338CCC9EDD98EE9AFF9487D
:102B90008969990AA92BB9F55AD44AB77A966A7104
:102BA0001A500A333A122AFDDBDCCBBFFB9EEB79CD
:102BB0009B588B3BBB1AABA66C877CE44CC55C2254
:102BC0002C033C600C411CAEED8FFDECCDCDDD2A1D
:102BD000AD0BBD688D499D977EB66ED55EF44E13E4
:102BE0003E322E511E700E9FFFBEEFDDDFFCCF1B6D
:102BF000BF3AAF599F788F8891A981CAB1EBA10CD8
:102C0000D12DC14EF16FE18010A100C230E320044C
:102C100050254046706760B9839893FBA3DAB33DB3
:102C2000C31CD37FE35EF3B1029012F322D232359C
:102C300042145277625672EAB5CBA5A89589856E83
:102C4000F54FE52CD50DC5E234C324A014810466EC
:102C500074476424540544DBA7FAB79987B8975F93
:102C6000E77EF71DC73CD7D326F2369106B016573C
:102C7000667676154634564CD96DC90EF92FE9C8DB
:102C800099E9898AB9ABA94458654806782768C08C
:102C900018E1088238A3287DCB5CDB3FEB1EFBF9F3
:102CA0008BD89BBBAB9ABB754A545A376A167AF1DC
:102CB0000AD01AB32A923A2EFD0FED6CDD4DCDAA43
:102CC000BD8BADE89DC98D267C076C645C454CA22C
:102CD0003C832CE01CC10C1FEF3EFF5DCF7CDF9BD3
:102CE000AFBABFD98FF89F176E367E554E745E937C
:102CF0002EB23ED10EF01E7C3C3E5E2B3D3F2F5B44
:102D00005D3B2C2A225C004D3234004D32332025AD
:102D10007300556E6B6E6F776E20636F6D6D616EB5
:102D2000643A2022002F2F616374696F6E3A7265D6
:102D300073756D650A00496E736572742066696CFF
:102D4000616D656E7420616E6420707265737320AE
:102D5000627574746F6E20286F72204D313038297F
:102D60000A00456368656320736F6E64650A0045F9
:102D70006368656320736F6E646500205A3A2000B3
:102D800020593A200042656420583A200050726F62
:102D90007465637465642050696E0A005374616ED3
:102DA0006461726420446576696174696F6E3A206B
:102DB000002052616E67653A2000204D61783A200C
:102DC00000204D696E3A20004D65616E3A20004644
:102DD000696E6973686564210A002072616E6765B7
:102DE0003A2000206D61783A2000206D696E3A200B
:102DF00000207369676D613A2000206D65616E3A4D
:102E000020003A207A3A2000206F662000205A00E5
:102E1000205900205800476F696E6720746F3A0090
:102E2000436C6F636B776973650A00436F756E74EB
:102E300065722D0020446972656374696F6E3A2073
:102E400000202020616E676C653A20005374617227
:102E500074696E67207261646975733A2000506FFF
:102E6000736974696F6E696E67207468652070722B
:102E70006F62652E2E2E0A003F4E756D62657220C0
:102E80006F66206C65677320696E206D6F76656D67
:102E9000656E74206E6F7420706C61757369626CFE
:102EA000652028302D3135292E0A003F2028582C46
:102EB0005929206F7574206F6620626F756E647378
:102EC0002E0A003F53616D706C652073697A65202E
:102ED0006E6F7420706C61757369626C6520283444
:102EE0002D3530292E0A004D3438205A2D50726F5E
:102EF0006265205265706561746162696C6974799C
:102F000020546573740A003F2856296572626F73F6
:102F100065206C6576656C20697320696D706C61E5
:102F2000757369626C652028302D34292E0A004D96
:102F300031343520533C696E6465783E206F75747A
:102F4000206F662072616E67652028302D31290A56
:102F5000001000C90210012C01400122017001186B
:102F600001B0010E01F00104015002FA00B002F0BC
:102F7000003003E600D003DC009004D2007005C8E6
:102F800000A006BE000008B400B009AA00D00BA043
:102F900000600E960060118C0000158200201978E8
:102FA00000C01D6E00A0226400B0275A00902C5073
:102FB0000000314600E0343C0010383200903A28DE
:102FC00000603C1E00A03D1400803E0A00203F002F
:102FD000004531204572723A2054454D502E204D07
:102FE0004158004572723A2054454D502E204D41B3
:102FF00058204C4954004D415854454D502074724E
:1030000069676765726564004531204572723A20D0
:1030100054454D502E204D494E004572723A205471
:10302000454D502E204D494E204C4954004D494E9F
:1030300054454D5020747269676765726564004D30
:10304000383420582059205A204500202F00204293
:10305000403A0020403A00001C1F11111F000000E0
:1030600006191803130C00040E1F041C00000000B6
:103070000E1315110E00001C10181705060500048C
:103080000A0A0A0A11110E0C12120C0000000000AC
:103090001F1511151F0000206F7574206F662072B8
:1030A000616E67650A00536572766F20003A2000F2
:1030B00020536572766F20004B64200023646566A0
:1030C000696E652044454641554C545F004B69206C
:1030D0000023646566696E652044454641554C543D
:1030E0005F004B70200023646566696E652044456F
:1030F0004641554C545F00504944204175746F74EB
:10310000756E652066696E69736865642120507507
:103110007420746865206C617374204B702C204B94
:103120006920616E64204B6420636F6E7374616EFE
:1031300074732066726F6D2062656C6F7720696EA4
:10314000746F20436F6E66696775726174696F6E24
:103150002E680A00504944204175746F74756E657D
:10316000206661696C6564212074696D656F757492
:103170000A00453120454D42414C4C454D454E5489
:1031800020544845524D2E00424544205448455253
:103190004D414C2052554E4157415900546865727B
:1031A0006D616C2052756E61776179004531204503
:1031B0007272657572206465206368617566666504
:1031C000004265642068656174696E6720666169A4
:1031D0006C65640048656174696E67206661696C3E
:1031E000656400504944204175746F74756E6520A4
:1031F0006661696C6564212054656D7065726174E7
:1032000075726520746F6F20686967680A00204BCB
:10321000643A2000204B693A2000204B703A20008D
:103220000A20436C617373696320504944200A008B
:103230002054753A2000204B753A2000206D6178AB
:103240003A2000206D696E3A200020643A20002068
:10325000626961733A2000504944204175746F746B
:10326000756E65206661696C656421204261642029
:103270006578747275646572206E756D6265720A28
:1032800000504944204175746F74756E65207374E5
:103290006172740A0041727265740A004661646565
:1032A000204865696768742000426564204C657633
:1032B000656C696E6720004661696C656420746F97
:1032C00020656E61626C6520426564204C657665A0
:1032D0006C696E670A0056206465706C2E206D69FB
:1032E0006E0056206465706C2E206D696E0056204D
:1032F0006465706C2E206D696E00566D696E2000DD
:10330000566D696E2000566D696E2000566D6178AD
:10331000204500566D6178204500566D6178204546
:1033200000566D6178205A00566D6178205A00561B
:103330006D6178205A00566D6178205900566D6194
:1033400078205900566D6178205900566D617820BB
:103350005800566D6178205800566D6178205800ED
:103360004D6F7576656D656E7400416D61782045B1
:1033700000416D6178204500416D6178205A00411F
:103380006D6178205A00416D6178205900416D616E
:1033900078205900416D6178205800416D61782096
:1033A000580041204465706C2E0041204465706CCB
:1033B0002E0041207265747261697400412072654B
:1033C000747261697400416363656C6572617469EC
:1033D0006F6E00416363656C65726174696F6E0046
:1033E0004D6F7576656D656E74004572726F7220F3
:1033F00077726974696E6720746F20454550524F2B
:103400004D210A00446563616C61676573206170DA
:10341000706C6971756573004572723A20546F6FF4
:10342000206661722100546F6F206661722066729F
:103430006F6D207265666572656E636520706F6979
:103440006E740A00496E736572742066696C616DF2
:10345000656E7420616E642070726573732062758E
:1034600074746F6E20286F72204D313038290A0035
:10347000507265737320627574746F6E20286F725A
:10348000204D3130382920746F2068656174206EBA
:103490006F7A7A6C650A00496E736572742066698A
:1034A0006C616D656E7420616E64207072657373FB
:1034B00020627574746F6E20286F72204D31303821
:1034C000290A003F4B2076616C7565206F7574206A
:1034D0006F662072616E67652028302D3130292E8D
:1034E0000A00416476616E6365204B3D006265644D
:1034F0000A002C2073797374656D2073746F70707B
:10350000656421204865617465725F49443A200012
:103510004265642068656174696E67206661696CE4
:1035200065640048656174696E67206661696C65F1
:1035300064004531204572726575722064652063B0
:103540006861756666650048656174696E672066C6
:1035500061696C6564004D4F52542E001000AA033F
:10356000F0013A019002220130031001D003020160
:103570007004F7001005ED00B005E5005006DD0011
:10358000F006D7009007D1003008CC00D008C70063
:103590007009C300100ABE00B00ABB00500BB70090
:1035A000F00BB300900CB000D00DAA00100FA500D6
:1035B0005010A00090119B00D0129600B014900003
:1035C00090168B0070188500501A8000301C7B000C
:1035D000B01E750030216F00B023690030266400F2
:1035E00010285F00902A5A00702C5500F02E4F00D2
:1035F00070314800B0324500F03341007036390078
:10360000103737005038330090392D00D03A27005A
:10361000B03C1C00503D1700F03D1100903E0900E9
:10362000D03FE5FF4465706C2E2058004465706CF7
:103630002E2059004465706C2E205A004578747213
:103640007564657572004465706C2E20302E316D86
:103650006D004465706C2E20316D6D004465706C9A
:103660002E2031306D6D004465706C616365722091
:10367000756E206178650045787472756465757241
:10368000004465706C2E205A004465706C2E2059E1
:10369000004465706C2E205800457874727564651E
:1036A0007572004465706C2E205A004465706C2E53
:1036B0002059004465706C2E20580050726570616E
:1036C00072657200496E697469616C697365722014
:1036D000454550524F4D00436F6E74726F6C65726A
:1036E00000526573656E643A20006F6B0000F6004F
:1036F000EA0011241FBECFEFD1E2DEBFCDBF00E054
:103700000CBF13E0A0E0B2E0E8ECFEE802E00BBF83
:1037100002C007900D92A238B107D9F726E1A2E8BE
:10372000B3E001C01D92AC39B207E1F71BE1C8E775
:10373000DBE100E006C021970109802FFE010F9414
:10374000D146C737D10780E00807A9F70F94692B46
:103750000D9453470C9400002F923F924F925F922A
:103760006F927F928F929F92AF92BF92CF92DF9291
:10377000EF92FF920F931F93CF93DF93CDB7DEB7F6
:10378000C358D1090FB6F894DEBF0FBECDBF21E0FC
:1037900020933E0E8091DB158D3411F40C94A229F8
:1037A000843511F40C947934873411F00C94BD34C1
:1037B0008091D9159091DA158B31910511F40C9403
:1037C00043259CF4843091053CF482309105DCF56E
:1037D00097FF32C00C949E298430910509F451C69C
:1037E0000C9709F48DC60C949E298A32910511F428
:1037F0000C94622874F48D31910511F40C94862791
:1038000014F40C9473254E9711F40C948A270C949D
:103810009E298B35910511F40C9424298C35910542
:1038200011F40C9428298A35910511F00C949E29E5
:10383000109287030C94BF348091590281110C942B
:10384000C4340C94BF3420915902222311F40C94F7
:10385000BF3411E0029709F010E00E94628C82E50B
:103860000E946443882309F45CC10E94E6426B0114
:103870007C014090510E5090520E6090530E70900B
:10388000540E2091550E3091560E4091570E509186
:10389000580E2F962CAF3DAF4EAF5FAF2F97809154
:1038A000180E9091190EA0911A0EB0911B0E6396EE
:1038B0008CAF9DAFAEAFBFAF639720911C0E309120
:1038C0001D0E40911E0E50911F0E67962CAF3DAFFE
:1038D0004EAF5FAF679720E030E0A901C701B601A6
:1038E0000F94F43C882309F4B2C5A30192016396B6
:1038F0006CAD7DAD8EAD9FAD63970F94F43C81119F
:1039000011C02F962CAD3DAD4EAD5FAD2F97679694
:103910006CAD7DAD8EAD9FAD67970F94F43C882361
:1039200009F495C520E030E0A901C701B6010F9464
:10393000F43C881F8827881F18130BC080E090E094
:10394000A0E8BFE3A7968CAF9DAFAEAFBFAFA79780
:103950000AC020E030E040E85FEBA7962CAF3DAF17
:103960004EAF5FAFA797A301920163966CAD7DAD9B
:103970008EAD9FAD63970F94C2436F966CAF7DAFD2
:103980008EAF9FAF6F972F962CAD3DAD4EAD5FAD17
:103990002F9767966CAD7DAD8EAD9FAD67970F94F9
:1039A000C243A3966CAF7DAF8EAF9FAFA3976F96C8
:1039B0002CAD3DAD4EAD5FAD6F97CA01B9010F940F
:1039C000593D4B015C01A3962CAD3DAD4EAD5FADB5
:1039D000A397CA01B9010F94593D9B01AC01C501E0
:1039E000B4010F94C3430F9430466B966CAF7DAF18
:1039F0008EAF9FAF6B9720E030E040E05FE30F9425
:103A0000593D4B015C01A7019601C701B6010F9416
:103A1000593D6B017C01A5019401C501B4010F94CE
:103A2000593D9B01AC01C701B6010F94C2430F94ED
:103A300030469B01AC01A7966CAD7DAD8EAD9FADC0
:103A4000A7970F94593D4B015C0163962CAD3DAD9A
:103A50004EAD5FAD6397C301B2010F94C34320E045
:103A600030E040E05FE30F94593D6B017C01A39689
:103A70006CAD7DAD8EAD9FADA39790586B962CAD80
:103A80003DAD4EAD5FAD6B970F949F449B01AC0174
:103A9000C501B4010F94593D9B01AC01C701B601AA
:103AA0000F94C343A30192010F94C2436B017C01A5
:103AB00067962CAD3DAD4EAD5FAD67972F966CAD63
:103AC0007DAD8EAD9FAD2F970F94C34320E030E0C6
:103AD00040E05FE30F94593D2B013C016B962CAD08
:103AE0003DAD4EAD5FAD6B976F966CAD7DAD8EAD60
:103AF0009FAD6F970F949F449B01AC01C501B4012A
:103B00000F94593D9B01AC01C301B2010F94C34313
:103B10002F962CAD3DAD4EAD5FAD2F970F94C243A8
:103B200014C089E40E946443882329F00E94E6427D
:103B30006B017C0103C0C12CD12C76018AE40E9468
:103B400064438823F9F00E94E64267966CAF7DAF2C
:103B50008EAF9FAF679720E030E0A901C701B601A3
:103B60000F94F43C81111EC020E030E0A90167965B
:103B70006CAD7DAD8EAD9FAD67970F94F43C811118
:103B800011C065C420E030E0A901C701B6010F945F
:103B9000F43C882309F45BC467961CAE1DAE1EAED0
:103BA0001FAE6797D701C601B0582F968CAF9DAF57
:103BB000AEAFBFAF2F9767962CAD3DAD4EAD5FADAD
:103BC0006797505863962CAF3DAF4EAF5FAF63978A
:103BD0009C01AD01BC01CD010F94593D4B015C012D
:103BE00063962CAD3DAD4EAD5FAD6397CA01B90193
:103BF0000F94593D9B01AC01C501B4010F94C3431F
:103C00000F943046EF966CAF7DAF8EAF9FAFEF97BE
:103C10008091510E9091520EA091530EB091540E7E
:103C20006B968CAF9DAFAEAFBFAF6B97A701960100
:103C3000BC01CD010F94C343A7966CAF7DAF8EAF8F
:103C40009FAFA7972091550E3091560E4091570E79
:103C50005091580E6F962CAF3DAF4EAF5FAF6F9740
:103C600067962CAD3DAD4EAD5FAD67976F966CAD71
:103C70007DAD8EAD9FAD6F970F94C343E7966CAF4C
:103C80007DAF8EAF9FAFE7978091180E9091190E80
:103C9000A0911A0EB0911B0EA3968CAF9DAFAEAF44
:103CA000BFAFA397A7962CAD3DAD4EAD5FADA79727
:103CB000BC01CD010F94C2436B017C0120911C0E0D
:103CC00030911D0E40911E0E50911F0EAB962CAFE1
:103CD0003DAF4EAF5FAFAB97E7962CAD3DAD4EAD70
:103CE0005FADE797AB966CAD7DAD8EAD9FADAB97FD
:103CF0000F94C2434B015C018091590E90915A0E72
:103D0000A0915B0EB0915C0EAF968CAF9DAFAEAF45
:103D1000BFAFAF979C01AD016091200E7091210E55
:103D20008091220E9091230E0F94C2432B013C01EF
:103D30002091240E3091250E4091260E5091270E91
:103D4000C158DF4F288339834A835B83CF57D040E4
:103D500080915D0E90915E0EA0915F0EB091600E0D
:103D6000EB968CAF9DAFAEAFBFAFEB97A7019601BF
:103D70002F966CAD7DAD8EAD9FAD2F970F94593DB5
:103D8000E3966CAF7DAF8EAF9FAFE397A501940133
:103D900063966CAD7DAD8EAD9FAD63970F94593D2D
:103DA0009B01AC01E3966CAD7DAD8EAD9FADE3970D
:103DB0000F94C343E3966CAF7DAF8EAF9FAFE39795
:103DC000A50194012F966CAD7DAD8EAD9FAD2F9763
:103DD0000F94593D4B015C01A701960163966CADB0
:103DE0007DAD8EAD9FAD63970F94593D9B01AC01A6
:103DF000C501B4010F94C243E3962CAD3DAD4EAD69
:103E00005FADE3970F9436446B017C0120E030E016
:103E1000A9010F94F43C87FF0AC02BED3FE049EC69
:103E200050E4C701B6010F94C3436B017C01112319
:103E300051F02BED3FE049EC50E4C701B6010F947F
:103E4000C2436B017C0120E030E0A901C701B6014B
:103E50000F94F43C811128C0A3962CAD3DAD4EAD1E
:103E60005FADA3976B966CAD7DAD8EAD9FAD6B973F
:103E70000F94F43C811118C0AB962CAD3DAD4EAD06
:103E80005FADAB976F966CAD7DAD8EAD9FAD6F970F
:103E90000F94F43C811108C06BEDC62E6FE0D62E56
:103EA00069ECE62E60E4F62EA7019601EF966CAD64
:103EB0007DAD8EAD9FADEF970F94593D4B015C01E9
:103EC00020E030E0A901C301B2010F94F43C882343
:103ED000C9F0A5019401C501B4010F94593D4B01EE
:103EE0005C01A3019201C301B2010F94593D9B01F2
:103EF000AC01C501B4010F94C3430F9430464B018C
:103F00005C010DC020E030E0A901C501B4010F94AF
:103F1000EA4587FF04C0B7FAB094B7F8B0942FE62B
:103F200032E143E85AE3C501B4010F94F43C87FF42
:103F300002C00C94BF34C501B4010F9438450F94EE
:103F40000C451B01672B19F422242394312CB10159
:103F500080E090E00F94F83C4B015C019B01AC01C8
:103F6000C701B6010F949F446B966CAF7DAF8EAFC7
:103F70009FAF6B97A5019401C301B2010F949F44B9
:103F8000EF966CAF7DAF8EAF9FAFEF97EB962CADFA
:103F90003DAD4EAD5FADEB97C158DF4F6881798184
:103FA0008A819B81CF57D0400F94C243A5019401D1
:103FB0000F949F44C158DF4F688379838A839B8322
:103FC000CF57D0406B962CAD3DAD4EAD5FAD6B97EE
:103FD000CA01B9010F94593D20E030E040E05FE3B1
:103FE0000F94593D9B01AC0160E070E080E89FE3D5
:103FF0000F94C243AB966CAF7DAF8EAF9FAFAB97C4
:10400000AF962CAD3DAD4EAD5FADAF9729873A87EA
:104010004B875C87EB968CAD9DADAEADBFADEB979E
:104020008D879E87AF87B88B8E01095B1F4F60918C
:104030003C0270913D02072E000C880B990B0F94E7
:10404000FA3C209152023091530240915402509117
:1040500055020F94593D2AE037ED43E25CE30F949B
:10406000593DD8016D937D938D939C9313970E9436
:1040700016589B01AC0128533F4F4F4F5F4FAF96EF
:104080002CAF3DAF4EAF5FAFAF972C964FAC2C9798
:104090002D965FAC2D972E966FAC2E972F967FACFA
:1040A0002F9741E050E0A1965FAF4EAFA19759E145
:1040B0006C965FAF6C97E8960FAFE897E0961FAFEE
:1040C000E097A1962EAD3FADA1972215330509F4D7
:1040D00060C10F94A5200E941658DC01CB01AF9659
:1040E0002CAD3DAD4EAD5FADAF97821B930BA40BD6
:1040F000B50BB7FD11C00E9416589B01AC012853A7
:104100003F4F4F4F5F4FAF962CAF3DAF4EAF5FAFBE
:10411000AF9780E00E9478AD6C963FAD6C973150C0
:104120006C963FAF6C97332309F44BC0AB962CAD24
:104130003DAD4EAD5FADAB9763966CAD7DAD8EADD5
:104140009FAD63970F94593D6B017C016B962CAD2D
:104150003DAD4EAD5FAD6B97B201C3010F94593DBC
:10416000A70196010F94C3437B018C01AB962CAD44
:104170003DAD4EAD5FADAB97B201C3010F94593D5C
:104180004B015C016B962CAD3DAD4EAD5FAD6B97B9
:1041900063966CAD7DAD8EAD9FAD63970F94593D29
:1041A0009B01AC01C501B4010F94C2432B013C013A
:1041B000C701D80163968CAF9DAFAEAFBFAF639719
:1041C00061C0A1964EAD5FADA197BA0180E090E0CD
:1041D0000F94F83C6B962CAD3DAD4EAD5FAD6B973B
:1041E0000F94593D4B015C010F949C446B017C0181
:1041F000C501B4010F9426464B015C01A70196014D
:104200002F966CAD7DAD8EAD9FAD2F970F94593D20
:104210002B013C01A501940167966CAD7DAD8EAD7F
:104220009FAD67970F94593D9B01AC01C301B2014B
:104230000F94C3432B013C01A50194012F966CAD53
:104240007DAD8EAD9FAD2F970F94593D4B015C0115
:10425000A701960167966CAD7DAD8EAD9FAD67975A
:104260000F94593D9B01AC01C501B4010F94C243A9
:1042700063966CAF7DAF8EAF9FAF639759E16C963D
:104280005FAF6C979201A301A7966CAD7DAD8EAD2B
:104290009FADA7970F94C34369837A838B839C83D5
:1042A00063962CAD3DAD4EAD5FAD6397E7966CADBB
:1042B0007DAD8EAD9FADE7970F94C3436D837E8335
:1042C0008F839887EF962CAD3DAD4EAD5FADEF97E8
:1042D00069857A858B859C850F94C34369877A8726
:1042E0008B879C87C158DF4F288139814A815B8148
:1042F000CF57D0406D857E858F8598890F94C343B5
:104300006D877E878F87988BCE0101960F94452904
:10431000E0903F0E23961CAE1DAE1EAE1FAE23973F
:1043200089819A81AB81BC8188A399A3AAA3BBA3ED
:104330008D819E81AF81B8858CA39DA3AEA3BFA3C1
:1043400089859A85AB85BC8588A799A7AAA7BBA7AD
:10435000AE01485D5F4FBE016C5D7F4FCE01809620
:104360000E94EFB7CE01CF966C01E8960FADE897AB
:10437000E0961FADE0979E01235F3F4FAE01485D81
:104380005F4FBE016C5D7F4F4F970E9450CC8111F3
:1043900054C0E0903F0E27961CAE1DAE1EAE1FAE61
:1043A00027978091180E9091190EA0911A0EB09136
:1043B0001B0E88A399A3AAA3BBA380911C0E909166
:1043C0001D0EA0911E0EB0911F0E8CA39DA3AEA337
:1043D000BFA38091200E9091210EA091220EB0914A
:1043E000230E88A799A7AAA7BBA7AE01485D5F4F78
:1043F000BE016C5D7F4FCE0180960E94EFB7DE015B
:10440000AD5BBF4F6D018E01095B1F4F24E23EE0A3
:10441000AE01485D5F4FBE016C5D7F4FCE0180965F
:104420000E9450CC80E1E8E1FEE0A1E5BEE0019011
:104430000D928A95E1F70C94BF34A196EEADFFADD5
:10444000A1973196A196FFAFEEAFA1973ACEE8E2E1
:10445000F4E184918F010F5F1F4F882321F00E94A8
:104460004A44F801F6CFE3E6F3E084918F010F5F51
:104470001F4F882311F40C94BF340E944A44F80162
:10448000F4CF80E50E946443882329F00E94A6426D
:104490006B017C0103C0C12CD12C760183E50E9405
:1044A0006443882361F00E94E64220E030E04AE75E
:1044B00054E40F94593D0F940C456B017C010E940C
:1044C00055B780917906811105C060E089E793E0D6
:1044D0000E940B5F0E941658C60ED71EE81EF91EDA
:1044E0000E941658DC01CB018C199D09AE09BF0949
:1044F000B7FD02C00C94BF3480E00E9478ADF0CFCD
:104500000E94796681110C94BF3480E50E94644357
:10451000882321F00E94B642162F01C010E083E5E7
:104520000E946443882321F00E94B6421B0103C00D
:104530004CE0242E312C2C962FAE2C9784E50E9433
:104540006443882321F00E94B642762E02C033E0F5
:10455000732E82E50E946443882329F00E94E6427C
:104560004B015C0106C0812C912C20EDA22E20E491
:10457000B22E113021F0123009F420C1EFC180E0D9
:1045800090E0A8ECB2E488A399A3AAA3BBA380E01F
:1045900090E0A0E7B2E48CA39DA3AEA3BFA380E00C
:1045A00090E0A0E8BFE388A799A7AAA7BBA740E02F
:1045B00050E060EF71E449835A836B837C834D83C1
:1045C0005E836F83788789879A87AB87BC87809162
:1045D000510E9091520EA091530EB091540E6B96C5
:1045E0008CAF9DAFAEAFBFAF6B978090550E9090E4
:1045F000560EA090570EB090580E2091590E309143
:104600005A0E40915B0E50915C0E6F962CAF3DAFF1
:104610004EAF5FAF6F972E013FE3430E511CD201A7
:104620001D921D921D921C9213976201E12CF12C98
:1046300000E81FE320E030E040EF51E4CA01B90197
:104640000E94A43E770C60967FAE6097E72DF0E065
:104650006596FFAFEEAF6597BF01FF0F880B990B13
:104660000F94FA3C9B01AC0160E070E08CE892E4AE
:104670000F949F446B017C0100E012012C96BFADAA
:104680002C970B1708F07FC010E0812F012E000C33
:10469000990B6596EEADFFAD65978E179F07B4F544
:1046A00010FD05C09E012F5F3F4F390104C0AE01D0
:1046B000405E5F4F3A0127961CAE1DAE1EAE1FAE88
:1046C0002797612F012E000C770B880B990B0F9405
:1046D000FA3CA70196010F94593D9B01AC016981F9
:1046E0007A818B819C810F94C343D1016D937D931B
:1046F0008D939C931397B3016C5F7F4FAE014D5B1D
:104700005F4FC2010E94813F1F5FBFCF60961FAD08
:10471000609717FD36C010FD05C09E012F5F3F4F0B
:10472000390104C0AE01405E5F4F3A0127961CAECE
:104730001DAE1EAE1FAE2797612F012E000C770B0A
:10474000880B990B0F94FA3CA70196010F94593DE1
:104750009B01AC0169817A818B819C810F94C34359
:10476000D1016D937D938D939C931397B3016C5FEF
:104770007F4FAE014D5B5F4FC2010E94813F1150E0
:10478000C8CF0F5F7BCF23961CAE1DAE1EAE1FAEF3
:104790002397FE01FF966F016F96ECACFDAC0EAD5A
:1047A0001FAD6F97A50194016B966CAD7DAD8EAD7D
:1047B0009FAD6B970E94A43E0C94BF3480E090E0C4
:1047C000A0EFB1E489839A83AB83BC838D839E83FE
:1047D000AF83B88780E090E0A0E8BFE389879A873D
:1047E000AB87BC872C96FFAD2C97FF2311F40C945C
:1047F000BF342091510E3091520E4091530E509182
:10480000540E63962CAF3DAF4EAF5FAF6397809170
:10481000550E9091560EA091570EB091580E679676
:104820008CAF9DAFAEAFBFAF67974090590E509021
:104830005A0E60905B0E70905C0E18A219A21AA21C
:104840001BA2DE0190966D01E12CF12C00E81FE324
:1048500020E030E040EF51E4CA01B9010E94A43EDB
:1048600010E0212C312C18A219A21AA21BA2B1010E
:10487000032C000C880B990B0F94FA3C2CE739EDB4
:1048800040E25FE30F94593D6B017C010F949C441F
:10489000A50194010F94593D20E030E040EF51E430
:1048A0000F94C34323966CAF7DAF8EAF9FAF23971A
:1048B000C701B6010F942646A50194010F94593DF6
:1048C00020E030E040EF51E40F94C34327966CAFF3
:1048D0007DAF8EAF9FAF2797AE01405E5F4FBE01A9
:1048E000615C7F4FCE018D5B9F4F0E94813FBFEF88
:1048F0002B1A3B0AEAE02E16310409F0B4CF1F5FF1
:104900002C96FFAD2C971F1708F4ABCF18A219A255
:104910001AA21BA2AE01405E5F4FBE016B5F7F4FCC
:10492000CE0101960E94813F18A219A21AA21BA2D1
:104930009E01205E3F4F69018301720167962CAD95
:104940003DAD4EAD5FAD679763966CAD7DAD8EAD01
:104950009FAD63970E94A43E0C94BF3480E090E02A
:10496000A8ECB2E489839A83AB83BC8380E090E0B7
:10497000A0E7B2E48D839E83AF83B88780E090E0A8
:10498000A0E8BFE389879A87AB87BC8740E050E007
:1049900060EF71E448A359A36AA37BA34CA35DA372
:1049A0006EA37FA388A799A7AAA7BBA78091510E42
:1049B0009091520EA091530EB091540E2F968CAF41
:1049C0009DAFAEAFBFAF2F978090550E9090560E13
:1049D000A090570EB090580E4090590E50905A0E1D
:1049E00060905B0E70905C0E23961CAE1DAE1EAEEA
:1049F0001FAE2397DE01DF966D01E12CF12C00E85C
:104A00001FE39A01AB01CA01B9010E94A43E3324FD
:104A10003594279410E0812F90E023961CAE1DAEB4
:104A20001EAE1FAE239782159305E4F4AE01415CE0
:104A30005F4FBE016B5F7F4FCE0101960E94813FA9
:104A400023961CAE1DAE1EAE1FAE2397AE01415C79
:104A50005F4FBE016C5D7F4FCE0180960E94813F0B
:104A60001F5FD9CFFE01FF966F0183017201A5017F
:104A700094012F966CAD7DAD8EAD9FAD2F970E94AA
:104A8000A43E0C94BF340E94796681110C94BF340B
:104A900080E090E0A0E2B1E489839A83AB83BC8399
:104AA00080E090E0ABE9B3E48D839E83AF83B88769
:104AB00080E090E0A0EAB1E489879A87AB87BC8761
:104AC00080E50E946443882319F00E94B64201C029
:104AD00060E068A3BE016F5F7F4FCE0180960E94A9
:104AE000F5BA0C94BF348091400E8770873071F412
:104AF0008FE40E946443882319F00E94D74203C0C8
:104B00008FE40E941D4381110C94BF340E9455B75D
:104B100080E00E94594180EA90E00E94433E80E09C
:104B20000E9454440E94853E11E01093A6040E9406
:104B300005BC88E50E941D43282E89E50E941D437F
:104B4000082F8AE50E941D4364968FAF6497211059
:104B500005C0011105C0382E312607C0011102C061
:104B6000312C03C064963FAC64970E94364482E5C2
:104B70000E946443882361F00E94E6426B017C013D
:104B800020E030E0A9010F94F43C882379F106C0BD
:104B9000C12CD12CA0ECEA2EA0E4FA2E311005C0D5
:104BA000211003C0002309F43CC1C092200ED09212
:104BB000210EE092220EF092230E2091590E309198
:104BC0005A0E40915B0E50915C0EC701B6010F94D6
:104BD000EA4518165CF419821A821B821C82BE01F7
:104BE0006F5F7F4F80E29EE00E94A23F31100DC0B8
:104BF000211003C0011110C114C1011106C080E0D1
:104C00000E9414AB3320B1F307C11092550E1092DD
:104C1000560E1092570E1092580E1092510E10927E
:104C2000520E1092530E1092540E0E941241E1E463
:104C3000F1E22491A0962FAFA097E5E3F1E2459031
:104C4000559065907490E9E3F1E285909590A59078
:104C5000B490A5019401C301B2010F94EA4518165E
:104C60002CF4A3019201C501B40104C0A501940173
:104C7000C301B2010F949F446B017C01E8EFF0E2A5
:104C800085919591A591B4912F968CAF9DAFAEAFC4
:104C9000BFAF2F97E4EFF0E2259135914591549104
:104CA00063962CAF3DAF4EAF5FAF63979C01AD01F4
:104CB00063966CAD7DAD8EAD9FAD63970F94F43C64
:104CC00087FD16C02C963FAD2C9768963FAF68972E
:104CD0002D961FAD2D972E964FAD2E976C964FAFFC
:104CE0006C972F965FAD2F972C965FAF2C9715C0C2
:104CF00060968FAD609768968FAF689761961FAD8D
:104D0000619762969FAD62976C969FAF6C97639622
:104D1000AFAD63972C96AFAF2C97A7019601C70153
:104D2000B6010F94593D20E030E040E85FE30F9476
:104D3000C3430F9430469B01AC0168966FAD6897F2
:104D4000712F6C968FAD6C972C969FAD2C970F940E
:104D5000593D23966CAF7DAF8EAF9FAF2397E2E4B2
:104D6000F1E2149120E030E040EC5FE3C501B401D2
:104D70000F94593D6B017C01612F110F770B880B4C
:104D8000990B0F94FA3C9B01AC01C701B6010F943B
:104D9000593D69837A838B839C8320E030E040EC2B
:104DA0005FE3C301B2010F94593D6B017C01A096F2
:104DB000BFADA0976B2FBB0F770B880B990B0F9490
:104DC000FA3C9B01AC01C701B6010F94593D68A3A1
:104DD00079A38AA39BA3AE01415C5F4FBE016F5FC5
:104DE0007F4FCE0180960E94813F0E94CFBC1092DF
:104DF000550E1092560E1092570E1092580E109299
:104E0000510E1092520E1092530E1092540E3110F9
:104E1000F6CE2110F4CEEECE81E00E9414AB31101C
:104E200006C06496EFAD6497EE2309F45EC08091EE
:104E3000400E83708330E9F060E086E993E00E94E1
:104E40000B5FE2ECFEE184918F010F5F1F4F88231F
:104E500021F00E944A44F801F6CFE2E8F3E08491A1
:104E60008F010F5F1F4F8823F1F10E944A44F80120
:104E7000F6CF0E94124180E090E0A0E2B3E480937C
:104E80001C0E90931D0EA0931E0EB0931F0E8091CA
:104E9000590E90915A0EA0915B0EB0915C0E8093CA
:104EA000200E9093210EA093220EB093230E80E04B
:104EB00090E0AAE7B3E48093180E9093190EA093A4
:104EC0001A0EB0931B0E19821A821B821C82AE012D
:104ED0004F5F5F4F6CE17EE088E19EE00E94813F82
:104EE00082E00E9414AB0E941A8C0E9412418091B1
:104EF000A5048093A6040E9405BC0E946C3E83E03A
:104F0000809326020E94097F0C94BF340E94EE8E8B
:104F10000C94BF34C090510ED090520EE090530EBE
:104F2000F090540E88E50E946443811109C020E08E
:104F300030E04CE052E4C701B6010F94C24302C016
:104F40000E94E64268A379A38AA39BA3C090550E52
:104F5000D090560EE090570EF090580E89E50E94C2
:104F60006443811108C020E030E0A901C701B60107
:104F70000F94C34302C00E94E6429B01AC016983C7
:104F80007A838B839C8368A179A18AA19BA10E94CB
:104F900082AC882311F40C94BF3480E00E94594104
:104FA0000E94853E85E40E946443882321F00E948C
:104FB000D742182F04C085E40E941D4311E086E506
:104FC0000E946443882321F00E94B642262F01C02C
:104FD00021E0412FBE016F5F7F4FCE0180960E947E
:104FE000CCE96B017C019B01AC010F9472468111ED
:104FF0005FC088A099A0AAA0BBA020E030E0A901D2
:10500000C501B4010F94F43C87FD05C027E137EBDF
:1050100041E558E304C027E137EB41E558EBC50112
:10502000B4010F94C343AB01BC0183EB93E00E9436
:1050300034F989809A80AB80BC8020E030E0A901FF
:10504000C501B4010F94F43C87FD05C027E137EB9F
:1050500041E558E304C027E137EB41E558EBC501D2
:10506000B4010F94C343AB01BC018EEA93E00E94EC
:1050700034F920E030E0A901C701B6010F94F43CF7
:1050800087FD05C027E137EB41E558E304C027E180
:1050900037EB41E558EBC701B6010F94C343AB01B1
:1050A000BC0189EA93E00E9434F98AE00E944A44F4
:1050B0000E946C3E113011F40E941A8C0E94097FEC
:1050C0000C94BF3480915902882311F40C94BF349E
:1050D00089E40E946443182F882321F00E94B6427D
:1050E000E62E01C0E12C8AE40E946443F82E882356
:1050F00031F00E94B642062F111104C00BC000E02F
:105100001123B9F0F2E0FE1510F00C94E539EBEB49
:10511000F3E003C00330D8F70CC084918F010F5F18
:105120001F4F882311F40C94BF340E944A44F801A5
:10513000F4CF0E9436441123F1F02091E30D309119
:10514000E40D4E2D4203B001439F700D11242091B8
:105150006D0930916E09620F731F072E000C880BCA
:10516000990B0F94FA3C6093180E7093190E80936C
:105170001A0E90931B0EFF20E9F02091E50D30915F
:10518000E60D0203B001039F700D112480916F0999
:1051900090917009680F791F072E000C880B990BEE
:1051A0000F94FA3C60931C0E70931D0E80931E0E9C
:1051B00090931F0E80E50E9464438823E9F00E94CB
:1051C000D7428823E9F01123D9F020E030E04CE009
:1051D00052E46091180E7091190E80911A0E909100
:1051E0001B0E0F94C3436093180E7093190E809397
:1051F0001A0E90931B0E04C080E50E941D43E1CF60
:1052000086E40E9464438823D9F00E94E6426B0141
:105210007C0120E030E0A9010F94EA45181684F4DF
:1052200020E030E040E752E4C701B6010F949F440C
:1052300060935202709353028093540290935502EC
:105240000E9472B10C94BF34209387030C94BF3436
:10525000E1E52E2EE3E03E2EF9E4CF2EFDE0DF2E39
:10526000E12CF12C00E010E0D1018D911D010E9494
:105270006443882309F44EC00E94E6422B013C019E
:10528000133059F0F701EF5BF14F208131814281FA
:1052900053810F94C2432B013C01F701EF5AF14FA8
:1052A0002081318142815381C301B2010F94C243F5
:1052B0004B015C012DEB37E346E855EB0F94EA45D3
:1052C00087FD0AC02DEB37E346E855E3C501B4017D
:1052D0000F94F43C1816F4F4133051F440925D0E20
:1052E00050925E0E60925F0E7092600E01E012C0EE
:1052F000A5019401F60160817181828193810F94EF
:10530000C343D6016D937D938D939C931397812F07
:105310000E945F401F5FB4E0CB0ED11CE4E0EE0EB4
:10532000F11C143009F0A0CF002321F08DE59EE0A0
:105330000E949E670E94097F0C94BF340E9479ED01
:105340000C94BF348091D9159091DA158737910567
:1053500009F4F4C70CF0F5C08C34910509F4E3C4EA
:105360000CF085C08A31910509F413C3ECF5843142
:10537000910509F493C27CF48131910509F47FC24F
:105380002CF4029708F4F0C10C947634429709F497
:10539000B0C70C9476348731910509F4B9C274F41E
:1053A0008531910509F4B0C2469711F00C9476341A
:1053B0001092710A1092720A0C94BF3488319105D0
:1053C00009F4BCC2499711F00C9476341092710A1A
:1053D0000F941F228DE194E09093100E80930F0E96
:1053E0000E94B3400C94BF348F31910509F44EC430
:1053F0009CF48C31910509F46FC30CF4D5C28D3146
:10540000910511F40C94BF344E9711F00C9476343E
:105410000E946E890C94BF348A32910509F45FC4EE
:10542000CCF48032910509F460C3819711F00C949B
:105430007634E090D715F090D81582E08093150D62
:10544000F70101900020E9F731974F018E189F086E
:10545000F70153C38033910509F462C48B3491057D
:1054600011F00C9476340E9402FA0C94BF34893601
:10547000910509F411C68CF58235910509F432C7FE
:105480009CF48E34910509F454C40CF44FC4803557
:10549000910509F424C78135910511F00C947634F7
:1054A0000E94AD820C94BF348535910509F424C760
:1054B00054F48335910509F418C78435910509F42E
:1054C00018C70C9476348C35910509F42EC78836AC
:1054D000910509F42EC50C9476348F36910509F4A4
:1054E00064C584F48B36910509F45DC60CF458C686
:1054F0008D36910509F410C68E36910509F444C520
:105500000C9476348337910509F412C76CF4813713
:10551000910509F498C58237910511F00C94763401
:105520000E941E800C94BF348537910509F403C78F
:105530008637910511F00C9476340E945B7E0C94B2
:10554000BF348D32F1E09F0709F438C70CF06FC00B
:105550008B3C910509F40DC78CF58139910509F44F
:10556000FFC684F48937910509F4F3C60CF4E9C643
:105570008D37910509F427C68C38910509F4E4C5E7
:105580000C9476348E3B910509F4F8C554F48639B1
:10559000910509F4E8C68B39910509F498C50C9476
:1055A0007634883C910509F4E1C6893C910511F0F7
:1055B0000C9476340E94707D0C94BF348C3D910520
:1055C00009F4E6C69CF48D3C910509F4D8C60CF4A8
:1055D000D3C68E3C910509F4D5C6833D910511F0E3
:1055E0000C9476340E945A7B0C94BF34883131E09D
:1055F000930709F4DDC66CF48D3D910509F4D5C619
:10560000823E910511F00C9476340E947E7A0C94BF
:10561000BF34823251E0950709F4CDC68C329140F7
:1056200011F00C9476340F9463080C94BF34853FCA
:10563000B1E09B0711F40C94DE330CF047C08139C4
:10564000F1E09F0711F40C943D33ECF4803331E02A
:10565000930709F454C74CF48F32914011F00C9425
:1056600076340F9424030C94BF348336A1E09A0758
:1056700009F4C2C78039914011F00C9476340E942D
:1056800055B70C94BF34853AE1E09E0711F40C94B1
:105690004B3374F4823921E0920709F4F4C7843A59
:1056A000914011F00C9476340F940B010C94BF349C
:1056B0008C3A41E0940709F468C6843F914011F0A8
:1056C0000C9476340E9489990C94BF348E3BA2E0EE
:1056D0009A0711F40C940D341CF58835E2E09E070E
:1056E00011F40C9407346CF4863F21E0920711F416
:1056F0000C94E133883F914011F40C94E4330C9402
:1057000076348B3542E0940711F40C940A348D3BC7
:10571000924011F00C9476340F9437170C94BF34E8
:105720008B38A3E09A0711F40C94BF347CF48335D2
:10573000E3E09E0711F40C9410348438934011F088
:105740000C9476340F94E6150C94BF34803A23E021
:10575000920709F48FC2873E934011F00C9476347F
:105760000F94D1150C94BF34A090D715B090D815D4
:1057700080E50E946443882359F00E94A6426B0191
:105780007C0111E0672B682B692B31F410E004C019
:1057900010E0C12CD12C760183E50E94644388235C
:1057A00011F40C94C9340E94E64220E030E04AE74C
:1057B00054E40F94593D0F940C456B017C01111179
:1057C0000BC0672B682B692B39F4A114B10421F0AD
:1057D000D5018C91811102C010E001C011E00E943E
:1057E00055B7112329F061E0C5010E94475F05C04C
:1057F00060E08AED93E00E940B5F83E080933E0EB1
:1058000081E080933D0EC114D104E104F10449F11B
:105810000E941658C60ED71EE81EF91E0E94165882
:10582000DC01CB018C199D09AE09BF09B7FD11C080
:10583000809182038823E9F019821A821B821C82DC
:105840008FE78D83CE0101960E94756410928203CA
:1058500010C080913D0E882359F380E00E9478ADFE
:10586000DDCF80913D0E882319F380E00E9478AD52
:10587000F8CF0E94DEC410923D0E0C94BF3460E05D
:105880008CEE93E00E940B5F5F988A9880910801EC
:1058900081708093060112980C94BF34ECE0F4E020
:1058A00084918F010F5F1F4F882321F00E944A448B
:1058B000F801F6CF1092150D40E050E0BA0188ECE7
:1058C0009AE00F94831364EC7AE0CE0101960F9472
:1058D000C11040E050E0BE016F5F7F4F80E090E07C
:1058E0000E943DA8CE0101960E94FBACEDEFF3E0D3
:1058F00084918F010F5F1F4F882311F40C94BF34E4
:105900000E944A44F801F4CF0E94D0640C94BF3442
:10591000E091D715F091D8158081882329F0803245
:1059200009F410823196F8CF40E061E08091D715FC
:105930009091D8150E94CD610C94BF3480E090E026
:10594000A0E2B1E489839A83AB83BC8318A219A235
:105950001AA21BA223961CAE1DAE1EAE1FAE23972D
:105960008091CE08882359F020E0AE014F5F5F4F51
:10597000BE01605E7F4FCE01CF960E94BBEC80914E
:10598000720A882319F081E08093710A0E9402FA5A
:10599000F6C78091720A882309F4F1C783E50E9453
:1059A00064438111FBC7EBC783E40E941D43882336
:1059B00009F46BC0ECE2F4E084918F010F5F1F4F9C
:1059C000882321F00E944A44F801F6CF8091630CAD
:1059D000882351F1BE016F5F7F4F80E69CE00E94FB
:1059E000CCE28E010F5F1F4FF80181918F01882358
:1059F00019F00E944A44F8CFBE016F5F7F4F80E0EC
:105A000090E00E94D0608091810A8823D1F180E2E9
:105A10000E944A4401E81AE0D8018D918D01882343
:105A200081F10E944A44F8CFE2E2F4E084918F01D0
:105A30000F5F1F4F882329F10E944A44F801F6CFD7
:105A40008091D10D882309F4F1C25FEEC52E54E098
:105A5000D52EE12CF12C20E08091D10D90E00E2C80
:105A600002C0959587950A94E2F780FDC7C2FFEFC3
:105A7000EF1AFF0A32E0C30ED11C45E0E416F10430
:105A800059F78AE00E944A447AC783E50E9464433A
:105A90008823F9F00E94C642182F8D3308F01CE3CA
:105AA0001093430D0E9416586B017C01212F30E0AA
:105AB000A8EEB3E00F94B343C60ED71EE81EF91E3E
:105AC000C0923F0DD092400DE092410DF092420DF8
:105AD00056C70E94B7A553C740E060E08091D71534
