:100000000C94AF1A0C9485F30C945AF30C942FF3C0
:100010000C9404F30C94D9F20C94AEF20C9483F289
:100020000C9458F20C9445900C941D900C94F58F00
:100030000C94E01A0C94F1EF0C94E01A0C94E01A72
:100040000C94E01A0D94C30E0C94E01A0C94E01A70
:100050000C94E01A0C94E01A0C949CDA0C940EF2B6
:100060000C94E01A0C94E6430C94E01A0C94E01AF9
:100070000C94E01A0C94E01A0C94E01A0C94E01A18
:100080000C94E01A0C94E01A0C94E01A0C94E01A08
:100090000C94E01A0C94E01A0C94E01A0C94E01AF8
:1000A0000C94E01A0C94E01A0C94E01A0C94E01AE8
:1000B0000C94E01A0C94E01A0C94E01A0C94E01AD8
:1000C0000C94E01A0C94E01A0C94E01A0C94E01AC8
:1000D0000C94E01A0C94E01A0C94E01A0C94E01AB8
:1000E0000C94E01A19441F4430443B4443445844A0
:1000F000474458444B444F4458445544F6B2DCB24C
:10010000DFB2E2B2E5B2F1B2E8B202B3EBB2EEB204
:100110005CEF5FEF4EEF52EF58EF96EF63EF67EF54
:100120006DEF71EF75EF7BEF7FEF83EF96EF89EF68
:100130008DEF91EF05F10AF10FF119F123F19CF127
:100140002DF135F13DF147F151F15BF16AF174F1B7
:100150009CF17EF188F192F1084AD73B3BCE016ECB
:1001600084BCBFFDC12F3D6C74319ABD56833DDA0E
:100170003D00C77F11BED9E4BB4C3E916BAAAABE1D
:10018000000000803F05A84CCDB2D44EB93836A946
:10019000020C50B9918688083CA6AAAA2ABE000083
:1001A00000803F000D94AF0E0D94101A0D943A1A72
:1001B0000D94351A0D94141A0D94181A0D94D21723
:1001C0000D9473040D94B62A0D94B30E0D94410949
:1001D0000D94E81B0D94B00E0D94B8060D94301AD2
:1001E0000D948A030D9477130D942E080D94E41B3F
:1001F0000D940C1A0D948D020D94E01B0D94751A3C
:100200000D94410C0D9443090D94E92A4E414E4939
:100210004E495459494E46CDCCCC3D0AD7233C17C4
:10022000B7D13877CC2B329595E6241FB14F0A0011
:100230000020410000C84200401C4620BCBE4CCA01
:100240001B0E5AAEC59D7400407A10F35A00A0727E
:100250004E18090010A5D4E80000E8764817000001
:10026000E40B54020000CA9A3B000000E1F50500CF
:100270000080969800000040420F000000A0860118
:10028000000000102700000000E8030000000064E8
:1002900000000000000A0000000000010000000053
:1002A000002C76D888DC674F0823DFC1DFAE59E128
:1002B000B1B796E5E3E453C63AE651997696E8E697
:1002C000C28426EB898C9B62ED407C6FFCEFBC9C6A
:1002D0009F40F2BAA56FA5F490055A2AF75C936B7C
:1002E0006CF9676DC11BFCE0E40D47FEF520E6B537
:1002F00000D0ED902E0300943577050080841E0811
:100300000000204E0A000000C80C333333330F982E
:100310006E12831141EF8D2114893BE65516CFFEF5
:10032000E6DB18D1844B381BF77C1D901DA4BBE481
:1003300024203284725E228100C9F124ECA1E53DC3
:1003400027434F4D4D554E49434154494F4E00446C
:10035000525952554E004552524F525300494E4643
:100360004F004543484F0047322F473320626164B6
:1003700020706172616D65746572730A00526570F8
:100380006F732E2E2E004F726967696E6520585963
:10039000205072656D6965720A004F726967696EF7
:1003A00065205859205072656D696572004D6573FE
:1003B0006820706F696E742063616E6E6F74206266
:1003C00065207265736F6C7665640A0041747465AC
:1003D0006E2E206465206C277574696C2E004D6F3D
:1003E000746575727320626C6F717565732E00454C
:1003F0006E642066696C65206C6973740A004265DE
:1004000067696E2066696C65206C6973740A004DBB
:1004100031323500286E6F2066696C65290043759E
:100420007272656E742066696C653A200046696C6C
:10043000652064656C657465643A0044656C657438
:10044000696F6E206661696C65642C2046696C6515
:100450003A200043616E6E6F74206F70656E20737A
:10046000756264697220005072696E742074696DDF
:10047000653A2000000136372603FFFFFF353C3D7B
:10048000380EFFFFFF312E303E12FFFFFFFF28FF27
:100490000C0809FFFFFF1A1C18FFFF2A08440AFF77
:1004A0004346696C616D656E7420757365643A20AE
:1004B0000053746174733A20002C204C6F6E676592
:1004C0007374206A6F623A2000546F74616C2074F8
:1004D000696D653A200053746174733A20002C20D2
:1004E0004661696C65643A20002C2046696E697328
:1004F0006865643A20005072696E74733A20005344
:10050000746174733A200062035D0356034F034124
:10051000036F66660044454255473A004D3131331A
:100520002053006F6B0020643A0020693A0020706D
:100530003A00496E76616C696420657874727564FE
:1005400065720A0020643A0020693A0020703A007F
:1005500043617365206C696768743A200043617376
:1005600065206C696768743A206F66660A0041729C
:100570007265740A0046616465204865696768743D
:100580002000426564204C6576656C696E672000CA
:100590004661696C656420746F20656E61626C658C
:1005A00020426564204C6576656C696E670A004D73
:1005B00065736820706F696E742063616E6E6F740E
:1005C000206265207265736F6C7665640A004D3435
:1005D000323120696E636F7272656374207061726C
:1005E000616D657465722075736167650A004163AA
:1005F000746976652045787472756465723A200076
:10060000496E76616C696420657874727564657290
:100610000A002569730025696D2025697300256925
:10062000682025696D202569730025696420256986
:10063000682025696D202569730025697920256961
:1006400064202569682025696D20256973004E6F37
:1006500020436865636B73756D2077697468206CDF
:10066000696E65206E756D6265722C204C617374C5
:10067000204C696E653A200053544F5050452E006F
:100680005072696E7465722073746F707065642047
:1006900064756520746F206572726F72732E2046C8
:1006A000697820746865206572726F7220616E646B
:1006B00020757365204D39393920746F2072657348
:1006C000746172742E202854656D70657261747542
:1006D00072652069732072657365742E205365748A
:1006E000206974206166746572207265737461722A
:1006F00074696E67290A004E6F20436865636B73E7
:10070000756D2077697468206C696E65206E756DF3
:100710006265722C204C617374204C696E653A20BE
:1007200000636865636B73756D206D69736D6174CB
:1007300063682C204C617374204C696E653A20000C
:100740004C696E65204E756D626572206973206E0E
:100750006F74204C617374204C696E65204E756D0A
:100760006265722B312C204C617374204C696E656C
:100770003A20004D313130004D3331005344207266
:10078000656164206572726F720A004D30205331CA
:10079000383030005465726D696E65657300446F62
:1007A0006E65207072696E74696E672066696C652B
:1007B0000A0020496E76616C6964206578747275F0
:1007C00064657220000000000000000000000000CE
:1007D000000000D7430000A04300009643205A3A8F
:1007E0000020593A0020436F756E7420583A00205B
:1007F000453A00205A3A0020593A00583A004469D4
:10080000666665723A200046726F6D5374703A00E6
:10081000537465707065723A00556E4C6576656C00
:100820003A004C6576656C65643A005261773A200F
:10083000202020000A4C6F676963616C3A003A001F
:100840004361703A00544845524D414C5F50524FFD
:1008500054454354494F4E004155544F5245504F13
:1008600052545F53445F53544154555300454D45D2
:100870005247454E43595F50415253455200434100
:1008800053455F4C494748545F4252494748544E8C
:1008900045535300544F47474C455F4C49474854D4
:1008A0005300534F4654574152455F504F5745529E
:1008B000004255494C445F50455243454E54004C0C
:1008C0004556454C494E475F44415441005A5F509C
:1008D000524F4245004155544F4C4556454C0050EF
:1008E00052494E545F4A4F420050524F475245536F
:1008F00053004155544F5245504F52545F54454D4B
:100900005000564F4C554D455452494300454550B3
:10091000524F4D0053455249414C5F584F4E5F581E
:100920004F4646004649524D574152455F4E414D54
:10093000453A4D61726C696E20312E312E39202876
:100940004769746875622920534F555243455F4388
:100950004F44455F55524C3A68747470733A2F2F68
:100960006769746875622E636F6D2F4D61726C6973
:100970006E4669726D776172652F4D61726C696E3A
:100980002050524F544F434F4C5F56455253494F9E
:100990004E3A312E30204D414348494E455F54591F
:1009A00050453A5363616C617220584C5020455851
:1009B0005452554445525F434F554E543A31205599
:1009C0005549443A33396365666634342D383863A3
:1009D000612D313165362D616532322D3536623605
:1009E00062363439393631310A002F2F2000205435
:1009F00000205200416363656C65726174696F6EBB
:100A00003A2050003F4A206F7574206F6620726153
:100A10006E67652028302E303120746F20302E33E1
:100A2000290A00205A00205900580020204D6178E2
:100A30003A2000205A00205900580020204D696EAD
:100A40003A20004D617263686500417272657400FE
:100A5000536F667420656E6473746F70733A200010
:100A600020466C6F773A20004B6420002364656653
:100A7000696E652044454641554C545F004B6920E2
:100A80000023646566696E652044454641554C54B3
:100A90005F004B70200023646566696E65204445E5
:100AA0004641554C545F00504944204175746F7461
:100AB000756E652066696E6973686564212050757E
:100AC0007420746865206C617374204B702C204B0B
:100AD0006920616E64204B6420636F6E7374616E75
:100AE00074732066726F6D2062656C6F7720696E1B
:100AF000746F20436F6E66696775726174696F6E9B
:100B00002E680A00504944204175746F74756E65F3
:100B1000206661696C6564212074696D656F757408
:100B20000A00453120454D42414C4C454D454E54FF
:100B300020544845524D2E004245442054484552C9
:100B40004D414C2052554E415741590054686572F1
:100B50006D616C2052756E61776179004531204579
:100B6000727265757220646520636861756666657A
:100B7000004265642068656174696E67206661691A
:100B80006C65640048656174696E67206661696CB4
:100B9000656400504944204175746F74756E65201A
:100BA0006661696C6564212054656D70657261745D
:100BB00075726520746F6F20686967680A00204B42
:100BC000643A2000204B693A2000204B703A200004
:100BD0000A20436C617373696320504944200A0002
:100BE0002054753A2000204B753A2000206D617822
:100BF0003A2000206D696E3A200020643A200020DF
:100C0000626961733A2000504944204175746F74E1
:100C1000756E65206661696C65642120426164209F
:100C20006578747275646572206E756D6265720A9E
:100C300000504944204175746F74756E652073745B
:100C40006172740A0020746F6F206C6F6E6720658C
:100C50007874727573696F6E2070726576656E74E4
:100C600065640A00627573793A2070617573656412
:100C700020666F7220696E7075740A0062757379F0
:100C80003A2070617573656420666F7220757365B4
:100C9000720A00627573793A2070726F63657373BC
:100CA000696E670A004D4F52542E004B494C4C2040
:100CB000636175736564206279204B494C4C2062F6
:100CC0007574746F6E2F70696E0A004D4F52542EFA
:100CD000004B494C4C206361757365642062792038
:100CE000746F6F206D75636820696E6163746976D7
:100CF000652074696D65202D2063757272656E7450
:100D000020636F6D6D616E643A200052615A2E202F
:100D100053565000494D50522E2053544F50504579
:100D200045002F2F616374696F6E3A706F7765723B
:100D30006F66660A005072696E7465722068616C35
:100D40007465642E206B696C6C28292063616C6C5F
:100D50006564210A00656E7175657565696E672049
:100D60002200000000000000000000000000000061
:100D700048420000484200008040000000005761E7
:100D8000726E696E673A20486F6D696E67204275B2
:100D90006D702044697669736F72203C20310A00BF
:100DA0000202040000A0400000A04000000040003B
:100DB00000D7430000A04300009643FFFFFF2F2F02
:100DC000616374696F6E3A70617573650A00000043
:100DD0002110422063308440A550C660E77008812E
:100DE00029914AA16BB18CC1ADD1CEE1EFF13112A5
:100DF000100273325222B5529442F772D66239937E
:100E000018837BB35AA3BDD39CC3FFF3DEE36224F4
:100E1000433420040114E664C774A44485546AA5CD
:100E20004BB528850995EEE5CFF5ACC58DD5533684
:100E3000722611163006D776F6669556B4465BB71D
:100E40007AA719973887DFF7FEE79DD7BCC7C44854
:100E5000E5588668A7784008611802282338CCC96D
:100E6000EDD98EE9AFF9488969990AA92BB9F55AE4
:100E7000D44AB77A966A711A500A333A122AFDDBBD
:100E8000DCCBBFFB9EEB799B588B3BBB1AABA66CB4
:100E9000877CE44CC55C222C033C600C411CAEED0D
:100EA0008FFDECCDCDDD2AAD0BBD688D499D977EC4
:100EB000B66ED55EF44E133E322E511E700E9FFF5D
:100EC000BEEFDDDFFCCF1BBF3AAF599F788F889113
:100ED000A981CAB1EBA10CD12DC14EF16FE18010F7
:100EE000A100C230E3200450254046706760B983FA
:100EF0009893FBA3DAB33DC31CD37FE35EF3B10247
:100F00009012F322D2323542145277625672EAB509
:100F1000CBA5A89589856EF54FE52CD50DC5E23496
:100F2000C324A01481046674476424540544DBA7D9
:100F3000FAB79987B8975FE77EF71DC73CD7D326E6
:100F4000F2369106B01657667676154634564CD969
:100F50006DC90EF92FE9C899E9898AB9ABA9445836
:100F6000654806782768C018E1088238A3287DCB39
:100F70005CDB3FEB1EFBF98BD89BBBAB9ABB754A86
:100F8000545A376A167AF10AD01AB32A923A2EFDC9
:100F90000FED6CDD4DCDAABD8BADE89DC98D267CD6
:100FA000076C645C454CA23C832CE01CC10C1FEF19
:100FB0003EFF5DCF7CDF9BAFBABFD98FF89F176E26
:100FC000367E554E745E932EB23ED10EF01E7C3CA2
:100FD0003E5E2B3D3F2F5B5D3B2C2A225C00457221
:100FE000726F722077726974696E6720746F204522
:100FF0004550524F4D210A00454550524F4D2064F7
:1010000061746173697A65206572726F722E0A006D
:1010100050726F7465637465642050696E0A005382
:1010200074616E6461726420446576696174696F8D
:101030006E3A20002052616E67653A2000204D61B3
:10104000783A2000204D696E3A20004D65616E3A75
:10105000200046696E6973686564210A0020726128
:101060006E67653A2000206D61783A2000206D6936
:101070006E3A2000207369676D613A2000206D652B
:10108000616E3A20003A207A3A2000206F662000F4
:10109000205A00205900205800476F696E6720745D
:1010A0006F3A00436C6F636B776973650A00436F37
:1010B000756E7465722D0020446972656374696F82
:1010C0006E3A2000202020616E676C653A20005344
:1010D00074617274696E67207261646975733A2015
:1010E00000506F736974696F6E696E67207468650C
:1010F0002070726F62652E2E2E0A003F4E756D6253
:101100006572206F66206C65677320696E206D6F55
:1011100076656D656E74206E6F7420706C6175738A
:1011200069626C652028302D3135292E0A003F2058
:1011300028582C5929206F7574206F6620626F75AE
:101140006E64732E0A003F53616D706C6520736985
:101150007A65206E6F7420706C61757369626C655E
:101160002028342D3530292E0A004D3438205A2DB0
:1011700050726F6265205265706561746162696C5E
:1011800069747920546573740A003F285629657282
:10119000626F7365206C6576656C20697320696D7C
:1011A000706C61757369626C652028302D34292E4E
:1011B0000A0020573A004520436F6F6C696E672E16
:1011C0002E2E004520456E20636861756666652E8B
:1011D0002E2E0020573A0042656420636F6F6C69C1
:1011E0006E672E2E2E004C697420656E2063686138
:1011F000756666652E2E2E004D31343520533C69C0
:101200006E6465783E206F7574206F662072616E23
:1012100067652028302D31290A0050533A310A00E1
:1012200050533A300A005363616C617220584C503D
:101230002041727265742E0024F4D43050C38E2085
:10124000C2A24017828B7011127A910D816CD90A5B
:10125000A861E108C7586607615143061E4B5D054A
:10126000C145A7041A411104093D9803713931039E
:101270004036DB0265339102D4305402802E1D02C9
:10128000632CEE01752AC501B028A0011027810149
:101290008F2564012B244B01E0223401AC211F0176
:1012A0008D200D01801FFC00841EED00971DDF00C6
:1012B000B81CD200E61BC600201BBC00641AB2009A
:1012C000B219A8000A19A0006A189900D117910054
:1012D00040178B00B516840031167E00B3157900D7
:1012E0003A157300C7146F0058146A00EE136600B5
:1012F0008813630025135E00C7125B006C12570051
:1013000015125400C111510070114F0021114B00F2
:10131000D61049008D1047004610440002104200CC
:10132000C00F4000800F3E00420F3C00060F3B0004
:10133000CB0E3800930E37005C0E3500270E3400BC
:10134000F30D3200C10D3100900D3000600D2E0004
:10135000320D2D00050D2C00D90C2B00AE0C2900F0
:10136000850C29005C0C2700350C27000E0C26008C
:10137000E80B2400C40B2400A00B23007D0B2300EA
:101380005A0B2100390B2100180B2000F80A1F000E
:10139000D90A1E00BB0A1E009D0A1D00800A1D00FE
:1013A000630A1C00470A1B002C0A1B00110A1A00C2
:1013B000F7091A00DD091900C4091900AB09190061
:1013C000920917007B091800630917004C091600E1
:1013D00036091600200916000A091500F50815003F
:1013E000E0081400CC081400B8081400A408140085
:1013F000900813007D0812006B08130058081200B3
:1014000046081200340811002308110012081100C8
:1014100001081100F0071000E0071000D0071000CD
:10142000C0071000B0070F00A107100091070E00C1
:1014300083070F0074070F0065070E0057070E00A3
:1014400049070E003B070D002E070E0020070D0078
:1014500013070D0006070D00F9060C00ED060D0040
:10146000E0060C00D4060C00C8060C00BC060C00FC
:10147000B0060C00A4060B0099060C008D060B00AC
:1014800082060B0077060B006C060B0061060A0053
:1014900057060B004C060A0042060A0038060A00EE
:1014A0002E060A0024060A001A060A001006090081
:1014B00007060A00FD050900F4050900EB0509000F
:1014C000E2050900D9050900D0050900C705090092
:1014D000BE050900B5050800AD050800A505090011
:1014E0009C050800940508008C0508008405080088
:1014F0007C050800740508006C05070065050800F8
:101500005D050700560508004E0507004705070062
:101510004005080038050700310507002A050700C7
:10152000230507001C050600160507000F05070028
:101530000805060002050700FB040600F504070085
:10154000EE040600E8040600E2040700DB040600DF
:10155000D5040600CF040600C9040600C304060033
:10156000BD040600B7040600B1040500AC04060083
:10157000A6040600A00405009B04060095040500CF
:10158000900406008A040500850405008004060016
:101590007A04050075040500700405006B0405005D
:1015A00066040500610405005C040500570405009D
:1015B000520405004D0405004804050043040500DD
:1015C0003E0404003A04050035040500300404001C
:1015D0002C04050027040400230405001E04040055
:1015E0001A04040016040500110404000D0404008C
:1015F000090405000404040000040400FC030400C2
:10160000F8030400F4030400F0030400EC030400F6
:10161000E8030400E4030400E0030400DC03040026
:10162000D8030400D4030400D0030400CC03040056
:10163000C8030300C503030024F404D9201BC40C11
:101640005C0E9804C4095F0265077101F405F90096
:10165000FB04B30048048700C10369005803550028
:1016600003034500BE023A008402310053022A00FF
:101670002902250004022000E4011C00C801190011
:10168000AF011700980114008401130071011000CC
:101690006101100051010E0043010D0036010B00E5
:1016A0002B010B0020010B00150109000C010900A2
:1016B00003010800FB000800F3000800EB0007002E
:1016C000E4000600DE000600D8000600D200060096
:1016D000CC000500C7000500C2000500BD000400E5
:1016E000B9000400B5000400B1000400AD0004001E
:1016F000A9000400A5000300A20003009F0004004D
:101700009B00030098000300950002009300030073
:10171000900003008D0002008B000300880002008F
:101720008600020084000300810002007F000200A6
:101730007D0002007B0002007900020077000100BA
:1017400076000200740002007200010071000200C5
:101750006F0002006D0001006C0002006A000100D1
:1017600069000200670001006600010065000100D9
:1017700064000200620001006100010060000100DD
:101780005F0002005D0001005C0001005B000100E1
:101790005A000100590001005800010057000100E3
:1017A00056000100550001005400010053000000E4
:1017B00053000100520001005100010050000100DF
:1017C0004F0001004E0000004E0001004D000100DE
:1017D0004C0001004B0000004B0001004A000100DA
:1017E00049000100480000004800010047000100D6
:1017F00046000000460001004500000045000100D1
:1018000044000100430000004300010042000000CA
:1018100042000100410000004100010040000100C1
:101820003F0000003F0001003E0000003E000100BC
:101830003D0000003D0001003C0000003C000000B5
:101840003C0001003B0000003B0001003A000000AA
:101850003A000100390000003900010038000000A2
:101860003800000038000100370000003700010098
:101870003600000036000000360001003500000090
:101880003500000035000100340000003400000085
:101890003400010033000000330000003300010079
:1018A0003200000032000000320001003100000070
:1018B0003100000031000100300000003000000065
:1018C000300001002F0000002F0000002F0000005A
:1018D0002F0001002E0000002E0000002E0001004D
:1018E0002D0000002D0000002D0000002D00010043
:1018F0002C0000002C0000002C0000002C00010037
:101900002B0000002B0000002B0000002B0001002A
:101910002A0000002A0000002A0000002A0001001E
:101920002900000029000000290000002900000013
:101930002900010028000000280000002800000005
:1019400028000000280001002700000027000000F8
:1019500027000000270000002700010026000000EB
:1019600026000000260000002600000026000100DE
:1019700025000000250000002500000025000000D3
:1019800025000000250001002400000024000000C4
:1019900024000000240000002400010023000000B7
:1019A00023000000230000002300000023000000AB
:1019B000230000002300010022000000220000009C
:1019C000220000002200000022000000220001008E
:1019D0002100000021000000210000002100000083
:1019E0002100000021000000210001002000000073
:1019F0002000000020000000200000002000000067
:101A00002000000020000000200001001F00000056
:101A10001F0000001F0000001F0000001F0000004A
:101A20001F0000001F0001001E0000001E0000003B
:101A30001E0000001E000000122B000014220000F7
:101A4000091800001C0F0000AE080000AF040000E1
:101A5000710200003E0100004D4F52542E00202D17
:101A600020496E76616C696420657874727564656E
:101A700072206E756D62657220210A002020506C04
:101A8000616E6E65724275666665724279746573E1
:101A90003A20002046726565204D656D6F72793A77
:101AA0002000436F6D70696C65643A204175672052
:101AB000313420323031380A00207C20417574687E
:101AC0006F723A20286E6F6E652C205343414C4153
:101AD0005220584C50205636290A00323031382DC9
:101AE00030372D333100204C6173742055706461A0
:101AF0007465643A2000312E312E390A004D61722E
:101B00006C696E0020536F66747761726520526550
:101B10007365740A00205761746368646F672052AC
:101B2000657365740A002042726F776E206F75745A
:101B30002052657365740A002045787465726E6181
:101B40006C2052657365740A00506F77657255702A
:101B50000A0073746172740A006175746F25692ECE
:101B600067006572726F722077726974696E6720A0
:101B7000746F2066696C650A004275746565732030
:101B8000256320256320256320256300205A3A0021
:101B900020593A0020583A00656E6473746F707370
:101BA000206869743A2000446F6E6520736176691D
:101BB0006E672066696C652E0A004D3239004269F5
:101BC0006C696E656172204C6576656C696E672024
:101BD000477269643A0A00202844525952554E29E6
:101BE00000473239204175746F20426564204C658E
:101BF00076656C696E67003F20284C2C522C462C71
:101C00004229206F7574206F6620626F756E647351
:101C10002E0A003F2856296572626F7365206C6535
:101C200076656C20697320696D706C61757369628B
:101C30006C652028302D34292E0A00426164205A18
:101C40002076616C75650A004E6F2062696C696E62
:101C500065617220677269640A00205A3A20002088
:101C6000593A200042656420583A2000290A002091
:101C700062797465733B20637263200053657474EA
:101C8000696E67732053746F726564202800290A97
:101C9000002062797465733B2063726320002073B7
:101CA000746F7265642073657474696E67732072F3
:101CB0006574726965766564202800202863616C0C
:101CC00063756C6174656429210A0020213D200040
:101CD000454550524F4D20435243206D69736D610D
:101CE000746368202D202873746F72656429200046
:101CF0002053697A653A2000496E6465783A20007D
:101D0000204D61726C696E3D563535290A002845B3
:101D10004550524F4D3D00454550524F4D20766540
:101D20007273696F6E206D69736D617463682000F2
:101D300048617264636F6465642044656661756CB4
:101D4000742053657474696E6773204C6F616465A9
:101D5000640A00F4010000F401000003000000DC4C
:101D6000050000000016430000164300004040003C
:101D700000C8410000C8420000C8420000C8443307
:101D8000F3D243496E697469616C69736572204569
:101D90004550524F4D00436F6E74726F6C65720008
:101DA00052657374617572657220646566617574DD
:101DB00073004C69726520636F6E66696700496ED7
:101DC000697469616C6973657220454550524F4D65
:101DD0000053617576657220636F6E6669670046B1
:101DE000696C616D656E74004D6F7576656D656EBD
:101DF000740054656D7065726174757265004D652F
:101E00006E75207072696E636970616C004D33305D
:101E100033205531204525692053256900526567D7
:101E20006C2E2070726563682E204142530052650B
:101E3000676C2E2070726563682E20504C410050F4
:101E40004944204175746F74756E65005049442093
:101E50004175746F74756E65005049442D4400508F
:101E600049442D44005049442D49005049442D49CE
:101E7000005049442D50005049442D500002204646
:101E800061637465757200022046616374657572E2
:101E90000002204D61780002204D61780002204D43
:101EA00061780002204D696E0002204D696E0002CB
:101EB000204D696E004172726574004D61726368F5
:101EC000650054656D702E204175746F2E00566943
:101ED00074657373652076656E74696C2E0056693F
:101EE00074657373652076656E74696C2E004C6939
:101EF00074004C6974004275736500427573650027
:101F0000436F6E74726F6C657200536175766572A3
:101F100020636F6E666967004C6974004C697400D9
:101F20004275736500427573650056697465737315
:101F3000652076656E74696C2E00566974657373DE
:101F4000652076656E74696C2E0054656D706572DF
:101F50006174757265004739322045300A47312077
:101F60004636303020453130300A4739322045304E
:101F70000A4D313137205573657220536372697091
:101F80007420446F6E65004739322045300A47316E
:101F9000204636303020452D3130300A4739322046
:101FA00045300A4D313137205573657220536372C5
:101FB00069707420446F6E65004D313036205330A7
:101FC0000A4D313137205573657220536372697041
:101FD0007420446F6E65004D3130362053313237F6
:101FE0000A4D313137205573657220536372697021
:101FF0007420446F6E65004D3130362053323535D4
:102000000A4D313137205573657220536372697000
:102010007420446F6E650046616E20353020506537
:102020007263656E740046616E204F66660052658D
:102030007472616374203130306D6D0046616E20C2
:102040003130302050657263656E7400457874726B
:1020500075646572203130306D6D004D656E752090
:102060007072696E636970616C004D313235004D7C
:10207000323400496D70722E20416E6E756C65654C
:102080000050617320646520636172746500496D5E
:1020900070722E206465707569732053440041721C
:1020A000726574657220696D70722E00526570726F
:1020B000656E64726520696D70722E00496E666F80
:1020C0007320696D7072696D616E746500496E741C
:1020D0006572726F6D70726520696D70722E00434B
:1020E0006F6E74726F6C65720050726570617265AC
:1020F00072005265676C6572004C756D696572653A
:102100002063616973736F6E00436F6D6D616E6400
:10211000657320706572736F005375727665696CB4
:102120006C6572004261627973746570205A004375
:1021300068616E6765722066696C616D656E7400BA
:102140004261627973746570205A00466C7578003C
:10215000466C757800566974657373652076656E94
:1021600074696C2E00566974657373652076656EAC
:1021700074696C2E004C6974004C6974004275736C
:102180006500427573650048617574657572206CF1
:1021900069737365650048617574657572206C6953
:1021A0007373656500566974657373650056697469
:1021B00065737365004D656E75207072696E636935
:1021C00070616C0050757267657220656E636F7226
:1021D000650052657072656E64726520696D70721B
:1021E0002E004F5054494F4E5320524550524953A0
:1021F000453A002020427573653A20006368616E9D
:102200006765720064752066696C616D656E740047
:10221000417474656E74652044656D6172726167A6
:1022200065002020427573653A200064656368612B
:10223000726765722066696C616D656E74004174C9
:1022400074656E7465206465002020427573653A7C
:10225000200050617469656E74657A205356502E63
:102260002E2E004275736520656E20636861756669
:102270006665002020427573653A20005072206325
:1022800068617566666572206C61206275736500B1
:1022900050726573736572206C6520626F75746F20
:1022A0006E2E2E2E002020427573653A2000706F2E
:1022B000757220636F6E74696E7565722E2E2E00B6
:1022C0006574206170702E20626F75746F6E0049A6
:1022D0006E73657265722066696C616D656E7400FF
:1022E0002020427573653A20006368617267656DEE
:1022F000656E742066696C616D656E7400417474FE
:10230000656E7465206465002020427573653A200F
:10231000005075726765722066696C616D656E74D8
:1023200000417474656E746500706F75722072651B
:102330007072656E64726500417474656E746520B8
:10234000696D7072657373696F6E0043616E6E6F55
:1023500074206F70656E2073756264697220006509
:1023600063686F3A00453120454D42414C4C454D24
:10237000454E5420544845524D2E00424544205469
:102380004845524D414C2052554E415741590054F9
:102390006865726D616C2052756E6177617900536A
:1023A00044207072696E74696E672062797465206A
:1023B000004E6F74205344207072696E74696E67AA
:1023C0000A00010210202008081020401020408040
:1023D00002010201080402010102040810204080E9
:1023E0008040201008040201800402018040201077
:1023F00008040201080402010102040810204080C0
:10240000010204081020408000002200250028005E
:102410002B002E00310034000201000005010801EC
:102420000B01050505050705080808080202020258
:102430000A0A080804040404010101010101010160
:102440000303030303030303040707070C0C0C0C2B
:102450000C0C0C0C02020202060606060606060614
:102460000B0B0B0B0B0B0B0B20746F6F206C6F6E39
:102470006720657874727573696F6E207072657607
:10248000656E7465640A0053442063617264206F52
:102490006B0A006F70656E526F6F74206661696CB5
:1024A00065640A00766F6C756D652E696E697420BF
:1024B0006661696C65640A00534420696E69742022
:1024C0006661696C0A0057726974696E6720746F7F
:1024D0002066696C653A20006F70656E20666169E0
:1024E0006C65642C2046696C653A20006F70656EDF
:1024F000206661696C65642C2046696C653A200031
:1025000046696C652073656C65637465640A0020B8
:1025100053697A653A200046696C65206F70656E74
:1025200065643A20002066696C653A2000646F6932
:102530006E67006672657368004E6F772000454EC7
:102540004420535542524F5554494E450A002220CB
:10255000706F73002220706172656E743A220053AE
:102560005542524F5554494E452043414C4C2074DE
:1025700061726765743A22004D4F52542E00747296
:1025800079696E6720746F2063616C6C207375626B
:102590002D67636F64652066696C65732077697465
:1025A0006820746F6F206D616E79206C6576656C44
:1025B000732E204D4158206C6576656C2069733A06
:1025C000004572726F723A006F70656E20666169C5
:1025D0006C65642C2046696C653A200043616E6E20
:1025E0006F7420656E746572207375626469723AE7
:1025F0002000052E2E004D656E75207072696E6389
:102600006970616C0000546F74616C2066696C6164
:102610006D656E743A2000256C642E25696D00008E
:10262000496D70722E206C61202B206C6F6E677567
:10263000653A20000054707320696D70722E20740A
:102640006F74616C3A20005465726D696E656573D4
:102650003A20004E62726520696D7072657373690D
:102660006F6E733A200054656D70204D61783A208A
:102670003134300054656D70204D696E3A2035005C
:10268000544265643A3125206265746120333935DE
:10269000300054656D70204D61783A203237350036
:1026A00054656D70204D696E3A20350054303A20E3
:1026B0004154432031303447542D3200416C696D10
:1026C000656E746174696F6E3A204154580050729F
:1026D0006F746F636F6C653A20312E300042617504
:1026E000643A203131353230300052414D50532060
:1026F000312E34004E69766561752062696C696EB1
:102700006561697265004578747275646575727388
:102710003A203100687474703A2F2F6D61726C69C1
:102720006E66772E6F7267005363616C617220581A
:102730004C5000323031382D30372D333100312EAE
:10274000312E39004D61726C696E0053746174737F
:102750002E20696D7072696D616E746500546865D4
:10276000726D6973746F727300496E666F73206364
:102770006172746500496E666F7320696D7072696D
:102780006D616E7465004D656E75207072696E6363
:102790006970616C00446563686172676572206688
:1027A000696C2E004D373032004368617267657284
:1027B0002066696C2E004D373031004368616E67CA
:1027C00065722066696C616D656E74004D363030DF
:1027D00020423000507265706172657200494D5040
:1027E000522E2050415553450044454348415247DD
:1027F00045522046494C00434841524745522046E5
:10280000494C001000C90210012C01400122017046
:10281000011801B0010E01F00104015002FA00B0EC
:1028200002F0003003E600D003DC009004D2007018
:1028300005C800A006BE000008B400B009AA00D078
:102840000BA000600E960060118C00001582002025
:10285000197800C01D6E00A0226400B0275A0090B5
:102860002C500000314600E0343C0010383200901B
:102870003A2800603C1E00A03D1400803E0A002063
:102880003F00004531204572723A2054454D502E8C
:10289000204D4158004572723A2054454D502E202B
:1028A0004D4158204C4954004D415854454D5020FD
:1028B000747269676765726564004531204572729C
:1028C0003A2054454D502E204D494E004572723AE3
:1028D0002054454D502E204D494E204C4954004D1A
:1028E000494E54454D50207472696767657265643E
:1028F000004D383420582059205A204500202F0000
:102900002042403A0020403A00001C1F11111F00D5
:10291000000006191803130C00040E1F041C00000D
:1029200000000E1315110E00001C101817050605E7
:1029300000040A0A0A0A11110E0C12120C000000FF
:1029400000001F1511151F00005072656368617546
:10295000666661676520504C412066696E6900506B
:10296000726563682E20504C41206C69740050726F
:102970006563686175666661676520504C4100500B
:102980007265706172657200507265636861756628
:1029900066616765204142532066696E6900507226
:1029A0006563682E20414253206C69740050726543
:1029B00063686175666661676520414253005072C5
:1029C000657061726572004D343238004D383000E8
:1029D000457465696E64726520616C696D2E004D89
:1029E000383100507265636861756666616765209D
:1029F0004142530050726563686175666661676540
:102A000020504C4100526566726F696469720041E2
:102A10006C6C756D657220616C696D2E0043686128
:102A20006E6765722066696C616D656E74004172D7
:102A30007265746572206D6F7465757273004D38C0
:102A400034005265676C2E20646563616C2E206FC4
:102A5000726967696E650048617574657572206C8E
:102A600069737365650048617574657572206C697A
:102A700073736565004172726574004D61726368BD
:102A800065005265676C2E204E69762E206C697445
:102A9000005265676C2E204E69762E206C6974009A
:102AA0004732380A473239004F726967696E6520CC
:102AB0005A204175746F2E00473238205A004F72E9
:102AC0006967696E652059204175746F2E00473221
:102AD000382059004F726967696E6520582041752A
:102AE000746F2E004732382058004F726967696E44
:102AF00065206175746F2E00473238004465706C34
:102B00006163657220756E20617865004D656E7534
:102B1000207072696E636970616C004563686563FB
:102B2000206F726967696E65007A5F6D696E3A2021
:102B300000795F6D696E3A2000785F6D696E3A20AA
:102B4000005265706F7274696E6720656E6473748D
:102B50006F70207374617475730A00FFFDFCFAF8DE
:102B6000F6F4F2F0EEECEAE9E7E5E3E1E0DEDCDAE8
:102B7000D9D7D5D4D2D0CFCDCBCAC8C7C5C3C2C090
:102B8000BFBDBCBAB9B7B6B4B3B2B0AFADACAAA909
:102B9000A8A6A5A4A2A1A09E9D9C9A999897959459
:102BA0009392908F8E8D8B8A898887868483828189
:102BB000807F7E7D7B7A7978777675747372717099
:102BC0006F6E6D6C6B6A696867666564636261608D
:102BD0005F5E5D5C5B5A5958585756555453525175
:102BE00050504F4E4D4C4B4A4A4948474646454443
:102BF00043424241403F3E3E3D3C3B3B3A39383800
:102C000037363535343332323130302F2E2E2D2CAD
:102C10002B2B2A292928272726252524232322214F
:102C20002120201F1E1E1D1C1C1B1B1A19191818E1
:102C3000171616151514131312121111100F0F0E6B
:102C40000E0D0D0C0C0B0A0A0909080807070606E9
:102C50000505040403030202010000000000010056
:102C60000000010000800055555500000040003371
:102C7000333300AAAA2A004992240000002000C78A
:102C8000711C0099991900D1451700555515003B45
:102C9000B113002449120011111100000010000F9F
:102CA0000F0F00E3380E0043790D00CCCC0C00C3AD
:102CB000300C00E8A20B0064210B00AAAA0A0070E5
:102CC0003D0A009DD80900427B090092240900DCDE
:102CD000D30800888808001042080000000800F0AF
:102CE000C107008787070075500700711C07003E69
:102CF000EB0600A1BC06006990060066660600703F
:102D00003E06006118060017F4050074D105005B4B
:102D1000B00500B2900500627205005555050078B7
:102D2000390500B81E0500050505004EEC040087B6
:102D3000D40400A1BD040090A7040049920400C17E
:102D40007D0400EE690400C7560400444404005C9E
:102D50003204000821040041100400000004003F78
:102D6000F00300F8E0030026D20300C3C30300CC45
:102D7000B503003AA803000A9B0300388E0300C085
:102D80008103009F750300D0690300505E03001D9E
:102D900053030034480300913D030033330300160E
:102DA000290300381F030097150300300C030003AC
:102DB0000303000BFA020049F10200BAE802005CCA
:102DC000E002002DD802002DD0020059C80200B048
:102DD000C0020031B90200DAB10200AAAA0200A0C2
:102DE000A30200BC9C0200FA9502005C8F0200DF87
:102DF00088020082820200457C02002776020027BA
:102E0000700200436A02007C640200D05E02003F50
:102E1000590200C85302004D3234004D3233202590
:102E20007300556E6B6E6F776E20636F6D6D616EA4
:102E3000643A2022002F2F616374696F6E3A7265C5
:102E400073756D650A00496E736572742066696CEE
:102E5000616D656E7420616E64207072657373209D
:102E6000627574746F6E20286F72204D313038296E
:102E70000A00456368656320736F6E64650A0045E8
:102E80006368656320736F6E646500205A3A2000A2
:102E900020593A200042656420583A20004F726958
:102EA00067696E6520257325732573205072656DE3
:102EB00069657200205072656D6965720A005A007A
:102EC000590058004F726967696E65200000002143
:102ED00000240027002A002D0030003300010100EB
:102EE00000040107010A0100002000230026002938
:102EF000002C002F00320000010000030106010930
:102F00000100000A0B02090C0D0E08070304010062
:102F100000000000000000000000000000000000B1
:102F2000000000000000000000000000001211106E
:102F30000000000000000000000000000000000091
:102F40000000000000000002436172746520726599
:102F5000746972656500436172746520696E73659A
:102F60007265650025753A25303275002530327559
:102F70003A25303275002D2D2D005344002020209D
:102F80002020200020202020005363616C617220EB
:102F9000584C502070726574652E005072696E74C2
:102FA000696E672E2E2E00496D70722E20656E2080
:102FB0007061757365004172726574004D61726372
:102FC0006865004C756D696572652063616973732E
:102FD0006F6E004C756D696E6F73697465004C752A
:102FE0006D696E6F73697465004D656E75207072E2
:102FF000696E636970616C004A756E6374696F6EA7
:1030000020446576004A756E6374696F6E2044656E
:1030100076004D6F7576656D656E74004520706144
:10302000732F6D6D0045207061732F6D6D005A20F8
:103030007061732F6D6D005A207061732F6D6D007C
:1030400059207061732F6D6D0059207061732F6D61
:103050006D0058207061732F6D6D00582070617382
:103060002F6D6D004D6F7576656D656E74005061E6
:10307000732F6D6D004A65726B00416363656C650B
:10308000726174696F6E0056656C6F636974650078
:10309000446563616C616765205A00446563616CD7
:1030A000616765205A00436F6E74726F6C657200C1
:1030B00043686172676572206D6D00436861726775
:1030C0006572206D6D0043686172676572206D6D79
:1030D00000446563686172676572206D6D004465C8
:1030E00063686172676572206D6D00446563686135
:1030F00072676572206D6D004469616D2E204669AE
:103100006C2E004469616D2E2046696C2E00417260
:10311000726574004D6172636865004520656E20BC
:103120006D6D33004176616E6365204B00417661C1
:103130006E6365204B00436F6E74726F6C65720036
:1031400056206465706C2E206D696E005620646593
:10315000706C2E206D696E0056206465706C2E2098
:103160006D696E00566D696E2000566D696E2000A7
:10317000566D696E2000566D6178204500566D6170
:1031800078204500566D6178204500566D617820A5
:103190005A00566D6178205A00566D6178205A00A9
:1031A000566D6178205900566D6178205900566D32
:1031B0006178205900566D6178205800566D61780D
:1031C000205800566D61782058004D6F7576656DFA
:1031D000656E7400416D6178204500416D61782015
:1031E0004500416D6178205A00416D6178205A0098
:1031F000416D6178205900416D6178205900416D21
:103200006178205800416D61782058004120446564
:10321000706C2E0041204465706C2E004120726558
:10322000747261697400412072657472616974001E
:10323000416363656C65726174696F6E00416363BD
:10324000656C65726174696F6E004D6F7576656D42
:10325000656E7400446563616C61676573206170BD
:10326000706C6971756573004572723A20546F6FA6
:10327000206661722100546F6F2066617220667251
:103280006F6D207265666572656E636520706F692B
:103290006E740A00454550524F4D204F4B0A003A7C
:1032A000200050726F6265205A204F666673657405
:1032B000003F5A206F7574206F662072616E6765DB
:1032C00020282D313020746F203130290A00496EBA
:1032D000736572742066696C616D656E7420616ED1
:1032E0006420707265737320627574746F6E202829
:1032F0006F72204D313038290A0050726573732087
:10330000627574746F6E20286F72204D31303829C9
:1033100020746F2068656174206E6F7A7A6C650A1C
:1033200000496E736572742066696C616D656E74B8
:1033300020616E6420707265737320627574746F9F
:103340006E20286F72204D313038290A003F4B2003
:1033500076616C7565206F7574206F662072616E82
:1033600067652028302D3130292E0A0041647661AE
:103370006E6365204B3D004465706C2E2058004400
:1033800065706C2E2059004465706C2E205A0045E3
:103390007874727564657572004465706C2E2030A7
:1033A0002E316D6D004465706C2E20316D6D0044C2
:1033B00065706C2E2031306D6D004465706C6163FA
:1033C000657220756E206178650045787472756449
:1033D000657572004465706C2E205A004465706CEF
:1033E0002E2059004465706C2E2058004578747268
:1033F0007564657572004465706C2E205A004465D2
:10340000706C2E2059004465706C2E20580050724C
:10341000657061726572006265640A002C207379C0
:103420007374656D2073746F7070656421204865D6
:10343000617465725F49443A2000426564206865A2
:103440006174696E67206661696C656400486561D6
:1034500074696E67206661696C656400453120455A
:103460007272657572206465206368617566666551
:103470000048656174696E67206661696C65640007
:103480004D4F52542E001000AA03F0013A01900251
:10349000220130031001D00302017004F70010056F
:1034A000ED00B005E5005006DD00F006D7009007FE
:1034B000D1003008CC00D008C7007009C300100A42
:1034C000BE00B00ABB00500BB700F00BB300900C6D
:1034D000B000D00DAA00100FA5005010A000901150
:1034E0009B00D0129600B014900090168B007018BC
:1034F0008500501A8000301C7B00B01E7500302102
:103500006F00B02369003026640010285F00902A05
:103510005A00702C5500F02E4F0070314800B03228
:103520004500F0334100703639001037370050380D
:10353000330090392D00D03A2700B03C1C00503D9C
:103540001700F03D1100903E0900D03FE5FF5265A5
:1035500073656E643A20006F6B000401E200112471
:103560001FBECFEFD1E2DEBFCDBF00E00CBF13E046
:10357000A0E0B2E0E8E2FFE702E00BBF02C0079084
:103580000D92A238B107D9F726E1A2E8B3E001C055
:103590001D92A532B207E1F71AE1CEEADAE100E0C6
:1035A00006C021970109802FFE010F94013FCD3AFB
:1035B000D10780E00807A9F70F9406240D94833FF4
:1035C0000C9400002F923F924F925F926F927F92E5
:1035D0008F929F92AF92BF92CF92DF92EF92FF9223
:1035E0000F931F93CF93DF93CDB7DEB7C258D109A6
:1035F0000FB6F894DEBF0FBECDBF21E02093900D33
:1036000080919C158D3411F40C94F827843511F4B5
:103610000C948936873411F00C94CD3680919A152C
:1036200090919B158B31910511F40C9479249CF4A5
:10363000843091053CF482309105ECF597FF34C05D
:103640000C94F4278430910509F451C60C9709F4C1
:103650008DC60C94F4278A32910511F40C94B82687
:1036600084F48D31910511F40C94B42614F40C9467
:10367000A9244E9711F00C94F4270E947F880C9493
:10368000CF368B35910511F40C947A278C35910542
:1036900011F40C947E278A35910511F00C94F427CF
:1036A000109287030C94CF368091700281110C9494
:1036B000D4360C94CF3620917002222311F40C944E
:1036C000CF3611E0029709F010E00E94A58582E54F
:1036D0000E94143F882309F45CC10E94963E6B014E
:1036E0007C014090A30D5090A40D6090A50D7090AA
:1036F000A60D2091A70D3091A80D4091A90D5091D4
:10370000AA0D2F962CAF3DAF4EAF5FAF2F97809194
:103710006A0D90916B0DA0916C0DB0916D0D63963B
:103720008CAF9DAFAEAFBFAF639720916E0D309160
:103730006F0D4091700D5091710D67962CAF3DAF9C
:103740004EAF5FAF679720E030E0A901C701B60137
:103750000F942435882309F4B0C5A3019201639620
:103760006CAD7DAD8EAD9FAD63970F942435811107
:1037700011C02F962CAD3DAD4EAD5FAD2F97679626
:103780006CAD7DAD8EAD9FAD67970F9424358823CA
:1037900009F493C520E030E0A901C701B6010F94F8
:1037A0002435881F8827881F18130BC080E090E0FD
:1037B000A0E8BFE3A7968CAF9DAFAEAFBFAFA79712
:1037C0000AC020E030E040E85FEBA7962CAF3DAFA9
:1037D0004EAF5FAFA797A301920163966CAD7DAD2D
:1037E0008EAD9FAD63970F94F23B6F966CAF7DAF3C
:1037F0008EAF9FAF6F972F962CAD3DAD4EAD5FADA9
:103800002F9767966CAD7DAD8EAD9FAD67970F948A
:10381000F23BA3966CAF7DAF8EAF9FAFA3976F9631
:103820002CAD3DAD4EAD5FAD6F97CA01B9010F94A0
:1038300089354B015C01A3962CAD3DAD4EAD5FAD1E
:10384000A397CA01B9010F9489359B01AC01C50149
:10385000B4010F94F33B0F94603E6B966CAF7DAF59
:103860008EAF9FAF6B9720E030E040E05FE30F94B6
:1038700089354B015C01A7019601C701B6010F9480
:1038800089356B017C01A5019401C501B4010F9438
:1038900089359B01AC01C701B6010F94F23B0F942F
:1038A000603E9B01AC01A7966CAD7DAD8EAD9FAD2A
:1038B000A7970F9489354B015C0163962CAD3DAD04
:1038C0004EAD5FAD6397C301B2010F94F33B20E0AF
:1038D00030E040E05FE30F9489356B017C01A396F3
:1038E0006CAD7DAD8EAD9FADA39790586B962CAD12
:1038F0003DAD4EAD5FAD6B970F94CF3C9B01AC01DE
:10390000C501B4010F9489359B01AC01C701B60113
:103910000F94F33BA30192010F94F23B6B017C01E6
:1039200067962CAD3DAD4EAD5FAD67972F966CADF4
:103930007DAD8EAD9FAD2F970F94F33B20E030E02F
:1039400040E05FE30F9489352B013C016B962CAD71
:103950003DAD4EAD5FAD6B976F966CAD7DAD8EADF1
:103960009FAD6F970F94CF3C9B01AC01C501B40193
:103970000F9489359B01AC01C301B2010F94F33B55
:103980002F962CAD3DAD4EAD5FAD2F970F94F23B12
:1039900014C089E40E94143F882329F00E94963EB7
:1039A0006B017C0103C0C12CD12C76018AE40E94FA
:1039B000143F8823F9F00E94963E67966CAF7DAF66
:1039C0008EAF9FAF679720E030E0A901C701B60135
:1039D0000F94243581111EC020E030E0A9016796C4
:1039E0006CAD7DAD8EAD9FAD67970F942435811181
:1039F00011C063C420E030E0A901C701B6010F94F3
:103A00002435882309F459C467961CAE1DAE1EAE3A
:103A10001FAE6797D701C601B0582F968CAF9DAFE8
:103A2000AEAFBFAF2F9767962CAD3DAD4EAD5FAD3E
:103A30006797505863962CAF3DAF4EAF5FAF63971B
:103A40009C01AD01BC01CD010F9489354B015C0196
:103A500063962CAD3DAD4EAD5FAD6397CA01B90124
:103A60000F9489359B01AC01C501B4010F94F33B60
:103A70000F94603EEB966CAF7DAF8EAF9FAFEB9730
:103A80008091A30D9091A40DA091A50DB091A60DCC
:103A90006B968CAF9DAFAEAFBFAF6B97A701960192
:103AA000BC01CD010F94F33BA7966CAF7DAF8EAFF9
:103AB0009FAFA7972091A70D3091A80D4091A90D18
:103AC0005091AA0D6F962CAF3DAF4EAF5FAF6F9781
:103AD00067962CAD3DAD4EAD5FAD67976F966CAD03
:103AE0007DAD8EAD9FAD6F970F94F33BC158DF4F07
:103AF000688379838A839B83CF57D04080916A0DF6
:103B000090916B0DA0916C0DB0916D0DA3968CAF43
:103B10009DAFAEAFBFAFA397A7962CAD3DAD4EAD59
:103B20005FADA797BC01CD010F94F23B6B017C0107
:103B300020916E0D30916F0D4091700D5091710D6F
:103B4000AB962CAF3DAF4EAF5FAFAB97C158DF4FD9
:103B5000288139814A815B81CF57D040AB966CADCB
:103B60007DAD8EAD9FADAB970F94F23B4B015C01E9
:103B70008091AB0D9091AC0DA091AD0DB091AE0DBB
:103B8000AF968CAF9DAFAEAFBFAFAF979C01AD010D
:103B90006091720D7091730D8091740D9091750DFF
:103BA0000F94F23B2B013C012091760D3091770D63
:103BB0004091780D5091790DEF962CAF3DAF4EAFFF
:103BC0005FAFEF978091AF0D9091B00DA091B10DC7
:103BD000B091B20DE7968CAF9DAFAEAFBFAFE79798
:103BE000A70196012F966CAD7DAD8EAD9FAD2F9741
:103BF0000F948935E3966CAF7DAF8EAF9FAFE3979F
:103C0000A501940163966CAD7DAD8EAD9FAD6397BC
:103C10000F9489359B01AC01E3966CAD7DAD8EAD03
:103C20009FADE3970F94F33BE3966CAF7DAF8EAF00
:103C30009FAFE397A50194012F966CAD7DAD8EAD3E
:103C40009FAD2F970F9489354B015C01A701960119
:103C500063966CAD7DAD8EAD9FAD63970F94893546
:103C60009B01AC01C501B4010F94F23BE3962CAD6E
:103C70003DAD4EAD5FADE3970F94663C6B017C01AB
:103C800020E030E0A9010F94243587FF0AC02BED16
:103C90003FE049EC50E4C701B6010F94F33B6B01E0
:103CA0007C01112351F02BED3FE049EC50E4C701BA
:103CB000B6010F94F23B6B017C0120E030E0A901DA
:103CC000C701B6010F942435811128C0A3962CADED
:103CD0003DAD4EAD5FADA3976B966CAD7DAD8EAD3A
:103CE0009FAD6B970F942435811118C0AB962CAD06
:103CF0003DAD4EAD5FADAB976F966CAD7DAD8EAD0E
:103D00009FAD6F970F942435811108C05BEDC52ED0
:103D10005FE0D52E59ECE52E50E4F52EA701960173
:103D2000EB966CAD7DAD8EAD9FADEB970F94893565
:103D30004B015C0120E030E0A901C301B2010F9406
:103D400024358823C9F0A5019401C501B4010F945D
:103D500089354B015C01A3019201C301B2010F94AB
:103D600089359B01AC01C501B4010F94F33B0F945D
:103D7000603E4B015C010DC020E030E0A901C501AF
:103D8000B4010F941A3E87FF04C0B7FAB094B7F895
:103D9000B0942FE632E143E85AE3C501B4010F9431
:103DA000243587FF02C00C94CF36C501B4010F94AF
:103DB000683D0F943C3D1B01672B19F4222423948A
:103DC000312CB10180E090E00F9428354B015C016B
:103DD0009B01AC01C701B6010F94CF3C6B966CAF51
:103DE0007DAF8EAF9FAF6B97A5019401C301B20168
:103DF0000F94CF3CEB966CAF7DAF8EAF9FAFEB9740
:103E0000E7962CAD3DAD4EAD5FADE797EF966CAD4F
:103E10007DAD8EAD9FADEF970F94F23BA501940160
:103E20000F94CF3CEF966CAF7DAF8EAF9FAFEF9707
:103E30006B962CAD3DAD4EAD5FAD6B97CA01B90130
:103E40000F94893520E030E040E05FE30F9489353E
:103E50009B01AC0160E070E080E89FE30F94F23BCF
:103E6000AB966CAF7DAF8EAF9FAFAB97AF962CADDF
:103E70003DAD4EAD5FADAF9729873A874B875C87E5
:103E8000E7968CAD9DADAEADBFADE7978D879E87B4
:103E9000AF87B88B8E01095B1F4F6091480270910C
:103EA0004902072E000C880B990B0F942A3520919C
:103EB0005D0230915E0240915F02509160020F946A
:103EC00089352AE037ED43E25CE30F948935D80168
:103ED0006D937D938D939C9313970E9402F29B01A7
:103EE000AC0128533F4F4F4F5F4FAF962CAF3DAFC4
:103EF0004EAF5FAFAF972C964FAC2C972D965FAC23
:103F00002D972E966FAC2E972F967FAC2F9741E072
:103F100050E0A1965FAF4EAFA19759E16C965FAFAD
:103F20006C97E4960FAFE497E0961FAFE097A196E9
:103F30002EAD3FADA1972215330509F460C10F9452
:103F4000AE1F0E9402F2DC01CB01AF962CAD3DAD5D
:103F50004EAD5FADAF97821B930BA40BB50BB7FDB6
:103F600011C00E9402F29B01AC0128533F4F4F4FFA
:103F70005F4FAF962CAF3DAF4EAF5FAFAF9780E0D6
:103F80000E9477566C963FAD6C9731506C963FAF60
:103F90006C97332309F44BC0AB962CAD3DAD4EADC1
:103FA0005FADAB9763966CAD7DAD8EAD9FAD639706
:103FB0000F9489356B017C016B962CAD3DAD4EADF8
:103FC0005FAD6B97B201C3010F948935A7019601CC
:103FD0000F94F33B7B018C01AB962CAD3DAD4EAD08
:103FE0005FADAB97B201C3010F9489354B015C0102
:103FF0006B962CAD3DAD4EAD5FAD6B9763966CADE2
:104000007DAD8EAD9FAD63970F9489359B01AC015B
:10401000C501B4010F94F23B2B013C01C701D8014B
:1040200063968CAF9DAFAEAFBFAF639761C0A196F3
:104030004EAD5FADA197BA0180E090E00F942835B6
:104040006B962CAD3DAD4EAD5FAD6B970F94893542
:104050004B015C010F94CC3C6B017C01C501B401A8
:104060000F94563E4B015C01A70196012F966CAD53
:104070007DAD8EAD9FAD2F970F9489352B013C01FF
:10408000A501940167966CAD7DAD8EAD9FAD679730
:104090000F9489359B01AC01C301B2010F94F33B2E
:1040A0002B013C01A50194012F966CAD7DAD8EAD29
:1040B0009FAD2F970F9489354B015C01A7019601A5
:1040C00067966CAD7DAD8EAD9FAD67970F948935CA
:1040D0009B01AC01C501B4010F94F23B63966CAF38
:1040E0007DAF8EAF9FAF639759E16C965FAF6C97D2
:1040F0009201A301A7966CAD7DAD8EAD9FADA79744
:104100000F94F33B69837A838B839C8363962CADF6
:104110003DAD4EAD5FAD6397C158DF4F688179818A
:104120008A819B81CF57D0400F94F33B6D837E8370
:104130008F839887EB962CAD3DAD4EAD5FADEB9781
:1041400069857A858B859C850F94F33B69877A878F
:104150008B879C87EF962CAD3DAD4EAD5FADEF9755
:104160006D857E858F8598890F94F33B6D877E875B
:104170008F87988BCE0101960F949A21E090910D34
:1041800023961CAE1DAE1EAE1FAE239789819A8169
:10419000AB81BC8188A399A3AAA3BBA38D819E8177
:1041A000AF81B8858CA39DA3AEA3BFA389859A8553
:1041B000AB85BC8588A799A7AAA7BBA7AE01485D18
:1041C0005F4FBE016C5D7F4FCE0180960E94F3E28F
:1041D000CE01CF966C01E4960FADE497E0961FAD4B
:1041E000E0979E01235F3F4FAE01485D5F4FBE01E8
:1041F0006C5D7F4F4F970E945EB7811154C0E09075
:10420000910D27961CAE1DAE1EAE1FAE2797809156
:104210006A0D90916B0DA0916C0DB0916D0D88A3FE
:1042200099A3AAA3BBA380916E0D90916F0DA0914D
:10423000700DB091710D8CA39DA3AEA3BFA380910F
:10424000720D9091730DA091740DB091750D88A7AA
:1042500099A7AAA7BBA7AE01485D5F4FBE016C5DE1
:104260007F4FCE0180960E94F3E2DE01AD5BBF4F2F
:104270006D018E01095B1F4F26E73DE0AE01485DF1
:104280005F4FBE016C5D7F4FCE0180960E945EB78E
:1042900080E1EAE6FDE0A3EABDE001900D928A9597
:1042A000E1F70C94CF36A196EEADFFADA197319614
:1042B000A196FFAFEEAFA1973ACEE1ECF5E2849183
:1042C0008F010F5F1F4F882321F00E94FA3FF801F2
:1042D000F6CFE7E6F3E084918F010F5F1F4F88234D
:1042E00011F40C94CF360E94FA3FF801F4CF80E528
:1042F0000E94143F882329F00E94563E6B017C01E6
:1043000003C0C12CD12C760183E50E94143F882381
:1043100061F00E94963E20E030E04AE754E40F94BA
:1043200089350F943C3D6B017C010E949CC88091B3
:10433000A40A811105C060E08DE793E00E94C0F9F6
:104340000E9402F2C60ED71EE81EF91E0E9402F25B
:10435000DC01CB018C199D09AE09BF09B7FD02C074
:104360000C94CF3680E00E947756F0CF0E94DDE7B4
:1043700081110C94CF3680E50E94143F882321F0F0
:104380000E94663E162F01C010E083E50E94143F94
:10439000882321F00E94663E1B0103C03CE0232ECF
:1043A000312C2C962FAE2C9784E50E94143F882345
:1043B00021F00E94663E762E02C023E0722E82E536
:1043C0000E94143F882329F00E94963E4B015C0115
:1043D00006C0812C912C90EDA92E90E4B92E1130BD
:1043E00021F0123009F420C1EFC180E090E0A8EC88
:1043F000B2E488A399A3AAA3BBA380E090E0A0E7BE
:10440000B2E48CA39DA3AEA3BFA380E090E0A0E89C
:10441000BFE388A799A7AAA7BBA740E050E060EF39
:1044200071E449835A836B837C834D835E836F83FE
:10443000788789879A87AB87BC878091A30D9091F5
:10444000A40DA091A50DB091A60D6B968CAF9DAF5C
:10445000AEAFBFAF6B978090A70D9090A80DA090C6
:10446000A90DB090AA0D2091AB0D3091AC0D4091EB
:10447000AD0D5091AE0D6F962CAF3DAF4EAF5FAF0F
:104480006F972E013FE3430E511CD2011D921D92E6
:104490001D921C9213976201E12CF12C00E81FE39E
:1044A00020E030E040EF51E4CA01B9010E94403CF5
:1044B000770C60967FAE6097E72DF0E06596FFAFD2
:1044C000EEAF6597BF01FF0F880B990B0F942A354C
:1044D0009B01AC0160E070E08CE892E40F94CF3C6B
:1044E0006B017C0100E012012C96BFAD2C970B17DD
:1044F00008F07FC010E0812F012E000C990B65960B
:10450000EEADFFAD65978E179F07B4F510FD05C0A2
:104510009E012F5F3F4F390104C0AE01405E5F4FE7
:104520003A0127961CAE1DAE1EAE1FAE2797612F17
:10453000012E000C770B880B990B0F942A35A701DD
:1045400096010F9489359B01AC0169817A818B8139
:104550009C810F94F33BD1016D937D938D939C933C
:104560001397B3016C5F7F4FAE014D5B5F4FC2018C
:104570000E941D3D1F5FBFCF60961FAD609717FD66
:1045800036C010FD05C09E012F5F3F4F390104C0AA
:10459000AE01405E5F4F3A0127961CAE1DAE1EAEC7
:1045A0001FAE2797612F012E000C770B880B990BFC
:1045B0000F942A35A70196010F9489359B01AC0110
:1045C00069817A818B819C810F94F33BD1016D933A
:1045D0007D938D939C931397B3016C5F7F4FAE01D6
:1045E0004D5B5F4FC2010E941D3D1150C8CF0F5F50
:1045F0007BCF23961CAE1DAE1EAE1FAE2397FE01D1
:10460000FF966F016F96ECACFDAC0EAD1FAD6F97D2
:10461000A50194016B966CAD7DAD8EAD9FAD6B9792
:104620000E94403C0C94CF3680E090E0A0EFB1E4D3
:1046300089839A83AB83BC838D839E83AF83B88742
:1046400080E090E0A0E8BFE389879A87AB87BC87CA
:104650002C96FFAD2C97FF2311F40C94CF362091AC
:10466000A30D3091A40D4091A50D5091A60D639618
:104670002CAF3DAF4EAF5FAF63978091A70D909188
:10468000A80DA091A90DB091AA0D67968CAF9DAF12
:10469000AEAFBFAF67974090AB0D5090AC0D609040
:1046A000AD0D7090AE0D18A219A21AA21BA2DE01C8
:1046B00090966D01E12CF12C00E81FE320E030E042
:1046C00040EF51E4CA01B9010E94403C10E0212CA6
:1046D000312C18A219A21AA21BA2B101032C000CA2
:1046E000880B990B0F942A352CE739ED40E25FE3F4
:1046F0000F9489356B017C010F94CC3CA50194018A
:104700000F94893520E030E040EF51E40F94F33B03
:1047100023966CAF7DAF8EAF9FAF2397C701B601D5
:104720000F94563EA50194010F94893520E030E0A6
:1047300040EF51E40F94F33B27966CAF7DAF8EAF03
:104740009FAF2797AE01405E5F4FBE01615C7F4F18
:10475000CE018D5B9F4F0E941D3DBFEF2B1A3B0A80
:10476000EAE02E16310409F0B4CF1F5F2C96FFAD9E
:104770002C971F1708F4ABCF18A219A21AA21BA2DC
:10478000AE01405E5F4FBE016B5F7F4FCE01019671
:104790000E941D3D18A219A21AA21BA29E01205E12
:1047A0003F4F69018301720167962CAD3DAD4EAD5F
:1047B0005FAD679763966CAD7DAD8EAD9FAD639732
:1047C0000E94403C0C94CF3680E090E0A8ECB2E42C
:1047D00089839A83AB83BC8380E090E0A0E7B2E456
:1047E0008D839E83AF83B88780E090E0A0E8BFE32D
:1047F00089879A87AB87BC8740E050E060EF71E41F
:1048000048A359A36AA37BA34CA35DA36EA37FA374
:1048100088A799A7AAA7BBA78091A30D9091A40DE3
:10482000A091A50DB091A60D2F968CAF9DAFAEAF08
:10483000BFAF2F978090A70D9090A80DA090A90DC5
:10484000B090AA0D4090AB0D5090AC0D6090AD0DA6
:104850007090AE0D23961CAE1DAE1EAE1FAE2397FC
:10486000DE01DF966D01E12CF12C00E81FE39A01D7
:10487000AB01CA01B9010E94403C3324359427940E
:1048800010E0812F90E023961CAE1DAE1EAE1FAE31
:10489000239782159305E4F4AE01415C5F4FBE019E
:1048A0006B5F7F4FCE0101960E941D3D23961CAE8B
:1048B0001DAE1EAE1FAE2397AE01415C5F4FBE0121
:1048C0006C5D7F4FCE0180960E941D3D1F5FD9CF4A
:1048D000FE01FF966F0183017201A50194012F96DD
:1048E0006CAD7DAD8EAD9FAD2F970E94403C0C947A
:1048F000CF360E94DDE781110C94CF3680E090E046
:10490000A0E2B1E489839A83AB83BC8380E090E02A
:10491000ABE9B3E48D839E83AF83B88780E090E0FA
:10492000A0EAB1E489879A87AB87BC8780E50E94BB
:10493000143F882319F00E94663E01C060E068A31E
:10494000BE016F5F7F4FCE0180960E94F9E50C9407
:10495000CF368091920D8770873071F48FE40E947A
:10496000143F882319F00E94873E03C08FE40E9401
:10497000CD3E81110C94CF360E949CC880E00E94ED
:104980002F880E94213C11E010933B050E9409E70B
:1049900088E50E94CD3E282E89E50E94CD3E382E26
:1049A0008AE50E94CD3E64968FAF6497211004C0C3
:1049B000311004C0182707C0311002C010E003C036
:1049C00064961FAD64970E94E63F82E50E94143F03
:1049D000882361F00E94963E6B017C0120E030E06C
:1049E000A9010F942435882379F106C0C12CD12C5C
:1049F000E0ECEE2EE0E4FE2E111105C0211003C004
:104A0000332009F43CC1C092720DD092730DE09234
:104A1000740DF092750D2091AB0D3091AC0D40915D
:104A2000AD0D5091AE0DC701B6010F941A3E181688
:104A30005CF419821A821B821C82BE016F5F7F4F59
:104A400082E79DE00E943E3D11110DC0211003C080
:104A5000311010C114C1311006C080E00E942354EF
:104A60001123B1F307C11092A70D1092A80D109257
:104A7000A90D1092AA0D1092A30D1092A40D1092E0
:104A8000A50D1092A60D0E940F3EEBEBFDE02491C8
:104A9000A0962FAFA097EFEAFDE045905590659066
:104AA0007490E3EBFDE085909590A590B490A501FE
:104AB0009401C301B2010F941A3E18162CF4A301FD
:104AC0009201C501B40104C0A5019401C301B20162
:104AD0000F94CF3C6B017C01E2E7FDE0859195915D
:104AE000A591B4912F968CAF9DAFAEAFBFAF2F976E
:104AF000EEE6FDE0259135914591549163962CAFFA
:104B00003DAF4EAF5FAF63979C01AD0163966CAD57
:104B10007DAD8EAD9FAD63970F94243587FD16C094
:104B20002C960FAD2C972D963FAD2D9768963FAFE5
:104B300068972E964FAD2E976C964FAF6C972F9629
:104B40005FAD2F972C965FAF2C9715C060960FAD79
:104B5000609761968FAD619768968FAF6897629600
:104B60009FAD62976C969FAF6C976396AFAD63975E
:104B70002C96AFAF2C97A7019601C701B6010F94F1
:104B8000893520E030E040E85FE30F94F33B0F9479
:104B9000603E9B01AC01602F68967FAD68976C9674
:104BA0008FAD6C972C969FAD2C970F9489352396DB
:104BB0006CAF7DAF8EAF9FAF2397ECEBFDE0049120
:104BC00020E030E040EC5FE3C501B4010F9489358B
:104BD0006B017C01602F000F770B880B990B0F94F2
:104BE0002A359B01AC01C701B6010F948935698351
:104BF0007A838B839C8320E030E040EC5FE3C30149
:104C0000B2010F9489356B017C01A096BFADA097CE
:104C10006B2FBB0F770B880B990B0F942A359B01D9
:104C2000AC01C701B6010F94893568A379A38AA3A3
:104C30009BA3AE01415C5F4FBE016F5F7F4FCE0112
:104C400080960E941D3D0E94D2E71092A70D1092FF
:104C5000A80D1092A90D1092AA0D1092A30D1092FA
:104C6000A40D1092A50D1092A60D1111F6CE2110D3
:104C7000F4CEEECE81E00E942354111106C064965A
:104C8000EFAD6497EE2309F45EC08091920D8370BE
:104C90008330E9F060E08AE993E00E94C0F9EFE533
:104CA000F3E284918F010F5F1F4F882321F00E9450
:104CB000FA3FF801F6CFE6E8F3E084918F010F5F49
:104CC0001F4F8823F1F10E94FA3FF801F6CF0E94AE
:104CD0000F3E80E090E0A0E2B3E480936E0D9093ED
:104CE0006F0DA093700DB093710D8091AB0D9091ED
:104CF000AC0DA091AD0DB091AE0D8093720D90935F
:104D0000730DA093740DB093750D80E090E0AAE749
:104D1000B3E480936A0D90936B0DA0936C0DB093E8
:104D20006D0D19821A821B821C82AE014F5F5F4F8C
:104D30006EE67DE08AE69DE00E941D3D82E00E94D5
:104D400023540E945D850E940F3E80913A05809316
:104D50003B050E9409E70E94083C83E080934A02D9
:104D60000E944A4F0C94CF360E94688B0C94CF3629
:104D700080917002882311F40C94CF3689E40E944C
:104D8000143F182F882321F00E94663EE62E01C0B2
:104D9000E12C8AE40E94143FF82E882331F00E940F
:104DA000663E062F111104C00BC000E01123B9F0BC
:104DB000F2E0FE1510F00C94AA37EDEAF3E003C020
:104DC0000330D8F70CC084918F010F5F1F4F8823E9
:104DD00011F40C94CF360E94FA3FF801F4CF0E94F0
:104DE000E63F1123F1F020912C0D30912D0D4E2D29
:104DF0004203B001439F700D11242091FE063091B3
:104E0000FF06620F731F072E000C880B990B0F947F
:104E10002A3560936A0D70936B0D80936C0D90939F
:104E20006D0DFF20E9F020912E0D30912F0D020322
:104E3000B001039F700D112480910007909101072C
:104E4000680F791F072E000C880B990B0F942A35D9
:104E500060936E0D70936F0D8093700D9093710D34
:104E600080E50E94143F8823E9F00E94873E882352
:104E7000E9F01123D9F020E030E04CE052E46091F9
:104E80006A0D70916B0D80916C0D90916D0D0F946A
:104E9000F33B60936A0D70936B0D80936C0D909350
:104EA0006D0D04C080E50E94CD3EE1CF86E40E94F6
:104EB000143F8823D9F00E94963E6B017C0120E0CC
:104EC00030E0A9010F941A3E181684F420E030E077
:104ED00040E752E4C701B6010F94CF3C60935D02F6
:104EE00070935E0280935F02909360020E94715AF9
:104EF0000C94CF36209387030C94CF3661E4262E92
:104F000063E0362E7AE5C72E74E0D72EE12CF12C23
:104F100000E010E0D1018D911D010E94143F882313
:104F200009F44EC00E94963E2B013C01133059F00B
:104F3000F701ED56F24F20813181428153810F9468
:104F4000F23B2B013C01F701ED55F24F20813181FD
:104F500042815381C301B2010F94F23B4B015C01CA
:104F60002DEB37E346E855EB0F941A3E87FD0AC058
:104F70002DEB37E346E855E3C501B4010F94243522
:104F80001816F4F4133051F44092AF0D5092B00D56
:104F90006092B10D7092B20D01E012C0A5019401B2
:104FA000F60160817181828193810F94F33BD60178
:104FB0006D937D938D939C931397812F0E945C3DFD
:104FC0001F5FB4E0CB0ED11CE4E0EE0EF11C1430F8
:104FD00009F0A0CF002321F08FEA9DE00E947FE836
:104FE0000E944A4F0C94CF360E94DCEC0C94CF36D2
:104FF00080919A1590919B158737910511F40C9427
:1050000041300CF0F2C08C34910509F486C50CF0E7
:1050100082C08A31910509F4D5C2ECF5843191053D
:1050200009F48EC27CF48131910509F47AC22CF422
:10503000029708F4EBC10C948636429709F4A1C795
:105040000C9486368731910509F4B4C274F4853125
:10505000910509F4ABC2469711F00C948636109274
:10506000C7071092C8070C94CF368831910509F410
:10507000A5C2499711F00C9486361092C7070F9479
:105080002A218FE094E09093620D8093610D0E943D
:10509000B03D0C94CF368F31910509F4EBC484F404
:1050A0008C31910509F437C30CF49AC28D31910506
:1050B00011F40C94CF364E9709F437C30C9486360E
:1050C0008A32910509F400C5CCF48032910509F4C7
:1050D000BDC3819711F00C948636C0909815D0907E
:1050E000991582E080936B0AF60101900020E9F7A0
:1050F00031974F018C189D08F601EFC3803391055D
:1051000009F407C58B34910511F00C9486360F9481
:10511000C9100C94CF368936910509F4BFC68CF5B9
:105120008235910509F426C79CF48E34910509F463
:10513000FCC40CF4F6C48035910509F418C7813518
:10514000910511F00C9486360E94C86C0C94CF36F1
:105150008535910509F418C754F48335910509F490
:105160000CC78435910509F40CC70C9486368C3530
:10517000910509F40CC78836910509F4D7C50C943C
:1051800086368F36910509F412C684F48B36910564
:1051900009F4E7C60CF4E2C68D36910509F4BEC6E3
:1051A0008E36910509F4F1C50C9486368337910546
:1051B00009F461C76CF48137910509F446C682375A
:1051C000910511F00C9486360E9437500C94CF361E
:1051D0008537910509F452C78637910511F00C9473
:1051E00086360E948C4E0C94CF368F32F1E09F07AA
:1051F00011F40C948F310CF072C08B3C910509F4C2
:1052000073C7BCF58139910509F44DC784F489371A
:10521000910509F441C70CF437C78D37910509F49E
:10522000A3C68C38910509F47CC60C9486368E3B57
:10523000910509F490C654F48639910509F436C7EE
:105240008B39910509F445C60C948636883C910546
:1052500009F42FC7893C910511F00C94863618E6A5
:10526000E12E1EE0F12E01E413E084E0D82ED00EF2
:1052700023C78C3D910509F47FC79CF48D3C9105B3
:1052800009F452C70CF44DC78E3C910509F44FC781
:10529000833D910511F00C9486360E942F4B0C949F
:1052A000CF36823231E0930709F46CC76CF48D3D40
:1052B000910509F464C7823E910511F00C9486367D
:1052C0000E94484A0C94CF368C3251E0950709F47D
:1052D0005CC78D32914009F481C70C948636863FB5
:1052E000B1E09B0711F40C9405340CF049C08239ED
:1052F000F1E09F0711F40C94533204F5833631E04A
:10530000930711F40C940F323CF48033914011F464
:105310000C9492310C9486368039A1E09A0711F4EE
:105320000C9450328139914011F00C94863681E012
:105330000E94C48A0E944A4F0C94CF368C3AE1E016
:105340009E0709F416C76CF4843A21E0920711F421
:105350000C945B32853A914011F40C946E330C94AA
:105360008636843F41E0940711F40C940234853F63
:10537000914011F00C9486360E94A8970C94CF3679
:105380008E3BA2E09A0711F40C94A735ECF4883513
:10539000E2E09E0711F40C9408344CF4883F9140ED
:1053A00011F00C9486360F946A160C94CF368B3518
:1053B00032E0930711F40C940B348D3B924011F4BE
:1053C0000C9494340C9486368B3853E0950711F482
:1053D0000C94CF367CF48335B3E09B0711F40C9426
:1053E0006E368438934011F00C9486360F949F13D8
:1053F0000C94CF36803AF3E09F0709F42EC3873E22
:10540000934011F40C9471360C948636A090981544
:10541000B090991580E50E94143F882359F00E94AE
:10542000563E6B017C0111E0672B682B692B31F430
:1054300010E004C010E0C12CD12C760183E50E945D
:10544000143F882311F40C94D9360E94963E20E034
:1054500030E04AE754E40F9489350F943C3D6B01EA
:105460007C0111110BC0672B682B692B39F4A11437
:10547000B10421F0D5018C91811102C010E001C06E
:1054800011E00E949CC8112329F061E0C5010E942F
:10549000FCF905C060E08CEC93E00E94C0F983E069
:1054A0008093900D81E080938F0DC114D104E104AD
:1054B000F10449F10E9402F2C60ED71EE81EF91E41
:1054C0000E9402F2DC01CB018C199D09AE09BF09D3
:1054D000B7FD11C0809182038823E9F019821A82F6
:1054E0001B821C828FE78D83CE0101960E94B3CD73
:1054F0001092820310C080918F0D882359F380E0B1
:105500000E947756DDCF80918F0D882319F380E0BC
:105510000E947756F8CF0F94C80110928F0D0C940B
:10552000CF3660E08EED93E00E94C0F95F988A98D4
:105530008091080181708093060112980C94CF36F7
:10554000EEEFF3E084918F010F5F1F4F882321F06E
:105550000E94FA3FF801F6CF10926B0A40E050E04B
:10556000BA018EE198E00E94DE646AE178E0CE0143
:1055700001960E94C36140E050E0BE016F5F7F4F23
:1055800080E090E00E948AB5CE0101960E94F55518
:10559000EFEEF3E084918F010F5F1F4F882311F42A
:1055A0000C94CF360E94FA3FF801F4CF0E940ECE41
:1055B0000C94CF360E944D830C94CF360E947A779C
:1055C0000C94CF368091C807882311F40C94CF3601
:1055D00083E50E94143F81110C94DE360C94CF3683
:1055E00083E40E94CD3E882309F46CC0EEE1F4E030
:1055F00084918F010F5F1F4F882321F00E94FA3F93
:10560000F801F6CF8091B909882351F1BE016F5F8F
:105610007F4F86EB99E00E94086C8E010F5F1F4F51
:10562000F80181918F01882319F00E94FA3FF8CF89
:10563000BE016F5F7F4F80E090E00E940DCA8091B5
:10564000D7078823D1F180E20E94FA3F07ED17E0E7
:10565000D8018D918D01882381F10E94FA3FF8CF06
:10566000E4E1F4E084918F010F5F1F4F882329F15B
:105670000E94FA3FF801F6CF8091910A882309F43D
:10568000D7C337E0C32E35E0D32EE12CF12C20E038
:105690008091910A90E00E2C02C0959587950A940E
:1056A000E2F780FDADC3FFEFEF1AFF0A32E0C30E51
:1056B000D11C45E0E416F10459F78AE00E94FA3F54
:1056C0000C94CF3683E50E94143F882301F10E9499
:1056D000763E182F8D3308F01CE3109354040E947B
:1056E00002F26B017C01212F30E0A8EEB3E00F94B1
:1056F000E33BC60ED71EE81EF91EC0925004D0929E
:105700005104E0925204F09253040C94CF360E945C
:1057100004B30C94CF3640E060E0809198159091EE
:1057200099150E940ACB0C94CF368091C807882324
:1057300011F40C94CF3686EB99E00E94696786EBF2
:1057400099E00E942A691092C6071092C50700913D
:105750009815109199158091C807882311F40C941D
:10576000CF360E94FDCAB801CE0180960E9445CA7C
:105770008C01892B11F40C94CF3668A179A16115A5
:10578000710511F06C5F7F4F19821C8222E0A80125
:10579000CE0101960E941A6B811102C0F12C14C037
:1057A000CE0101960E94F8B48823C1F361E0CE01D6
:1057B00001960E944E67009789F325EEFC01208335
:1057C0001C820E94ED61F82ECE0101960E94E03FFE
:1057D000FF2011F1EDE2F4E084917F012FEFE21A56
:1057E000F20A882321F00E94FA3FF701F5CFD80191
:1057F0008D918D01882319F00E94FA3FF8CF8AE03D
:105800000E94FA3F1092670A1092680A1092690A81
:1058100010926A0A0C94CF36EBE3F4E084917F0196
:10582000BFEFEB1AFB0A882321F00E94FA3FF70131
:10583000F5CFF80181918F01882319F00E94FA3F7A
:10584000F8CF8EE20E94FA3F0C94CF368091C707C2
:1058500081110E949CC88091C807882311F40C9480
:10586000CF3680E50E94143F882319F00E94873EBE
:1058700003C080E50E94CD3E182F482F61E0809143
:105880009815909199150E940ACB83E50E94143FC8
:10589000882381F00E94663EAB01BC014093670AF9
:1058A0005093680A6093690A70936A0A86EB99E0DC
:1058B0000E94DE648091C807882319F081E08093FC
:1058C000C70711110C94CF360F94C9100C94CF3622
:1058D00080818F3209F410823196CF018C199D0995
:1058E00088159905ACF36AE178E0CE0180960E94B4
:1058F000C361E12CF12C4DE2642E43E0742E5BE198
:10590000552EE814F9040CF09FC0F601EE0DFF1DB2
:105910008081811103C0FFEFEF1AFF0A86010E0D8F
:105920001F1DD8018C91882309F48EC0BFEFEB1A9C
:10593000FB0AF601EE0DFF1D80818111F7CF40E0DB
:1059400050E0BA01CE0184960E94DE64BE01605E22
:105950007F4FCE0101960E94C361A801BE016F5F17
:105960007F4F80E090E00E948AB5CE0101960E94B0
:10597000F5558FE20E94FA3F8091D707882319F0EE
:1059800087ED97E002C085E593E05C01F501819128
:105990005F01882319F00E94FA3FF8CF8091C90770
:1059A000882309F451C01D8218861C821B827A82CA
:1059B000698221E0A801BE016C5D7F4FCE01059692
:1059C0000E941A6B81112AC08AE00E94FA3FEFE51B
:1059D000F3E284917F012FEFE21AF20A882321F08B
:1059E0000E94FA3FF701F5CFE3E5F4E084917F01EF
:1059F0003FEFE31AF30A882321F00E94FA3FF701F0
:105A0000F5CFD8018D918D01882319F00E94FA3FBE
:105A1000F8CFCE0101960E94F55516C0CE018496AE
:105A20000E942A69FE013596DE019496852D01902B
:105A30000D928A95E1F78B819C819BA38AA3CE016D
:105A400001960E94F5555DCF8AE00E94FA3FCE0193
:105A500080960E94F5550C94CF36809198159091C0
:105A6000991521E02093C60740E060E00E940ACB30
:105A70000C94CF360F94F62068A379A38AA39BA336
:105A8000BE016F5F7F4FCE0180960E94203F60E095
:105A9000CE0101960E94FCF9EFE5F3E284918F01BB
:105AA0000F5F1F4F882321F00E94FA3FF801F6CFC5
:105AB000BE016F5F7F4F87E694E00F9431108AE05C
:105AC0000E94FA3F0C94CF3683E50E94143F88234E
:105AD00011F40C94CF360E94763EE82E80E50E94A9
